{
  "abi": [
    {
      "anonymous": false,
      "inputs": [
        {
          "indexed": true,
          "internalType": "address",
          "name": "previousOwner",
          "type": "address"
        },
        {
          "indexed": true,
          "internalType": "address",
          "name": "newOwner",
          "type": "address"
        }
      ],
      "name": "OwnershipTransferred",
      "type": "event"
    },
    {
      "inputs": [
        {
          "internalType": "uint256",
          "name": "_region",
          "type": "uint256"
        },
        {
          "internalType": "uint256[]",
          "name": "_cinemaIds",
          "type": "uint256[]"
        },
        {
          "internalType": "bytes32[]",
          "name": "_names",
          "type": "bytes32[]"
        },
        {
          "internalType": "uint256[]",
          "name": "_studiosAmounts",
          "type": "uint256[]"
        },
        {
          "internalType": "uint256[][]",
          "name": "_studioCapacities",
          "type": "uint256[][]"
        }
      ],
      "name": "addCinemas",
      "outputs": [],
      "stateMutability": "nonpayable",
      "type": "function"
    },
    {
      "inputs": [
        {
          "internalType": "uint256",
          "name": "_region",
          "type": "uint256"
        },
        {
          "internalType": "uint256",
          "name": "_cinema",
          "type": "uint256"
        },
        {
          "internalType": "uint256[]",
          "name": "_movies",
          "type": "uint256[]"
        }
      ],
      "name": "addMoviesToCinema",
      "outputs": [],
      "stateMutability": "nonpayable",
      "type": "function"
    },
    {
      "inputs": [
        {
          "internalType": "uint256[]",
          "name": "_movies",
          "type": "uint256[]"
        },
        {
          "internalType": "uint256",
          "name": "_region",
          "type": "uint256"
        },
        {
          "internalType": "uint256",
          "name": "_cinema",
          "type": "uint256"
        },
        {
          "internalType": "uint256",
          "name": "_studio",
          "type": "uint256"
        },
        {
          "internalType": "uint256[]",
          "name": "_showTimes",
          "type": "uint256[]"
        }
      ],
      "name": "addMoviesToStudio",
      "outputs": [],
      "stateMutability": "nonpayable",
      "type": "function"
    },
    {
      "inputs": [
        {
          "internalType": "uint256",
          "name": "_region",
          "type": "uint256"
        },
        {
          "internalType": "uint256",
          "name": "_cinema",
          "type": "uint256"
        },
        {
          "internalType": "uint256[]",
          "name": "_showTimes",
          "type": "uint256[]"
        }
      ],
      "name": "addShowTimes",
      "outputs": [],
      "stateMutability": "nonpayable",
      "type": "function"
    },
    {
      "inputs": [
        {
          "internalType": "uint256",
          "name": "_region",
          "type": "uint256"
        },
        {
          "internalType": "uint256",
          "name": "_cinema",
          "type": "uint256"
        },
        {
          "internalType": "uint256",
          "name": "_studio",
          "type": "uint256"
        },
        {
          "internalType": "uint256[]",
          "name": "_showTimes",
          "type": "uint256[]"
        }
      ],
      "name": "addStudioShowTimes",
      "outputs": [],
      "stateMutability": "nonpayable",
      "type": "function"
    },
    {
      "inputs": [
        {
          "internalType": "uint256",
          "name": "_region",
          "type": "uint256"
        },
        {
          "internalType": "uint256",
          "name": "_cinema",
          "type": "uint256"
        },
        {
          "internalType": "uint256",
          "name": "_showTime",
          "type": "uint256"
        }
      ],
      "name": "checkShowTime",
      "outputs": [
        {
          "internalType": "bool",
          "name": "result",
          "type": "bool"
        }
      ],
      "stateMutability": "view",
      "type": "function"
    },
    {
      "inputs": [
        {
          "internalType": "uint256",
          "name": "_region",
          "type": "uint256"
        },
        {
          "internalType": "uint256",
          "name": "_cinema",
          "type": "uint256"
        },
        {
          "internalType": "uint256",
          "name": "_studio",
          "type": "uint256"
        },
        {
          "internalType": "uint256",
          "name": "_showTime",
          "type": "uint256"
        }
      ],
      "name": "checkStudioShowTime",
      "outputs": [
        {
          "internalType": "bool",
          "name": "result",
          "type": "bool"
        }
      ],
      "stateMutability": "view",
      "type": "function"
    },
    {
      "inputs": [
        {
          "internalType": "uint256",
          "name": "",
          "type": "uint256"
        },
        {
          "internalType": "uint256",
          "name": "",
          "type": "uint256"
        }
      ],
      "name": "cinemaToDetails",
      "outputs": [
        {
          "internalType": "uint16",
          "name": "cinemaId",
          "type": "uint16"
        },
        {
          "internalType": "bytes32",
          "name": "name",
          "type": "bytes32"
        },
        {
          "internalType": "uint8",
          "name": "studiosAmount",
          "type": "uint8"
        },
        {
          "internalType": "uint8",
          "name": "moviesAmount",
          "type": "uint8"
        },
        {
          "internalType": "uint8",
          "name": "showTimesAmount",
          "type": "uint8"
        }
      ],
      "stateMutability": "view",
      "type": "function"
    },
    {
      "inputs": [
        {
          "internalType": "uint256",
          "name": "_region",
          "type": "uint256"
        },
        {
          "internalType": "uint256[]",
          "name": "_cinemaIds",
          "type": "uint256[]"
        }
      ],
      "name": "deleteCinemas",
      "outputs": [],
      "stateMutability": "nonpayable",
      "type": "function"
    },
    {
      "inputs": [
        {
          "internalType": "uint256",
          "name": "_region",
          "type": "uint256"
        },
        {
          "internalType": "uint256",
          "name": "_cinema",
          "type": "uint256"
        },
        {
          "internalType": "uint256[]",
          "name": "_movies",
          "type": "uint256[]"
        }
      ],
      "name": "deleteMoviesInCinema",
      "outputs": [],
      "stateMutability": "nonpayable",
      "type": "function"
    },
    {
      "inputs": [
        {
          "internalType": "uint256",
          "name": "_region",
          "type": "uint256"
        },
        {
          "internalType": "uint256",
          "name": "_cinema",
          "type": "uint256"
        },
        {
          "internalType": "uint256",
          "name": "_studio",
          "type": "uint256"
        },
        {
          "internalType": "uint256[]",
          "name": "_showTimes",
          "type": "uint256[]"
        }
      ],
      "name": "deleteMoviesInStudio",
      "outputs": [],
      "stateMutability": "nonpayable",
      "type": "function"
    },
    {
      "inputs": [
        {
          "internalType": "uint256",
          "name": "_region",
          "type": "uint256"
        },
        {
          "internalType": "uint256",
          "name": "_cinema",
          "type": "uint256"
        },
        {
          "internalType": "uint256",
          "name": "_showTime",
          "type": "uint256"
        }
      ],
      "name": "deleteShowTime",
      "outputs": [],
      "stateMutability": "nonpayable",
      "type": "function"
    },
    {
      "inputs": [
        {
          "internalType": "uint256",
          "name": "_region",
          "type": "uint256"
        },
        {
          "internalType": "uint256",
          "name": "_cinema",
          "type": "uint256"
        }
      ],
      "name": "getCinemaDetails",
      "outputs": [
        {
          "internalType": "bytes32",
          "name": "name",
          "type": "bytes32"
        },
        {
          "internalType": "uint256",
          "name": "studiosAmount",
          "type": "uint256"
        },
        {
          "internalType": "uint256",
          "name": "moviesAmount",
          "type": "uint256"
        },
        {
          "internalType": "uint256",
          "name": "showTimesAmount",
          "type": "uint256"
        },
        {
          "internalType": "uint256[]",
          "name": "showTimes",
          "type": "uint256[]"
        },
        {
          "internalType": "uint256[][]",
          "name": "studioShowTimes",
          "type": "uint256[][]"
        },
        {
          "internalType": "uint256[]",
          "name": "studiosCapacities",
          "type": "uint256[]"
        }
      ],
      "stateMutability": "view",
      "type": "function"
    },
    {
      "inputs": [
        {
          "internalType": "uint256",
          "name": "_region",
          "type": "uint256"
        },
        {
          "internalType": "uint256",
          "name": "_cinema",
          "type": "uint256"
        }
      ],
      "name": "getCinemaMovies",
      "outputs": [
        {
          "internalType": "uint256[]",
          "name": "movies",
          "type": "uint256[]"
        }
      ],
      "stateMutability": "view",
      "type": "function"
    },
    {
      "inputs": [
        {
          "internalType": "uint256",
          "name": "_region",
          "type": "uint256"
        },
        {
          "internalType": "uint256",
          "name": "_cinema",
          "type": "uint256"
        }
      ],
      "name": "getCinemaMoviesAmount",
      "outputs": [
        {
          "internalType": "uint256",
          "name": "amount",
          "type": "uint256"
        }
      ],
      "stateMutability": "view",
      "type": "function"
    },
    {
      "inputs": [
        {
          "internalType": "uint256",
          "name": "_region",
          "type": "uint256"
        },
        {
          "internalType": "uint256",
          "name": "_cinema",
          "type": "uint256"
        }
      ],
      "name": "getCinemaShowTimes",
      "outputs": [
        {
          "internalType": "uint256[]",
          "name": "showTimes",
          "type": "uint256[]"
        }
      ],
      "stateMutability": "view",
      "type": "function"
    },
    {
      "inputs": [
        {
          "internalType": "uint256",
          "name": "_region",
          "type": "uint256"
        },
        {
          "internalType": "uint256",
          "name": "_cinema",
          "type": "uint256"
        }
      ],
      "name": "getCinemaStudioCapacities",
      "outputs": [
        {
          "internalType": "uint256[]",
          "name": "capacities",
          "type": "uint256[]"
        }
      ],
      "stateMutability": "view",
      "type": "function"
    },
    {
      "inputs": [
        {
          "internalType": "uint256",
          "name": "_region",
          "type": "uint256"
        },
        {
          "internalType": "uint256",
          "name": "_cinema",
          "type": "uint256"
        },
        {
          "internalType": "uint256",
          "name": "_movie",
          "type": "uint256"
        }
      ],
      "name": "getMovieShowTimesInCinema",
      "outputs": [
        {
          "internalType": "uint256[][]",
          "name": "movieShowTimes",
          "type": "uint256[][]"
        }
      ],
      "stateMutability": "view",
      "type": "function"
    },
    {
      "inputs": [
        {
          "internalType": "uint256",
          "name": "_region",
          "type": "uint256"
        },
        {
          "internalType": "uint256",
          "name": "_movie",
          "type": "uint256"
        }
      ],
      "name": "getMovieShowTimesInRegion",
      "outputs": [
        {
          "internalType": "uint256[]",
          "name": "cinemas",
          "type": "uint256[]"
        },
        {
          "internalType": "uint256[][][]",
          "name": "movieShowTimes",
          "type": "uint256[][][]"
        }
      ],
      "stateMutability": "view",
      "type": "function"
    },
    {
      "inputs": [
        {
          "internalType": "uint256",
          "name": "_region",
          "type": "uint256"
        },
        {
          "internalType": "uint256",
          "name": "_cinema",
          "type": "uint256"
        },
        {
          "internalType": "uint256",
          "name": "_movie",
          "type": "uint256"
        },
        {
          "internalType": "uint256",
          "name": "_studio",
          "type": "uint256"
        }
      ],
      "name": "getMovieShowTimesInStudio",
      "outputs": [
        {
          "internalType": "uint256[]",
          "name": "movieShowTimes",
          "type": "uint256[]"
        }
      ],
      "stateMutability": "view",
      "type": "function"
    },
    {
      "inputs": [
        {
          "internalType": "uint256",
          "name": "_region",
          "type": "uint256"
        }
      ],
      "name": "getMoviesInRegion",
      "outputs": [
        {
          "internalType": "uint256[][]",
          "name": "moviesInRegion",
          "type": "uint256[][]"
        }
      ],
      "stateMutability": "view",
      "type": "function"
    },
    {
      "inputs": [
        {
          "internalType": "uint256",
          "name": "_region",
          "type": "uint256"
        },
        {
          "internalType": "uint256",
          "name": "_cinema",
          "type": "uint256"
        },
        {
          "internalType": "uint256",
          "name": "_studio",
          "type": "uint256"
        }
      ],
      "name": "getMoviesInStudio",
      "outputs": [
        {
          "internalType": "uint256[]",
          "name": "moviesInStudio",
          "type": "uint256[]"
        }
      ],
      "stateMutability": "view",
      "type": "function"
    },
    {
      "inputs": [
        {
          "internalType": "uint256",
          "name": "_region",
          "type": "uint256"
        },
        {
          "internalType": "uint256",
          "name": "_cinema",
          "type": "uint256"
        },
        {
          "internalType": "uint256",
          "name": "_studio",
          "type": "uint256"
        }
      ],
      "name": "getStudioCapacity",
      "outputs": [
        {
          "internalType": "uint256",
          "name": "capacity",
          "type": "uint256"
        }
      ],
      "stateMutability": "view",
      "type": "function"
    },
    {
      "inputs": [
        {
          "internalType": "uint256",
          "name": "_region",
          "type": "uint256"
        },
        {
          "internalType": "uint256",
          "name": "_cinema",
          "type": "uint256"
        },
        {
          "internalType": "uint256",
          "name": "_studio",
          "type": "uint256"
        }
      ],
      "name": "getStudioShowTimes",
      "outputs": [
        {
          "internalType": "uint256[]",
          "name": "showTimes",
          "type": "uint256[]"
        }
      ],
      "stateMutability": "view",
      "type": "function"
    },
    {
      "inputs": [
        {
          "internalType": "uint256",
          "name": "_region",
          "type": "uint256"
        },
        {
          "internalType": "uint256",
          "name": "_cinema",
          "type": "uint256"
        }
      ],
      "name": "getStudiosShowTimes",
      "outputs": [
        {
          "internalType": "uint256[][]",
          "name": "showTimes",
          "type": "uint256[][]"
        }
      ],
      "stateMutability": "view",
      "type": "function"
    },
    {
      "inputs": [],
      "name": "owner",
      "outputs": [
        {
          "internalType": "address",
          "name": "",
          "type": "address"
        }
      ],
      "stateMutability": "view",
      "type": "function"
    },
    {
      "inputs": [],
      "name": "renounceOwnership",
      "outputs": [],
      "stateMutability": "nonpayable",
      "type": "function"
    },
    {
      "inputs": [
        {
          "internalType": "address",
          "name": "_rolesContractAddress",
          "type": "address"
        },
        {
          "internalType": "address",
          "name": "_movieContractAddress",
          "type": "address"
        },
        {
          "internalType": "address",
          "name": "_regionContractAddress",
          "type": "address"
        }
      ],
      "name": "setInterface",
      "outputs": [],
      "stateMutability": "nonpayable",
      "type": "function"
    },
    {
      "inputs": [
        {
          "internalType": "address",
          "name": "newOwner",
          "type": "address"
        }
      ],
      "name": "transferOwnership",
      "outputs": [],
      "stateMutability": "nonpayable",
      "type": "function"
    },
    {
      "inputs": [
        {
          "internalType": "uint256[]",
          "name": "_movies",
          "type": "uint256[]"
        },
        {
          "internalType": "uint256",
          "name": "_region",
          "type": "uint256"
        },
        {
          "internalType": "uint256",
          "name": "_cinema",
          "type": "uint256"
        },
        {
          "internalType": "uint256",
          "name": "_studio",
          "type": "uint256"
        },
        {
          "internalType": "uint256[]",
          "name": "_showTimes",
          "type": "uint256[]"
        }
      ],
      "name": "updateMoviesToStudio",
      "outputs": [],
      "stateMutability": "nonpayable",
      "type": "function"
    }
  ],
  "bytecode": {
    "object": "0x6080806040523461005b5760008054336001600160a01b0319821681178355916001600160a01b03909116907f8be0079c531659141344cd1fd0a4f28419497f9722a3daafe3b4186f6b6457e09084a36129d690816100618239f35b600080fdfe60806040526004361015610013575b600080fd5b60003560e01c8063088c70351461026b5780630de659061461026257806312d53303146102595780633c23ef0d146102505780633cc59ec214610247578063484901481461023e578063495abb00146102355780635a7bb8621461022c5780635d79a65714610223578063653d3e4e1461021a5780636cc3cccf146102115780636e7da6fb14610208578063715018a6146101ff5780637b4b20b8146101f65780637f3b6f1a146101ed5780638da5cb5b146101e4578063a06800ce146101db578063a29fd36e146101d2578063accd55a1146101c9578063b4df5938146101c0578063c12774a5146101b7578063c172aa25146101ae578063cf4915c2146101a5578063d7810e0c1461019c578063d7f603b014610193578063e265b7d41461018a578063e77f274514610181578063eec4719714610178578063f2fde38b1461016f5763f6a4a6de1461016757600080fd5b61000e6118be565b5061000e6117f5565b5061000e611644565b5061000e61158b565b5061000e61154b565b5061000e611528565b5061000e61150d565b5061000e61142d565b5061000e61140a565b5061000e611282565b5061000e611264565b5061000e6111ea565b5061000e611165565b5061000e610fff565b5061000e610fd5565b5061000e610f08565b5061000e610e0e565b5061000e610cb9565b5061000e610ad5565b5061000e610a81565b5061000e610a2c565b5061000e61097c565b5061000e6108ed565b5061000e6108ca565b5061000e61089b565b5061000e610812565b5061000e610726565b5061000e61054b565b5061000e610318565b5061000e61028e565b606090600319011261000e57600435906024359060443590565b503461000e5760206102a86102a236610274565b9161269e565b6040519015158152f35b9181601f8401121561000e578235916001600160401b03831161000e576020808501948460051b01011161000e57565b606060031982011261000e576004359160243591604435906001600160401b03821161000e57610314916004016102b2565b9091565b503461000e57610327366102e2565b60015460408051635bfaf17960e01b81526004808201889052602482018790523360448301529196939593926020916103d7916001600160a01b039161038e918590829085168180606481015b03915afa9081156104ec575b6000916104cf575b50611e5a565b600354168289518092630322506f60e61b825281806103bd8b8b8b840160209093929193604081019481520152565b03915afa9081156104c2575b6000916104a5575b50611ea6565b6002546000906103f7906001600160a01b03165b6001600160a01b031690565b905b8781106104125760008961040f8a8a8a8a612576565b51f35b8061046161044685610428610466958d8d611ef2565b358d5180938192636acd538f60e01b83528b83019190602083019252565b0381885afa908115610498575b60009161046b575b50611f56565b611b7d565b6103f9565b61048b9150863d8811610491575b6104838183611aed565b810190611e35565b3861045b565b503d610479565b6104a0611e4d565b610453565b6104bc9150833d8511610491576104838183611aed565b386103d1565b6104ca611e4d565b6103c9565b6104e69150853d8711610491576104838183611aed565b38610388565b6104f4611e4d565b610380565b60a060031982011261000e576001600160401b039160043583811161000e5782610525916004016102b2565b9390939260243592604435926064359260843591821161000e57610314916004016102b2565b503461000e5761055a366104f9565b60015460408051635bfaf17960e01b8152600480820189905260248201889052336044830152939991989497959695949391926020916105e1916001600160a01b03916105b291859082908516818060648101610374565b60035416828b518092630322506f60e61b825281806103bd8d8d8b840160209093929193604081019481520152565b8760005b8b80821061065d57505060025460009150610608906001600160a01b03166103eb565b905b8581106106235760008b61040f8e8d8d8d8d8d8d611f99565b80610461610446858e61063a610658968c8c611ef2565b35905180938192636acd538f60e01b83528b83019190602083019252565b61060a565b61067a610671836104619361067f96611ef2565b358b8b8b6126e8565b611f0a565b88906105e5565b908082519081815260208091019281808460051b830101950193600080925b8584106106b6575050505050505090565b9091929380959697601f1983820301855288519082808351928381520192019085905b8082106106f95750505090806001929901940194019295949391906106a5565b91938060019294865181520194019201889392916106d9565b906020610723928181520190610686565b90565b503461000e57602036600319011261000e5760035460043590610751906001600160a01b03166103eb565b60405163d83ff2d360e01b81526004810183905290600090829060249082905afa908115610805575b6000916107e4575b5061078d8151611d7e565b9160005b82518110156107d257806107b26107ab6107cd9386611bcc565b518461291f565b6107bc8287611bcc565b526107c78186611bcc565b50611b7d565b610791565b604051806107e08682610712565b0390f35b6107ff913d8091833e6107f78183611aed565b81019061272d565b38610782565b61080d611e4d565b61077a565b503461000e57604036600319011261000e5760043560005260046020526040600020602435600052602052602060ff60026040600020015460081c16604051908152f35b90815180825260208080930193019160005b828110610876575050505090565b835185529381019392810192600101610868565b906020610723928181520190610856565b503461000e576107e06108b66108b036610274565b91611cfd565b604051918291602083526020830190610856565b503461000e57604036600319011261000e576107e06108b6602435600435611c78565b503461000e5760a036600319011261000e576001600160401b0360243581811161000e5761091f9036906004016102b2565b9060443583811161000e576109389036906004016102b2565b9060643585811161000e576109519036906004016102b2565b92909160843596871161000e5761096f61097a9736906004016102b2565b96909560043561216e565b005b503461000e5761098b36610274565b60009291928281526109bc602092600484526040958684208185528552600587852001828552855286842095611cfd565b926109c78451611b34565b926002839201915b8551811015610a1f57806109e6610a1a9288611bcc565b51855283835287852054610a0a906001600160401b03165b6001600160401b031690565b610a148288611bcc565b52611b7d565b6109cf565b8651806107e0878261088a565b503461000e57604036600319011261000e576107e0610a4f602435600435611dc8565b604051918291602083526020830190610686565b608090600319011261000e5760043590602435906044359060643590565b503461000e5760206102a8610a9536610a63565b929190916126e8565b90608060031983011261000e57600435916024359160443591606435906001600160401b03821161000e57610314916004016102b2565b503461000e57610ae436610a9e565b60015460408051635bfaf17960e01b815260048101889052602481018790523360448201529396909592949360209392610b87916001600160a01b0391610b48919087908290606490829087165afa908115610ca1575b600091610c8a5750611e5a565b6003548851630322506f60e61b8152600481018590526024810186905291869183916044918391165afa908115610c7d575b600091610c665750611ea6565b60005260048252846000209060005281526005846000200191600052528160002092610bc1610bbb855460ff9060101c1690565b60ff1690565b90610bcb82611b99565b60009060018701905b858310610c065760008761040f8a610bef610bbb8b8b611ba9565b62ff000082549160101b169062ff00001916179055565b610c5a610c6091610461610c2b610c1e878b8a611ef2565b356001600160401b031690565b610c3f838790600052602052604060002090565b906001600160401b03166001600160401b0319825416179055565b92611b7d565b91610bd4565b6104bc9150853d8711610491576104838183611aed565b610c85611e4d565b610b7a565b6104e69150873d8911610491576104838183611aed565b610ca9611e4d565b610b3b565b600091031261000e57565b503461000e57600080600319360112610d1857610cd4611a5e565b80546001600160a01b0319811682556040519082906001600160a01b03167f8be0079c531659141344cd1fd0a4f28419497f9722a3daafe3b4186f6b6457e08284a3f35b80fd5b90610d2e90604083526040830190610856565b9060209081818403910152825190818352808301600590828085841b8701019601946000925b858410610d65575050505050505090565b9091929394959685601f1980858403018652895192835180825283820191848083891b8301019601936000905b838210610db45750505050505080600192990194019401929594939190610d54565b91939590929496828582030187528751908280835192838152019201906000905b808210610df55750505090806001929801960192018b9594929391610d92565b919380600192948651815201940192018e939291610dd5565b503461000e57604036600319011261000e576003546004359060243590610e3d906001600160a01b03166103eb565b60405163d83ff2d360e01b8152600481018490529190600090839060249082905afa918215610efb575b600092610ee0575b50610e7a8251611b34565b92610e858351611d7e565b9360005b8451811015610ed15780610eb785610ea4610ecc9489611bcc565b5180610eb08588611bcc565b52866127a6565b610ec18289611bcc565b526107c78188611bcc565b610e89565b604051806107e0888583610d1b565b610ef491923d8091833e6107f78183611aed565b9038610e6f565b610f03611e4d565b610e67565b503461000e57610f17366102e2565b9160018060a01b039361038e8560015416610f606040978851938480946317eaa0ff60e21b8252602095869160049889915afa908115610fc8575b600091610fab575b50612122565b600254600090610f78906001600160a01b03166103eb565b905b878110610f905760008961040f8a8a8a8a6124cf565b8061046161044685610428610fa6958d8d611ef2565b610f7a565b610fc29150853d8711610491576104838183611aed565b38610f5a565b610fd0611e4d565b610f52565b503461000e57600036600319011261000e576000546040516001600160a01b039091168152602090f35b503461000e57604036600319011261000e576004356024356001600160401b03811161000e576110339036906004016102b2565b6001546040516317eaa0ff60e21b815292939261107491602090829060049082906001600160a01b03165afa908115611158575b6000916111405750612122565b60005b8181106110f15750600354611094906001600160a01b03166103eb565b803b1561000e576110c0936000809460405196879586948593630948087960e11b8552600485016123bf565b03925af180156110e4575b6110d157005b806110de61097a92611acd565b80610cae565b6110ec611e4d565b6110cb565b61113b9061046161112961110f866000526004602052604060002090565b61111a84878a611ef2565b35600052602052604060002090565b60026000918281558260018201550155565b611077565b610fc2915060203d8111610491576104838183611aed565b611160611e4d565b611067565b503461000e57604036600319011261000e576004356000526004602052604060002060243560005260205260a0604060002060ff61ffff82541691600260018201549101549060405193845260208401528181166040840152818160081c16606084015260101c166080820152f35b600435906001600160a01b038216820361000e57565b503461000e57606036600319011261000e576112046111d4565b6001600160a01b03906024358281169081900361000e576044359280841680940361000e57611231611a5e565b6bffffffffffffffffffffffff60a01b921682600154161760015581600254161760025560035416176003556000604051f35b503461000e576107e06108b661127936610a63565b9291909161282b565b503461000e57611291366102e2565b600154604051635bfaf17960e01b81526004810186905260248101859052336044820152919391602091611323916001600160a01b03916112de9190859082908516818060648101610374565b600354604051630322506f60e61b8152600481018990526024810186905291849183916044918391165afa9081156113fd575b6000916113e0575b5095939495611ea6565b82600052600481526040600020908260005252604060002091600283019361135260ff865460101c1660ff1690565b95600460009501925b81861061137957865462ff00001916601089901b62ff000016178755005b9091929394966113b06113d6916113ab6113a66113a261139a8d898b611ef2565b358b8861269e565b1590565b6123f3565b611b99565b976104616113c2610c1e838789611ef2565b610c3f8b8990600052602052604060002090565b949392919061135b565b6113f79150833d8511610491576104838183611aed565b38611319565b611405611e4d565b611311565b503461000e57604036600319011261000e576107e06108b660243560043561291f565b503461000e5761143c366104f9565b60015460408051635bfaf17960e01b815260048082018990526024820188905233604483015293999198949795969594939192602091611494916001600160a01b03916105b291859082908516818060648101610374565b8760005b8b8082106114f2575050600254600091506114bb906001600160a01b03166103eb565b905b8581106114d65760008b61040f8e8d8d8d8d8d8d61208b565b80610461610446858e61063a6114ed968c8c611ef2565b6114bd565b61067a610671836104619361150696611ef2565b8890611498565b503461000e576107e0610a4f61152236610274565b916127a6565b503461000e57604036600319011261000e576107e06108b6602435600435611bee565b503461000e57602060ff604061156036610274565b9060009283526004865283832090835285526005838320019082528452205460081c16604051908152f35b503461000e57604036600319011261000e576004356024358160005260046020526040600020816000526020526107e060406000209161163660026001850154940154946116286115f06115df8584611bee565b946115ea8185611dc8565b93611c78565b9360ff604051988998895281811660208a0152818160081c1660408a015260101c16606088015260e0608088015260e0870190610856565b9085820360a0870152610686565b9083820360c0850152610856565b503461000e5761165336610274565b600154604051635bfaf17960e01b815260048101859052602481018490523360448201526020916116cc916001600160a01b039161169d9190859082908516818060648101610374565b600354604051630322506f60e61b815260048101889052602481018790529184918391168180604481016103bd565b6116d782848661269e565b156117b15750610bbb836117ac61179b610bef94611784600461173b61171d8a61170e61097a9d6000526004602052604060002090565b90600052602052604060002090565b93600285019a611735610bbb8d5460ff9060101c1690565b9861245c565b920191610c3f6117736109fe6109fe6117666117568b61243f565b8890600052602052604060002090565b546001600160401b031690565b918490600052602052604060002090565b61178d8461243f565b600052602052604060002090565b805467ffffffffffffffff19169055565b61243f565b6064906040519062461bcd60e51b82526004820152601860248201527f53686f772074696d6520646f6573206e6f7420657869737400000000000000006044820152fd5b503461000e57602036600319011261000e5761180f6111d4565b611817611a5e565b6001600160a01b0390811690811561186a57600080546001600160a01b031981168417825560405191939192167f8be0079c531659141344cd1fd0a4f28419497f9722a3daafe3b4186f6b6457e08484a3f35b60405162461bcd60e51b815260206004820152602660248201527f4f776e61626c653a206e6577206f776e657220697320746865207a65726f206160448201526564647265737360d01b6064820152608490fd5b503461000e576118cd36610a9e565b60015460408051635bfaf17960e01b81526004810188905260248101879052336044820152909692959394602094909390929091611977916001600160a01b03916119349188908290606490829087165afa908115611a51575b600091611a3a5750611e5a565b6003548951630322506f60e61b8152600481018590526024810186905291879183916044918391165afa908115611a2d575b600091611a10575b50969596611ea6565b60005b8581106119e857506000526004835285600020906000528252600585600020019060005281528360002091600260009301925b8181106119b657005b806119c56119e3928488611ef2565b35600052848452866000206001600160401b03198154169055611b7d565b6119ad565b8061046161067a6119ff611a08948a8c9b9c611ef2565b358787876126e8565b95949561197a565b611a279150863d8811610491576104838183611aed565b3861196e565b611a35611e4d565b611966565b6104e69150883d8a11610491576104838183611aed565b611a59611e4d565b611927565b6000546001600160a01b03163303611a7257565b606460405162461bcd60e51b815260206004820152602060248201527f4f776e61626c653a2063616c6c6572206973206e6f7420746865206f776e65726044820152fd5b50634e487b7160e01b600052604160045260246000fd5b6001600160401b038111611ae057604052565b611ae8611ab6565b604052565b90601f801991011681019081106001600160401b03821117611ae057604052565b6020906001600160401b038111611b27575b60051b0190565b611b2f611ab6565b611b20565b90611b3e82611b0e565b611b4b6040519182611aed565b8281528092611b5c601f1991611b0e565b0190602036910137565b50634e487b7160e01b600052601160045260246000fd5b6001906000198114611b8d570190565b611b95611b66565b0190565b6001906001198111611b8d570190565b81198111611b8d570190565b50634e487b7160e01b600052603260045260246000fd5b6020918151811015611be1575b60051b010190565b611be9611bb5565b611bd9565b91909160009081526020926004845260409081832090835284528082209160ff600284015460101c1692611c2184611b34565b956004839201915b858110611c3857505050505050565b611c66906001198111611c6b575b6001810185528383526001600160401b038686205416610a14828b611bcc565b611c29565b611c73611b66565b611c46565b919060009283526020926004845260409182822090825284528181209160ff918260028501541693611ca985611b34565b966005839201915b868110611cc15750505050505050565b611ceb906001198111611cf0575b600181018552838352868686205460081c16610a14828c611bcc565b611cb1565b611cf8611b66565b611ccf565b90929192600091825260209360048552604091828420908452855260058284200190835284528082209160ff835460101c1692611d3984611b34565b956001839201915b858110611d5057505050505050565b80611d5d611d7992611b99565b85528383526001600160401b038686205416610a14828b611bcc565b611d41565b90611d8882611b0e565b611d956040519182611aed565b8281528092611da6601f1991611b0e565b019060005b828110611db757505050565b806060602080938501015201611dab565b91909180600052600460205260406000208360005260205260ff6002604060002001541690611df682611d7e565b9360005b838110611e075750505050565b611e23906001198111611e28575b610eb7600182018486611cfd565b611dfa565b611e30611b66565b611e15565b9081602091031261000e5751801515810361000e5790565b506040513d6000823e3d90fd5b15611e6157565b60405162461bcd60e51b815260206004820152601960248201527f596f75277265206e6f7420612063696e656d612061646d696e000000000000006044820152606490fd5b15611ead57565b60405162461bcd60e51b815260206004820152601a60248201527f43696e656d61206f7220526567696f6e206e6f742065786973740000000000006044820152606490fd5b9190811015611f025760051b0190565b611b2f611bb5565b15611f1157565b60405162461bcd60e51b815260206004820152601760248201527f53686f7774696d6520646f6573206e6f742065786973740000000000000000006044820152606490fd5b15611f5d57565b60405162461bcd60e51b8152602060048201526014602482015273135bdd9a5948191bd95cc81b9bdd08195e1a5cdd60621b6044820152606490fd5b909194959293600095865260049060209082825260409687892090895282526005878920019088528152858720956002889701965b868110611fe15750505050505050505050565b611fec81888c611ef2565b3589528783526001600160401b03828a20541661203d57806104618b610c3f612027848c612021610c1e612038998f8f611ef2565b94611ef2565b358c90600052602052604060002090565b611fce565b505162461bcd60e51b8152918201526024808201527f4d6f76696520616c726561647920657869737420696e20746869732073686f7760448201526374696d6560e01b606482015260849150fd5b949396959660009283526020906004825260409485852090855282526005858520019084528152838320916002849301925b8981106120d05750505050505050509050565b806104618b6120f9836001600160401b036120f061211d978f8a90611ef2565b3516928c611ef2565b358852868652888820906001600160401b03166001600160401b0319825416179055565b6120bd565b1561212957565b60405162461bcd60e51b815260206004820152601860248201527f596f75277265206e6f7420612073757065722061646d696e00000000000000006044820152606490fd5b9693979097959491956001906121b26004602060018060a01b03855416604051928380926317eaa0ff60e21b82525afa908115611158576000916111405750612122565b60005b898b8a80841061223b5750506003546121e199506001600160a01b031697506103eb9650505050505050565b803b1561000e5761220d936000809460405196879586948593631f41d06f60e11b8552600485016123bf565b03925af1801561222e575b61221f5750565b806110de61222c92611acd565b565b612236611e4d565b612218565b889161111a856122619361225b8f98976000526004602052604060002090565b93611ef2565b600581018660008c8a8c845b6122dc575b505050506122cb91506122b4856122d797856122bb946122aa848d60026104619c9b019a6122a58c61ff00198154169055565b611ef2565b359101558c611ef2565b3560ff1690565b825460ff191660ff909116178255565b805462ff000019169055565b6121b5565b888a6122ef929993949596979899611ef2565b3584101561235f5750869750906123396122b48461233361234e9798999a6104619661232d61231d85611b99565b8d90600052602052604060002090565b9661236d565b90611ef2565b61ff0082549160081b169061ff001916179055565b91818a938c8a8f9897958d9061226d565b95945083925081908c612272565b91908110156123b2575b60051b81013590601e198136030182121561000e5701908135916001600160401b03831161000e576020018260051b3603811361000e579190565b6123ba611bb5565b612377565b90815260406020820181905281018390526001600160fb1b03831161000e5760609260051b80928483013701016000815290565b156123fa57565b60405162461bcd60e51b815260206004820152601760248201527f53686f772074696d6520616c72656164792065786973740000000000000000006044820152606490fd5b6001811061244f575b6000190190565b612457611b66565b612448565b909291600093600092835260209260048452604091828220908252845281812060ff600282015460101c16946004839201915b86811061249f5750505050505050565b808452828252856001600160401b038686205416146124c7575b6124c290611b7d565b61248f565b9750876124b9565b92600093845260209260048452604092838620908652845282852092600284019560ff875460081c16956003829601905b85871061252b57505050505050509060ff61222c921661ff0082549160081b169061ff001916179055565b90919293949596600161255e9181198111612569575b019761254e818989611ef2565b3589865284845286862055611b7d565b959493929190612500565b612571611b66565b612541565b93926000928584526020906004825260409283862085875283528386209360ff600286015460081c16956125a983611b34565b99885260048552818820908852845280872060ff600282015460081c16946003899201915b86811061265657505050505050506003839101915b855182101561264e576125f86126489161243f565b9161260d838590600052602052604060002090565b5461262c61261b838a611bcc565b518690600052602052604060002090565b5584612642848690600052602052604060002090565b55611b7d565b906125e3565b505050509050565b80612683918b9c9a999c52838352808d868d2054612675838a8c611ef2565b351461268c575b5050611b7d565b999697996125ce565b8161269691611bcc565b52808d61267c565b60009392916126ac91611bee565b9260005b84518110156126e2576126c38186611bcc565b5183146126d9575b6126d490611b7d565b6126b0565b600191506126cb565b50925050565b9392916126f791600095611cfd565b9260005b84518110156126e2578261270f8287611bcc565b5114612724575b61271f90611b7d565b6126fb565b60019150612716565b602090818184031261000e578051906001600160401b03821161000e57019180601f8401121561000e57825161276281611b0e565b936127706040519586611aed565b818552838086019260051b82010192831161000e578301905b828210612797575050505090565b81518152908301908301612789565b929190928060005260046020526040600020846000526020526002604060002001549160ff8084169360101c16946127dd86611d7e565b956127e9575b50505050565b60005b8481106127f957506127e3565b8061281161280961282693611b99565b85858861282b565b61281b828a611bcc565b526107c78189611bcc565b6127ec565b91909392612868906005612858606097600096875260046020526040872090600052602052604060002090565b0190600052602052604060002090565b9161287b610bbb845460ff9060101c1690565b91826128875750505050565b9192600281019290600101825b8581106128a25750506127e3565b6128bc6109fe611766838590600052602052604060002090565b836128d76109fe611766848a90600052602052604060002090565b146128ec575b506128e790611b7d565b612894565b975092612918816129076129026128e794611b99565b611b34565b99612912828c611bcc565b52611b99565b93906128dd565b91909160009081526020926004845260409081832090835284528082209160ff600284015460081c169261295284611b34565b956003839201915b85811061296957505050505050565b61298e906001198111612993575b60018101855283835285852054610a14828b611bcc565b61295a565b61299b611b66565b61297756fea2646970667358221220e1c5713d1f2c66d1336fe82ae91c94fd3a1b84f49f717498670430f92286d65964736f6c634300080d0033",
    "linkReferences": {}
  },
  "methodIdentifiers": {
    "addCinemas(uint256,uint256[],bytes32[],uint256[],uint256[][])": "5a7bb862",
    "addMoviesToCinema(uint256,uint256,uint256[])": "7f3b6f1a",
    "addMoviesToStudio(uint256[],uint256,uint256,uint256,uint256[])": "12d53303",
    "addShowTimes(uint256,uint256,uint256[])": "c12774a5",
    "addStudioShowTimes(uint256,uint256,uint256,uint256[])": "6e7da6fb",
    "checkShowTime(uint256,uint256,uint256)": "088c7035",
    "checkStudioShowTime(uint256,uint256,uint256,uint256)": "6cc3cccf",
    "cinemaToDetails(uint256,uint256)": "a29fd36e",
    "deleteCinemas(uint256,uint256[])": "a06800ce",
    "deleteMoviesInCinema(uint256,uint256,uint256[])": "0de65906",
    "deleteMoviesInStudio(uint256,uint256,uint256,uint256[])": "f6a4a6de",
    "deleteShowTime(uint256,uint256,uint256)": "eec47197",
    "getCinemaDetails(uint256,uint256)": "e77f2745",
    "getCinemaMovies(uint256,uint256)": "c172aa25",
    "getCinemaMoviesAmount(uint256,uint256)": "3cc59ec2",
    "getCinemaShowTimes(uint256,uint256)": "d7f603b0",
    "getCinemaStudioCapacities(uint256,uint256)": "495abb00",
    "getMovieShowTimesInCinema(uint256,uint256,uint256)": "d7810e0c",
    "getMovieShowTimesInRegion(uint256,uint256)": "7b4b20b8",
    "getMovieShowTimesInStudio(uint256,uint256,uint256,uint256)": "b4df5938",
    "getMoviesInRegion(uint256)": "3c23ef0d",
    "getMoviesInStudio(uint256,uint256,uint256)": "5d79a657",
    "getStudioCapacity(uint256,uint256,uint256)": "e265b7d4",
    "getStudioShowTimes(uint256,uint256,uint256)": "48490148",
    "getStudiosShowTimes(uint256,uint256)": "653d3e4e",
    "owner()": "8da5cb5b",
    "renounceOwnership()": "715018a6",
    "setInterface(address,address,address)": "accd55a1",
    "transferOwnership(address)": "f2fde38b",
    "updateMoviesToStudio(uint256[],uint256,uint256,uint256,uint256[])": "cf4915c2"
  },
  "id": 18
}