{
  "abi": [
    {
      "anonymous": false,
      "inputs": [
        {
          "indexed": true,
          "internalType": "address",
          "name": "previousOwner",
          "type": "address"
        },
        {
          "indexed": true,
          "internalType": "address",
          "name": "newOwner",
          "type": "address"
        }
      ],
      "name": "OwnershipTransferred",
      "type": "event"
    },
    {
      "inputs": [],
      "name": "TICKET_PRICE_WEEKDAYS",
      "outputs": [
        {
          "internalType": "uint64",
          "name": "",
          "type": "uint64"
        }
      ],
      "stateMutability": "view",
      "type": "function"
    },
    {
      "inputs": [],
      "name": "TICKET_PRICE_WEEKEND",
      "outputs": [
        {
          "internalType": "uint64",
          "name": "",
          "type": "uint64"
        }
      ],
      "stateMutability": "view",
      "type": "function"
    },
    {
      "inputs": [
        {
          "internalType": "uint256",
          "name": "_region",
          "type": "uint256"
        },
        {
          "internalType": "bytes32",
          "name": "_name",
          "type": "bytes32"
        },
        {
          "internalType": "uint256",
          "name": "_studiosAmount",
          "type": "uint256"
        },
        {
          "internalType": "uint256[]",
          "name": "_studioCapacity",
          "type": "uint256[]"
        }
      ],
      "name": "addCinema",
      "outputs": [],
      "stateMutability": "nonpayable",
      "type": "function"
    },
    {
      "inputs": [
        {
          "internalType": "uint256",
          "name": "_region",
          "type": "uint256"
        },
        {
          "internalType": "uint256",
          "name": "_cinema",
          "type": "uint256"
        },
        {
          "internalType": "uint256",
          "name": "_amount",
          "type": "uint256"
        }
      ],
      "name": "addMoviesToCinema",
      "outputs": [],
      "stateMutability": "nonpayable",
      "type": "function"
    },
    {
      "inputs": [
        {
          "internalType": "uint256",
          "name": "_region",
          "type": "uint256"
        },
        {
          "internalType": "bytes32",
          "name": "_name",
          "type": "bytes32"
        }
      ],
      "name": "addRegion",
      "outputs": [],
      "stateMutability": "nonpayable",
      "type": "function"
    },
    {
      "inputs": [
        {
          "internalType": "uint256",
          "name": "_region",
          "type": "uint256"
        },
        {
          "internalType": "uint256",
          "name": "_cinema",
          "type": "uint256"
        },
        {
          "internalType": "uint256",
          "name": "_time",
          "type": "uint256"
        }
      ],
      "name": "addShowTime",
      "outputs": [],
      "stateMutability": "nonpayable",
      "type": "function"
    },
    {
      "inputs": [
        {
          "internalType": "uint256",
          "name": "_region",
          "type": "uint256"
        },
        {
          "internalType": "uint256",
          "name": "_cinema",
          "type": "uint256"
        },
        {
          "internalType": "uint256",
          "name": "_studio",
          "type": "uint256"
        },
        {
          "internalType": "uint256[]",
          "name": "_showTimes",
          "type": "uint256[]"
        }
      ],
      "name": "addStudioShowTimes",
      "outputs": [],
      "stateMutability": "nonpayable",
      "type": "function"
    },
    {
      "inputs": [
        {
          "internalType": "uint256",
          "name": "",
          "type": "uint256"
        }
      ],
      "name": "availableRegions",
      "outputs": [
        {
          "internalType": "uint256",
          "name": "",
          "type": "uint256"
        }
      ],
      "stateMutability": "view",
      "type": "function"
    },
    {
      "inputs": [
        {
          "internalType": "uint256",
          "name": "_region",
          "type": "uint256"
        },
        {
          "internalType": "uint256",
          "name": "_cinema",
          "type": "uint256"
        }
      ],
      "name": "checkCinemaInRegion",
      "outputs": [
        {
          "internalType": "bool",
          "name": "result",
          "type": "bool"
        }
      ],
      "stateMutability": "view",
      "type": "function"
    },
    {
      "inputs": [
        {
          "internalType": "uint256",
          "name": "_region",
          "type": "uint256"
        },
        {
          "internalType": "uint256",
          "name": "_cinema",
          "type": "uint256"
        }
      ],
      "name": "getCinemaDetails",
      "outputs": [
        {
          "internalType": "bytes32",
          "name": "name",
          "type": "bytes32"
        },
        {
          "internalType": "uint256",
          "name": "studiosAmount",
          "type": "uint256"
        },
        {
          "internalType": "uint256",
          "name": "moviesAmount",
          "type": "uint256"
        },
        {
          "internalType": "uint256",
          "name": "showTimesAmount",
          "type": "uint256"
        },
        {
          "internalType": "uint256[]",
          "name": "showTimes",
          "type": "uint256[]"
        },
        {
          "internalType": "uint256[][]",
          "name": "studioShowTimes",
          "type": "uint256[][]"
        },
        {
          "internalType": "uint256[]",
          "name": "studiosCapacities",
          "type": "uint256[]"
        }
      ],
      "stateMutability": "view",
      "type": "function"
    },
    {
      "inputs": [
        {
          "internalType": "uint256",
          "name": "_region",
          "type": "uint256"
        },
        {
          "internalType": "uint256",
          "name": "_cinema",
          "type": "uint256"
        }
      ],
      "name": "getCinemaMoviesAmount",
      "outputs": [
        {
          "internalType": "uint256",
          "name": "amount",
          "type": "uint256"
        }
      ],
      "stateMutability": "view",
      "type": "function"
    },
    {
      "inputs": [
        {
          "internalType": "uint256",
          "name": "_region",
          "type": "uint256"
        },
        {
          "internalType": "uint256",
          "name": "_cinema",
          "type": "uint256"
        }
      ],
      "name": "getCinemaShowTimes",
      "outputs": [
        {
          "internalType": "uint256[]",
          "name": "showTimes",
          "type": "uint256[]"
        }
      ],
      "stateMutability": "view",
      "type": "function"
    },
    {
      "inputs": [
        {
          "internalType": "uint256",
          "name": "_region",
          "type": "uint256"
        },
        {
          "internalType": "uint256",
          "name": "_cinema",
          "type": "uint256"
        }
      ],
      "name": "getCinemaStudioCapacities",
      "outputs": [
        {
          "internalType": "uint256[]",
          "name": "capacities",
          "type": "uint256[]"
        }
      ],
      "stateMutability": "view",
      "type": "function"
    },
    {
      "inputs": [],
      "name": "getRegions",
      "outputs": [
        {
          "internalType": "uint256[]",
          "name": "regions",
          "type": "uint256[]"
        }
      ],
      "stateMutability": "view",
      "type": "function"
    },
    {
      "inputs": [
        {
          "internalType": "uint256",
          "name": "_region",
          "type": "uint256"
        },
        {
          "internalType": "uint256",
          "name": "_cinema",
          "type": "uint256"
        },
        {
          "internalType": "uint256",
          "name": "_studio",
          "type": "uint256"
        }
      ],
      "name": "getStudioCapacity",
      "outputs": [
        {
          "internalType": "uint256",
          "name": "capacity",
          "type": "uint256"
        }
      ],
      "stateMutability": "view",
      "type": "function"
    },
    {
      "inputs": [
        {
          "internalType": "uint256",
          "name": "_region",
          "type": "uint256"
        },
        {
          "internalType": "uint256",
          "name": "_cinema",
          "type": "uint256"
        },
        {
          "internalType": "uint256",
          "name": "_studio",
          "type": "uint256"
        }
      ],
      "name": "getStudioShowTimes",
      "outputs": [
        {
          "internalType": "uint256[]",
          "name": "showTimes",
          "type": "uint256[]"
        }
      ],
      "stateMutability": "view",
      "type": "function"
    },
    {
      "inputs": [
        {
          "internalType": "uint256",
          "name": "_region",
          "type": "uint256"
        },
        {
          "internalType": "uint256",
          "name": "_cinema",
          "type": "uint256"
        }
      ],
      "name": "getStudiosShowTimes",
      "outputs": [
        {
          "internalType": "uint256[][]",
          "name": "showTimes",
          "type": "uint256[][]"
        }
      ],
      "stateMutability": "view",
      "type": "function"
    },
    {
      "inputs": [],
      "name": "owner",
      "outputs": [
        {
          "internalType": "address",
          "name": "",
          "type": "address"
        }
      ],
      "stateMutability": "view",
      "type": "function"
    },
    {
      "inputs": [
        {
          "internalType": "uint256",
          "name": "",
          "type": "uint256"
        }
      ],
      "name": "regionToDetails",
      "outputs": [
        {
          "internalType": "bytes32",
          "name": "name",
          "type": "bytes32"
        },
        {
          "internalType": "uint8",
          "name": "cinemasAmount",
          "type": "uint8"
        }
      ],
      "stateMutability": "view",
      "type": "function"
    },
    {
      "inputs": [],
      "name": "regionsAmount",
      "outputs": [
        {
          "internalType": "uint8",
          "name": "",
          "type": "uint8"
        }
      ],
      "stateMutability": "view",
      "type": "function"
    },
    {
      "inputs": [],
      "name": "renounceOwnership",
      "outputs": [],
      "stateMutability": "nonpayable",
      "type": "function"
    },
    {
      "inputs": [],
      "name": "resetTime",
      "outputs": [],
      "stateMutability": "nonpayable",
      "type": "function"
    },
    {
      "inputs": [],
      "name": "rolesInterface",
      "outputs": [
        {
          "internalType": "contract IRoles",
          "name": "",
          "type": "address"
        }
      ],
      "stateMutability": "view",
      "type": "function"
    },
    {
      "inputs": [
        {
          "internalType": "address",
          "name": "_rolesContractAddress",
          "type": "address"
        }
      ],
      "name": "setInterface",
      "outputs": [],
      "stateMutability": "nonpayable",
      "type": "function"
    },
    {
      "inputs": [
        {
          "internalType": "address",
          "name": "newOwner",
          "type": "address"
        }
      ],
      "name": "transferOwnership",
      "outputs": [],
      "stateMutability": "nonpayable",
      "type": "function"
    }
  ],
  "bytecode": {
    "object": "0x608060405234801561001057600080fd5b5061001a3361001f565b61006f565b600080546001600160a01b038381166001600160a01b0319831681178455604051919092169283917f8be0079c531659141344cd1fd0a4f28419497f9722a3daafe3b4186f6b6457e09190a35050565b6112438061007e6000396000f3fe608060405234801561001057600080fd5b50600436106101735760003560e01c80638925b9b7116100de578063c8941bc011610097578063e265b7d411610071578063e265b7d4146103d7578063e33d16a314610416578063e77f274514610429578063f2fde38b1461044f57600080fd5b8063c8941bc01461038e578063d2e6eb66146103b1578063d7f603b0146103c457600080fd5b80638925b9b7146102d85780638a1f0aba146102f85780638da5cb5b1461030b57806397492c4614610330578063a5fbfadd14610360578063b71b9dab1461038657600080fd5b8063653d3e4e11610130578063653d3e4e1461027457806365a114f1146102945780636e7da6fb1461029c578063715018a6146102af5780637b069bdd146102b757806388e61bf8146102c557600080fd5b806305927c401461017857806317d5e287146101be5780633cc59ec2146101d3578063484901481461021b578063495abb001461023b5780634af565bf1461024e575b600080fd5b6101a2610186366004610ef1565b6002602052600090815260409020805460019091015460ff1682565b6040805192835260ff9091166020830152015b60405180910390f35b6101d16101cc366004610f55565b610462565b005b61020d6101e1366004610fb5565b600091825260026020908152604080842092845260039092019052902060010154610100900460ff1690565b6040519081526020016101b5565b61022e610229366004610fd7565b61059e565b6040516101b5919061103e565b61022e610249366004610fb5565b610692565b61025c66038d7ea4c6800081565b6040516001600160401b0390911681526020016101b5565b610287610282366004610fb5565b61076d565b6040516101b591906110d7565b6101d161082a565b6101d16102aa366004610f55565b6108a9565b6101d161099c565b61025c66044364c5bb000081565b6101d16102d3366004610fb5565b6109b0565b61020d6102e6366004610ef1565b60036020526000908152604090205481565b6101d1610306366004610fd7565b610a30565b6000546001600160a01b03165b6040516001600160a01b0390911681526020016101b5565b6101d161033e3660046110ea565b600180546001600160a01b0319166001600160a01b0392909216919091179055565b60015461037490600160e81b900460ff1681565b60405160ff90911681526020016101b5565b61022e610ad1565b6103a161039c366004610fb5565b610b80565b60405190151581526020016101b5565b600154610318906001600160a01b031681565b61022e6103d2366004610fb5565b610bf1565b61020d6103e5366004610fd7565b6000928352600260209081526040808520938552600390930181528284209184526005909101905290205460ff1690565b6101d1610424366004610fd7565b610cce565b61043c610437366004610fb5565b610d27565b6040516101b59796959493929190611113565b6101d161045d3660046110ea565b610d9f565b6000858152600260205260408120600180820154919260ff909216919060038401908290610491908590611188565b815260200190815260200160002090508160016104ae9190611188565b6001848101805460ff191660ff93909316929092179091556104d1908390611188565b6002840160006104e2856001611188565b815260200190815260200160002060006101000a81548163ffffffff021916908363ffffffff16021790555060005b868110156105775785858281811061052b5761052b6111a1565b905060200201358260050160008360016105459190611188565b81526020810191909152604001600020805460ff191660ff92909216919091179055610570816111b7565b9050610511565b506001810180549790915562ffffff1990961660ff95909516949094179094555050505050565b600083815260026020908152604080832085845260038082018452828520868652908101909352922054606092919060ff16806001600160401b038111156105e8576105e86111d0565b604051908082528060200260200182016040528015610611578160200160208202803683370190505b50935060005b8181101561068757600086815260048401602052604081209061063b836001611188565b815260208101919091526040016000205485516001600160401b039091169086908390811061066c5761066c6111a1565b6020908102919091010152610680816111b7565b9050610617565b505050509392505050565b6000828152600260209081526040808320848452600381019092529091206001810154606092919060ff16806001600160401b038111156106d5576106d56111d0565b6040519080825280602002602001820160405280156106fe578160200160208202803683370190505b50935060005b818110156107635760058301600061071d836001611188565b8152602081019190915260400160002054855160ff90911690869083908110610748576107486111a1565b602090810291909101015261075c816111b7565b9050610704565b5050505092915050565b6000828152600260209081526040808320848452600381019092529091206001810154606092919060ff16806001600160401b038111156107b0576107b06111d0565b6040519080825280602002602001820160405280156107e357816020015b60608152602001906001900390816107ce5790505b50935060005b81811015610763576107fc87878361059e565b85828151811061080e5761080e6111a1565b602002602001018190525080610823906111b7565b90506107e9565b6001805460ff60e01b1916600160e01b1790819055600090610860906001600160401b03600160a01b90910416620151806111e6565b6001546001600160401b03918216925042600160a01b909104909116106108a05760015461089d90600160a01b90046001600160401b0316610e1a565b50565b61089d81610e1a565b60008581526002602090815260408083208784526003808201845282852088865290810190935290832054909260ff909116906108e7826001611188565b905060005b8581101561096357868682818110610906576109066111a1565b60008b815260048801602090815260408083208884528252909120805467ffffffffffffffff19169290910293909301356001600160401b031617909155508161094f816111b7565b9250508061095c906111b7565b90506108ec565b5061096e8583611188565b600097885260039390930160205250506040909420805460ff191660ff909516949094179093555050505050565b6109a4610e47565b6109ae6000610ea1565b565b60018054600160e81b900460ff169083906003906000906109d2908590611188565b81526020808201929092526040908101600090812093909355858352600290915290206001808201805460ff19169055838255610a10908390611188565b6001601d6101000a81548160ff021916908360ff16021790555050505050565b6000838152600260208181526040808420868552600381019092528320600180820154929491936201000090930460ff1692869290850191610a73908590611188565b81526020810191909152604001600020805467ffffffffffffffff19166001600160401b0392909216919091179055610aad816001611188565b8260010160026101000a81548160ff021916908360ff160217905550505050505050565b600154606090600160e81b900460ff16806001600160401b03811115610af957610af96111d0565b604051908082528060200260200182016040528015610b22578160200160208202803683370190505b50915060005b81811015610b7b5760036000610b3f836001611188565b815260200190815260200160002054838281518110610b6057610b606111a1565b6020908102919091010152610b74816111b7565b9050610b28565b505090565b6000828152600260205260408120600181015460ff16825b81811015610be85760006002840181610bb2846001611188565b815260208101919091526040016000205463ffffffff169050858103610bd757600194505b50610be1816111b7565b9050610b98565b50505092915050565b6000828152600260209081526040808320848452600381019092529091206001810154606092919062010000900460ff16806001600160401b03811115610c3a57610c3a6111d0565b604051908082528060200260200182016040528015610c63578160200160208202803683370190505b50935060005b8181101561076357600283016000610c82836001611188565b815260208101919091526040016000205485516001600160401b0390911690869083908110610cb357610cb36111a1565b6020908102919091010152610cc7816111b7565b9050610c69565b6000838152600260209081526040808320858452600381019092529091206001810154610100900460ff16610d038482611188565b8260010160016101000a81548160ff021916908360ff160217905550505050505050565b60008281526002602090815260408083208484526003810190925290912080546001820154909260ff8083169361010084048216936201000090049091169160609182918291610d778b8b610bf1565b9450610d838b8b61076d565b9350610d8f8b8b610692565b9250505092959891949750929550565b610da7610e47565b6001600160a01b038116610e115760405162461bcd60e51b815260206004820152602660248201527f4f776e61626c653a206e6577206f776e657220697320746865207a65726f206160448201526564647265737360d01b60648201526084015b60405180910390fd5b61089d81610ea1565b600180546001600160401b03909216600160a01b0267ffffffffffffffff60a01b19909216919091179055565b6000546001600160a01b031633146109ae5760405162461bcd60e51b815260206004820181905260248201527f4f776e61626c653a2063616c6c6572206973206e6f7420746865206f776e65726044820152606401610e08565b600080546001600160a01b038381166001600160a01b0319831681178455604051919092169283917f8be0079c531659141344cd1fd0a4f28419497f9722a3daafe3b4186f6b6457e09190a35050565b600060208284031215610f0357600080fd5b5035919050565b60008083601f840112610f1c57600080fd5b5081356001600160401b03811115610f3357600080fd5b6020830191508360208260051b8501011115610f4e57600080fd5b9250929050565b600080600080600060808688031215610f6d57600080fd5b85359450602086013593506040860135925060608601356001600160401b03811115610f9857600080fd5b610fa488828901610f0a565b969995985093965092949392505050565b60008060408385031215610fc857600080fd5b50508035926020909101359150565b600080600060608486031215610fec57600080fd5b505081359360208301359350604090920135919050565b600081518084526020808501945080840160005b8381101561103357815187529582019590820190600101611017565b509495945050505050565b6020815260006110516020830184611003565b9392505050565b600082825180855260208086019550808260051b8401018186016000805b858110156110c957868403601f19018a52825180518086529086019086860190845b818110156110b457835183529288019291880191600101611098565b50509a86019a94505091840191600101611076565b509198975050505050505050565b6020815260006110516020830184611058565b6000602082840312156110fc57600080fd5b81356001600160a01b038116811461105157600080fd5b87815286602082015285604082015284606082015260e06080820152600061113e60e0830186611003565b82810360a08401526111508186611058565b905082810360c08401526111648185611003565b9a9950505050505050505050565b634e487b7160e01b600052601160045260246000fd5b8082018082111561119b5761119b611172565b92915050565b634e487b7160e01b600052603260045260246000fd5b6000600182016111c9576111c9611172565b5060010190565b634e487b7160e01b600052604160045260246000fd5b6001600160401b0381811683821601908082111561120657611206611172565b509291505056fea2646970667358221220962d173217e22db115a00418d2cb47c1cc8dedfb2159e5784fb52907bc09038864736f6c63430008100033",
    "linkReferences": {}
  },
  "methodIdentifiers": {
    "TICKET_PRICE_WEEKDAYS()": "4af565bf",
    "TICKET_PRICE_WEEKEND()": "7b069bdd",
    "addCinema(uint256,bytes32,uint256,uint256[])": "17d5e287",
    "addMoviesToCinema(uint256,uint256,uint256)": "e33d16a3",
    "addRegion(uint256,bytes32)": "88e61bf8",
    "addShowTime(uint256,uint256,uint256)": "8a1f0aba",
    "addStudioShowTimes(uint256,uint256,uint256,uint256[])": "6e7da6fb",
    "availableRegions(uint256)": "8925b9b7",
    "checkCinemaInRegion(uint256,uint256)": "c8941bc0",
    "getCinemaDetails(uint256,uint256)": "e77f2745",
    "getCinemaMoviesAmount(uint256,uint256)": "3cc59ec2",
    "getCinemaShowTimes(uint256,uint256)": "d7f603b0",
    "getCinemaStudioCapacities(uint256,uint256)": "495abb00",
    "getRegions()": "b71b9dab",
    "getStudioCapacity(uint256,uint256,uint256)": "e265b7d4",
    "getStudioShowTimes(uint256,uint256,uint256)": "48490148",
    "getStudiosShowTimes(uint256,uint256)": "653d3e4e",
    "owner()": "8da5cb5b",
    "regionToDetails(uint256)": "05927c40",
    "regionsAmount()": "a5fbfadd",
    "renounceOwnership()": "715018a6",
    "resetTime()": "65a114f1",
    "rolesInterface()": "d2e6eb66",
    "setInterface(address)": "97492c46",
    "transferOwnership(address)": "f2fde38b"
  },
  "id": 17
}