{
  "abi": [
    {
      "anonymous": false,
      "inputs": [
        {
          "indexed": true,
          "internalType": "address",
          "name": "previousOwner",
          "type": "address"
        },
        {
          "indexed": true,
          "internalType": "address",
          "name": "newOwner",
          "type": "address"
        }
      ],
      "name": "OwnershipTransferred",
      "type": "event"
    },
    {
      "inputs": [],
      "name": "TICKET_PRICE_WEEKDAYS",
      "outputs": [
        {
          "internalType": "uint64",
          "name": "",
          "type": "uint64"
        }
      ],
      "stateMutability": "view",
      "type": "function"
    },
    {
      "inputs": [],
      "name": "TICKET_PRICE_WEEKEND",
      "outputs": [
        {
          "internalType": "uint64",
          "name": "",
          "type": "uint64"
        }
      ],
      "stateMutability": "view",
      "type": "function"
    },
    {
      "inputs": [
        {
          "internalType": "uint256",
          "name": "_region",
          "type": "uint256"
        },
        {
          "internalType": "bytes32",
          "name": "_name",
          "type": "bytes32"
        },
        {
          "internalType": "uint256",
          "name": "_studiosAmount",
          "type": "uint256"
        },
        {
          "internalType": "uint256[]",
          "name": "_studioCapacity",
          "type": "uint256[]"
        }
      ],
      "name": "addCinema",
      "outputs": [],
      "stateMutability": "nonpayable",
      "type": "function"
    },
    {
      "inputs": [
        {
          "internalType": "uint256",
          "name": "_region",
          "type": "uint256"
        },
        {
          "internalType": "uint256",
          "name": "_cinema",
          "type": "uint256"
        },
        {
          "internalType": "uint256[]",
          "name": "_movies",
          "type": "uint256[]"
        }
      ],
      "name": "addMoviesToCinema",
      "outputs": [],
      "stateMutability": "nonpayable",
      "type": "function"
    },
    {
      "inputs": [
        {
          "internalType": "uint256[]",
          "name": "_movies",
          "type": "uint256[]"
        },
        {
          "internalType": "uint256",
          "name": "_region",
          "type": "uint256"
        },
        {
          "internalType": "uint256",
          "name": "_cinema",
          "type": "uint256"
        },
        {
          "internalType": "uint256",
          "name": "_studio",
          "type": "uint256"
        },
        {
          "internalType": "uint256[]",
          "name": "_showTimes",
          "type": "uint256[]"
        }
      ],
      "name": "addMoviesToStudio",
      "outputs": [],
      "stateMutability": "nonpayable",
      "type": "function"
    },
    {
      "inputs": [
        {
          "internalType": "uint256",
          "name": "_region",
          "type": "uint256"
        },
        {
          "internalType": "bytes32",
          "name": "_name",
          "type": "bytes32"
        }
      ],
      "name": "addRegion",
      "outputs": [],
      "stateMutability": "nonpayable",
      "type": "function"
    },
    {
      "inputs": [
        {
          "internalType": "uint256",
          "name": "_region",
          "type": "uint256"
        },
        {
          "internalType": "uint256",
          "name": "_cinema",
          "type": "uint256"
        },
        {
          "internalType": "uint256",
          "name": "_time",
          "type": "uint256"
        }
      ],
      "name": "addShowTime",
      "outputs": [],
      "stateMutability": "nonpayable",
      "type": "function"
    },
    {
      "inputs": [
        {
          "internalType": "uint256",
          "name": "_region",
          "type": "uint256"
        },
        {
          "internalType": "uint256",
          "name": "_cinema",
          "type": "uint256"
        },
        {
          "internalType": "uint256",
          "name": "_studio",
          "type": "uint256"
        },
        {
          "internalType": "uint256[]",
          "name": "_showTimes",
          "type": "uint256[]"
        }
      ],
      "name": "addStudioShowTimes",
      "outputs": [],
      "stateMutability": "nonpayable",
      "type": "function"
    },
    {
      "inputs": [
        {
          "internalType": "uint256",
          "name": "",
          "type": "uint256"
        }
      ],
      "name": "availableRegions",
      "outputs": [
        {
          "internalType": "uint256",
          "name": "",
          "type": "uint256"
        }
      ],
      "stateMutability": "view",
      "type": "function"
    },
    {
      "inputs": [
        {
          "internalType": "uint256",
          "name": "_region",
          "type": "uint256"
        },
        {
          "internalType": "uint256",
          "name": "_cinema",
          "type": "uint256"
        }
      ],
      "name": "checkCinemaInRegion",
      "outputs": [
        {
          "internalType": "bool",
          "name": "result",
          "type": "bool"
        }
      ],
      "stateMutability": "view",
      "type": "function"
    },
    {
      "inputs": [
        {
          "internalType": "uint256",
          "name": "_region",
          "type": "uint256"
        },
        {
          "internalType": "uint256",
          "name": "_cinema",
          "type": "uint256"
        },
        {
          "internalType": "uint256",
          "name": "_showTime",
          "type": "uint256"
        }
      ],
      "name": "checkShowTime",
      "outputs": [
        {
          "internalType": "bool",
          "name": "result",
          "type": "bool"
        }
      ],
      "stateMutability": "view",
      "type": "function"
    },
    {
      "inputs": [
        {
          "internalType": "uint256",
          "name": "_region",
          "type": "uint256"
        },
        {
          "internalType": "uint256",
          "name": "_cinema",
          "type": "uint256"
        }
      ],
      "name": "getCinemaDetails",
      "outputs": [
        {
          "internalType": "bytes32",
          "name": "name",
          "type": "bytes32"
        },
        {
          "internalType": "uint256",
          "name": "studiosAmount",
          "type": "uint256"
        },
        {
          "internalType": "uint256",
          "name": "moviesAmount",
          "type": "uint256"
        },
        {
          "internalType": "uint256",
          "name": "showTimesAmount",
          "type": "uint256"
        },
        {
          "internalType": "uint256[]",
          "name": "showTimes",
          "type": "uint256[]"
        },
        {
          "internalType": "uint256[][]",
          "name": "studioShowTimes",
          "type": "uint256[][]"
        },
        {
          "internalType": "uint256[]",
          "name": "studiosCapacities",
          "type": "uint256[]"
        }
      ],
      "stateMutability": "view",
      "type": "function"
    },
    {
      "inputs": [
        {
          "internalType": "uint256",
          "name": "_region",
          "type": "uint256"
        },
        {
          "internalType": "uint256",
          "name": "_cinema",
          "type": "uint256"
        }
      ],
      "name": "getCinemaMoviesAmount",
      "outputs": [
        {
          "internalType": "uint256",
          "name": "amount",
          "type": "uint256"
        }
      ],
      "stateMutability": "view",
      "type": "function"
    },
    {
      "inputs": [
        {
          "internalType": "uint256",
          "name": "_region",
          "type": "uint256"
        },
        {
          "internalType": "uint256",
          "name": "_cinema",
          "type": "uint256"
        }
      ],
      "name": "getCinemaShowTimes",
      "outputs": [
        {
          "internalType": "uint256[]",
          "name": "showTimes",
          "type": "uint256[]"
        }
      ],
      "stateMutability": "view",
      "type": "function"
    },
    {
      "inputs": [
        {
          "internalType": "uint256",
          "name": "_region",
          "type": "uint256"
        },
        {
          "internalType": "uint256",
          "name": "_cinema",
          "type": "uint256"
        }
      ],
      "name": "getCinemaStudioCapacities",
      "outputs": [
        {
          "internalType": "uint256[]",
          "name": "capacities",
          "type": "uint256[]"
        }
      ],
      "stateMutability": "view",
      "type": "function"
    },
    {
      "inputs": [],
      "name": "getRegions",
      "outputs": [
        {
          "internalType": "uint256[]",
          "name": "regions",
          "type": "uint256[]"
        }
      ],
      "stateMutability": "view",
      "type": "function"
    },
    {
      "inputs": [
        {
          "internalType": "uint256",
          "name": "_region",
          "type": "uint256"
        },
        {
          "internalType": "uint256",
          "name": "_cinema",
          "type": "uint256"
        },
        {
          "internalType": "uint256",
          "name": "_studio",
          "type": "uint256"
        }
      ],
      "name": "getStudioCapacity",
      "outputs": [
        {
          "internalType": "uint256",
          "name": "capacity",
          "type": "uint256"
        }
      ],
      "stateMutability": "view",
      "type": "function"
    },
    {
      "inputs": [
        {
          "internalType": "uint256",
          "name": "_region",
          "type": "uint256"
        },
        {
          "internalType": "uint256",
          "name": "_cinema",
          "type": "uint256"
        },
        {
          "internalType": "uint256",
          "name": "_studio",
          "type": "uint256"
        }
      ],
      "name": "getStudioShowTimes",
      "outputs": [
        {
          "internalType": "uint256[]",
          "name": "showTimes",
          "type": "uint256[]"
        }
      ],
      "stateMutability": "view",
      "type": "function"
    },
    {
      "inputs": [
        {
          "internalType": "uint256",
          "name": "_region",
          "type": "uint256"
        },
        {
          "internalType": "uint256",
          "name": "_cinema",
          "type": "uint256"
        }
      ],
      "name": "getStudiosShowTimes",
      "outputs": [
        {
          "internalType": "uint256[][]",
          "name": "showTimes",
          "type": "uint256[][]"
        }
      ],
      "stateMutability": "view",
      "type": "function"
    },
    {
      "inputs": [],
      "name": "owner",
      "outputs": [
        {
          "internalType": "address",
          "name": "",
          "type": "address"
        }
      ],
      "stateMutability": "view",
      "type": "function"
    },
    {
      "inputs": [
        {
          "internalType": "uint256",
          "name": "",
          "type": "uint256"
        }
      ],
      "name": "regionToDetails",
      "outputs": [
        {
          "internalType": "bytes32",
          "name": "name",
          "type": "bytes32"
        },
        {
          "internalType": "uint8",
          "name": "cinemasAmount",
          "type": "uint8"
        }
      ],
      "stateMutability": "view",
      "type": "function"
    },
    {
      "inputs": [],
      "name": "regionsAmount",
      "outputs": [
        {
          "internalType": "uint8",
          "name": "",
          "type": "uint8"
        }
      ],
      "stateMutability": "view",
      "type": "function"
    },
    {
      "inputs": [],
      "name": "renounceOwnership",
      "outputs": [],
      "stateMutability": "nonpayable",
      "type": "function"
    },
    {
      "inputs": [],
      "name": "resetTime",
      "outputs": [],
      "stateMutability": "nonpayable",
      "type": "function"
    },
    {
      "inputs": [
        {
          "internalType": "address",
          "name": "_rolesContractAddress",
          "type": "address"
        },
        {
          "internalType": "address",
          "name": "_movieContractAddress",
          "type": "address"
        }
      ],
      "name": "setInterface",
      "outputs": [],
      "stateMutability": "nonpayable",
      "type": "function"
    },
    {
      "inputs": [
        {
          "internalType": "address",
          "name": "newOwner",
          "type": "address"
        }
      ],
      "name": "transferOwnership",
      "outputs": [],
      "stateMutability": "nonpayable",
      "type": "function"
    },
    {
      "inputs": [
        {
          "internalType": "uint256[]",
          "name": "_movies",
          "type": "uint256[]"
        },
        {
          "internalType": "uint256",
          "name": "_region",
          "type": "uint256"
        },
        {
          "internalType": "uint256",
          "name": "_cinema",
          "type": "uint256"
        },
        {
          "internalType": "uint256",
          "name": "_studio",
          "type": "uint256"
        },
        {
          "internalType": "uint256[]",
          "name": "_showTimes",
          "type": "uint256[]"
        }
      ],
      "name": "updateMoviesToStudio",
      "outputs": [],
      "stateMutability": "nonpayable",
      "type": "function"
    }
  ],
  "bytecode": {
    "object": "0x6080806040523461005b5760008054336001600160a01b0319821681178355916001600160a01b03909116907f8be0079c531659141344cd1fd0a4f28419497f9722a3daafe3b4186f6b6457e09084a3611c1d90816100618239f35b600080fdfe60806040526004361015610013575b600080fd5b60003560e01c806302d8f2b51461022f57806305927c4014610226578063088c70351461021d57806312d533031461021457806317d5e2871461020b5780633cc59ec21461020257806348490148146101f9578063495abb00146101f05780634af565bf146101e7578063653d3e4e146101de57806365a114f1146101d55780636e7da6fb146101cc578063715018a6146101c35780637b069bdd146101ba5780637f3b6f1a146101b157806388e61bf8146101a85780638925b9b71461019f5780638a1f0aba146101965780638da5cb5b1461018d578063a5fbfadd14610184578063b71b9dab1461017b578063c8941bc014610172578063cf4915c214610169578063d7f603b014610160578063e265b7d414610157578063e77f27451461014e5763f2fde38b1461014657600080fd5b61000e6111af565b5061000e6110f6565b5061000e6110b6565b5061000e611093565b5061000e610fe3565b5061000e610fc1565b5061000e610f44565b5061000e610f1f565b5061000e610ef5565b5061000e610dd6565b5061000e610da9565b5061000e610ce1565b5061000e610ba0565b5061000e610b7d565b5061000e610b1b565b5061000e610986565b5061000e6108cb565b5061000e610894565b5061000e6107ec565b5061000e6107c9565b5061000e610796565b5061000e610707565b5061000e610521565b5061000e6103ae565b5061000e610304565b5061000e6102b1565b5061000e61024e565b600435906001600160a01b038216820361000e57565b503461000e57604036600319011261000e57610268610238565b6024356001600160a01b03818116929183900361000e57610287611278565b6bffffffffffffffffffffffff60a01b911681600154161760015560025416176002556000604051f35b503461000e57602036600319011261000e57600435600052600360205260408060002060ff600182549201541682519182526020820152f35b606090600319011261000e57600435906024359060443590565b503461000e57602061031e610318366102ea565b91611b1b565b6040519015158152f35b9181601f8401121561000e578235916001600160401b03831161000e576020808501948460051b01011161000e57565b60a060031982011261000e576001600160401b039160043583811161000e578261038491600401610328565b9390939260243592604435926064359260843591821161000e576103aa91600401610328565b9091565b503461000e576103bd36610358565b60015460408051635bfaf17960e01b81526004808201899052602482018890523360448301529399919894979596959493919260209161042591839082906001600160a01b03168180606481015b03915afa908115610514575b6000916104f7575b50611682565b600254600090610445906001600160a01b03165b6001600160a01b031690565b905b8581106104635760008b6104608e8d8d8d8d8d8d6117c1565b51f35b806104b3610498858e61047a6104b8968c8c6116ce565b35905180938192636acd538f60e01b83528b83019190602083019252565b0381885afa9081156104ea575b6000916104bd575b506116e6565b611384565b610447565b6104dd9150863d88116104e3575b6104d581836112fe565b81019061165d565b386104ad565b503d6104cb565b6104f2611675565b6104a5565b61050e9150833d85116104e3576104d581836112fe565b3861041f565b61051c611675565b610417565b503461000e57608036600319011261000e576044356004356064356001600160401b03811161000e57610558903690600401610328565b6001546040516317eaa0ff60e21b815291929161059a91602090829060049082906001600160a01b03165afa9081156106fa575b6000916106dc575b50611a1f565b6106666105db6105d560016105cd6105bc886000526003602052604060002090565b976000526003602052604060002090565b015460ff1690565b60ff1690565b6106516105fd6105ea836113a0565b6003880190600052602052604060002090565b9561062061060d6105d5856113a0565b600183019060ff1660ff19825416179055565b600261064061063a610631866113a0565b63ffffffff1690565b946113a0565b910190600052602052604060002090565b9063ffffffff1663ffffffff19825416179055565b600483019160005b85811061069157600185018054602435875562ffffff191660ff8816179055005b005b806104b36106b46106a46106d7946113a0565b8790600052602052604060002090565b6106c96106c28487896116ce565b3560ff1690565b60ff1660ff19825416179055565b61066e565b6106f4915060203d81116104e3576104d581836112fe565b38610594565b610702611675565b61058c565b503461000e57604036600319011261000e5760043560005260036020526003604060002001602435600052602052602060ff60016040600020015460081c16604051908152f35b90815180825260208080930193019160005b82811061076e575050505090565b835185529381019392810192600101610760565b90602061079392818152019061074e565b90565b503461000e576107c56107b16107ab366102ea565b9161150b565b60405191829160208352602083019061074e565b0390f35b503461000e57604036600319011261000e576107c56107b1602435600435611483565b503461000e57600036600319011261000e57602060405166038d7ea4c680008152f35b90815180825260208092019182818360051b8501950193600080925b85841061083c575050505050505090565b9091929387828297989903855288519082808351928381520192019085905b80821061087b57505050908060019299019401940192959493919061082b565b919380600192948651815201940192018893929161085b565b503461000e57604036600319011261000e576107c56108b76024356004356115b3565b60405191829160208352602083019061080f565b503461000e57600036600319011261000e576002805460ff60e01b1916600160e01b179081905560a01c6001600160401b039081169067fffffffffffeae7f8211610979575b4282101561094b576201518061068f920116600254906001600160401b0360a01b9060a01b16906001600160401b0360a01b191617600255565b506002805467ffffffffffffffff60a01b191660a09290921b67ffffffffffffffff60a01b16919091179055005b6109816112d0565b610911565b503461000e57608036600319011261000e576004356024356064356001600160401b03811161000e576109bd903690600401610328565b600154604051635bfaf17960e01b815260048101869052602481018590523360448201529194929360209390929091610a1a91908590829060649082906001600160a01b03165afa908115610b0e575b600091610af75750611682565b60005260038252600360406000200190600052815260046040600020019060443560005252604060002090610a576105d5835460ff9060081c1690565b90610a61826113a0565b60009060018501905b868310610a975761068f86610a826105d58a896113b0565b61ff0082549160081b169061ff001916179055565b610aeb610af1916104b3610abc610aaf878c8a6116ce565b356001600160401b031690565b610ad0838790600052602052604060002090565b906001600160401b03166001600160401b0319825416179055565b92611384565b91610a6a565b61050e9150853d87116104e3576104d581836112fe565b610b16611675565b610a0d565b503461000e57600080600319360112610b7a57610b36611278565b80546001600160a01b0319811682556040519082906001600160a01b03167f8be0079c531659141344cd1fd0a4f28419497f9722a3daafe3b4186f6b6457e08284a3f35b80fd5b503461000e57600036600319011261000e57602060405166044364c5bb00008152f35b503461000e57606036600319011261000e576044356001600160401b03811161000e57610bd260049136908301610328565b919060018060a01b036001541691604092610c12845180926317eaa0ff60e21b8252818560209586935afa908115610cd4575b600091610cbd5750611a1f565b60025460009190610c2b906001600160a01b0316610439565b915b868110610c465760008661046089886024358935611a6b565b806104b3610c7a84610c5c610c94958c8b6116ce565b358a5180938192636acd538f60e01b83528b83019190602083019252565b0381895afa908115610cb0575b600091610c9957506116e6565b610c2d565b6104dd9150853d87116104e3576104d581836112fe565b610cb8611675565b610c87565b6106f49150833d85116104e3576104d581836112fe565b610cdc611675565b610c05565b503461000e57604036600319011261000e5761068f60ff600435610d346004602060018060a01b0360015416604051928380926317eaa0ff60e21b82525afa9081156106fa576000916106dc5750611a1f565b60018260025460e81c1681198111610d9c575b01908160005260046020528060406000205560005260036020526040600020610d776001820160ff198154169055565b60243590556002805460ff60e81b19169290911660e81b60ff60e81b16919091179055565b610da46112d0565b610d47565b503461000e57602036600319011261000e5760043560005260046020526020604060002054604051908152f35b503461000e5761068f60ff610dea366102ea565b600154604051635bfaf17960e01b815260048101859052602481018490523360448201526020959492939291610e4491908790829060649082906001600160a01b03165afa908115610ee8575b600091610ed15750611682565b600052600384526003604060002001906000528352610ead6001600160401b0360406000209260018401956003600187895460101c1681198111610ec4575b019586600052019052166040600020906001600160401b03166001600160401b0319825416179055565b825462ff00001916911660101b62ff000016179055565b610ecc6112d0565b610e83565b61050e9150873d89116104e3576104d581836112fe565b610ef0611675565b610e37565b503461000e57600036600319011261000e576000546040516001600160a01b039091168152602090f35b503461000e57600036600319011261000e57602060ff60025460e81c16604051908152f35b503461000e57600080600319360112610b7a5760ff60025460e81c16610f6981611352565b91805b828110610f8157604051806107c58682610782565b610faf906001198111610fb4575b60018101835260046020526040832054610fa982876113d3565b52611384565b610f6c565b610fbc6112d0565b610f8f565b503461000e57604036600319011261000e57602061031e602435600435611b65565b503461000e57610ff236610358565b60015460408051635bfaf17960e01b81526004808201899052602482018890523360448301529399919894979596959493919260209161104491839082906001600160a01b031681806064810161040b565b60025460009061105c906001600160a01b0316610439565b905b8581106110775760008b6104608e8d8d8d8d8d8d61192c565b806104b3610498858e61047a61108e968c8c6116ce565b61105e565b503461000e57604036600319011261000e576107c56107b16024356004356113f5565b503461000e57602060ff60406110cb366102ea565b9060009283526003865260038484200190835285526004838320019082528452205416604051908152f35b503461000e57604036600319011261000e576004356024358160005260036020526003604060002001816000526020526107c56040600020916111a1600184549401549461119361115b61114a85846113f5565b9461115581856115b3565b93611483565b9360ff604051988998895281811660208a0152818160081c1660408a015260101c16606088015260e0608088015260e087019061074e565b9085820360a087015261080f565b9083820360c085015261074e565b503461000e57602036600319011261000e576111c9610238565b6111d1611278565b6001600160a01b0390811690811561122457600080546001600160a01b031981168417825560405191939192167f8be0079c531659141344cd1fd0a4f28419497f9722a3daafe3b4186f6b6457e08484a3f35b60405162461bcd60e51b815260206004820152602660248201527f4f776e61626c653a206e6577206f776e657220697320746865207a65726f206160448201526564647265737360d01b6064820152608490fd5b6000546001600160a01b0316330361128c57565b606460405162461bcd60e51b815260206004820152602060248201527f4f776e61626c653a2063616c6c6572206973206e6f7420746865206f776e65726044820152fd5b50634e487b7160e01b600052601160045260246000fd5b50634e487b7160e01b600052604160045260246000fd5b90601f801991011681019081106001600160401b0382111761131f57604052565b6113276112e7565b604052565b6020906001600160401b038111611345575b60051b0190565b61134d6112e7565b61133e565b9061135c8261132c565b61136960405191826112fe565b828152809261137a601f199161132c565b0190602036910137565b6001906000198114611394570190565b61139c6112d0565b0190565b6001906001198111611394570190565b81198111611394570190565b50634e487b7160e01b600052603260045260246000fd5b60209181518110156113e8575b60051b010190565b6113f06113bc565b6113e0565b919060009283526020906003825260409060038286200190855282528084209360019460ff8682015460101c169361142c85611352565b966003849301925b8681106114445750505050505050565b611471906001198111611476575b82810186528484526001600160401b038787205416610fa9828c6113d3565b611434565b61147e6112d0565b611452565b91909160009081526020906003825260409360038583200190825282528381209360ff91600195838782015416946114ba86611352565b976004849301925b8781106114d3575050505050505050565b6114f99060011981116114fe575b8281018652848452878787205416610fa9828d6113d3565b6114c2565b6115066112d0565b6114e1565b90929192600091825260209360038552604091600383852001908452855260048284200190835284528082209160ff835460081c169261154a84611352565b95600191820191835b8681106115635750505050505050565b6115a19060011981116115a6575b808301865284845286862054611597906001600160401b03165b6001600160401b031690565b610fa9828c6113d3565b611553565b6115ae6112d0565b611571565b9190916000928184526020906003825260036040862001818652825260ff600160408720015416926115e48461132c565b926115f260405194856112fe565b848452601f196116018661132c565b01875b81811061164e5750505082955b84811061161f575050505050565b8061162e61164992858561150b565b61163882876113d3565b5261164381866113d3565b50611384565b611611565b60608682018401528201611604565b9081602091031261000e5751801515810361000e5790565b506040513d6000823e3d90fd5b1561168957565b60405162461bcd60e51b815260206004820152601960248201527f596f75277265206e6f7420612063696e656d612061646d696e000000000000006044820152606490fd5b91908110156116de5760051b0190565b61134d6113bc565b156116ed57565b60405162461bcd60e51b8152602060048201526014602482015273135bdd9a5948191bd95cc81b9bdd08195e1a5cdd60621b6044820152606490fd5b1561173057565b60405162461bcd60e51b815260206004820152601c60248201527f53747564696f206f722053686f7774696d65206e6f74206578697374000000006044820152606490fd5b1561177c57565b60405162461bcd60e51b815260206004820152601a60248201527f43696e656d61206f7220526567696f6e206e6f742065786973740000000000006044820152606490fd5b95929093916117d08282611b65565b6117db84848461150b565b5060005b8581106118a757506117f090611775565b6000526003602052600360406000200190600052602052600460406000200190600052602052604060002091600260009301925b82811061183357505050505050565b8061187261186c61158b61185f61184e6118a296898c6116ce565b358990600052602052604060002090565b546001600160401b031690565b156118d4565b6104b3611883610aaf83868b6116ce565b610ad061189184888b6116ce565b358890600052602052604060002090565b611824565b806104b36118c76118bf6118cc948a8d9e9c9e6116ce565b358787611b1b565b611729565b9795976117df565b156118db57565b60405162461bcd60e51b8152602060048201526024808201527f4d6f76696520616c726561647920657869737420696e20746869732073686f7760448201526374696d6560e01b6064820152608490fd5b9493909196959661193d8482611b65565b61194883868461150b565b5060005b898082106119f757505061195f90611775565b6000526020906003825260409360038560002001906000528252600484600020019060005281528260002091600260009301925b8881106119a557505050505050509050565b806104b36001600160401b036119bf6119f294868c6116ce565b35166119cc838d8b6116ce565b3560005286865287600020906001600160401b03166001600160401b0319825416179055565b611993565b906104b36118c7611a0f83611a17958c9d9a9d6116ce565b358987611b1b565b96939661194c565b15611a2657565b60405162461bcd60e51b815260206004820152601860248201527f596f75277265206e6f7420612073757065722061646d696e00000000000000006044820152606490fd5b6000908152602092600384526040926003848420019083528452828220926001928385019660ff885460081c16966002839701915b808810611ace5750505050505050509060ff611acc921661ff0082549160081b169061ff001916179055565b565b909192939495969787611b02916001198111611b0e575b0198611af281848a6116ce565b358a875285855287872055611384565b96959493929190611aa0565b611b166112d0565b611ae5565b6000939291611b29916113f5565b9260005b8451811015611b5f57611b4081866113d3565b518314611b56575b611b5190611384565b611b2d565b60019150611b48565b50925050565b919060009260009081526020916003835260408083209260019360ff8582015416956002839201915b878110611b9f575050505050505050565b6001198111611bda575b86810184528282528563ffffffff868620541614611bd0575b611bcb90611384565b611b8e565b9598508895611bc2565b611be26112d0565b611ba956fea2646970667358221220616b37c3c3c2e24159beb57ccaf6edd903fab56c0328757e8aceca941ed7080d64736f6c634300080d0033",
    "linkReferences": {}
  },
  "methodIdentifiers": {
    "TICKET_PRICE_WEEKDAYS()": "4af565bf",
    "TICKET_PRICE_WEEKEND()": "7b069bdd",
    "addCinema(uint256,bytes32,uint256,uint256[])": "17d5e287",
    "addMoviesToCinema(uint256,uint256,uint256[])": "7f3b6f1a",
    "addMoviesToStudio(uint256[],uint256,uint256,uint256,uint256[])": "12d53303",
    "addRegion(uint256,bytes32)": "88e61bf8",
    "addShowTime(uint256,uint256,uint256)": "8a1f0aba",
    "addStudioShowTimes(uint256,uint256,uint256,uint256[])": "6e7da6fb",
    "availableRegions(uint256)": "8925b9b7",
    "checkCinemaInRegion(uint256,uint256)": "c8941bc0",
    "checkShowTime(uint256,uint256,uint256)": "088c7035",
    "getCinemaDetails(uint256,uint256)": "e77f2745",
    "getCinemaMoviesAmount(uint256,uint256)": "3cc59ec2",
    "getCinemaShowTimes(uint256,uint256)": "d7f603b0",
    "getCinemaStudioCapacities(uint256,uint256)": "495abb00",
    "getRegions()": "b71b9dab",
    "getStudioCapacity(uint256,uint256,uint256)": "e265b7d4",
    "getStudioShowTimes(uint256,uint256,uint256)": "48490148",
    "getStudiosShowTimes(uint256,uint256)": "653d3e4e",
    "owner()": "8da5cb5b",
    "regionToDetails(uint256)": "05927c40",
    "regionsAmount()": "a5fbfadd",
    "renounceOwnership()": "715018a6",
    "resetTime()": "65a114f1",
    "setInterface(address,address)": "02d8f2b5",
    "transferOwnership(address)": "f2fde38b",
    "updateMoviesToStudio(uint256[],uint256,uint256,uint256,uint256[])": "cf4915c2"
  },
  "id": 16
}