{
  "abi": [
    {
      "inputs": [
        {
          "internalType": "bytes32[]",
          "name": "_titles",
          "type": "bytes32[]"
        },
        {
          "internalType": "uint256[]",
          "name": "_durations",
          "type": "uint256[]"
        }
      ],
      "name": "addMovies",
      "outputs": [],
      "stateMutability": "nonpayable",
      "type": "function"
    },
    {
      "inputs": [
        {
          "internalType": "uint256",
          "name": "_movieId",
          "type": "uint256"
        }
      ],
      "name": "getMovieDetails",
      "outputs": [
        {
          "components": [
            {
              "internalType": "bytes32",
              "name": "title",
              "type": "bytes32"
            },
            {
              "internalType": "uint64",
              "name": "duration",
              "type": "uint64"
            }
          ],
          "internalType": "struct Movies.MovieDetails",
          "name": "details",
          "type": "tuple"
        }
      ],
      "stateMutability": "view",
      "type": "function"
    },
    {
      "inputs": [],
      "name": "getMovies",
      "outputs": [
        {
          "internalType": "uint256[]",
          "name": "movies",
          "type": "uint256[]"
        }
      ],
      "stateMutability": "view",
      "type": "function"
    },
    {
      "inputs": [
        {
          "internalType": "uint256",
          "name": "_movie",
          "type": "uint256"
        }
      ],
      "name": "isMovieExist",
      "outputs": [
        {
          "internalType": "bool",
          "name": "result",
          "type": "bool"
        }
      ],
      "stateMutability": "view",
      "type": "function"
    },
    {
      "inputs": [
        {
          "internalType": "uint256",
          "name": "",
          "type": "uint256"
        }
      ],
      "name": "movieExistStatus",
      "outputs": [
        {
          "internalType": "bool",
          "name": "",
          "type": "bool"
        }
      ],
      "stateMutability": "view",
      "type": "function"
    },
    {
      "inputs": [
        {
          "internalType": "uint256",
          "name": "",
          "type": "uint256"
        }
      ],
      "name": "movieToDetails",
      "outputs": [
        {
          "internalType": "bytes32",
          "name": "title",
          "type": "bytes32"
        },
        {
          "internalType": "uint64",
          "name": "duration",
          "type": "uint64"
        }
      ],
      "stateMutability": "view",
      "type": "function"
    },
    {
      "inputs": [],
      "name": "moviesTotal",
      "outputs": [
        {
          "internalType": "uint32",
          "name": "",
          "type": "uint32"
        }
      ],
      "stateMutability": "view",
      "type": "function"
    }
  ],
  "bytecode": {
    "object": "0x608080604052346100165761053b908161001c8239f35b600080fdfe608080604052600436101561001357600080fd5b60003560e01c9081631b9f3fb0146100a8575080632c53b4061461009f578063524ec846146100965780635c7b14c11461008d57806366094a38146100845780636acd538f1461007b5763f9b04e2e1461006e575b38600080fd5b6100766103ed565b610068565b506100766103c1565b50610076610298565b50610076610205565b506100766101cb565b50610076610121565b346100cf576020906100b9366100d4565b6000526002825260ff6040600020541615158152f35b600080fd5b60209060031901126100cf5760043590565b6020908160408183019282815285518094520193019160005b82811061010d575050505090565b8351855293810193928101926001016100ff565b50346100cf5760003660031901126100cf5763ffffffff6000541661014d610148826104e4565b6104be565b81815290601f1961015d826104e4565b01602090368285013760005b828110610182576040518061017e86826100e6565b0390f35b6101ac9060011981116101be575b84518110156101b1575b60018101838260051b87010152610429565b610169565b6101b9610445565b61019a565b6101c6610412565b610190565b50346100cf576101da366100d4565b600052600160205260408060002067ffffffffffffffff600182549201541682519182526020820152f35b50346100cf57610214366100d4565b60006020610220610491565b82815201526000526001602052604080600020600161023d610491565b602083549384835267ffffffffffffffff9384910154169101908152835192835251166020820152f35b9181601f840112156100cf5782359167ffffffffffffffff83116100cf576020808501948460051b0101116100cf57565b50346100cf576040806003193601126100cf5767ffffffffffffffff906004358281116100cf576102cd903690600401610267565b926024359081116100cf576102e6903690600401610267565b63ffffffff92916000958487541693875b82811061031f57888861031c89891663ffffffff1663ffffffff196000541617600055565b51f35b6103af9060011987116103b4575b600180970196878b526002602052898b208160ff1982541617905561039c61035f896000526001602052604060002090565b9161037c61036e858b8b61045c565b3567ffffffffffffffff1690565b9083019067ffffffffffffffff1667ffffffffffffffff19825416179055565b6103a782868661045c565b359055610429565b6102f7565b6103bc610412565b61032d565b50346100cf576103d0366100d4565b6000526002602052602060ff604060002054166040519015158152f35b50346100cf5760003660031901126100cf57602063ffffffff60005416604051908152f35b50634e487b7160e01b600052601160045260246000fd5b6001906000198114610439570190565b610441610412565b0190565b50634e487b7160e01b600052603260045260246000fd5b919081101561046d575b60051b0190565b610475610445565b610466565b50634e487b7160e01b600052604160045260246000fd5b604051906040820182811067ffffffffffffffff8211176104b157604052565b6104b961047a565b604052565b6040519190601f01601f1916820167ffffffffffffffff8111838210176104b157604052565b60209067ffffffffffffffff81116104fd5760051b0190565b61047561047a56fea2646970667358221220f3b4a5f29d32a4fd0592f43e1e5f4420be532b9ddf79fa9d39271ec259bebfac64736f6c634300080d0033",
    "linkReferences": {}
  },
  "methodIdentifiers": {
    "addMovies(bytes32[],uint256[])": "66094a38",
    "getMovieDetails(uint256)": "5c7b14c1",
    "getMovies()": "2c53b406",
    "isMovieExist(uint256)": "6acd538f",
    "movieExistStatus(uint256)": "1b9f3fb0",
    "movieToDetails(uint256)": "524ec846",
    "moviesTotal()": "f9b04e2e"
  },
  "id": 22
}