{
  "abi": [
    {
      "inputs": [
        {
          "internalType": "bytes32[]",
          "name": "_titles",
          "type": "bytes32[]"
        },
        {
          "internalType": "uint256[]",
          "name": "_durations",
          "type": "uint256[]"
        }
      ],
      "name": "addMovies",
      "outputs": [],
      "stateMutability": "nonpayable",
      "type": "function"
    },
    {
      "inputs": [
        {
          "internalType": "uint256",
          "name": "_region",
          "type": "uint256"
        },
        {
          "internalType": "uint256",
          "name": "_cinema",
          "type": "uint256"
        },
        {
          "internalType": "uint256[]",
          "name": "_movies",
          "type": "uint256[]"
        }
      ],
      "name": "addMoviesToCinema",
      "outputs": [],
      "stateMutability": "nonpayable",
      "type": "function"
    },
    {
      "inputs": [],
      "name": "cinemaInterface",
      "outputs": [
        {
          "internalType": "contract ICinema",
          "name": "",
          "type": "address"
        }
      ],
      "stateMutability": "view",
      "type": "function"
    },
    {
      "inputs": [
        {
          "internalType": "uint256",
          "name": "",
          "type": "uint256"
        },
        {
          "internalType": "uint256",
          "name": "",
          "type": "uint256"
        },
        {
          "internalType": "uint256",
          "name": "",
          "type": "uint256"
        }
      ],
      "name": "cinemaToMovies",
      "outputs": [
        {
          "internalType": "uint32",
          "name": "",
          "type": "uint32"
        }
      ],
      "stateMutability": "view",
      "type": "function"
    },
    {
      "inputs": [
        {
          "internalType": "uint256",
          "name": "_movieId",
          "type": "uint256"
        }
      ],
      "name": "getMovieDetails",
      "outputs": [
        {
          "components": [
            {
              "internalType": "bytes32",
              "name": "title",
              "type": "bytes32"
            },
            {
              "internalType": "uint64",
              "name": "duration",
              "type": "uint64"
            }
          ],
          "internalType": "struct Movies.MovieDetails",
          "name": "details",
          "type": "tuple"
        }
      ],
      "stateMutability": "view",
      "type": "function"
    },
    {
      "inputs": [],
      "name": "getMovies",
      "outputs": [
        {
          "internalType": "bytes32[]",
          "name": "movies",
          "type": "bytes32[]"
        }
      ],
      "stateMutability": "view",
      "type": "function"
    },
    {
      "inputs": [
        {
          "internalType": "uint256",
          "name": "_region",
          "type": "uint256"
        },
        {
          "internalType": "uint256",
          "name": "_cinema",
          "type": "uint256"
        }
      ],
      "name": "getMoviesInCinema",
      "outputs": [
        {
          "internalType": "uint32[]",
          "name": "movies",
          "type": "uint32[]"
        }
      ],
      "stateMutability": "view",
      "type": "function"
    },
    {
      "inputs": [
        {
          "internalType": "uint256",
          "name": "",
          "type": "uint256"
        }
      ],
      "name": "movieToDetails",
      "outputs": [
        {
          "internalType": "bytes32",
          "name": "title",
          "type": "bytes32"
        },
        {
          "internalType": "uint64",
          "name": "duration",
          "type": "uint64"
        }
      ],
      "stateMutability": "view",
      "type": "function"
    },
    {
      "inputs": [],
      "name": "moviesTotal",
      "outputs": [
        {
          "internalType": "uint32",
          "name": "",
          "type": "uint32"
        }
      ],
      "stateMutability": "view",
      "type": "function"
    },
    {
      "inputs": [
        {
          "internalType": "address",
          "name": "_cinemaContractAddress",
          "type": "address"
        }
      ],
      "name": "setInterfaces",
      "outputs": [],
      "stateMutability": "nonpayable",
      "type": "function"
    }
  ],
  "bytecode": {
    "object": "0x608060405234801561001057600080fd5b506109c2806100206000396000f3fe608060405234801561001057600080fd5b506004361061009e5760003560e01c80637b92f587116100665780637b92f587146101e85780637f3b6f1a14610213578063d74a121b14610226578063da8292d914610246578063f9b04e2e1461027657600080fd5b806326225560146100a35780632c53b406146100f4578063524ec846146101095780635c7b14c11461015857806366094a38146101d3575b600080fd5b6100da6100b13660046106e7565b600160209081526000938452604080852082529284528284209052825290205463ffffffff1681565b60405163ffffffff90911681526020015b60405180910390f35b6100fc61028d565b6040516100eb9190610713565b61013a610117366004610757565b6002602052600090815260409020805460019091015467ffffffffffffffff1682565b6040805192835267ffffffffffffffff9091166020830152016100eb565b6101ae610166366004610757565b6040805180820190915260008082526020820152506000908152600260209081526040918290208251808401909352805483526001015467ffffffffffffffff169082015290565b604080518251815260209283015167ffffffffffffffff1692810192909252016100eb565b6101e66101e13660046107bc565b610343565b005b6000546101fb906001600160a01b031681565b6040516001600160a01b0390911681526020016100eb565b6101e6610221366004610828565b610416565b61023961023436600461086f565b61059a565b6040516100eb9190610891565b6101e66102543660046108cf565b600080546001600160a01b0319166001600160a01b0392909216919091179055565b6000546100da90600160a01b900463ffffffff1681565b600054606090600160a01b900463ffffffff168067ffffffffffffffff8111156102b9576102b96108ff565b6040519080825280602002602001820160405280156102e2578160200160208202803683370190505b50915060005b8181101561033e57600260006102ff83600161092b565b81526020019081526020016000206000015483828151811061032357610323610944565b60209081029190910101526103378161095a565b90506102e8565b505090565b60008054600160a01b900463ffffffff16905b848110156103eb5761036960018361092b565b600081815260026020526040902090925084848381811061038c5761038c610944565b905060200201358160010160006101000a81548167ffffffffffffffff021916908367ffffffffffffffff1602179055508686838181106103cf576103cf610944565b6020029190910135909155506103e48161095a565b9050610356565b506000805463ffffffff909216600160a01b0263ffffffff60a01b1990921691909117905550505050565b60008054604051631e62cf6160e11b815260048101879052602481018690526001600160a01b0390911690633cc59ec290604401602060405180830381865afa158015610467573d6000803e3d6000fd5b505050506040513d601f19601f8201168201806040525081019061048b9190610973565b9050600061049a82600161092b565b905060005b83811015610525578484828181106104b9576104b9610944565b60008a81526001602090815260408083208c8452825282209202939093013592909150846104e68161095a565b9550815260200190815260200160002060006101000a81548163ffffffff021916908363ffffffff1602179055508061051e9061095a565b905061049f565b5060005460405163e33d16a360e01b81526004810188905260248101879052604481018590526001600160a01b039091169063e33d16a390606401600060405180830381600087803b15801561057a57600080fd5b505af115801561058e573d6000803e3d6000fd5b50505050505050505050565b60008054604051631e62cf6160e11b81526004810185905260248101849052606092916001600160a01b031690633cc59ec290604401602060405180830381865afa1580156105ed573d6000803e3d6000fd5b505050506040513d601f19601f820116820180604052508101906106119190610973565b90508067ffffffffffffffff81111561062c5761062c6108ff565b604051908082528060200260200182016040528015610655578160200160208202803683370190505b50915060005b818110156106df5760008581526001602081815260408084208885529091528220919061068990849061092b565b815260200190815260200160002060009054906101000a900463ffffffff168382815181106106ba576106ba610944565b63ffffffff909216602092830291909101909101526106d88161095a565b905061065b565b505092915050565b6000806000606084860312156106fc57600080fd5b505081359360208301359350604090920135919050565b6020808252825182820181905260009190848201906040850190845b8181101561074b5783518352928401929184019160010161072f565b50909695505050505050565b60006020828403121561076957600080fd5b5035919050565b60008083601f84011261078257600080fd5b50813567ffffffffffffffff81111561079a57600080fd5b6020830191508360208260051b85010111156107b557600080fd5b9250929050565b600080600080604085870312156107d257600080fd5b843567ffffffffffffffff808211156107ea57600080fd5b6107f688838901610770565b9096509450602087013591508082111561080f57600080fd5b5061081c87828801610770565b95989497509550505050565b6000806000806060858703121561083e57600080fd5b8435935060208501359250604085013567ffffffffffffffff81111561086357600080fd5b61081c87828801610770565b6000806040838503121561088257600080fd5b50508035926020909101359150565b6020808252825182820181905260009190848201906040850190845b8181101561074b57835163ffffffff16835292840192918401916001016108ad565b6000602082840312156108e157600080fd5b81356001600160a01b03811681146108f857600080fd5b9392505050565b634e487b7160e01b600052604160045260246000fd5b634e487b7160e01b600052601160045260246000fd5b8082018082111561093e5761093e610915565b92915050565b634e487b7160e01b600052603260045260246000fd5b60006001820161096c5761096c610915565b5060010190565b60006020828403121561098557600080fd5b505191905056fea26469706673582212206240c14983a66b02a16dd09092d794305477e9c2e76a4b936fd72e8552d3966764736f6c63430008100033",
    "linkReferences": {}
  },
  "methodIdentifiers": {
    "addMovies(bytes32[],uint256[])": "66094a38",
    "addMoviesToCinema(uint256,uint256,uint256[])": "7f3b6f1a",
    "cinemaInterface()": "7b92f587",
    "cinemaToMovies(uint256,uint256,uint256)": "26225560",
    "getMovieDetails(uint256)": "5c7b14c1",
    "getMovies()": "2c53b406",
    "getMoviesInCinema(uint256,uint256)": "d74a121b",
    "movieToDetails(uint256)": "524ec846",
    "moviesTotal()": "f9b04e2e",
    "setInterfaces(address)": "da8292d9"
  },
  "id": 19
}