{
  "abi": [
    {
      "inputs": [
        {
          "internalType": "uint256[]",
          "name": "_movieIds",
          "type": "uint256[]"
        },
        {
          "internalType": "bytes32[]",
          "name": "_titles",
          "type": "bytes32[]"
        },
        {
          "internalType": "uint256[]",
          "name": "_durations",
          "type": "uint256[]"
        }
      ],
      "name": "addMovies",
      "outputs": [],
      "stateMutability": "nonpayable",
      "type": "function"
    },
    {
      "inputs": [
        {
          "internalType": "uint256[]",
          "name": "_movieIds",
          "type": "uint256[]"
        }
      ],
      "name": "deleteMovies",
      "outputs": [],
      "stateMutability": "nonpayable",
      "type": "function"
    },
    {
      "inputs": [
        {
          "internalType": "uint256",
          "name": "_movieId",
          "type": "uint256"
        }
      ],
      "name": "getMovieDetails",
      "outputs": [
        {
          "components": [
            {
              "internalType": "bytes32",
              "name": "title",
              "type": "bytes32"
            },
            {
              "internalType": "uint64",
              "name": "duration",
              "type": "uint64"
            }
          ],
          "internalType": "struct Movies.MovieDetails",
          "name": "details",
          "type": "tuple"
        }
      ],
      "stateMutability": "view",
      "type": "function"
    },
    {
      "inputs": [],
      "name": "getMovies",
      "outputs": [
        {
          "internalType": "uint256[]",
          "name": "movies",
          "type": "uint256[]"
        }
      ],
      "stateMutability": "view",
      "type": "function"
    },
    {
      "inputs": [
        {
          "internalType": "uint256",
          "name": "_movie",
          "type": "uint256"
        }
      ],
      "name": "isMovieExist",
      "outputs": [
        {
          "internalType": "bool",
          "name": "result",
          "type": "bool"
        }
      ],
      "stateMutability": "view",
      "type": "function"
    },
    {
      "inputs": [
        {
          "internalType": "uint256",
          "name": "",
          "type": "uint256"
        }
      ],
      "name": "movieExistStatus",
      "outputs": [
        {
          "internalType": "bool",
          "name": "",
          "type": "bool"
        }
      ],
      "stateMutability": "view",
      "type": "function"
    },
    {
      "inputs": [
        {
          "internalType": "uint256",
          "name": "",
          "type": "uint256"
        }
      ],
      "name": "movieIds",
      "outputs": [
        {
          "internalType": "uint256",
          "name": "",
          "type": "uint256"
        }
      ],
      "stateMutability": "view",
      "type": "function"
    },
    {
      "inputs": [
        {
          "internalType": "uint256",
          "name": "",
          "type": "uint256"
        }
      ],
      "name": "movieToDetails",
      "outputs": [
        {
          "internalType": "bytes32",
          "name": "title",
          "type": "bytes32"
        },
        {
          "internalType": "uint64",
          "name": "duration",
          "type": "uint64"
        }
      ],
      "stateMutability": "view",
      "type": "function"
    },
    {
      "inputs": [],
      "name": "moviesTotal",
      "outputs": [
        {
          "internalType": "uint32",
          "name": "",
          "type": "uint32"
        }
      ],
      "stateMutability": "view",
      "type": "function"
    }
  ],
  "bytecode": {
    "object": "0x6080806040523461001657610796908161001c8239f35b600080fdfe608080604052600436101561001357600080fd5b60003560e01c9081631b9f3fb0146100d0575080632c53b406146100c7578063524ec846146100be5780635c7b14c1146100b55780636acd538f146100ac578063d015b964146100a3578063d47e941f1461009a578063f9b04e2e146100915763fa8ebc6c14610084575b38600080fd5b61008c61047e565b61007e565b5061008c610459565b5061008c610432565b5061008c6102b1565b5061008c610254565b5061008c6101f2565b5061008c6101b8565b5061008c61010e565b346100f7576020906100e1366100fc565b6000526003825260ff6040600020541615158152f35b600080fd5b60209060031901126100f75760043590565b50346100f7576000806003193601126101b55763ffffffff8154166101328161070c565b90825b818110610181578284604051918291602080840190808552835180925280604086019401925b82811061016a57505050500390f35b83518552869550938101939281019260010161015b565b6101a39060011981116101a8575b6001810161019d8286610664565b52610603565b610135565b6101b06105ec565b61018f565b80fd5b50346100f7576101c7366100fc565b600052600260205260408060002067ffffffffffffffff600182549201541682519182526020820152f35b50346100f757610201366100fc565b6000602061020d6106be565b82815201526000526002602052604080600020600161022a6106be565b602083549384835267ffffffffffffffff9384910154169101908152835192835251166020820152f35b50346100f757610263366100fc565b6000526003602052602060ff604060002054166040519015158152f35b9181601f840112156100f75782359167ffffffffffffffff83116100f7576020808501948460051b0101116100f757565b50346100f7576020806003193601126100f75760043567ffffffffffffffff81116100f7576102e4903690600401610280565b9060009063ffffffff9384835416906102fc8561070c565b93805b8381106103d2575050505060005b8381106103495761034761033186861661032c60005463ffffffff1690565b610686565b63ffffffff1663ffffffff196000541617600055565b005b80600061036d61035c6103cd9487610664565b516000526001602052604060002090565b5561039c61039061037f838887610636565b356000526002602052604060002090565b60016000918281550155565b6103c86103be6103ad838887610636565b356000526003602052604060002090565b805460ff19169055565b610603565b61030d565b8060005260018084526040600020546103ec848a89610636565b3514610402575b506103fd90610603565b6102ff565b82826104126103fd94958a610664565b526001198111610425575b0191906103f3565b61042d6105ec565b61041d565b50346100f757610441366100fc565b60005260016020526020604060002054604051908152f35b50346100f75760003660031901126100f757602063ffffffff60005416604051908152f35b50346100f75760603660031901126100f75767ffffffffffffffff6004358181116100f7576104b1903690600401610280565b90916024358181116100f7576104cb903690600401610280565b9290916044359081116100f7576104e9909392933690600401610280565b919063ffffffff93600095858754169487945b808610610525578861052089891663ffffffff1663ffffffff196000541617600055565b604051f35b9091929394956105dc6105e29161058961037f8a868f8f60406105639161054d868686610636565b358152600360205220805460ff19166001179055565b61056e838383610636565b35610583876000526001602052604060002090565b55610636565b6105c96105a861059a8c898d610636565b3567ffffffffffffffff1690565b600183019067ffffffffffffffff1667ffffffffffffffff19825416179055565b6105d48a8989610636565b359055610654565b96610603565b94939291906104fc565b50634e487b7160e01b600052601160045260246000fd5b6001906000198114610613570190565b61061b6105ec565b0190565b50634e487b7160e01b600052603260045260246000fd5b9190811015610647575b60051b0190565b61064f61061f565b610640565b6001906001198111610613570190565b6020918151811015610679575b60051b010190565b61068161061f565b610671565b63ffffffff918216911681811061069b570390565b6106a36105ec565b0390565b50634e487b7160e01b600052604160045260246000fd5b604051906040820182811067ffffffffffffffff8211176106de57604052565b6106e66106a7565b604052565b60209067ffffffffffffffff81116107045760051b0190565b61064f6106a7565b90610716826106eb565b60405190601f1990601f018116820167ffffffffffffffff811183821017610753575b60405283825261074982946106eb565b0190602036910137565b61075b6106a7565b61073956fea2646970667358221220eae3b6cb590df6461bba970b211d5abca718bac26dbcd431e4a3aec127beb48764736f6c634300080d0033",
    "linkReferences": {}
  },
  "methodIdentifiers": {
    "addMovies(uint256[],bytes32[],uint256[])": "fa8ebc6c",
    "deleteMovies(uint256[])": "d015b964",
    "getMovieDetails(uint256)": "5c7b14c1",
    "getMovies()": "2c53b406",
    "isMovieExist(uint256)": "6acd538f",
    "movieExistStatus(uint256)": "1b9f3fb0",
    "movieIds(uint256)": "d47e941f",
    "movieToDetails(uint256)": "524ec846",
    "moviesTotal()": "f9b04e2e"
  },
  "id": 24
}