{
  "abi": [
    {
      "inputs": [
        {
          "internalType": "uint256",
          "name": "",
          "type": "uint256"
        }
      ],
      "name": "activeRegions",
      "outputs": [
        {
          "internalType": "uint256",
          "name": "",
          "type": "uint256"
        }
      ],
      "stateMutability": "view",
      "type": "function"
    },
    {
      "inputs": [
        {
          "internalType": "uint256",
          "name": "",
          "type": "uint256"
        }
      ],
      "name": "activeRegionsStatus",
      "outputs": [
        {
          "internalType": "bool",
          "name": "",
          "type": "bool"
        }
      ],
      "stateMutability": "view",
      "type": "function"
    },
    {
      "inputs": [
        {
          "internalType": "uint256",
          "name": "_region",
          "type": "uint256"
        },
        {
          "internalType": "uint256[]",
          "name": "_cinemas",
          "type": "uint256[]"
        }
      ],
      "name": "addCinemasInRegion",
      "outputs": [],
      "stateMutability": "nonpayable",
      "type": "function"
    },
    {
      "inputs": [
        {
          "internalType": "uint256",
          "name": "_region",
          "type": "uint256"
        },
        {
          "internalType": "bytes32",
          "name": "_name",
          "type": "bytes32"
        }
      ],
      "name": "addRegion",
      "outputs": [],
      "stateMutability": "nonpayable",
      "type": "function"
    },
    {
      "inputs": [
        {
          "internalType": "uint256",
          "name": "_region",
          "type": "uint256"
        },
        {
          "internalType": "uint256",
          "name": "_cinema",
          "type": "uint256"
        }
      ],
      "name": "checkCinemaInRegion",
      "outputs": [
        {
          "internalType": "bool",
          "name": "result",
          "type": "bool"
        }
      ],
      "stateMutability": "view",
      "type": "function"
    },
    {
      "inputs": [
        {
          "internalType": "uint256",
          "name": "_region",
          "type": "uint256"
        },
        {
          "internalType": "uint256[]",
          "name": "_cinemas",
          "type": "uint256[]"
        }
      ],
      "name": "deleteCinemasInRegion",
      "outputs": [],
      "stateMutability": "nonpayable",
      "type": "function"
    },
    {
      "inputs": [
        {
          "internalType": "uint256",
          "name": "_region",
          "type": "uint256"
        }
      ],
      "name": "deleteRegion",
      "outputs": [],
      "stateMutability": "nonpayable",
      "type": "function"
    },
    {
      "inputs": [
        {
          "internalType": "uint256",
          "name": "_region",
          "type": "uint256"
        }
      ],
      "name": "getCinemasInRegion",
      "outputs": [
        {
          "internalType": "uint256[]",
          "name": "cinemas",
          "type": "uint256[]"
        }
      ],
      "stateMutability": "view",
      "type": "function"
    },
    {
      "inputs": [],
      "name": "getRegions",
      "outputs": [
        {
          "internalType": "uint256[]",
          "name": "regions",
          "type": "uint256[]"
        }
      ],
      "stateMutability": "view",
      "type": "function"
    },
    {
      "inputs": [
        {
          "internalType": "uint256",
          "name": "_region",
          "type": "uint256"
        }
      ],
      "name": "getRegionsDetails",
      "outputs": [
        {
          "internalType": "bytes32",
          "name": "_name",
          "type": "bytes32"
        },
        {
          "internalType": "uint256",
          "name": "_cinemasAmount",
          "type": "uint256"
        },
        {
          "internalType": "uint256[]",
          "name": "_cinemas",
          "type": "uint256[]"
        }
      ],
      "stateMutability": "view",
      "type": "function"
    },
    {
      "inputs": [
        {
          "internalType": "uint256",
          "name": "",
          "type": "uint256"
        }
      ],
      "name": "regionToDetails",
      "outputs": [
        {
          "internalType": "uint256",
          "name": "regionId",
          "type": "uint256"
        },
        {
          "internalType": "bytes32",
          "name": "name",
          "type": "bytes32"
        },
        {
          "internalType": "uint8",
          "name": "cinemasAmount",
          "type": "uint8"
        }
      ],
      "stateMutability": "view",
      "type": "function"
    },
    {
      "inputs": [],
      "name": "regionsAmount",
      "outputs": [
        {
          "internalType": "uint256",
          "name": "",
          "type": "uint256"
        }
      ],
      "stateMutability": "view",
      "type": "function"
    },
    {
      "inputs": [
        {
          "internalType": "address",
          "name": "_rolesContractAddress",
          "type": "address"
        }
      ],
      "name": "setInterface",
      "outputs": [],
      "stateMutability": "nonpayable",
      "type": "function"
    },
    {
      "inputs": [
        {
          "internalType": "uint256",
          "name": "_region",
          "type": "uint256"
        },
        {
          "internalType": "bytes32",
          "name": "_name",
          "type": "bytes32"
        }
      ],
      "name": "updateRegionName",
      "outputs": [],
      "stateMutability": "nonpayable",
      "type": "function"
    }
  ],
  "bytecode": {
    "object": "0x6080806040523461001657610c18908161001c8239f35b600080fdfe60806040526004361015610013575b600080fd5b60003560e01c806305927c401461012b578063129010f21461012257806339ebfa63146101195780633e83a0de1461011057806347ef01a114610107578063653d535a146100fe57806388e61bf8146100f557806397492c46146100ec578063a5fbfadd146100e3578063b219bbcd146100da578063b71b9dab146100d1578063c8941bc0146100c8578063c8d0f3c3146100bf5763d83ff2d3146100b757600080fd5b61000e61088f565b5061000e610835565b5061000e6107ba565b5061000e61074e565b5061000e6106ed565b5061000e6106ce565b5061000e610691565b5061000e6105d5565b5061000e6105a3565b5061000e610455565b5061000e6103a1565b5061000e610301565b5061000e6101c2565b503461000e57602036600319011261000e5760043560005260046020526060604060002080549060ff60026001830154920154169060405192835260208301526040820152f35b604060031982011261000e576004359160243567ffffffffffffffff9283821161000e578060238301121561000e57816004013593841161000e5760248460051b8301011161000e576024019190565b503461000e576101d136610172565b9190816000526004602052604060002060028101926102058560ff86541694600186106102de575b60001986019493610a89565b91600360009201905b86831061023c5761023a8661022c6102268a89610a72565b60ff1690565b60ff1660ff19825416179055565b005b6102d2816102a961027661026d61026d6102636102d8978990600052602052604060002090565b5463ffffffff1690565b63ffffffff1690565b610294610283888a6109ac565b518790600052602052604060002090565b9063ffffffff1663ffffffff19825416179055565b6102cd6102c0888690600052602052604060002090565b805463ffffffff19169055565b610a55565b92610979565b9161020e565b6102e6610962565b6101f9565b604090600319011261000e576004359060243590565b503461000e57610310366102eb565b6000546040516317eaa0ff60e21b815291929161035291602090829060049082906001600160a01b03165afa908115610394575b600091610366575b50610b43565b600090815260046020526040902060010155005b610387915060203d811161038d575b61037f81836108da565b810190610b1e565b3861034c565b503d610375565b61039c610b36565b610344565b503461000e576103b036610172565b60009283526020906004825260409283852090600282019360ff855416936003889401905b8085106103f157865460ff191660ff8716178755888851f35b51f35b9091929394600161043f9161042f63ffffffff61040f8a878b610a3d565b3516828d528688528b8d209063ffffffff1663ffffffff19825416179055565b81198111610448575b0195610979565b939291906103d5565b610450610962565b610438565b503461000e5760208060031936011261000e5760008054604080516317eaa0ff60e21b81529293909260048035936104ae9291849183919082906001600160a01b03165afa908115610596575b869161057f5750610b43565b81845260048152828420600154918590865b848110610557575050826102cd60026105529461054d9461050c6104fa6104ea6103ee9b9a610a55565b6000526002602052604060002090565b54916000526002602052604060002090565b5561052e610524886000526003602052604060002090565b805460ff19169055565b8961053b6104ea86610a55565b558960018201550160ff198154169055565b600155565b610b8f565b80885260028252858789205414610577575b61057290610979565b6104c0565b915081610569565b6103879150833d851161038d5761037f81836108da565b61059e610b36565b6104a2565b503461000e57602036600319011261000e576004356000526003602052602060ff604060002054166040519015158152f35b503461000e576105e4366102eb565b600091808352600360205260409160ff8385205416610655576102266102266103ee9361054d936001805492838a52600260205280898b2055808a526003602052888a208260ff198254161790556004602052888a2090815561064e6002820160ff198154169055565b0155610a2d565b825162461bcd60e51b8152602060048201526015602482015274526567696f6e20616c72656164792061637469766560581b6044820152606490fd5b503461000e57602036600319011261000e576004356001600160a01b0381169081900361000e57600080546001600160a01b031916919091179055005b503461000e57600036600319011261000e576020600154604051908152f35b503461000e57602036600319011261000e5760043560005260026020526020604060002054604051908152f35b90815180825260208080930193019160005b82811061073a575050505090565b83518552938101939281019260010161072c565b503461000e576000806003193601126107b75760015461076d81610930565b91805b828110610791576040516020808252819061078d9082018761071a565b0390f35b806107b2918352600260205260408320546107ac82876109ac565b52610979565b610770565b80fd5b503461000e5760408060031936011261000e5760243560009060043582526020906004825283832060ff600282015416926003859201915b8481106108055786518615158152602090f35b806000528282528363ffffffff8860002054161461082c575b61082790610979565b6107f2565b6001955061081e565b503461000e57602036600319011261000e57600435806000526004602052604060002061078d61087160ff6002600185015494015416936109ce565b6040519384938452602084015260606040840152606083019061071a565b503461000e57602036600319011261000e5761078d6108af6004356109ce565b60405191829160208352602083019061071a565b50634e487b7160e01b600052604160045260246000fd5b90601f8019910116810190811067ffffffffffffffff8211176108fc57604052565b6109046108c3565b604052565b60209067ffffffffffffffff8111610923575b60051b0190565b61092b6108c3565b61091c565b9061093a82610909565b61094760405191826108da565b8281528092610958601f1991610909565b0190602036910137565b50634e487b7160e01b600052601160045260246000fd5b6001906000198114610989570190565b610991610962565b0190565b50634e487b7160e01b600052603260045260246000fd5b60209181518110156109c1575b60051b010190565b6109c9610995565b6109b9565b9060009182526020916004835260408082209160ff600284015416926109f384610930565b956003839201915b858110610a0a57505050505050565b80610a2891855283835263ffffffff86862054166107ac828b6109ac565b6109fb565b6001906001198111610989570190565b9190811015610a4d5760051b0190565b61092b610995565b60018110610a65575b6000190190565b610a6d610962565b610a5e565b818110610a7d570390565b610a85610962565b0390565b929190600090610a9883610930565b94825260209260048452604080842060ff600282015416956003869201915b878110610ac8575050505050505050565b806000528282528963ffffffff856000205416610ae689888a610a3d565b3514610afc575b50610af790610979565b610ab7565b819782610b0f610af794610b15946109ac565b52610a2d565b96905089610aed565b9081602091031261000e5751801515810361000e5790565b506040513d6000823e3d90fd5b15610b4a57565b60405162461bcd60e51b815260206004820152601860248201527f596f75277265206e6f7420612073757065722061646d696e00000000000000006044820152606490fd5b60009081526020906004825260409081812060ff600282015416936003839201915b858110610bc057505050505050565b808452828252848420805463ffffffff19169055610bdd90610979565b610bb156fea2646970667358221220dbbd5515eed9f41aff2d903ade7896485e82cc5cffdfaa9497fbb01aeda2d2be64736f6c634300080d0033",
    "linkReferences": {}
  },
  "methodIdentifiers": {
    "activeRegions(uint256)": "b219bbcd",
    "activeRegionsStatus(uint256)": "653d535a",
    "addCinemasInRegion(uint256,uint256[])": "3e83a0de",
    "addRegion(uint256,bytes32)": "88e61bf8",
    "checkCinemaInRegion(uint256,uint256)": "c8941bc0",
    "deleteCinemasInRegion(uint256,uint256[])": "129010f2",
    "deleteRegion(uint256)": "47ef01a1",
    "getCinemasInRegion(uint256)": "d83ff2d3",
    "getRegions()": "b71b9dab",
    "getRegionsDetails(uint256)": "c8d0f3c3",
    "regionToDetails(uint256)": "05927c40",
    "regionsAmount()": "a5fbfadd",
    "setInterface(address)": "97492c46",
    "updateRegionName(uint256,bytes32)": "39ebfa63"
  },
  "id": 25
}