{
  "abi": [
    {
      "inputs": [],
      "stateMutability": "nonpayable",
      "type": "constructor"
    },
    {
      "anonymous": false,
      "inputs": [
        {
          "indexed": true,
          "internalType": "address",
          "name": "previousOwner",
          "type": "address"
        },
        {
          "indexed": true,
          "internalType": "address",
          "name": "newOwner",
          "type": "address"
        }
      ],
      "name": "OwnershipTransferred",
      "type": "event"
    },
    {
      "inputs": [
        {
          "internalType": "uint256",
          "name": "_region",
          "type": "uint256"
        },
        {
          "internalType": "uint256",
          "name": "_cinema",
          "type": "uint256"
        },
        {
          "internalType": "address[]",
          "name": "_newAdmins",
          "type": "address[]"
        }
      ],
      "name": "addAdmins",
      "outputs": [],
      "stateMutability": "nonpayable",
      "type": "function"
    },
    {
      "inputs": [
        {
          "internalType": "address[]",
          "name": "_newManagers",
          "type": "address[]"
        }
      ],
      "name": "addManager",
      "outputs": [],
      "stateMutability": "nonpayable",
      "type": "function"
    },
    {
      "inputs": [
        {
          "internalType": "address",
          "name": "",
          "type": "address"
        }
      ],
      "name": "adminDetails",
      "outputs": [
        {
          "internalType": "uint8",
          "name": "region",
          "type": "uint8"
        },
        {
          "internalType": "uint8",
          "name": "cinema",
          "type": "uint8"
        }
      ],
      "stateMutability": "view",
      "type": "function"
    },
    {
      "inputs": [
        {
          "internalType": "address",
          "name": "",
          "type": "address"
        }
      ],
      "name": "adminStatus",
      "outputs": [
        {
          "internalType": "bool",
          "name": "",
          "type": "bool"
        }
      ],
      "stateMutability": "view",
      "type": "function"
    },
    {
      "inputs": [
        {
          "internalType": "uint256",
          "name": "_region",
          "type": "uint256"
        },
        {
          "internalType": "uint256",
          "name": "_cinema",
          "type": "uint256"
        },
        {
          "internalType": "address[]",
          "name": "_admins",
          "type": "address[]"
        }
      ],
      "name": "deleteAdmins",
      "outputs": [],
      "stateMutability": "nonpayable",
      "type": "function"
    },
    {
      "inputs": [
        {
          "internalType": "address[]",
          "name": "_managers",
          "type": "address[]"
        }
      ],
      "name": "deleteManagers",
      "outputs": [],
      "stateMutability": "nonpayable",
      "type": "function"
    },
    {
      "inputs": [
        {
          "internalType": "address",
          "name": "_admin",
          "type": "address"
        }
      ],
      "name": "isAdmin",
      "outputs": [
        {
          "internalType": "bool",
          "name": "result",
          "type": "bool"
        }
      ],
      "stateMutability": "view",
      "type": "function"
    },
    {
      "inputs": [
        {
          "internalType": "address",
          "name": "_manager",
          "type": "address"
        }
      ],
      "name": "isManager",
      "outputs": [
        {
          "internalType": "bool",
          "name": "result",
          "type": "bool"
        }
      ],
      "stateMutability": "view",
      "type": "function"
    },
    {
      "inputs": [],
      "name": "managerAmount",
      "outputs": [
        {
          "internalType": "uint32",
          "name": "",
          "type": "uint32"
        }
      ],
      "stateMutability": "view",
      "type": "function"
    },
    {
      "inputs": [
        {
          "internalType": "address",
          "name": "",
          "type": "address"
        }
      ],
      "name": "managerStatus",
      "outputs": [
        {
          "internalType": "bool",
          "name": "",
          "type": "bool"
        }
      ],
      "stateMutability": "view",
      "type": "function"
    },
    {
      "inputs": [],
      "name": "owner",
      "outputs": [
        {
          "internalType": "address",
          "name": "",
          "type": "address"
        }
      ],
      "stateMutability": "view",
      "type": "function"
    },
    {
      "inputs": [
        {
          "internalType": "uint256",
          "name": "",
          "type": "uint256"
        },
        {
          "internalType": "uint256",
          "name": "",
          "type": "uint256"
        }
      ],
      "name": "regionToCinemaToAdminAmount",
      "outputs": [
        {
          "internalType": "uint32",
          "name": "",
          "type": "uint32"
        }
      ],
      "stateMutability": "view",
      "type": "function"
    },
    {
      "inputs": [],
      "name": "renounceOwnership",
      "outputs": [],
      "stateMutability": "nonpayable",
      "type": "function"
    },
    {
      "inputs": [
        {
          "internalType": "address",
          "name": "newOwner",
          "type": "address"
        }
      ],
      "name": "transferOwnership",
      "outputs": [],
      "stateMutability": "nonpayable",
      "type": "function"
    }
  ],
  "bytecode": {
    "object": "0x60806040523480156200001157600080fd5b506200001d3362000080565b6040805160018082528183019092526000916020808301908036833701905050905033816000815181106200005657620000566200025e565b6001600160a01b03909216602092830291909101909101526200007981620000d0565b50620002c1565b600080546001600160a01b038381166001600160a01b0319831681178455604051919092169283917f8be0079c531659141344cd1fd0a4f28419497f9722a3daafe3b4186f6b6457e09190a35050565b620000da62000200565b60008054600160a01b900463ffffffff16905b8251811015620001d85760008382815181106200010e576200010e6200025e565b6020908102919091018101516001600160a01b0381166000908152600290925260409091205490915060ff1680156200018e5760405162461bcd60e51b815260206004820152601760248201527f4164647265737320616c7265616479206578697374656400000000000000000060448201526064015b60405180910390fd5b6001600160a01b0382166000908152600260205260409020805460ff19166001908117909155620001c090856200028a565b9350505080620001d090620002a5565b9050620000ed565b506000805463ffffffff909216600160a01b0263ffffffff60a01b1990921691909117905550565b6000546001600160a01b031633146200025c5760405162461bcd60e51b815260206004820181905260248201527f4f776e61626c653a2063616c6c6572206973206e6f7420746865206f776e6572604482015260640162000185565b565b634e487b7160e01b600052603260045260246000fd5b634e487b7160e01b600052601160045260246000fd5b60008219821115620002a057620002a062000274565b500190565b600060018201620002ba57620002ba62000274565b5060010190565b610bd780620002d16000396000f3fe608060405234801561001057600080fd5b50600436106100ea5760003560e01c80635d219fa91161008c578063d793655211610066578063d793655214610254578063f2fde38b14610277578063f3ae24151461028a578063f86d6d3a146102b657600080fd5b80635d219fa91461021e578063715018a6146102315780638da5cb5b1461023957600080fd5b80633e4a89d1116100c85780633e4a89d1146101a257806340cde2f7146101c557806345431baa146101f65780635aa352b41461020b57600080fd5b806324d7806c146100ef5780632f2d4786146101305780633c09600514610176575b600080fd5b61011b6100fd36600461098b565b6001600160a01b031660009081526001602052604090205460ff1690565b60405190151581526020015b60405180910390f35b61015c61013e36600461098b565b60036020526000908152604090205460ff8082169161010090041682565b6040805160ff938416815292909116602083015201610127565b60005461018d90600160a01b900463ffffffff1681565b60405163ffffffff9091168152602001610127565b61011b6101b036600461098b565b60016020526000908152604090205460ff1681565b61018d6101d33660046109ad565b600460209081526000928352604080842090915290825290205463ffffffff1681565b6102096102043660046109cf565b6102c9565b005b6102096102193660046109cf565b61040a565b61020961022c366004610a68565b610693565b610209610741565b6000546040516001600160a01b039091168152602001610127565b61011b61026236600461098b565b60026020526000908152604090205460ff1681565b61020961028536600461098b565b610755565b61011b61029836600461098b565b6001600160a01b031660009081526002602052604090205460ff1690565b6102096102c4366004610a68565b6107ce565b3360009081526002602052604090205460ff16806103295760405162461bcd60e51b81526020600482015260186024820152772cb7ba93b932903737ba10309039bab832b91030b236b4b760411b60448201526064015b60405180910390fd5b600085815260046020908152604080832087845290915281205463ffffffff16905b838110156103d157600085858381811061036757610367610b2d565b905060200201602081019061037c919061098b565b6001600160a01b0381166000908152600160208181526040808420805460ff191690556003909152909120805461ffff191690559091506103bd9084610b59565b925050806103ca90610b70565b905061034b565b50600095865260046020908152604080882096885295905293909420805463ffffffff191663ffffffff90941693909317909255505050565b3360009081526002602052604090205460ff16806104655760405162461bcd60e51b81526020600482015260186024820152772cb7ba93b932903737ba10309039bab832b91030b236b4b760411b6044820152606401610320565b8282868660005b8381101561051d57600085858381811061048857610488610b2d565b905060200201602081019061049d919061098b565b6001600160a01b03811660009081526001602052604090205490915060ff16801561050a5760405162461bcd60e51b815260206004820152601860248201527f4164647265737320616c726561647920616e2061646d696e00000000000000006044820152606401610320565b50508061051690610b70565b905061046c565b5060008981526004602090815260408083208b845290915281205463ffffffff16905b8781101561065657600089898381811061055c5761055c610b2d565b9050602002016020810190610571919061098b565b90506001806000836001600160a01b03166001600160a01b0316815260200190815260200160002060006101000a81548160ff02191690831515021790555060405180604001604052808d60ff1681526020018c60ff1681525060036000836001600160a01b03166001600160a01b0316815260200190815260200160002060008201518160000160006101000a81548160ff021916908360ff16021790555060208201518160000160016101000a81548160ff021916908360ff1602179055509050506001836106429190610b89565b9250508061064f90610b70565b9050610540565b506000998a52600460209081526040808c209a8c5299905297909820805463ffffffff191663ffffffff9098169790971790965550505050505050565b61069b6108c5565b60008054600160a01b900463ffffffff16905b82518110156107195760008382815181106106cb576106cb610b2d565b6020908102919091018101516001600160a01b038116600090815260029092526040909120805460ff191690559050610705600184610b59565b9250508061071290610b70565b90506106ae565b506000805463ffffffff909216600160a01b0263ffffffff60a01b1990921691909117905550565b6107496108c5565b610753600061091f565b565b61075d6108c5565b6001600160a01b0381166107c25760405162461bcd60e51b815260206004820152602660248201527f4f776e61626c653a206e6577206f776e657220697320746865207a65726f206160448201526564647265737360d01b6064820152608401610320565b6107cb8161091f565b50565b6107d66108c5565b60008054600160a01b900463ffffffff16905b825181101561071957600083828151811061080657610806610b2d565b6020908102919091018101516001600160a01b0381166000908152600290925260409091205490915060ff1680156108805760405162461bcd60e51b815260206004820152601760248201527f4164647265737320616c726561647920657869737465640000000000000000006044820152606401610320565b6001600160a01b0382166000908152600260205260409020805460ff191660019081179091556108b09085610b89565b93505050806108be90610b70565b90506107e9565b6000546001600160a01b031633146107535760405162461bcd60e51b815260206004820181905260248201527f4f776e61626c653a2063616c6c6572206973206e6f7420746865206f776e65726044820152606401610320565b600080546001600160a01b038381166001600160a01b0319831681178455604051919092169283917f8be0079c531659141344cd1fd0a4f28419497f9722a3daafe3b4186f6b6457e09190a35050565b80356001600160a01b038116811461098657600080fd5b919050565b60006020828403121561099d57600080fd5b6109a68261096f565b9392505050565b600080604083850312156109c057600080fd5b50508035926020909101359150565b600080600080606085870312156109e557600080fd5b8435935060208501359250604085013567ffffffffffffffff80821115610a0b57600080fd5b818701915087601f830112610a1f57600080fd5b813581811115610a2e57600080fd5b8860208260051b8501011115610a4357600080fd5b95989497505060200194505050565b634e487b7160e01b600052604160045260246000fd5b60006020808385031215610a7b57600080fd5b823567ffffffffffffffff80821115610a9357600080fd5b818501915085601f830112610aa757600080fd5b813581811115610ab957610ab9610a52565b8060051b604051601f19603f83011681018181108582111715610ade57610ade610a52565b604052918252848201925083810185019188831115610afc57600080fd5b938501935b82851015610b2157610b128561096f565b84529385019392850192610b01565b98975050505050505050565b634e487b7160e01b600052603260045260246000fd5b634e487b7160e01b600052601160045260246000fd5b600082821015610b6b57610b6b610b43565b500390565b600060018201610b8257610b82610b43565b5060010190565b60008219821115610b9c57610b9c610b43565b50019056fea2646970667358221220e0fed0fc387451880700b99f72b38b23222f5554216899d4fa9e8557ab6c847764736f6c634300080d0033",
    "linkReferences": {}
  },
  "methodIdentifiers": {
    "addAdmins(uint256,uint256,address[])": "5aa352b4",
    "addManager(address[])": "f86d6d3a",
    "adminDetails(address)": "2f2d4786",
    "adminStatus(address)": "3e4a89d1",
    "deleteAdmins(uint256,uint256,address[])": "45431baa",
    "deleteManagers(address[])": "5d219fa9",
    "isAdmin(address)": "24d7806c",
    "isManager(address)": "f3ae2415",
    "managerAmount()": "3c096005",
    "managerStatus(address)": "d7936552",
    "owner()": "8da5cb5b",
    "regionToCinemaToAdminAmount(uint256,uint256)": "40cde2f7",
    "renounceOwnership()": "715018a6",
    "transferOwnership(address)": "f2fde38b"
  },
  "id": 23
}