{
  "abi": [
    {
      "anonymous": false,
      "inputs": [
        {
          "indexed": true,
          "internalType": "address",
          "name": "previousOwner",
          "type": "address"
        },
        {
          "indexed": true,
          "internalType": "address",
          "name": "newOwner",
          "type": "address"
        }
      ],
      "name": "OwnershipTransferred",
      "type": "event"
    },
    {
      "inputs": [
        {
          "internalType": "uint256",
          "name": "_region",
          "type": "uint256"
        },
        {
          "internalType": "uint256",
          "name": "_cinema",
          "type": "uint256"
        },
        {
          "internalType": "address[]",
          "name": "_newAdmins",
          "type": "address[]"
        }
      ],
      "name": "addAdminsToCinema",
      "outputs": [],
      "stateMutability": "nonpayable",
      "type": "function"
    },
    {
      "inputs": [
        {
          "internalType": "address",
          "name": "_user",
          "type": "address"
        },
        {
          "internalType": "uint256",
          "name": "_ticket",
          "type": "uint256"
        }
      ],
      "name": "addUserHistory",
      "outputs": [],
      "stateMutability": "nonpayable",
      "type": "function"
    },
    {
      "inputs": [
        {
          "internalType": "address",
          "name": "",
          "type": "address"
        }
      ],
      "name": "adminToDetails",
      "outputs": [
        {
          "internalType": "uint8",
          "name": "region",
          "type": "uint8"
        },
        {
          "internalType": "uint32",
          "name": "cinema",
          "type": "uint32"
        }
      ],
      "stateMutability": "view",
      "type": "function"
    },
    {
      "inputs": [
        {
          "internalType": "uint256",
          "name": "_cinema",
          "type": "uint256"
        },
        {
          "internalType": "address",
          "name": "_admin",
          "type": "address"
        }
      ],
      "name": "checkAdmin",
      "outputs": [
        {
          "internalType": "bool",
          "name": "result",
          "type": "bool"
        }
      ],
      "stateMutability": "view",
      "type": "function"
    },
    {
      "inputs": [
        {
          "internalType": "uint256",
          "name": "",
          "type": "uint256"
        },
        {
          "internalType": "address",
          "name": "",
          "type": "address"
        }
      ],
      "name": "cinemaAdmins",
      "outputs": [
        {
          "internalType": "bool",
          "name": "",
          "type": "bool"
        }
      ],
      "stateMutability": "view",
      "type": "function"
    },
    {
      "inputs": [
        {
          "internalType": "uint256",
          "name": "",
          "type": "uint256"
        }
      ],
      "name": "cinemaAdminsAmount",
      "outputs": [
        {
          "internalType": "uint256",
          "name": "",
          "type": "uint256"
        }
      ],
      "stateMutability": "view",
      "type": "function"
    },
    {
      "inputs": [],
      "name": "cinemaInterface",
      "outputs": [
        {
          "internalType": "contract ICinema",
          "name": "",
          "type": "address"
        }
      ],
      "stateMutability": "view",
      "type": "function"
    },
    {
      "inputs": [],
      "name": "owner",
      "outputs": [
        {
          "internalType": "address",
          "name": "",
          "type": "address"
        }
      ],
      "stateMutability": "view",
      "type": "function"
    },
    {
      "inputs": [],
      "name": "renounceOwnership",
      "outputs": [],
      "stateMutability": "nonpayable",
      "type": "function"
    },
    {
      "inputs": [
        {
          "internalType": "address",
          "name": "_cinemaContractAddress",
          "type": "address"
        }
      ],
      "name": "setInterface",
      "outputs": [],
      "stateMutability": "nonpayable",
      "type": "function"
    },
    {
      "inputs": [
        {
          "internalType": "address",
          "name": "newOwner",
          "type": "address"
        }
      ],
      "name": "transferOwnership",
      "outputs": [],
      "stateMutability": "nonpayable",
      "type": "function"
    },
    {
      "inputs": [
        {
          "internalType": "address",
          "name": "",
          "type": "address"
        }
      ],
      "name": "userHistoryAmount",
      "outputs": [
        {
          "internalType": "uint256",
          "name": "",
          "type": "uint256"
        }
      ],
      "stateMutability": "view",
      "type": "function"
    },
    {
      "inputs": [
        {
          "internalType": "address",
          "name": "",
          "type": "address"
        },
        {
          "internalType": "uint256",
          "name": "",
          "type": "uint256"
        }
      ],
      "name": "userToHistory",
      "outputs": [
        {
          "internalType": "uint32",
          "name": "ticket",
          "type": "uint32"
        },
        {
          "internalType": "uint64",
          "name": "timeStamp",
          "type": "uint64"
        }
      ],
      "stateMutability": "view",
      "type": "function"
    }
  ],
  "bytecode": {
    "object": "0x6080806040523461005b5760008054336001600160a01b0319821681178355916001600160a01b03909116907f8be0079c531659141344cd1fd0a4f28419497f9722a3daafe3b4186f6b6457e09084a361078d90816100618239f35b600080fdfe608080604052600436101561001357600080fd5b60003560e01c90816324671cc214610677575080633819583e1461062d578063528554ca146103c05780635af21344146100ae5780636d4921af14610386578063715018a6146103275780637454c007146102fb5780637b92f587146102d25780638da5cb5b146102a9578063942ae26f1461020957806397492c46146101c8578063f2fde38b146101005763fef20c4d146100ae57600080fd5b346100fb5760403660031901126100fb576100c76106e9565b600435600052600460205260406000209060018060a01b0316600052602052602060ff604060002054166040519015158152f35b600080fd5b346100fb5760203660031901126100fb576101196106d3565b6101216106ff565b6001600160a01b0390811690811561017457600080546001600160a01b031981168417825560405191939192167f8be0079c531659141344cd1fd0a4f28419497f9722a3daafe3b4186f6b6457e08484a3f35b60405162461bcd60e51b815260206004820152602660248201527f4f776e61626c653a206e6577206f776e657220697320746865207a65726f206160448201526564647265737360d01b6064820152608490fd5b346100fb5760203660031901126100fb576001600160a01b036101e96106d3565b166bffffffffffffffffffffffff60a01b60015416176001556000604051f35b346100fb5760403660031901126100fb576001600160a01b0361022a6106d3565b16600052600260205260406000205460036020526040600020906001810180911161029357600052602052604060002080546bffffffffffffffff000000004260201b169063ffffffff60243516906bffffffffffffffffffffffff1916171790556000604051f35b634e487b7160e01b600052601160045260246000fd5b346100fb5760003660031901126100fb576000546040516001600160a01b039091168152602090f35b346100fb5760003660031901126100fb576001546040516001600160a01b039091168152602090f35b346100fb5760203660031901126100fb5760043560005260056020526020604060002054604051908152f35b346100fb5760003660031901126100fb576103406106ff565b600080546001600160a01b0319811682556040519082906001600160a01b03167f8be0079c531659141344cd1fd0a4f28419497f9722a3daafe3b4186f6b6457e08284a3f35b346100fb5760203660031901126100fb576001600160a01b036103a76106d3565b1660005260026020526020604060002054604051908152f35b346100fb5760603660031901126100fb5760043567ffffffffffffffff604435116100fb573660236044350112156100fb5767ffffffffffffffff60443560040135116100fb573660246044356004013560051b6044350101116100fb576104266106ff565b600154604051630322506f60e61b815260048101839052602480359082015290602090829060449082906001600160a01b03165afa908115610621576000916105d0575b50156105985760243560005260056020526040600020549060005b6044356004013581106104b65760046044350135830180841161029357602435600090815260056020526040902055005b604435600582901b01602401356001600160a01b03811681036100fb576024356000526004602052604060002060018060a01b0382166000526020526040600020600160ff198254161790556040519081604081011067ffffffffffffffff604084011117610582576040820160405260ff84168252602082019063ffffffff60243516825260018060a01b0316600052600660205260ff604060002092511664ffffffff008354925160081b169164ffffffffff191617179055600019811461029357600101610485565b634e487b7160e01b600052604160045260246000fd5b60405162461bcd60e51b815260206004820152601060248201526f18da5b995b58481b9bdd08195e1a5cdd60821b6044820152606490fd5b905060203d60201161061a575b601f8101601f1916820167ffffffffffffffff811183821017610582576020918391604052810103126100fb575180151581036100fb578261046a565b503d6105dd565b6040513d6000823e3d90fd5b346100fb5760203660031901126100fb576001600160a01b0361064e6106d3565b1660005260066020526040806000205463ffffffff82519160ff8116835260081c166020820152f35b346100fb5760403660031901126100fb576040906001600160a01b0361069b6106d3565b1660005260036020528160002060243560005260205267ffffffffffffffff826000205463ffffffff8116835260201c166020820152f35b600435906001600160a01b03821682036100fb57565b602435906001600160a01b03821682036100fb57565b6000546001600160a01b0316330361071357565b606460405162461bcd60e51b815260206004820152602060248201527f4f776e61626c653a2063616c6c6572206973206e6f7420746865206f776e65726044820152fdfea26469706673582212200d68f4c7b0415d987cf27ceaca59ed6d4c14605215983d21d21d09201bf3c1da64736f6c63430008100033",
    "linkReferences": {}
  },
  "methodIdentifiers": {
    "addAdminsToCinema(uint256,uint256,address[])": "528554ca",
    "addUserHistory(address,uint256)": "942ae26f",
    "adminToDetails(address)": "3819583e",
    "checkAdmin(uint256,address)": "fef20c4d",
    "cinemaAdmins(uint256,address)": "5af21344",
    "cinemaAdminsAmount(uint256)": "7454c007",
    "cinemaInterface()": "7b92f587",
    "owner()": "8da5cb5b",
    "renounceOwnership()": "715018a6",
    "setInterface(address)": "97492c46",
    "transferOwnership(address)": "f2fde38b",
    "userHistoryAmount(address)": "6d4921af",
    "userToHistory(address,uint256)": "24671cc2"
  },
  "id": 21
}