{
  "abi": [
    {
      "inputs": [],
      "stateMutability": "nonpayable",
      "type": "constructor"
    },
    {
      "anonymous": false,
      "inputs": [
        {
          "indexed": true,
          "internalType": "address",
          "name": "previousOwner",
          "type": "address"
        },
        {
          "indexed": true,
          "internalType": "address",
          "name": "newOwner",
          "type": "address"
        }
      ],
      "name": "OwnershipTransferred",
      "type": "event"
    },
    {
      "inputs": [
        {
          "internalType": "uint256",
          "name": "_region",
          "type": "uint256"
        },
        {
          "internalType": "uint256",
          "name": "_cinema",
          "type": "uint256"
        },
        {
          "internalType": "address[]",
          "name": "_newAdmins",
          "type": "address[]"
        }
      ],
      "name": "addCinemaAdmins",
      "outputs": [],
      "stateMutability": "nonpayable",
      "type": "function"
    },
    {
      "inputs": [
        {
          "internalType": "address[]",
          "name": "_newAdmins",
          "type": "address[]"
        }
      ],
      "name": "addSuperAdmins",
      "outputs": [],
      "stateMutability": "nonpayable",
      "type": "function"
    },
    {
      "inputs": [
        {
          "internalType": "uint256",
          "name": "",
          "type": "uint256"
        },
        {
          "internalType": "uint256",
          "name": "",
          "type": "uint256"
        }
      ],
      "name": "cinemaAdminsDetails",
      "outputs": [
        {
          "internalType": "uint32",
          "name": "cinemaAdminsAmount",
          "type": "uint32"
        }
      ],
      "stateMutability": "view",
      "type": "function"
    },
    {
      "inputs": [],
      "name": "cinemaInterface",
      "outputs": [
        {
          "internalType": "contract ICinema",
          "name": "",
          "type": "address"
        }
      ],
      "stateMutability": "view",
      "type": "function"
    },
    {
      "inputs": [
        {
          "internalType": "uint256",
          "name": "_region",
          "type": "uint256"
        },
        {
          "internalType": "uint256",
          "name": "_cinema",
          "type": "uint256"
        },
        {
          "internalType": "address",
          "name": "_admin",
          "type": "address"
        }
      ],
      "name": "isCinemaAdmin",
      "outputs": [
        {
          "internalType": "bool",
          "name": "result",
          "type": "bool"
        }
      ],
      "stateMutability": "view",
      "type": "function"
    },
    {
      "inputs": [],
      "name": "isSuperAdmin",
      "outputs": [
        {
          "internalType": "bool",
          "name": "result",
          "type": "bool"
        }
      ],
      "stateMutability": "view",
      "type": "function"
    },
    {
      "inputs": [],
      "name": "owner",
      "outputs": [
        {
          "internalType": "address",
          "name": "",
          "type": "address"
        }
      ],
      "stateMutability": "view",
      "type": "function"
    },
    {
      "inputs": [],
      "name": "renounceOwnership",
      "outputs": [],
      "stateMutability": "nonpayable",
      "type": "function"
    },
    {
      "inputs": [
        {
          "internalType": "address",
          "name": "_cinemaContractAddress",
          "type": "address"
        }
      ],
      "name": "setInterface",
      "outputs": [],
      "stateMutability": "nonpayable",
      "type": "function"
    },
    {
      "inputs": [
        {
          "internalType": "address",
          "name": "",
          "type": "address"
        }
      ],
      "name": "superAdminStatus",
      "outputs": [
        {
          "internalType": "bool",
          "name": "",
          "type": "bool"
        }
      ],
      "stateMutability": "view",
      "type": "function"
    },
    {
      "inputs": [
        {
          "internalType": "uint256",
          "name": "",
          "type": "uint256"
        }
      ],
      "name": "superAdmins",
      "outputs": [
        {
          "internalType": "address",
          "name": "",
          "type": "address"
        }
      ],
      "stateMutability": "view",
      "type": "function"
    },
    {
      "inputs": [],
      "name": "superAdminsAmount",
      "outputs": [
        {
          "internalType": "uint32",
          "name": "",
          "type": "uint32"
        }
      ],
      "stateMutability": "view",
      "type": "function"
    },
    {
      "inputs": [
        {
          "internalType": "address",
          "name": "newOwner",
          "type": "address"
        }
      ],
      "name": "transferOwnership",
      "outputs": [],
      "stateMutability": "nonpayable",
      "type": "function"
    }
  ],
  "bytecode": {
    "object": "0x6080346100bb5760008054336001600160a01b0319821681178355916001600160a01b03909116907f8be0079c531659141344cd1fd0a4f28419497f9722a3daafe3b4186f6b6457e09084a360408101906001600160401b038211818310176100a55761009591604052600181526020368183013761009033610081836100c0565b6001600160a01b039091169052565b6100f7565b604051610ae49081620002358239f35b634e487b7160e01b600052604160045260246000fd5b600080fd5b8051156100cd5760200190565b634e487b7160e01b600052603260045260246000fd5b80518210156100cd5760209160051b010190565b6000805490916001600160a01b0391821633036101a457825b815181101561019e5761017961016c8461012a84866100e3565b5116808752600360205261015261014d61014960408a2060ff90541690565b1590565b6101e8565b6001600160a01b0316600090815260036020526040902090565b805460ff19166001179055565b600019811461018a57600101610110565b634e487b7160e01b84526011600452602484fd5b50505050565b606460405162461bcd60e51b815260206004820152602060248201527f4f776e61626c653a2063616c6c6572206973206e6f7420746865206f776e65726044820152fd5b156101ef57565b60405162461bcd60e51b815260206004820152601760248201527f4164647265737320616c726561647920657869737465640000000000000000006044820152606490fdfe60806040526004361015610013575b600080fd5b60003560e01c80632480c600146101175780632cffb8b41461010e5780633cd5bba2146101055780635bfaf179146100fc5780635faa83fc146100f3578063715018a6146100ea5780637b92f587146100e15780638da5cb5b146100d857806397492c46146100cf578063a4922c48146100c6578063e9ad17e0146100bd578063f2fde38b146100b45763fb445b0d146100ac57600080fd5b61000e61056c565b5061000e61049f565b5061000e610477565b5061000e61041a565b5061000e6103da565b5061000e6103b0565b5061000e610386565b5061000e610324565b5061000e6102f4565b5061000e610291565b5061000e6101ef565b5061000e610174565b5061000e610131565b6001600160a01b0381160361000e57565b503461000e57602036600319011261000e5760043561014f81610120565b60018060a01b03166000526003602052602060ff604060002054166040519015158152f35b503461000e57602036600319011261000e576004356000526004602052602060018060a01b0360406000205416604051908152f35b50634e487b7160e01b600052604160045260246000fd5b90601f8019910116810190811067ffffffffffffffff8211176101e257604052565b6101ea6101a9565b604052565b503461000e5760208060031936011261000e5767ffffffffffffffff60043581811161000e573660238201121561000e578060040135918211610284575b8160051b60405192610241858301856101c0565b83526024848401918301019136831161000e57602401905b82821061026b5761026984610605565b005b848091833561027981610120565b815201910190610259565b61028c6101a9565b61022d565b503461000e57606036600319011261000e57602060ff6102e86044356102b681610120565b600435600090815260028086526040808320602435845287528083206001600160a01b03909416835292016020522090565b54166040519015158152f35b503461000e57600036600319011261000e57336000526003602052602060ff604060002054166040519015158152f35b503461000e576000806003193601126103835761033f6105ad565b80546001600160a01b0319811682556040519082906001600160a01b03167f8be0079c531659141344cd1fd0a4f28419497f9722a3daafe3b4186f6b6457e08284a3f35b80fd5b503461000e57600036600319011261000e576001546040516001600160a01b039091168152602090f35b503461000e57600036600319011261000e576000546040516001600160a01b039091168152602090f35b503461000e57602036600319011261000e576004356103f881610120565b600180546001600160a01b0319166001600160a01b0392909216919091179055005b503461000e57606036600319011261000e5760443567ffffffffffffffff80821161000e573660238301121561000e57816004013590811161000e573660248260051b8401011161000e57602461026992016024356004356106f9565b503461000e57600036600319011261000e57602063ffffffff60015460a01c16604051908152f35b503461000e57602036600319011261000e576004356104bd81610120565b6104c56105ad565b6001600160a01b0390811690811561051857600080546001600160a01b031981168417825560405191939192167f8be0079c531659141344cd1fd0a4f28419497f9722a3daafe3b4186f6b6457e08484a3f35b60405162461bcd60e51b815260206004820152602660248201527f4f776e61626c653a206e6577206f776e657220697320746865207a65726f206160448201526564647265737360d01b6064820152608490fd5b503461000e57604036600319011261000e5760043560005260026020526040600020602435600052602052602063ffffffff60406000205416604051908152f35b6000546001600160a01b031633036105c157565b606460405162461bcd60e51b815260206004820152602060248201527f4f776e61626c653a2063616c6c6572206973206e6f7420746865206f776e65726044820152fd5b9061060e6105ad565b600091825b81518110156106c057602060018060a01b03818360051b85010151169081865260038152604060ff818820541661067d5750506001600160a01b03166000908152600360205260409020610678919061067390805460ff19166001179055565b6106dd565b610613565b60649250519062461bcd60e51b82526004820152601760248201527f4164647265737320616c726561647920657869737465640000000000000000006044820152fd5b50509050565b50634e487b7160e01b600052601160045260246000fd5b60019060001981146106ed570190565b6106f56106c6565b0190565b9392919060009433865260206003815260ff60409080828a205416156107d35783895260028352818920858a5283526002828a2001985b8781106107485750505050610746949550610889565b565b8161077b610757838b8b610817565b3561076181610120565b6001600160a01b0316600090815260208d90526040902090565b541661078f5761078a906106dd565b610730565b825162461bcd60e51b815260048101859052601860248201527f4164647265737320616c726561647920616e2061646d696e00000000000000006044820152606490fd5b815162461bcd60e51b815260048101849052601860248201527f596f75277265206e6f7420612073757065722061646d696e00000000000000006044820152606490fd5b91908110156108275760051b0190565b634e487b7160e01b600052603260045260246000fd5b3561084781610120565b90565b1561085157565b60405162461bcd60e51b815260206004820152601060248201526f18da5b995b58481b9bdd08195e1a5cdd60821b6044820152606490fd5b600154604051630322506f60e61b81526004810183905260248101849052959493929190602090879060449082906001600160a01b03165afa958615610924576000966108e4575b506108df610746959661084a565b61093c565b6020813d821161091c575b816108fc602093836101c0565b81010312610918575195861515870361038357506108df6108d1565b8680fd5b3d91506108ef565b6040513d6000823e3d90fd5b811981116106ed570190565b9291909280600052600260205261096184604060002090600052602052604060002090565b9361097c610973865463ffffffff1690565b63ffffffff1690565b926000926003870192600188019260028901905b8887106109c3575050505050505061097361074693926109af92610930565b63ffffffff1663ffffffff19825416179055565b909192939495966109d3906106dd565b966109df818a84610817565b6109e89061083d565b6001600160a01b03166000908152602088905260409020610a0a828b85610817565b610a139061083d565b610a278a8990600052602052604060002090565b80546001600160a01b0319166001600160a01b03909216919091179055610a4f828b85610817565b610a589061083d565b6001600160a01b03166000908152602085905260409020805460ff191660011790558054600886901b64ffffffff001664ffffffffff199091161760ff8716179055610aa3906106dd565b95949392919061099056fea26469706673582212207a2624c1ce40b5b13287155572a6a4a4df616550781d66467075e5e38474a29d64736f6c634300080d0033",
    "linkReferences": {}
  },
  "methodIdentifiers": {
    "addCinemaAdmins(uint256,uint256,address[])": "a4922c48",
    "addSuperAdmins(address[])": "3cd5bba2",
    "cinemaAdminsDetails(uint256,uint256)": "fb445b0d",
    "cinemaInterface()": "7b92f587",
    "isCinemaAdmin(uint256,uint256,address)": "5bfaf179",
    "isSuperAdmin()": "5faa83fc",
    "owner()": "8da5cb5b",
    "renounceOwnership()": "715018a6",
    "setInterface(address)": "97492c46",
    "superAdminStatus(address)": "2480c600",
    "superAdmins(uint256)": "2cffb8b4",
    "superAdminsAmount()": "e9ad17e0",
    "transferOwnership(address)": "f2fde38b"
  },
  "id": 23
}