{
  "abi": [
    {
      "inputs": [],
      "stateMutability": "nonpayable",
      "type": "constructor"
    },
    {
      "anonymous": false,
      "inputs": [
        {
          "indexed": true,
          "internalType": "address",
          "name": "previousOwner",
          "type": "address"
        },
        {
          "indexed": true,
          "internalType": "address",
          "name": "newOwner",
          "type": "address"
        }
      ],
      "name": "OwnershipTransferred",
      "type": "event"
    },
    {
      "inputs": [
        {
          "internalType": "uint256",
          "name": "_region",
          "type": "uint256"
        },
        {
          "internalType": "uint256",
          "name": "_cinema",
          "type": "uint256"
        },
        {
          "internalType": "address[]",
          "name": "_newAdmins",
          "type": "address[]"
        }
      ],
      "name": "addAdmins",
      "outputs": [],
      "stateMutability": "nonpayable",
      "type": "function"
    },
    {
      "inputs": [
        {
          "internalType": "address[]",
          "name": "_newManagers",
          "type": "address[]"
        }
      ],
      "name": "addManager",
      "outputs": [],
      "stateMutability": "nonpayable",
      "type": "function"
    },
    {
      "inputs": [
        {
          "internalType": "address",
          "name": "",
          "type": "address"
        }
      ],
      "name": "adminDetails",
      "outputs": [
        {
          "internalType": "uint8",
          "name": "region",
          "type": "uint8"
        },
        {
          "internalType": "uint8",
          "name": "cinema",
          "type": "uint8"
        }
      ],
      "stateMutability": "view",
      "type": "function"
    },
    {
      "inputs": [
        {
          "internalType": "address",
          "name": "",
          "type": "address"
        }
      ],
      "name": "adminStatus",
      "outputs": [
        {
          "internalType": "bool",
          "name": "",
          "type": "bool"
        }
      ],
      "stateMutability": "view",
      "type": "function"
    },
    {
      "inputs": [
        {
          "internalType": "uint256",
          "name": "_region",
          "type": "uint256"
        },
        {
          "internalType": "uint256",
          "name": "_cinema",
          "type": "uint256"
        },
        {
          "internalType": "address[]",
          "name": "_admins",
          "type": "address[]"
        }
      ],
      "name": "deleteAdmins",
      "outputs": [],
      "stateMutability": "nonpayable",
      "type": "function"
    },
    {
      "inputs": [
        {
          "internalType": "address[]",
          "name": "_managers",
          "type": "address[]"
        }
      ],
      "name": "deleteManagers",
      "outputs": [],
      "stateMutability": "nonpayable",
      "type": "function"
    },
    {
      "inputs": [
        {
          "internalType": "address",
          "name": "_admin",
          "type": "address"
        }
      ],
      "name": "isAdmin",
      "outputs": [
        {
          "internalType": "bool",
          "name": "result",
          "type": "bool"
        }
      ],
      "stateMutability": "view",
      "type": "function"
    },
    {
      "inputs": [
        {
          "internalType": "address",
          "name": "_manager",
          "type": "address"
        }
      ],
      "name": "isManager",
      "outputs": [
        {
          "internalType": "bool",
          "name": "result",
          "type": "bool"
        }
      ],
      "stateMutability": "view",
      "type": "function"
    },
    {
      "inputs": [],
      "name": "managerAmount",
      "outputs": [
        {
          "internalType": "uint32",
          "name": "",
          "type": "uint32"
        }
      ],
      "stateMutability": "view",
      "type": "function"
    },
    {
      "inputs": [
        {
          "internalType": "address",
          "name": "",
          "type": "address"
        }
      ],
      "name": "managerStatus",
      "outputs": [
        {
          "internalType": "bool",
          "name": "",
          "type": "bool"
        }
      ],
      "stateMutability": "view",
      "type": "function"
    },
    {
      "inputs": [],
      "name": "owner",
      "outputs": [
        {
          "internalType": "address",
          "name": "",
          "type": "address"
        }
      ],
      "stateMutability": "view",
      "type": "function"
    },
    {
      "inputs": [
        {
          "internalType": "uint256",
          "name": "",
          "type": "uint256"
        },
        {
          "internalType": "uint256",
          "name": "",
          "type": "uint256"
        }
      ],
      "name": "regionToCinemaToAdminAmount",
      "outputs": [
        {
          "internalType": "uint32",
          "name": "",
          "type": "uint32"
        }
      ],
      "stateMutability": "view",
      "type": "function"
    },
    {
      "inputs": [],
      "name": "renounceOwnership",
      "outputs": [],
      "stateMutability": "nonpayable",
      "type": "function"
    },
    {
      "inputs": [
        {
          "internalType": "address",
          "name": "newOwner",
          "type": "address"
        }
      ],
      "name": "transferOwnership",
      "outputs": [],
      "stateMutability": "nonpayable",
      "type": "function"
    }
  ],
  "bytecode": {
    "object": "0x608034620000c25760008054336001600160a01b0319821681178355916001600160a01b03909116907f8be0079c531659141344cd1fd0a4f28419497f9722a3daafe3b4186f6b6457e09084a360408101906001600160401b03821181831017620000ac576200009c91604052600181526020368183013762000096336200008783620000c7565b6001600160a01b039091169052565b62000100565b604051610b129081620002c58239f35b634e487b7160e01b600052604160045260246000fd5b600080fd5b805115620000d55760200190565b634e487b7160e01b600052603260045260246000fd5b8051821015620000d55760209160051b010190565b6000805492916001600160a01b03903382861603620001fd5763ffffffff809560a01c169383945b8251861015620001cb57620001a7600191620001a162000194876200014e8b89620000eb565b5116808a5260026020526200017a620001746200017060408d2060ff90541690565b1590565b62000258565b6001600160a01b0316600090815260026020526040902090565b805460ff19166001179055565b620002a5565b956000198114620001bb575b019462000128565b620001c562000241565b620001b3565b6000805463ffffffff60a01b19169790911660a01b63ffffffff60a01b169690961790955550620001fb92505050565b565b606460405162461bcd60e51b815260206004820152602060248201527f4f776e61626c653a2063616c6c6572206973206e6f7420746865206f776e65726044820152fd5b50634e487b7160e01b600052601160045260246000fd5b156200026057565b60405162461bcd60e51b815260206004820152601760248201527f4164647265737320616c726561647920657869737465640000000000000000006044820152606490fd5b6001906001198111620002b6570190565b620002c062000241565b019056fe60806040526004361015610013575b600080fd5b60003560e01c806324d7806c146101075780632f2d4786146101195780633c096005146101105780633e4a89d11461010757806340cde2f7146100fe57806345431baa146100f55780635aa352b4146100ec5780635d219fa9146100e3578063715018a6146100da5780638da5cb5b146100d1578063d7936552146100bf578063f2fde38b146100c8578063f3ae2415146100bf5763f86d6d3a146100b757600080fd5b61000e610770565b5061000e610660565b5061000e6106a3565b5061000e610636565b5061000e6105d4565b5061000e610538565b5061000e61038e565b5061000e61027e565b5061000e6101e8565b5061000e610133565b5061000e6101c0565b5061000e610176565b6001600160a01b0381160361000e57565b503461000e57602036600319011261000e5760043561015181610122565b60018060a01b03166000526001602052602060ff604060002054166040519015158152f35b503461000e57602036600319011261000e5760043561019481610122565b60018060a01b031660005260036020526040806000205460ff825191818116835260081c166020820152f35b503461000e57600036600319011261000e57602063ffffffff60005460a01c16604051908152f35b503461000e57604036600319011261000e5760043560005260046020526040600020602435600052602052602063ffffffff60406000205416604051908152f35b90606060031983011261000e57600435916024359160443567ffffffffffffffff9283821161000e578060238301121561000e57816004013593841161000e5760248460051b8301011161000e576024019190565b503461000e5761028d36610229565b600093929133855260026020526102aa60ff60408720541661095a565b83855260046020526040852083865260205263ffffffff91826040872054169186915b80831061031d578761031888610303896102f48a8a16936000526004602052604060002090565b90600052602052604060002090565b9063ffffffff1663ffffffff19825416179055565b604051f35b909192610381610387918961037b6103368887896109a6565b3561034081610122565b6001600160a01b0381166000908152600160205260409020805460ff191690555b6001600160a01b0316600090815260036020526040902090565b5561093d565b9361088c565b91906102cd565b503461000e5761039d36610229565b600092913384526020926002845260ff956040946103bf88878920541661095a565b865b8581106103d95750506103d6949596506109c4565b51f35b6103e48187876109a6565b356103ee81610122565b6001600160a01b0316885260018252868820548916610415576104109061088c565b6103c1565b865162461bcd60e51b815260048101839052601860248201527f4164647265737320616c726561647920616e2061646d696e00000000000000006044820152606490fd5b50634e487b7160e01b600052604160045260246000fd5b6040519190601f01601f1916820167ffffffffffffffff81118382101761049657604052565b61049e610459565b604052565b60208060031983011261000e5767ffffffffffffffff9160043583811161000e578160238201121561000e57806004013593841161052b575b8360051b906024846104ef818501610470565b80978152019282010192831161000e57602401905b828210610512575050505090565b838091833561052081610122565b815201910190610504565b610533610459565b6104dc565b503461000e57610547366104a3565b61054f61081d565b63ffffffff60009181835460a01c169083915b81518310156105ab576105a59061059f906001600160a01b0361058586866108bf565b51168752600260205260408720805460ff1916905561093d565b9261088c565b91610562565b6000805463ffffffff60a01b191691851660a01b63ffffffff60a01b1691909117905583604051f35b503461000e57600080600319360112610633576105ef61081d565b80546001600160a01b0319811682556040519082906001600160a01b03167f8be0079c531659141344cd1fd0a4f28419497f9722a3daafe3b4186f6b6457e08284a3f35b80fd5b503461000e57600036600319011261000e576000546040516001600160a01b039091168152602090f35b503461000e57602036600319011261000e5760043561067e81610122565b60018060a01b03166000526002602052602060ff604060002054166040519015158152f35b503461000e57602036600319011261000e576004356106c181610122565b6106c961081d565b6001600160a01b0390811690811561071c57600080546001600160a01b031981168417825560405191939192167f8be0079c531659141344cd1fd0a4f28419497f9722a3daafe3b4186f6b6457e08484a3f35b60405162461bcd60e51b815260206004820152602660248201527f4f776e61626c653a206e6577206f776e657220697320746865207a65726f206160448201526564647265737360d01b6064820152608490fd5b503461000e5761077f366104a3565b61078761081d565b63ffffffff60009181835460a01c169083915b81518310156105ab576108179061059f906108126108056001600160a01b036107c388886108bf565b5116808a5260026020526107eb6107e66107e260408d2060ff90541690565b1590565b6108e1565b6001600160a01b0316600090815260026020526040902090565b805460ff19166001179055565b61092d565b9161079a565b6000546001600160a01b0316330361083157565b606460405162461bcd60e51b815260206004820152602060248201527f4f776e61626c653a2063616c6c6572206973206e6f7420746865206f776e65726044820152fd5b50634e487b7160e01b600052601160045260246000fd5b600190600019811461089c570190565b6108a4610875565b0190565b50634e487b7160e01b600052603260045260246000fd5b60209181518110156108d4575b60051b010190565b6108dc6108a8565b6108cc565b156108e857565b60405162461bcd60e51b815260206004820152601760248201527f4164647265737320616c726561647920657869737465640000000000000000006044820152606490fd5b600190600119811161089c570190565b6001811061094d575b6000190190565b610955610875565b610946565b1561096157565b60405162461bcd60e51b815260206004820152601860248201527f596f75277265206e6f7420612073757065722061646d696e00000000000000006044820152606490fd5b91908110156109b7575b60051b0190565b6109bf6108a8565b6109b0565b9291909183600052602090600482526040928360002085600052835263ffffffff9384816000205416936000935b808510610a1f575050505050916102f461030392610a1d959416936000526004602052604060002090565b565b9091929394610ac0610ac6916108128a610a978d610361610a418d8a8e6109a6565b3591610a4c83610122565b6001600160a01b0383166000908152600160205260409020610a6d90610805565b8b51948c860186811067ffffffffffffffff821117610acf575b8d5260ff9182168652168a850152565b9060ff81511661ff0060208454938360ff198616178655015160081b169161ffff191617179055565b9561088c565b939291906109f2565b610ad7610459565b610a8756fea2646970667358221220ae1eec61a8ff25ffe5733a789e8aaff82aabd4641222baf39621bb943247e76664736f6c634300080d0033",
    "linkReferences": {}
  },
  "methodIdentifiers": {
    "addAdmins(uint256,uint256,address[])": "5aa352b4",
    "addManager(address[])": "f86d6d3a",
    "adminDetails(address)": "2f2d4786",
    "adminStatus(address)": "3e4a89d1",
    "deleteAdmins(uint256,uint256,address[])": "45431baa",
    "deleteManagers(address[])": "5d219fa9",
    "isAdmin(address)": "24d7806c",
    "isManager(address)": "f3ae2415",
    "managerAmount()": "3c096005",
    "managerStatus(address)": "d7936552",
    "owner()": "8da5cb5b",
    "regionToCinemaToAdminAmount(uint256,uint256)": "40cde2f7",
    "renounceOwnership()": "715018a6",
    "transferOwnership(address)": "f2fde38b"
  },
  "id": 32
}