{
  "abi": [
    {
      "inputs": [],
      "stateMutability": "nonpayable",
      "type": "constructor"
    },
    {
      "anonymous": false,
      "inputs": [
        {
          "indexed": true,
          "internalType": "address",
          "name": "previousOwner",
          "type": "address"
        },
        {
          "indexed": true,
          "internalType": "address",
          "name": "newOwner",
          "type": "address"
        }
      ],
      "name": "OwnershipTransferred",
      "type": "event"
    },
    {
      "inputs": [
        {
          "internalType": "uint256",
          "name": "_region",
          "type": "uint256"
        },
        {
          "internalType": "uint256",
          "name": "_cinema",
          "type": "uint256"
        },
        {
          "internalType": "address[]",
          "name": "_newAdmins",
          "type": "address[]"
        }
      ],
      "name": "addCinemaAdmins",
      "outputs": [],
      "stateMutability": "nonpayable",
      "type": "function"
    },
    {
      "inputs": [
        {
          "internalType": "address[]",
          "name": "_newAdmins",
          "type": "address[]"
        }
      ],
      "name": "addSuperAdmins",
      "outputs": [],
      "stateMutability": "nonpayable",
      "type": "function"
    },
    {
      "inputs": [
        {
          "internalType": "uint256",
          "name": "",
          "type": "uint256"
        },
        {
          "internalType": "uint256",
          "name": "",
          "type": "uint256"
        }
      ],
      "name": "cinemaAdminsDetails",
      "outputs": [
        {
          "internalType": "uint32",
          "name": "cinemaAdminsAmount",
          "type": "uint32"
        }
      ],
      "stateMutability": "view",
      "type": "function"
    },
    {
      "inputs": [],
      "name": "cinemaInterface",
      "outputs": [
        {
          "internalType": "contract ICinema",
          "name": "",
          "type": "address"
        }
      ],
      "stateMutability": "view",
      "type": "function"
    },
    {
      "inputs": [
        {
          "internalType": "uint256",
          "name": "_region",
          "type": "uint256"
        },
        {
          "internalType": "uint256",
          "name": "_cinema",
          "type": "uint256"
        },
        {
          "internalType": "address[]",
          "name": "_admins",
          "type": "address[]"
        }
      ],
      "name": "deleteCinemaAdmins",
      "outputs": [],
      "stateMutability": "nonpayable",
      "type": "function"
    },
    {
      "inputs": [
        {
          "internalType": "address[]",
          "name": "_superAdmins",
          "type": "address[]"
        }
      ],
      "name": "deleteSuperAdmins",
      "outputs": [],
      "stateMutability": "nonpayable",
      "type": "function"
    },
    {
      "inputs": [
        {
          "internalType": "address",
          "name": "_admin",
          "type": "address"
        }
      ],
      "name": "getCinemaAdminDetails",
      "outputs": [
        {
          "components": [
            {
              "internalType": "uint8",
              "name": "region",
              "type": "uint8"
            },
            {
              "internalType": "uint32",
              "name": "cinema",
              "type": "uint32"
            }
          ],
          "internalType": "struct Roles.AdminDetails",
          "name": "details",
          "type": "tuple"
        }
      ],
      "stateMutability": "view",
      "type": "function"
    },
    {
      "inputs": [
        {
          "internalType": "uint256",
          "name": "_region",
          "type": "uint256"
        },
        {
          "internalType": "uint256",
          "name": "_cinema",
          "type": "uint256"
        }
      ],
      "name": "getCinemaAdmins",
      "outputs": [
        {
          "internalType": "address[]",
          "name": "admins",
          "type": "address[]"
        }
      ],
      "stateMutability": "view",
      "type": "function"
    },
    {
      "inputs": [],
      "name": "getSuperAdmins",
      "outputs": [
        {
          "internalType": "address[]",
          "name": "admins",
          "type": "address[]"
        }
      ],
      "stateMutability": "view",
      "type": "function"
    },
    {
      "inputs": [
        {
          "internalType": "uint256",
          "name": "_region",
          "type": "uint256"
        },
        {
          "internalType": "uint256",
          "name": "_cinema",
          "type": "uint256"
        },
        {
          "internalType": "address",
          "name": "_admin",
          "type": "address"
        }
      ],
      "name": "isCinemaAdmin",
      "outputs": [
        {
          "internalType": "bool",
          "name": "result",
          "type": "bool"
        }
      ],
      "stateMutability": "view",
      "type": "function"
    },
    {
      "inputs": [],
      "name": "isSuperAdmin",
      "outputs": [
        {
          "internalType": "bool",
          "name": "result",
          "type": "bool"
        }
      ],
      "stateMutability": "view",
      "type": "function"
    },
    {
      "inputs": [],
      "name": "owner",
      "outputs": [
        {
          "internalType": "address",
          "name": "",
          "type": "address"
        }
      ],
      "stateMutability": "view",
      "type": "function"
    },
    {
      "inputs": [],
      "name": "renounceOwnership",
      "outputs": [],
      "stateMutability": "nonpayable",
      "type": "function"
    },
    {
      "inputs": [
        {
          "internalType": "address",
          "name": "_cinemaContractAddress",
          "type": "address"
        }
      ],
      "name": "setInterface",
      "outputs": [],
      "stateMutability": "nonpayable",
      "type": "function"
    },
    {
      "inputs": [
        {
          "internalType": "address",
          "name": "",
          "type": "address"
        }
      ],
      "name": "superAdminStatus",
      "outputs": [
        {
          "internalType": "bool",
          "name": "",
          "type": "bool"
        }
      ],
      "stateMutability": "view",
      "type": "function"
    },
    {
      "inputs": [
        {
          "internalType": "uint256",
          "name": "",
          "type": "uint256"
        }
      ],
      "name": "superAdmins",
      "outputs": [
        {
          "internalType": "address",
          "name": "",
          "type": "address"
        }
      ],
      "stateMutability": "view",
      "type": "function"
    },
    {
      "inputs": [],
      "name": "superAdminsAmount",
      "outputs": [
        {
          "internalType": "uint32",
          "name": "",
          "type": "uint32"
        }
      ],
      "stateMutability": "view",
      "type": "function"
    },
    {
      "inputs": [
        {
          "internalType": "address",
          "name": "newOwner",
          "type": "address"
        }
      ],
      "name": "transferOwnership",
      "outputs": [],
      "stateMutability": "nonpayable",
      "type": "function"
    }
  ],
  "bytecode": {
    "object": "0x608034620000c25760008054336001600160a01b0319821681178355916001600160a01b03909116907f8be0079c531659141344cd1fd0a4f28419497f9722a3daafe3b4186f6b6457e09084a360408101906001600160401b03821181831017620000ac576200009c91604052600181526020368183013762000096336200008783620000c7565b6001600160a01b039091169052565b62000100565b6040516110e190816200031e8239f35b634e487b7160e01b600052604160045260246000fd5b600080fd5b805115620000d55760200190565b634e487b7160e01b600052603260045260246000fd5b8051821015620000d55760209160051b010190565b6000546001600160a01b0392919083163303620002565763ffffffff906001809483825460a01c16926000925b6200015e575b50506001805463ffffffff60a01b19169390921660a01b63ffffffff60a01b16929092179055509050565b90919281518410156200024f5790866200022b849362000225620002188497620001898a88620000eb565b5116620001c5620001bf620001bb620001b48460018060a01b03166000526004602052604060002090565b5460ff1690565b1590565b620002b1565b620001fe81620001df866000526005602052604060002090565b80546001600160a01b0319166001600160a01b03909216919091179055565b6001600160a01b0316600090815260046020526040902090565b805460ff19166001179055565b620002fe565b9460001981146200023f575b01926200012d565b620002496200029a565b62000237565b9262000133565b606460405162461bcd60e51b815260206004820152602060248201527f4f776e61626c653a2063616c6c6572206973206e6f7420746865206f776e65726044820152fd5b50634e487b7160e01b600052601160045260246000fd5b15620002b957565b60405162461bcd60e51b815260206004820152601760248201527f4164647265737320616c726561647920657869737465640000000000000000006044820152606490fd5b60019060011981116200030f570190565b620003196200029a565b019056fe60806040526004361015610013575b600080fd5b60003560e01c80632480c6001461017b5780632cffb8b4146101725780633cd5bba2146101695780635bfaf179146101605780635faa83fc146101575780636c7a92491461014e578063715018a6146101455780637b92f5871461013c5780638da5cb5b1461013357806397492c461461012a578063981e9fca14610121578063a4922c4814610118578063d0ca22691461010f578063d176a1d514610106578063e9ad17e0146100fd578063f090763e146100f4578063f2fde38b146100eb5763fb445b0d146100e357600080fd5b61000e610ca3565b5061000e610bd6565b5061000e610a5f565b5061000e610a37565b5061000e6109bf565b5061000e61093b565b5061000e61084c565b5061000e6106df565b5061000e61064a565b5061000e610620565b5061000e6105f6565b5061000e610597565b5061000e610520565b5061000e6104ac565b5061000e610449565b5061000e610322565b5061000e6101d8565b5061000e610195565b6001600160a01b0381160361000e57565b503461000e57602036600319011261000e576004356101b381610184565b60018060a01b03166000526004602052602060ff604060002054166040519015158152f35b503461000e57602036600319011261000e576004356000526005602052602060018060a01b0360406000205416604051908152f35b50634e487b7160e01b600052604160045260246000fd5b604051906040820182811067ffffffffffffffff82111761024457604052565b61024c61020d565b604052565b6040519190601f01601f1916820167ffffffffffffffff81118382101761024457604052565b60209067ffffffffffffffff8111610291575b60051b0190565b61029961020d565b61028a565b60208060031983011261000e576004359167ffffffffffffffff831161000e578060238401121561000e5782600401356102df6102da82610277565b610251565b9360248486848152019260051b82010192831161000e57602401905b828210610309575050505090565b838091833561031781610184565b8152019101906102fb565b503461000e576103313661029e565b610339610ce4565b63ffffffff60019080825460a01c168260009485915b610380575b50506001805463ffffffff60a01b19169290911660a01b63ffffffff60a01b1691909117905550604051f35b909181518310156104435761043c9061043690610431610424896103d36103ce6103ca60406001600160a01b036103b78d8d610d86565b5116808652600460205294205460ff1690565b1590565b610da8565b61040a816103eb866000526005602052604060002090565b80546001600160a01b0319166001600160a01b03909216919091179055565b6001600160a01b0316600090815260046020526040902090565b805460ff19166001179055565b610df4565b92610d53565b908461034f565b91610354565b503461000e57606036600319011261000e57602060ff6104a060443561046e81610184565b600435600090815260028086526040808320602435845287528083206001600160a01b03909416835292016020522090565b54166040519015158152f35b503461000e57600036600319011261000e57336000526004602052602060ff604060002054166040519015158152f35b6020908160408183019282815285518094520193019160005b828110610503575050505090565b83516001600160a01b0316855293810193928101926001016104f5565b503461000e576000806003193601126105945763ffffffff60015460a01c1661054881610e21565b91805b828110610564576040518061056086826104dc565b0390f35b8082526005602052604082205461058f91906001600160a01b03166105898287610d86565b52610d53565b61054b565b80fd5b503461000e57600080600319360112610594576105b2610ce4565b80546001600160a01b0319811682556040519082906001600160a01b03167f8be0079c531659141344cd1fd0a4f28419497f9722a3daafe3b4186f6b6457e08284a3f35b503461000e57600036600319011261000e576001546040516001600160a01b039091168152602090f35b503461000e57600036600319011261000e576000546040516001600160a01b039091168152602090f35b503461000e57602036600319011261000e5760043561066881610184565b600180546001600160a01b0319166001600160a01b0392909216919091179055005b90606060031983011261000e57600435916024359160443567ffffffffffffffff9283821161000e578060238301121561000e57816004013593841161000e5760248460051b8301011161000e576024019190565b503461000e576106ee3661068a565b929061072c8482600095338752600460205261071060ff604089205416610e49565b8587526002602052604087208188526020526040872095610fe8565b61074661073d845463ffffffff1690565b63ffffffff1690565b9461075086610e04565b928592600186019060028701955b84861061077e57875463ffffffff191663ffffffff8b1617885588604051f35b9091929394959861083961083f91610834876107ef6107e58f6107cf6107ca8f8f6107c48f8e6107b79190600052602052604060002090565b546001600160a01b031690565b97610e95565b610ead565b60018060a01b0316600052602052604060002090565b805460ff19169055565b610816610806878a90600052602052604060002090565b80546001600160a01b0319169055565b6103eb6108238c89610d86565b518990600052602052604060002090565b610e04565b96610d53565b949392919098959861075e565b503461000e5761085b3661068a565b6000939192939233845260049460209386855260ff9660409561088289888a205416610e49565b8288526002808252878920858a5282528789200198885b8781106108b15789896108ae8a8a8a8a610eba565b51f35b816108e46108c0838b8b610e95565b356108ca81610184565b6001600160a01b0316600090815260208e90526040902090565b54166108f8576108f390610d53565b610899565b885162461bcd60e51b8152808501849052601860248201527f4164647265737320616c726561647920616e2061646d696e00000000000000006044820152606490fd5b503461000e5760408060031936011261000e576000600435815260209060028252828120602435825282528281209063ffffffff8254169161097c83610e21565b936001839201915b8481106109985786518061056088826104dc565b808452828252868420546109ba91906001600160a01b03166105898289610d86565b610984565b503461000e57602036600319011261000e576004356109dd81610184565b600060206109e9610224565b82815201526001600160a01b031660009081526003602052604090819020610a0f610224565b9054602060ff8216928381520163ffffffff809260081c168152835192835251166020820152f35b503461000e57600036600319011261000e57602063ffffffff60015460a01c16604051908152f35b503461000e57610a6e3661029e565b610a76610ce4565b63ffffffff60019181835460a01c16906000610a928251610e21565b90805b848110610b645750509084916000955b610acc575b6001805463ffffffff60a01b191685871660a01b63ffffffff60a01b16179055005b9091928251861015610b5e57610b4e81610b1f610b016107b7610af1610b5496610e04565b6000526005602052604060002090565b6103eb610b0e8b88610d86565b516000526005602052604060002090565b610b2e610806610af183610e04565b6108346107e561040a610b418b89610d86565b516001600160a01b031690565b95610d53565b9492919082610aa5565b92610aaa565b6000818152600560205260409020549496946001600160a01b0390811690610b9e90610b908588610d86565b51166001600160a01b031690565b14610bb5575b610bad90610d53565b959395610a95565b90610bce8183610bc8610bad9487610d86565b52610df4565b919050610ba4565b503461000e57602036600319011261000e57600435610bf481610184565b610bfc610ce4565b6001600160a01b03908116908115610c4f57600080546001600160a01b031981168417825560405191939192167f8be0079c531659141344cd1fd0a4f28419497f9722a3daafe3b4186f6b6457e08484a3f35b60405162461bcd60e51b815260206004820152602660248201527f4f776e61626c653a206e6577206f776e657220697320746865207a65726f206160448201526564647265737360d01b6064820152608490fd5b503461000e57604036600319011261000e5760043560005260026020526040600020602435600052602052602063ffffffff60406000205416604051908152f35b6000546001600160a01b03163303610cf857565b606460405162461bcd60e51b815260206004820152602060248201527f4f776e61626c653a2063616c6c6572206973206e6f7420746865206f776e65726044820152fd5b50634e487b7160e01b600052601160045260246000fd5b6001906000198114610d63570190565b610d6b610d3c565b0190565b50634e487b7160e01b600052603260045260246000fd5b6020918151811015610d9b575b60051b010190565b610da3610d6f565b610d93565b15610daf57565b60405162461bcd60e51b815260206004820152601760248201527f4164647265737320616c726561647920657869737465640000000000000000006044820152606490fd5b6001906001198111610d63570190565b60018110610e14575b6000190190565b610e1c610d3c565b610e0d565b90610e2e6102da83610277565b8281528092610e3f601f1991610277565b0190602036910137565b15610e5057565b60405162461bcd60e51b815260206004820152601860248201527f596f75277265206e6f7420612073757065722061646d696e00000000000000006044820152606490fd5b9190811015610ea55760051b0190565b610299610d6f565b35610eb781610184565b90565b93929093806000526002602052604060002085600052602052604060002092610eea61073d855463ffffffff1690565b956000926001860191600287015b868610610f27575050505050505063ffffffff610f2592931663ffffffff1663ffffffff19825416179055565b565b90919293949598610839610fdb9161043187610fb96104248f6107ca8e828f610f9a610f77610f5d6107ca86610f9f9986610e95565b6001600160a01b0316600090815260036020526040902090565b986103eb8c610f8a6107ca888888610e95565b9290600052602052604060002090565b610e95565b6001600160a01b0316600090815260208990526040902090565b805460ff891664ffffffffff1990911664ffffffff0060088a901b1617179055565b9493929190989598610ef8565b9392919360009081526020946002865260409283832090835286528282209263ffffffff8454169461101981610e21565b97600195860190855b88811061103457505050505050505050565b80600052828252878b60018060a01b0380886000205416906110578b898c610e95565b3561106181610184565b1614611078575b505061107390610d53565b611022565b978261108882611073959b610d86565b52600119811161109e575b01969050878b611068565b6110a6610d3c565b61109356fea2646970667358221220c24546134e4956900fd847e277e38267d746c5cdf16e55a381a0a241d2e703af64736f6c634300080d0033",
    "linkReferences": {}
  },
  "methodIdentifiers": {
    "addCinemaAdmins(uint256,uint256,address[])": "a4922c48",
    "addSuperAdmins(address[])": "3cd5bba2",
    "cinemaAdminsDetails(uint256,uint256)": "fb445b0d",
    "cinemaInterface()": "7b92f587",
    "deleteCinemaAdmins(uint256,uint256,address[])": "981e9fca",
    "deleteSuperAdmins(address[])": "f090763e",
    "getCinemaAdminDetails(address)": "d176a1d5",
    "getCinemaAdmins(uint256,uint256)": "d0ca2269",
    "getSuperAdmins()": "6c7a9249",
    "isCinemaAdmin(uint256,uint256,address)": "5bfaf179",
    "isSuperAdmin()": "5faa83fc",
    "owner()": "8da5cb5b",
    "renounceOwnership()": "715018a6",
    "setInterface(address)": "97492c46",
    "superAdminStatus(address)": "2480c600",
    "superAdmins(uint256)": "2cffb8b4",
    "superAdminsAmount()": "e9ad17e0",
    "transferOwnership(address)": "f2fde38b"
  },
  "id": 26
}