{
  "abi": [
    {
      "inputs": [],
      "stateMutability": "nonpayable",
      "type": "constructor"
    },
    {
      "anonymous": false,
      "inputs": [
        {
          "indexed": true,
          "internalType": "address",
          "name": "previousOwner",
          "type": "address"
        },
        {
          "indexed": true,
          "internalType": "address",
          "name": "newOwner",
          "type": "address"
        }
      ],
      "name": "OwnershipTransferred",
      "type": "event"
    },
    {
      "inputs": [
        {
          "internalType": "uint256",
          "name": "_region",
          "type": "uint256"
        },
        {
          "internalType": "uint256",
          "name": "_cinema",
          "type": "uint256"
        },
        {
          "internalType": "address[]",
          "name": "_newAdmins",
          "type": "address[]"
        }
      ],
      "name": "addCinemaAdmins",
      "outputs": [],
      "stateMutability": "nonpayable",
      "type": "function"
    },
    {
      "inputs": [
        {
          "internalType": "address[]",
          "name": "_newAdmins",
          "type": "address[]"
        }
      ],
      "name": "addSuperAdmins",
      "outputs": [],
      "stateMutability": "nonpayable",
      "type": "function"
    },
    {
      "inputs": [
        {
          "internalType": "address",
          "name": "",
          "type": "address"
        }
      ],
      "name": "cinemaAdminDetails",
      "outputs": [
        {
          "internalType": "uint8",
          "name": "region",
          "type": "uint8"
        },
        {
          "internalType": "uint32",
          "name": "cinema",
          "type": "uint32"
        }
      ],
      "stateMutability": "view",
      "type": "function"
    },
    {
      "inputs": [
        {
          "internalType": "uint256",
          "name": "",
          "type": "uint256"
        },
        {
          "internalType": "uint256",
          "name": "",
          "type": "uint256"
        }
      ],
      "name": "cinemaAdminsDetails",
      "outputs": [
        {
          "internalType": "uint32",
          "name": "cinemaAdminsAmount",
          "type": "uint32"
        }
      ],
      "stateMutability": "view",
      "type": "function"
    },
    {
      "inputs": [],
      "name": "cinemaInterface",
      "outputs": [
        {
          "internalType": "contract ICinema",
          "name": "",
          "type": "address"
        }
      ],
      "stateMutability": "view",
      "type": "function"
    },
    {
      "inputs": [
        {
          "internalType": "uint256",
          "name": "_region",
          "type": "uint256"
        },
        {
          "internalType": "uint256",
          "name": "_cinema",
          "type": "uint256"
        },
        {
          "internalType": "address[]",
          "name": "_admins",
          "type": "address[]"
        }
      ],
      "name": "deleteCinemaAdmins",
      "outputs": [],
      "stateMutability": "nonpayable",
      "type": "function"
    },
    {
      "inputs": [
        {
          "internalType": "address[]",
          "name": "_superAdmins",
          "type": "address[]"
        }
      ],
      "name": "deleteSuperAdmins",
      "outputs": [],
      "stateMutability": "nonpayable",
      "type": "function"
    },
    {
      "inputs": [
        {
          "internalType": "address",
          "name": "_admin",
          "type": "address"
        }
      ],
      "name": "getCinemaAdminDetails",
      "outputs": [
        {
          "components": [
            {
              "internalType": "uint8",
              "name": "region",
              "type": "uint8"
            },
            {
              "internalType": "uint32",
              "name": "cinema",
              "type": "uint32"
            }
          ],
          "internalType": "struct Roles.AdminDetails",
          "name": "details",
          "type": "tuple"
        }
      ],
      "stateMutability": "view",
      "type": "function"
    },
    {
      "inputs": [
        {
          "internalType": "uint256",
          "name": "_region",
          "type": "uint256"
        },
        {
          "internalType": "uint256",
          "name": "_cinema",
          "type": "uint256"
        }
      ],
      "name": "getCinemaAdmins",
      "outputs": [
        {
          "internalType": "address[]",
          "name": "admins",
          "type": "address[]"
        }
      ],
      "stateMutability": "view",
      "type": "function"
    },
    {
      "inputs": [],
      "name": "getSuperAdmins",
      "outputs": [
        {
          "internalType": "address[]",
          "name": "admins",
          "type": "address[]"
        }
      ],
      "stateMutability": "view",
      "type": "function"
    },
    {
      "inputs": [
        {
          "internalType": "uint256",
          "name": "_region",
          "type": "uint256"
        },
        {
          "internalType": "uint256",
          "name": "_cinema",
          "type": "uint256"
        },
        {
          "internalType": "address",
          "name": "_admin",
          "type": "address"
        }
      ],
      "name": "isCinemaAdmin",
      "outputs": [
        {
          "internalType": "bool",
          "name": "result",
          "type": "bool"
        }
      ],
      "stateMutability": "view",
      "type": "function"
    },
    {
      "inputs": [
        {
          "internalType": "address",
          "name": "_superAdmin",
          "type": "address"
        }
      ],
      "name": "isSuperAdmin",
      "outputs": [
        {
          "internalType": "bool",
          "name": "result",
          "type": "bool"
        }
      ],
      "stateMutability": "view",
      "type": "function"
    },
    {
      "inputs": [],
      "name": "owner",
      "outputs": [
        {
          "internalType": "address",
          "name": "",
          "type": "address"
        }
      ],
      "stateMutability": "view",
      "type": "function"
    },
    {
      "inputs": [],
      "name": "renounceOwnership",
      "outputs": [],
      "stateMutability": "nonpayable",
      "type": "function"
    },
    {
      "inputs": [
        {
          "internalType": "address",
          "name": "_cinemaContractAddress",
          "type": "address"
        }
      ],
      "name": "setInterface",
      "outputs": [],
      "stateMutability": "nonpayable",
      "type": "function"
    },
    {
      "inputs": [
        {
          "internalType": "address",
          "name": "",
          "type": "address"
        }
      ],
      "name": "superAdminStatus",
      "outputs": [
        {
          "internalType": "bool",
          "name": "",
          "type": "bool"
        }
      ],
      "stateMutability": "view",
      "type": "function"
    },
    {
      "inputs": [
        {
          "internalType": "uint256",
          "name": "",
          "type": "uint256"
        }
      ],
      "name": "superAdmins",
      "outputs": [
        {
          "internalType": "address",
          "name": "",
          "type": "address"
        }
      ],
      "stateMutability": "view",
      "type": "function"
    },
    {
      "inputs": [],
      "name": "superAdminsAmount",
      "outputs": [
        {
          "internalType": "uint32",
          "name": "",
          "type": "uint32"
        }
      ],
      "stateMutability": "view",
      "type": "function"
    },
    {
      "inputs": [
        {
          "internalType": "address",
          "name": "newOwner",
          "type": "address"
        }
      ],
      "name": "transferOwnership",
      "outputs": [],
      "stateMutability": "nonpayable",
      "type": "function"
    }
  ],
  "bytecode": {
    "object": "0x608034620000c25760008054336001600160a01b0319821681178355916001600160a01b03909116907f8be0079c531659141344cd1fd0a4f28419497f9722a3daafe3b4186f6b6457e09084a360408101906001600160401b03821181831017620000ac576200009c91604052600181526020368183013762000096336200008783620000c7565b6001600160a01b039091169052565b62000100565b60405161110a90816200031e8239f35b634e487b7160e01b600052604160045260246000fd5b600080fd5b805115620000d55760200190565b634e487b7160e01b600052603260045260246000fd5b8051821015620000d55760209160051b010190565b6000546001600160a01b0392919083163303620002565763ffffffff906001809483825460a01c16926000925b6200015e575b50506001805463ffffffff60a01b19169390921660a01b63ffffffff60a01b16929092179055509050565b90919281518410156200024f5790866200022b849362000225620002188497620001898a88620000eb565b5116620001c5620001bf620001bb620001b48460018060a01b03166000526004602052604060002090565b5460ff1690565b1590565b620002b1565b620001fe81620001df866000526005602052604060002090565b80546001600160a01b0319166001600160a01b03909216919091179055565b6001600160a01b0316600090815260046020526040902090565b805460ff19166001179055565b620002fe565b9460001981146200023f575b01926200012d565b620002496200029a565b62000237565b9262000133565b606460405162461bcd60e51b815260206004820152602060248201527f4f776e61626c653a2063616c6c6572206973206e6f7420746865206f776e65726044820152fd5b50634e487b7160e01b600052601160045260246000fd5b15620002b957565b60405162461bcd60e51b815260206004820152601760248201527f4164647265737320616c726561647920657869737465640000000000000000006044820152606490fd5b60019060011981116200030f570190565b620003196200029a565b019056fe60806040526004361015610013575b600080fd5b60003560e01c80632480c600146101115780632cffb8b4146101865780633cd5bba21461017d5780635bfaf179146101745780636c7a92491461016b578063715018a6146101625780637b92f587146101595780638da5cb5b1461015057806397492c4614610147578063981e9fca1461013e578063a4922c4814610135578063b64ce5c71461012c578063d0ca226914610123578063d176a1d51461011a578063df7f453b14610111578063e9ad17e014610108578063f090763e146100ff578063f2fde38b146100f65763fb445b0d146100ee57600080fd5b61000e610ccc565b5061000e610bff565b5061000e610a88565b5061000e610a60565b5061000e6101a0565b5061000e6109e8565b5061000e610964565b5061000e610916565b5061000e610827565b5061000e6106ba565b5061000e610625565b5061000e6105fb565b5061000e6105d1565b5061000e610572565b5061000e6104fb565b5061000e610454565b5061000e61032d565b5061000e6101e3565b6001600160a01b0381160361000e57565b503461000e57602036600319011261000e576004356101be8161018f565b60018060a01b03166000526004602052602060ff604060002054166040519015158152f35b503461000e57602036600319011261000e576004356000526005602052602060018060a01b0360406000205416604051908152f35b50634e487b7160e01b600052604160045260246000fd5b604051906040820182811067ffffffffffffffff82111761024f57604052565b610257610218565b604052565b6040519190601f01601f1916820167ffffffffffffffff81118382101761024f57604052565b60209067ffffffffffffffff811161029c575b60051b0190565b6102a4610218565b610295565b60208060031983011261000e576004359167ffffffffffffffff831161000e578060238401121561000e5782600401356102ea6102e582610282565b61025c565b9360248486848152019260051b82010192831161000e57602401905b828210610314575050505090565b83809183356103228161018f565b815201910190610306565b503461000e5761033c366102a9565b610344610d0d565b63ffffffff60019080825460a01c168260009485915b61038b575b50506001805463ffffffff60a01b19169290911660a01b63ffffffff60a01b1691909117905550604051f35b9091815183101561044e57610447906104419061043c61042f896103de6103d96103d560406001600160a01b036103c28d8d610daf565b5116808652600460205294205460ff1690565b1590565b610dd1565b610415816103f6866000526005602052604060002090565b80546001600160a01b0319166001600160a01b03909216919091179055565b6001600160a01b0316600090815260046020526040902090565b805460ff19166001179055565b610e1d565b92610d7c565b908461035a565b9161035f565b503461000e57606036600319011261000e57602060ff6104ab6044356104798161018f565b600435600090815260028086526040808320602435845287528083206001600160a01b03909416835292016020522090565b54166040519015158152f35b6020908160408183019282815285518094520193019160005b8281106104de575050505090565b83516001600160a01b0316855293810193928101926001016104d0565b503461000e5760008060031936011261056f5763ffffffff60015460a01c1661052381610e4a565b91805b82811061053f576040518061053b86826104b7565b0390f35b8082526005602052604082205461056a91906001600160a01b03166105648287610daf565b52610d7c565b610526565b80fd5b503461000e5760008060031936011261056f5761058d610d0d565b80546001600160a01b0319811682556040519082906001600160a01b03167f8be0079c531659141344cd1fd0a4f28419497f9722a3daafe3b4186f6b6457e08284a3f35b503461000e57600036600319011261000e576001546040516001600160a01b039091168152602090f35b503461000e57600036600319011261000e576000546040516001600160a01b039091168152602090f35b503461000e57602036600319011261000e576004356106438161018f565b600180546001600160a01b0319166001600160a01b0392909216919091179055005b90606060031983011261000e57600435916024359160443567ffffffffffffffff9283821161000e578060238301121561000e57816004013593841161000e5760248460051b8301011161000e576024019190565b503461000e576106c936610665565b9290610707848260009533875260046020526106eb60ff604089205416610e72565b8587526002602052604087208188526020526040872095611011565b610721610718845463ffffffff1690565b63ffffffff1690565b9461072b86610e2d565b928592600186019060028701955b84861061075957875463ffffffff191663ffffffff8b1617885588604051f35b9091929394959861081461081a9161080f876107ca6107c08f6107aa6107a58f8f61079f8f8e6107929190600052602052604060002090565b546001600160a01b031690565b97610ebe565b610ed6565b60018060a01b0316600052602052604060002090565b805460ff19169055565b6107f16107e1878a90600052602052604060002090565b80546001600160a01b0319169055565b6103f66107fe8c89610daf565b518990600052602052604060002090565b610e2d565b96610d7c565b9493929190989598610739565b503461000e5761083636610665565b6000939192939233845260049460209386855260ff9660409561085d89888a205416610e72565b8288526002808252878920858a5282528789200198885b87811061088c5789896108898a8a8a8a610ee3565b51f35b816108bf61089b838b8b610ebe565b356108a58161018f565b6001600160a01b0316600090815260208e90526040902090565b54166108d3576108ce90610d7c565b610874565b885162461bcd60e51b8152808501849052601860248201527f4164647265737320616c726561647920616e2061646d696e00000000000000006044820152606490fd5b503461000e57602036600319011261000e576004356109348161018f565b60018060a01b031660005260036020526040806000205463ffffffff82519160ff8116835260081c166020820152f35b503461000e5760408060031936011261000e576000600435815260209060028252828120602435825282528281209063ffffffff825416916109a583610e4a565b936001839201915b8481106109c15786518061053b88826104b7565b808452828252868420546109e391906001600160a01b03166105648289610daf565b6109ad565b503461000e57602036600319011261000e57600435610a068161018f565b60006020610a1261022f565b82815201526001600160a01b031660009081526003602052604090819020610a3861022f565b9054602060ff8216928381520163ffffffff809260081c168152835192835251166020820152f35b503461000e57600036600319011261000e57602063ffffffff60015460a01c16604051908152f35b503461000e57610a97366102a9565b610a9f610d0d565b63ffffffff60019181835460a01c16906000610abb8251610e4a565b90805b848110610b8d5750509084916000955b610af5575b6001805463ffffffff60a01b191685871660a01b63ffffffff60a01b16179055005b9091928251861015610b8757610b7781610b48610b2a610792610b1a610b7d96610e2d565b6000526005602052604060002090565b6103f6610b378b88610daf565b516000526005602052604060002090565b610b576107e1610b1a83610e2d565b61080f6107c0610415610b6a8b89610daf565b516001600160a01b031690565b95610d7c565b9492919082610ace565b92610ad3565b6000818152600560205260409020549496946001600160a01b0390811690610bc790610bb98588610daf565b51166001600160a01b031690565b14610bde575b610bd690610d7c565b959395610abe565b90610bf78183610bf1610bd69487610daf565b52610e1d565b919050610bcd565b503461000e57602036600319011261000e57600435610c1d8161018f565b610c25610d0d565b6001600160a01b03908116908115610c7857600080546001600160a01b031981168417825560405191939192167f8be0079c531659141344cd1fd0a4f28419497f9722a3daafe3b4186f6b6457e08484a3f35b60405162461bcd60e51b815260206004820152602660248201527f4f776e61626c653a206e6577206f776e657220697320746865207a65726f206160448201526564647265737360d01b6064820152608490fd5b503461000e57604036600319011261000e5760043560005260026020526040600020602435600052602052602063ffffffff60406000205416604051908152f35b6000546001600160a01b03163303610d2157565b606460405162461bcd60e51b815260206004820152602060248201527f4f776e61626c653a2063616c6c6572206973206e6f7420746865206f776e65726044820152fd5b50634e487b7160e01b600052601160045260246000fd5b6001906000198114610d8c570190565b610d94610d65565b0190565b50634e487b7160e01b600052603260045260246000fd5b6020918151811015610dc4575b60051b010190565b610dcc610d98565b610dbc565b15610dd857565b60405162461bcd60e51b815260206004820152601760248201527f4164647265737320616c726561647920657869737465640000000000000000006044820152606490fd5b6001906001198111610d8c570190565b60018110610e3d575b6000190190565b610e45610d65565b610e36565b90610e576102e583610282565b8281528092610e68601f1991610282565b0190602036910137565b15610e7957565b60405162461bcd60e51b815260206004820152601860248201527f596f75277265206e6f7420612073757065722061646d696e00000000000000006044820152606490fd5b9190811015610ece5760051b0190565b6102a4610d98565b35610ee08161018f565b90565b93929093806000526002602052604060002085600052602052604060002092610f13610718855463ffffffff1690565b956000926001860191600287015b868610610f50575050505050505063ffffffff610f4e92931663ffffffff1663ffffffff19825416179055565b565b909192939495986108146110049161043c87610fe261042f8f6107a58e828f610fc3610fa0610f866107a586610fc89986610ebe565b6001600160a01b0316600090815260036020526040902090565b986103f68c610fb36107a5888888610ebe565b9290600052602052604060002090565b610ebe565b6001600160a01b0316600090815260208990526040902090565b805460ff891664ffffffffff1990911664ffffffff0060088a901b1617179055565b9493929190989598610f21565b9392919360009081526020946002865260409283832090835286528282209263ffffffff8454169461104281610e4a565b97600195860190855b88811061105d57505050505050505050565b80600052828252878b60018060a01b0380886000205416906110808b898c610ebe565b3561108a8161018f565b16146110a1575b505061109c90610d7c565b61104b565b97826110b18261109c959b610daf565b5260011981116110c7575b01969050878b611091565b6110cf610d65565b6110bc56fea264697066735822122030a092ee8b9db506ddfde6c2c378be68b15f224e00a38ff29c60897ce7b432e064736f6c634300080d0033",
    "linkReferences": {}
  },
  "methodIdentifiers": {
    "addCinemaAdmins(uint256,uint256,address[])": "a4922c48",
    "addSuperAdmins(address[])": "3cd5bba2",
    "cinemaAdminDetails(address)": "b64ce5c7",
    "cinemaAdminsDetails(uint256,uint256)": "fb445b0d",
    "cinemaInterface()": "7b92f587",
    "deleteCinemaAdmins(uint256,uint256,address[])": "981e9fca",
    "deleteSuperAdmins(address[])": "f090763e",
    "getCinemaAdminDetails(address)": "d176a1d5",
    "getCinemaAdmins(uint256,uint256)": "d0ca2269",
    "getSuperAdmins()": "6c7a9249",
    "isCinemaAdmin(uint256,uint256,address)": "5bfaf179",
    "isSuperAdmin(address)": "df7f453b",
    "owner()": "8da5cb5b",
    "renounceOwnership()": "715018a6",
    "setInterface(address)": "97492c46",
    "superAdminStatus(address)": "2480c600",
    "superAdmins(uint256)": "2cffb8b4",
    "superAdminsAmount()": "e9ad17e0",
    "transferOwnership(address)": "f2fde38b"
  },
  "id": 26
}