{
  "abi": [
    {
      "inputs": [],
      "stateMutability": "nonpayable",
      "type": "constructor"
    },
    {
      "inputs": [],
      "name": "ApprovalCallerNotOwnerNorApproved",
      "type": "error"
    },
    {
      "inputs": [],
      "name": "ApprovalQueryForNonexistentToken",
      "type": "error"
    },
    {
      "inputs": [],
      "name": "BalanceQueryForZeroAddress",
      "type": "error"
    },
    {
      "inputs": [],
      "name": "MintERC2309QuantityExceedsLimit",
      "type": "error"
    },
    {
      "inputs": [],
      "name": "MintToZeroAddress",
      "type": "error"
    },
    {
      "inputs": [],
      "name": "MintZeroQuantity",
      "type": "error"
    },
    {
      "inputs": [],
      "name": "OwnerQueryForNonexistentToken",
      "type": "error"
    },
    {
      "inputs": [],
      "name": "OwnershipNotInitializedForExtraData",
      "type": "error"
    },
    {
      "inputs": [],
      "name": "TransferCallerNotOwnerNorApproved",
      "type": "error"
    },
    {
      "inputs": [],
      "name": "TransferFromIncorrectOwner",
      "type": "error"
    },
    {
      "inputs": [],
      "name": "TransferToNonERC721ReceiverImplementer",
      "type": "error"
    },
    {
      "inputs": [],
      "name": "TransferToZeroAddress",
      "type": "error"
    },
    {
      "inputs": [],
      "name": "URIQueryForNonexistentToken",
      "type": "error"
    },
    {
      "anonymous": false,
      "inputs": [
        {
          "indexed": true,
          "internalType": "address",
          "name": "owner",
          "type": "address"
        },
        {
          "indexed": true,
          "internalType": "address",
          "name": "approved",
          "type": "address"
        },
        {
          "indexed": true,
          "internalType": "uint256",
          "name": "tokenId",
          "type": "uint256"
        }
      ],
      "name": "Approval",
      "type": "event"
    },
    {
      "anonymous": false,
      "inputs": [
        {
          "indexed": true,
          "internalType": "address",
          "name": "owner",
          "type": "address"
        },
        {
          "indexed": true,
          "internalType": "address",
          "name": "operator",
          "type": "address"
        },
        {
          "indexed": false,
          "internalType": "bool",
          "name": "approved",
          "type": "bool"
        }
      ],
      "name": "ApprovalForAll",
      "type": "event"
    },
    {
      "anonymous": false,
      "inputs": [
        {
          "indexed": true,
          "internalType": "uint256",
          "name": "fromTokenId",
          "type": "uint256"
        },
        {
          "indexed": false,
          "internalType": "uint256",
          "name": "toTokenId",
          "type": "uint256"
        },
        {
          "indexed": true,
          "internalType": "address",
          "name": "from",
          "type": "address"
        },
        {
          "indexed": true,
          "internalType": "address",
          "name": "to",
          "type": "address"
        }
      ],
      "name": "ConsecutiveTransfer",
      "type": "event"
    },
    {
      "anonymous": false,
      "inputs": [
        {
          "indexed": true,
          "internalType": "address",
          "name": "previousOwner",
          "type": "address"
        },
        {
          "indexed": true,
          "internalType": "address",
          "name": "newOwner",
          "type": "address"
        }
      ],
      "name": "OwnershipTransferred",
      "type": "event"
    },
    {
      "anonymous": false,
      "inputs": [
        {
          "indexed": true,
          "internalType": "address",
          "name": "from",
          "type": "address"
        },
        {
          "indexed": true,
          "internalType": "address",
          "name": "to",
          "type": "address"
        },
        {
          "indexed": true,
          "internalType": "uint256",
          "name": "tokenId",
          "type": "uint256"
        }
      ],
      "name": "Transfer",
      "type": "event"
    },
    {
      "inputs": [],
      "name": "TICKET_PRICE_WEEKDAYS",
      "outputs": [
        {
          "internalType": "uint64",
          "name": "",
          "type": "uint64"
        }
      ],
      "stateMutability": "view",
      "type": "function"
    },
    {
      "inputs": [],
      "name": "TICKET_PRICE_WEEKEND",
      "outputs": [
        {
          "internalType": "uint64",
          "name": "",
          "type": "uint64"
        }
      ],
      "stateMutability": "view",
      "type": "function"
    },
    {
      "inputs": [
        {
          "internalType": "address",
          "name": "to",
          "type": "address"
        },
        {
          "internalType": "uint256",
          "name": "tokenId",
          "type": "uint256"
        }
      ],
      "name": "approve",
      "outputs": [],
      "stateMutability": "payable",
      "type": "function"
    },
    {
      "inputs": [
        {
          "internalType": "address",
          "name": "",
          "type": "address"
        }
      ],
      "name": "approvedAddresses",
      "outputs": [
        {
          "internalType": "bool",
          "name": "",
          "type": "bool"
        }
      ],
      "stateMutability": "view",
      "type": "function"
    },
    {
      "inputs": [
        {
          "internalType": "address",
          "name": "owner",
          "type": "address"
        }
      ],
      "name": "balanceOf",
      "outputs": [
        {
          "internalType": "uint256",
          "name": "",
          "type": "uint256"
        }
      ],
      "stateMutability": "view",
      "type": "function"
    },
    {
      "inputs": [
        {
          "internalType": "uint256",
          "name": "tokenId",
          "type": "uint256"
        }
      ],
      "name": "burn",
      "outputs": [],
      "stateMutability": "nonpayable",
      "type": "function"
    },
    {
      "inputs": [],
      "name": "burnTicket",
      "outputs": [],
      "stateMutability": "nonpayable",
      "type": "function"
    },
    {
      "inputs": [],
      "name": "cinemaInterface",
      "outputs": [
        {
          "internalType": "contract ICinema",
          "name": "",
          "type": "address"
        }
      ],
      "stateMutability": "view",
      "type": "function"
    },
    {
      "inputs": [
        {
          "internalType": "uint256",
          "name": "",
          "type": "uint256"
        },
        {
          "internalType": "uint256",
          "name": "",
          "type": "uint256"
        },
        {
          "internalType": "bytes32",
          "name": "",
          "type": "bytes32"
        }
      ],
      "name": "cinemaToTicketDetails",
      "outputs": [
        {
          "internalType": "uint32",
          "name": "region",
          "type": "uint32"
        },
        {
          "internalType": "uint8",
          "name": "cinema",
          "type": "uint8"
        },
        {
          "internalType": "uint8",
          "name": "studio",
          "type": "uint8"
        },
        {
          "internalType": "uint32",
          "name": "movie",
          "type": "uint32"
        },
        {
          "internalType": "uint64",
          "name": "time",
          "type": "uint64"
        },
        {
          "internalType": "uint256",
          "name": "day",
          "type": "uint256"
        },
        {
          "internalType": "uint8",
          "name": "seatNumber",
          "type": "uint8"
        }
      ],
      "stateMutability": "view",
      "type": "function"
    },
    {
      "inputs": [
        {
          "internalType": "uint256",
          "name": "",
          "type": "uint256"
        },
        {
          "internalType": "uint256",
          "name": "",
          "type": "uint256"
        }
      ],
      "name": "cinemaToTicketsSold",
      "outputs": [
        {
          "internalType": "uint256",
          "name": "",
          "type": "uint256"
        }
      ],
      "stateMutability": "view",
      "type": "function"
    },
    {
      "inputs": [
        {
          "internalType": "uint256",
          "name": "_region",
          "type": "uint256"
        },
        {
          "internalType": "uint256",
          "name": "_cinema",
          "type": "uint256"
        },
        {
          "internalType": "uint256",
          "name": "_studio",
          "type": "uint256"
        },
        {
          "internalType": "uint256",
          "name": "_movie",
          "type": "uint256"
        },
        {
          "internalType": "uint256",
          "name": "_showTime",
          "type": "uint256"
        },
        {
          "internalType": "uint256",
          "name": "_day",
          "type": "uint256"
        }
      ],
      "name": "convertToTicketDetails",
      "outputs": [
        {
          "components": [
            {
              "internalType": "uint32",
              "name": "region",
              "type": "uint32"
            },
            {
              "internalType": "uint8",
              "name": "cinema",
              "type": "uint8"
            },
            {
              "internalType": "uint8",
              "name": "studio",
              "type": "uint8"
            },
            {
              "internalType": "uint32",
              "name": "movie",
              "type": "uint32"
            },
            {
              "internalType": "uint64",
              "name": "time",
              "type": "uint64"
            },
            {
              "internalType": "uint256",
              "name": "day",
              "type": "uint256"
            },
            {
              "internalType": "uint8",
              "name": "seatNumber",
              "type": "uint8"
            }
          ],
          "internalType": "struct Ticket.TicketDetails",
          "name": "details",
          "type": "tuple"
        }
      ],
      "stateMutability": "pure",
      "type": "function"
    },
    {
      "inputs": [
        {
          "internalType": "uint256",
          "name": "tokenId",
          "type": "uint256"
        }
      ],
      "name": "getApproved",
      "outputs": [
        {
          "internalType": "address",
          "name": "",
          "type": "address"
        }
      ],
      "stateMutability": "view",
      "type": "function"
    },
    {
      "inputs": [
        {
          "internalType": "uint256",
          "name": "_region",
          "type": "uint256"
        },
        {
          "internalType": "uint256",
          "name": "_cinema",
          "type": "uint256"
        },
        {
          "internalType": "uint256",
          "name": "_studio",
          "type": "uint256"
        },
        {
          "internalType": "uint256",
          "name": "_showTime",
          "type": "uint256"
        }
      ],
      "name": "getAvailableSeats",
      "outputs": [
        {
          "internalType": "uint256[]",
          "name": "seats",
          "type": "uint256[]"
        }
      ],
      "stateMutability": "view",
      "type": "function"
    },
    {
      "inputs": [
        {
          "internalType": "uint256",
          "name": "_day",
          "type": "uint256"
        }
      ],
      "name": "getPrice",
      "outputs": [
        {
          "internalType": "uint256",
          "name": "price",
          "type": "uint256"
        }
      ],
      "stateMutability": "pure",
      "type": "function"
    },
    {
      "inputs": [
        {
          "internalType": "address",
          "name": "owner",
          "type": "address"
        },
        {
          "internalType": "address",
          "name": "operator",
          "type": "address"
        }
      ],
      "name": "isApprovedForAll",
      "outputs": [
        {
          "internalType": "bool",
          "name": "",
          "type": "bool"
        }
      ],
      "stateMutability": "view",
      "type": "function"
    },
    {
      "inputs": [
        {
          "components": [
            {
              "internalType": "uint32",
              "name": "region",
              "type": "uint32"
            },
            {
              "internalType": "uint8",
              "name": "cinema",
              "type": "uint8"
            },
            {
              "internalType": "uint8",
              "name": "studio",
              "type": "uint8"
            },
            {
              "internalType": "uint32",
              "name": "movie",
              "type": "uint32"
            },
            {
              "internalType": "uint64",
              "name": "time",
              "type": "uint64"
            },
            {
              "internalType": "uint256",
              "name": "day",
              "type": "uint256"
            },
            {
              "internalType": "uint8",
              "name": "seatNumber",
              "type": "uint8"
            }
          ],
          "internalType": "struct Ticket.TicketDetails",
          "name": "_details",
          "type": "tuple"
        },
        {
          "internalType": "uint256[]",
          "name": "_seatNumbers",
          "type": "uint256[]"
        }
      ],
      "name": "mintTickets",
      "outputs": [],
      "stateMutability": "payable",
      "type": "function"
    },
    {
      "inputs": [],
      "name": "name",
      "outputs": [
        {
          "internalType": "string",
          "name": "",
          "type": "string"
        }
      ],
      "stateMutability": "view",
      "type": "function"
    },
    {
      "inputs": [],
      "name": "owner",
      "outputs": [
        {
          "internalType": "address",
          "name": "",
          "type": "address"
        }
      ],
      "stateMutability": "view",
      "type": "function"
    },
    {
      "inputs": [
        {
          "internalType": "uint256",
          "name": "tokenId",
          "type": "uint256"
        }
      ],
      "name": "ownerOf",
      "outputs": [
        {
          "internalType": "address",
          "name": "",
          "type": "address"
        }
      ],
      "stateMutability": "view",
      "type": "function"
    },
    {
      "inputs": [],
      "name": "renounceOwnership",
      "outputs": [],
      "stateMutability": "nonpayable",
      "type": "function"
    },
    {
      "inputs": [
        {
          "internalType": "address",
          "name": "from",
          "type": "address"
        },
        {
          "internalType": "address",
          "name": "to",
          "type": "address"
        },
        {
          "internalType": "uint256",
          "name": "tokenId",
          "type": "uint256"
        }
      ],
      "name": "safeTransferFrom",
      "outputs": [],
      "stateMutability": "payable",
      "type": "function"
    },
    {
      "inputs": [
        {
          "internalType": "address",
          "name": "from",
          "type": "address"
        },
        {
          "internalType": "address",
          "name": "to",
          "type": "address"
        },
        {
          "internalType": "uint256",
          "name": "tokenId",
          "type": "uint256"
        },
        {
          "internalType": "bytes",
          "name": "_data",
          "type": "bytes"
        }
      ],
      "name": "safeTransferFrom",
      "outputs": [],
      "stateMutability": "payable",
      "type": "function"
    },
    {
      "inputs": [
        {
          "internalType": "uint256",
          "name": "",
          "type": "uint256"
        },
        {
          "internalType": "uint256",
          "name": "",
          "type": "uint256"
        },
        {
          "internalType": "uint256",
          "name": "",
          "type": "uint256"
        },
        {
          "internalType": "uint256",
          "name": "",
          "type": "uint256"
        }
      ],
      "name": "seatStatus",
      "outputs": [
        {
          "internalType": "bool",
          "name": "",
          "type": "bool"
        }
      ],
      "stateMutability": "view",
      "type": "function"
    },
    {
      "inputs": [
        {
          "internalType": "address",
          "name": "operator",
          "type": "address"
        },
        {
          "internalType": "bool",
          "name": "approved",
          "type": "bool"
        }
      ],
      "name": "setApprovalForAll",
      "outputs": [],
      "stateMutability": "nonpayable",
      "type": "function"
    },
    {
      "inputs": [
        {
          "internalType": "address",
          "name": "_cinemaContract",
          "type": "address"
        }
      ],
      "name": "setInterfaces",
      "outputs": [],
      "stateMutability": "nonpayable",
      "type": "function"
    },
    {
      "inputs": [
        {
          "internalType": "bytes4",
          "name": "interfaceId",
          "type": "bytes4"
        }
      ],
      "name": "supportsInterface",
      "outputs": [
        {
          "internalType": "bool",
          "name": "",
          "type": "bool"
        }
      ],
      "stateMutability": "view",
      "type": "function"
    },
    {
      "inputs": [],
      "name": "symbol",
      "outputs": [
        {
          "internalType": "string",
          "name": "",
          "type": "string"
        }
      ],
      "stateMutability": "view",
      "type": "function"
    },
    {
      "inputs": [
        {
          "internalType": "uint256",
          "name": "tokenId",
          "type": "uint256"
        }
      ],
      "name": "tokenURI",
      "outputs": [
        {
          "internalType": "string",
          "name": "",
          "type": "string"
        }
      ],
      "stateMutability": "view",
      "type": "function"
    },
    {
      "inputs": [],
      "name": "totalSupply",
      "outputs": [
        {
          "internalType": "uint256",
          "name": "",
          "type": "uint256"
        }
      ],
      "stateMutability": "view",
      "type": "function"
    },
    {
      "inputs": [
        {
          "internalType": "address",
          "name": "from",
          "type": "address"
        },
        {
          "internalType": "address",
          "name": "to",
          "type": "address"
        },
        {
          "internalType": "uint256",
          "name": "tokenId",
          "type": "uint256"
        }
      ],
      "name": "transferFrom",
      "outputs": [],
      "stateMutability": "payable",
      "type": "function"
    },
    {
      "inputs": [
        {
          "internalType": "address",
          "name": "newOwner",
          "type": "address"
        }
      ],
      "name": "transferOwnership",
      "outputs": [],
      "stateMutability": "nonpayable",
      "type": "function"
    },
    {
      "stateMutability": "payable",
      "type": "receive"
    }
  ],
  "bytecode": {
    "object": "0x60806040523480156200001157600080fd5b506040518060400160405280601181526020017043696e656d61203231205469636b65747360781b8152506040518060400160405280600381526020016243323160e81b815250816002908162000069919062000187565b50600362000078828262000187565b505060008055506200008a3362000090565b62000253565b600880546001600160a01b038381166001600160a01b0319831681179093556040519116919082907f8be0079c531659141344cd1fd0a4f28419497f9722a3daafe3b4186f6b6457e090600090a35050565b634e487b7160e01b600052604160045260246000fd5b600181811c908216806200010d57607f821691505b6020821081036200012e57634e487b7160e01b600052602260045260246000fd5b50919050565b601f8211156200018257600081815260208120601f850160051c810160208610156200015d5750805b601f850160051c820191505b818110156200017e5782815560010162000169565b5050505b505050565b81516001600160401b03811115620001a357620001a3620000e2565b620001bb81620001b48454620000f8565b8462000134565b602080601f831160018114620001f35760008415620001da5750858301515b600019600386901b1c1916600185901b1785556200017e565b600085815260208120601f198616915b82811015620002245788860151825594840194600190910190840162000203565b5085821015620002435787850151600019600388901b60f8161c191681555b5050505050600190811b01905550565b611d9780620002636000396000f3fe6080604052600436106101dc5760003560e01c80637b92f58711610102578063c87b56dd11610095578063e985e9c511610064578063e985e9c514610625578063f136a87414610645578063f2fde38b14610675578063fddd74421461069557600080fd5b8063c87b56dd1461058d578063da8292d9146105ad578063e2dc95a0146105cd578063e75722301461060557600080fd5b8063af66e399116100d1578063af66e39914610461578063b88d4fde1461048e578063c11f4d3e146104a1578063c33735d5146104b457600080fd5b80637b92f587146103ee5780638da5cb5b1461040e57806395d89b411461042c578063a22cb4651461044157600080fd5b806342966c681161017a57806370a082311161014957806370a0823114610392578063715018a6146103b257806372998ce4146103c75780637b069bdd146103d357600080fd5b806342966c68146102d55780634af565bf146102f55780634c17ce0e146103285780636352211e1461037257600080fd5b8063095ea7b3116101b6578063095ea7b31461027757806318160ddd1461028c57806323b872dd146102af57806342842e0e146102c257600080fd5b806301ffc9a7146101e857806306fdde031461021d578063081812fc1461023f57600080fd5b366101e357005b600080fd5b3480156101f457600080fd5b50610208610203366004611775565b6107ab565b60405190151581526020015b60405180910390f35b34801561022957600080fd5b506102326107fd565b60405161021491906117e2565b34801561024b57600080fd5b5061025f61025a3660046117f5565b61088f565b6040516001600160a01b039091168152602001610214565b61028a610285366004611825565b6108d3565b005b34801561029857600080fd5b50600154600054035b604051908152602001610214565b61028a6102bd36600461184f565b610973565b61028a6102d036600461184f565b610b04565b3480156102e157600080fd5b5061028a6102f03660046117f5565b610b24565b34801561030157600080fd5b5061031066038d7ea4c6800081565b6040516001600160401b039091168152602001610214565b34801561033457600080fd5b5061020861034336600461188b565b600c60209081526000948552604080862082529385528385208152918452828420909152825290205460ff1681565b34801561037e57600080fd5b5061025f61038d3660046117f5565b610b32565b34801561039e57600080fd5b506102a16103ad3660046118bd565b610b3d565b3480156103be57600080fd5b5061028a610b8b565b34801561028a57600080fd5b3480156103df57600080fd5b5061031066044364c5bb000081565b3480156103fa57600080fd5b5060095461025f906001600160a01b031681565b34801561041a57600080fd5b506008546001600160a01b031661025f565b34801561043857600080fd5b50610232610b9f565b34801561044d57600080fd5b5061028a61045c3660046118d8565b610bae565b34801561046d57600080fd5b5061048161047c36600461188b565b610c1a565b6040516102149190611914565b61028a61049c36600461196e565b610d8b565b61028a6104af366004611a49565b610dd5565b3480156104c057600080fd5b506105436104cf366004611ad7565b600a60209081526000938452604080852082529284528284209052825290208054600182015460029092015463ffffffff80831693640100000000840460ff908116946501000000000081048216946601000000000000820490941693600160501b9091046001600160401b031692911687565b6040805163ffffffff988916815260ff9788166020820152958716908601529590921660608401526001600160401b0316608083015260a0820152911660c082015260e001610214565b34801561059957600080fd5b506102326105a83660046117f5565b610e91565b3480156105b957600080fd5b5061028a6105c83660046118bd565b610f22565b3480156105d957600080fd5b506102a16105e8366004611b03565b600b60209081526000928352604080842090915290825290205481565b34801561061157600080fd5b506102a16106203660046117f5565b610f4c565b34801561063157600080fd5b50610208610640366004611b25565b610f74565b34801561065157600080fd5b506102086106603660046118bd565b600d6020526000908152604090205460ff1681565b34801561068157600080fd5b5061028a6106903660046118bd565b610fa2565b3480156106a157600080fd5b506107396106b0366004611b58565b6040805160e081018252600080825260208201819052918101829052606081018290526080810182905260a0810182905260c0810191909152506040805160e08101825263ffffffff978816815260ff9687166020820152948616908501529190941660608301526001600160401b039093166080820152911660a0820152600060c082015290565b6040516102149190600060e08201905063ffffffff80845116835260ff602085015116602084015260ff6040850151166040840152806060850151166060840152506001600160401b03608084015116608083015260a083015160a083015260ff60c08401511660c083015292915050565b60006301ffc9a760e01b6001600160e01b0319831614806107dc57506380ac58cd60e01b6001600160e01b03198316145b806107f75750635b5e139f60e01b6001600160e01b03198316145b92915050565b60606002805461080c90611b9b565b80601f016020809104026020016040519081016040528092919081815260200182805461083890611b9b565b80156108855780601f1061085a57610100808354040283529160200191610885565b820191906000526020600020905b81548152906001019060200180831161086857829003601f168201915b5050505050905090565b600061089a8261101d565b6108b7576040516333d1c03960e21b815260040160405180910390fd5b506000908152600660205260409020546001600160a01b031690565b60006108de82610b32565b9050336001600160a01b03821614610917576108fa8133610f74565b610917576040516367d9dca160e11b815260040160405180910390fd5b60008281526006602052604080822080546001600160a01b0319166001600160a01b0387811691821790925591518593918516917f8c5be1e5ebec7d5bd14f71427d1e84f3dd0314c0f7b2291e5b200ac8c7c3b92591a4505050565b600061097e82611044565b9050836001600160a01b0316816001600160a01b0316146109b15760405162a1148160e81b815260040160405180910390fd5b600082815260066020526040902080546109dd8187335b6001600160a01b039081169116811491141790565b610a08576109eb8633610f74565b610a0857604051632ce44b5f60e11b815260040160405180910390fd5b6001600160a01b038516610a2f57604051633a954ecd60e21b815260040160405180910390fd5b8015610a3a57600082555b6001600160a01b038681166000908152600560205260408082208054600019019055918716808252919020805460010190554260a01b17600160e11b17600085815260046020526040812091909155600160e11b84169003610acc57600184016000818152600460205260408120549003610aca576000548114610aca5760008181526004602052604090208490555b505b83856001600160a01b0316876001600160a01b0316600080516020611d4283398151915260405160405180910390a45b505050505050565b610b1f83838360405180602001604052806000815250610d8b565b505050565b610b2f8160016110ab565b50565b60006107f782611044565b60006001600160a01b038216610b66576040516323d3ad8160e21b815260040160405180910390fd5b506001600160a01b03166000908152600560205260409020546001600160401b031690565b610b936111e3565b610b9d600061123d565b565b60606003805461080c90611b9b565b3360008181526007602090815260408083206001600160a01b03871680855290835292819020805460ff191686151590811790915590519081529192917f17307eab39ab6107e8899845ad3d59bd9653f200f220920489ca2b5937696c31910160405180910390a35050565b6009546040516338996df560e21b815260048101869052602481018590526044810184905260609160009182916001600160a01b03169063e265b7d490606401602060405180830381865afa158015610c77573d6000803e3d6000fd5b505050506040513d601f19601f82011682018060405250810190610c9b9190611bd5565b9050806001600160401b03811115610cb557610cb5611958565b604051908082528060200260200182016040528015610cde578160200160208202803683370190505b50925060005b81811015610d80576000878152600c602090815260408083208984528252808320888452909152812081610d19846001611c04565b815260208101919091526040016000205460ff169050801515600114610d6f57610d44826001611c04565b858581518110610d5657610d56611c17565b602090810291909101015283610d6b81611c2d565b9450505b50610d7981611c2d565b9050610ce4565b505050949350505050565b610d96848484610973565b6001600160a01b0383163b15610dcf57610db28484848461128f565b610dcf576040516368d2bf6b60e11b815260040160405180910390fd5b50505050565b610de26020840184611c46565b63ffffffff16610df86040850160208601611c6c565b60ff16610e0b6060860160408701611c6c565b60ff16610e1e60a0870160808801611c8f565b6001600160401b03168585610e36858585858561137a565b6000610e458a60a00135610f4c565b905060005b88811015610e8457610e748b8b8b84818110610e6857610e68611c17565b9050602002013561141f565b610e7d81611c2d565b9050610e4a565b5050505050505050505050565b6060610e9c8261101d565b610eb957604051630a14c4b560e41b815260040160405180910390fd5b6000610ed060408051602081019091526000815290565b90508051600003610ef05760405180602001604052806000815250610f1b565b80610efa84611641565b604051602001610f0b929190611cb8565b6040516020818303038152906040525b9392505050565b610f2a6111e3565b600980546001600160a01b0319166001600160a01b0392909216919091179055565b60006005821115610f65575066044364c5bb0000919050565b5066038d7ea4c680005b919050565b6001600160a01b03918216600090815260076020908152604080832093909416825291909152205460ff1690565b610faa6111e3565b6001600160a01b0381166110145760405162461bcd60e51b815260206004820152602660248201527f4f776e61626c653a206e6577206f776e657220697320746865207a65726f206160448201526564647265737360d01b60648201526084015b60405180910390fd5b610b2f8161123d565b60008054821080156107f7575050600090815260046020526040902054600160e01b161590565b6000816000548110156110925760008181526004602052604081205490600160e01b82169003611090575b80600003610f1b57506000190160008181526004602052604090205461106f565b505b604051636f96cda160e11b815260040160405180910390fd5b60006110b683611044565b9050806000806110d486600090815260066020526040902080549091565b915091508415611114576110e98184336109c8565b611114576110f78333610f74565b61111457604051632ce44b5f60e11b815260040160405180910390fd5b801561111f57600082555b6001600160a01b038316600081815260056020526040902080546fffffffffffffffffffffffffffffffff0190554260a01b17600360e01b17600087815260046020526040812091909155600160e11b851690036111ad576001860160008181526004602052604081205490036111ab5760005481146111ab5760008181526004602052604090208590555b505b60405186906000906001600160a01b03861690600080516020611d42833981519152908390a45050600180548101905550505050565b6008546001600160a01b03163314610b9d5760405162461bcd60e51b815260206004820181905260248201527f4f776e61626c653a2063616c6c6572206973206e6f7420746865206f776e6572604482015260640161100b565b600880546001600160a01b038381166001600160a01b0319831681179093556040519116919082907f8be0079c531659141344cd1fd0a4f28419497f9722a3daafe3b4186f6b6457e090600090a35050565b604051630a85bd0160e11b81526000906001600160a01b0385169063150b7a02906112c4903390899088908890600401611ce7565b6020604051808303816000875af19250505080156112ff575060408051601f3d908101601f191682019092526112fc91810190611d24565b60015b61135d573d80801561132d576040519150601f19603f3d011682016040523d82523d6000602084013e611332565b606091505b508051600003611355576040516368d2bf6b60e11b815260040160405180910390fd5b805181602001fd5b6001600160e01b031916630a85bd0160e11b149050949350505050565b60005b81811015610afc576000868152600c6020908152604080832088845282528083208784529091528120818585858181106113b9576113b9611c17565b602090810292909201358352508101919091526040016000205460ff169050801561140e5760405162461bcd60e51b81526020600482015260056024820152643a30b5b2b760d91b604482015260640161100b565b5061141881611c2d565b905061137d565b6000805460405160200161143591815260200190565b6040516020818303038152906040528051906020012090506000600a60008560000160208101906114669190611c46565b63ffffffff168152602001908152602001600020600085602001602081019061148f9190611c6c565b60ff168152602001908152602001600020600083815260200190815260200160002090508360200160208101906114c69190611c6c565b815460ff919091166401000000000264ff00000000199091161781556114f26080850160608601611c46565b815463ffffffff9190911666010000000000000269ffffffff000000000000199091161781556115286060850160408601611c6c565b815460ff91909116650100000000000265ff0000000000199091161781556115536020850185611c46565b815463ffffffff191663ffffffff9190911617815561157860a0850160808601611c8f565b81546001600160401b0391909116600160501b0267ffffffffffffffff60501b199091161781556001600c60006115b56040880160208901611c6c565b60ff16815260200190815260200160002060008660400160208101906115db9190611c6c565b60ff16815260200190815260200160002060008660800160208101906116019190611c8f565b6001600160401b03168152602080820192909252604090810160009081208782529092529020805460ff1916911515919091179055610dcf336001611685565b606060a06040510180604052602081039150506000815280825b600183039250600a81066030018353600a90048061165b5750819003601f19909101908152919050565b60008054908290036116aa5760405163b562e8dd60e01b815260040160405180910390fd5b6001600160a01b03831660008181526005602090815260408083208054680100000000000000018802019055848352600490915281206001851460e11b4260a01b17831790558284019083908390600080516020611d428339815191528180a4600183015b8181146117355780836000600080516020611d42833981519152600080a460010161170f565b508160000361175657604051622e076360e81b815260040160405180910390fd5b60005550505050565b6001600160e01b031981168114610b2f57600080fd5b60006020828403121561178757600080fd5b8135610f1b8161175f565b60005b838110156117ad578181015183820152602001611795565b50506000910152565b600081518084526117ce816020860160208601611792565b601f01601f19169290920160200192915050565b602081526000610f1b60208301846117b6565b60006020828403121561180757600080fd5b5035919050565b80356001600160a01b0381168114610f6f57600080fd5b6000806040838503121561183857600080fd5b6118418361180e565b946020939093013593505050565b60008060006060848603121561186457600080fd5b61186d8461180e565b925061187b6020850161180e565b9150604084013590509250925092565b600080600080608085870312156118a157600080fd5b5050823594602084013594506040840135936060013592509050565b6000602082840312156118cf57600080fd5b610f1b8261180e565b600080604083850312156118eb57600080fd5b6118f48361180e565b91506020830135801515811461190957600080fd5b809150509250929050565b6020808252825182820181905260009190848201906040850190845b8181101561194c57835183529284019291840191600101611930565b50909695505050505050565b634e487b7160e01b600052604160045260246000fd5b6000806000806080858703121561198457600080fd5b61198d8561180e565b935061199b6020860161180e565b92506040850135915060608501356001600160401b03808211156119be57600080fd5b818701915087601f8301126119d257600080fd5b8135818111156119e4576119e4611958565b604051601f8201601f19908116603f01168101908382118183101715611a0c57611a0c611958565b816040528281528a6020848701011115611a2557600080fd5b82602086016020830137600060208483010152809550505050505092959194509250565b6000806000838503610100811215611a6057600080fd5b60e0811215611a6e57600080fd5b5083925060e08401356001600160401b0380821115611a8c57600080fd5b818601915086601f830112611aa057600080fd5b813581811115611aaf57600080fd5b8760208260051b8501011115611ac457600080fd5b6020830194508093505050509250925092565b600080600060608486031215611aec57600080fd5b505081359360208301359350604090920135919050565b60008060408385031215611b1657600080fd5b50508035926020909101359150565b60008060408385031215611b3857600080fd5b611b418361180e565b9150611b4f6020840161180e565b90509250929050565b60008060008060008060c08789031215611b7157600080fd5b505084359660208601359650604086013595606081013595506080810135945060a0013592509050565b600181811c90821680611baf57607f821691505b602082108103611bcf57634e487b7160e01b600052602260045260246000fd5b50919050565b600060208284031215611be757600080fd5b5051919050565b634e487b7160e01b600052601160045260246000fd5b808201808211156107f7576107f7611bee565b634e487b7160e01b600052603260045260246000fd5b600060018201611c3f57611c3f611bee565b5060010190565b600060208284031215611c5857600080fd5b813563ffffffff81168114610f1b57600080fd5b600060208284031215611c7e57600080fd5b813560ff81168114610f1b57600080fd5b600060208284031215611ca157600080fd5b81356001600160401b0381168114610f1b57600080fd5b60008351611cca818460208801611792565b835190830190611cde818360208801611792565b01949350505050565b6001600160a01b0385811682528416602082015260408101839052608060608201819052600090611d1a908301846117b6565b9695505050505050565b600060208284031215611d3657600080fd5b8151610f1b8161175f56feddf252ad1be2c89b69c2b068fc378daa952ba7f163c4a11628f55a4df523b3efa2646970667358221220f935ce46e5bf831b65baf3938f8994b22e724b28fd665826a3cdc2f8f025b68b64736f6c63430008100033",
    "linkReferences": {}
  },
  "methodIdentifiers": {
    "TICKET_PRICE_WEEKDAYS()": "4af565bf",
    "TICKET_PRICE_WEEKEND()": "7b069bdd",
    "approve(address,uint256)": "095ea7b3",
    "approvedAddresses(address)": "f136a874",
    "balanceOf(address)": "70a08231",
    "burn(uint256)": "42966c68",
    "burnTicket()": "72998ce4",
    "cinemaInterface()": "7b92f587",
    "cinemaToTicketDetails(uint256,uint256,bytes32)": "c33735d5",
    "cinemaToTicketsSold(uint256,uint256)": "e2dc95a0",
    "convertToTicketDetails(uint256,uint256,uint256,uint256,uint256,uint256)": "fddd7442",
    "getApproved(uint256)": "081812fc",
    "getAvailableSeats(uint256,uint256,uint256,uint256)": "af66e399",
    "getPrice(uint256)": "e7572230",
    "isApprovedForAll(address,address)": "e985e9c5",
    "mintTickets((uint32,uint8,uint8,uint32,uint64,uint256,uint8),uint256[])": "c11f4d3e",
    "name()": "06fdde03",
    "owner()": "8da5cb5b",
    "ownerOf(uint256)": "6352211e",
    "renounceOwnership()": "715018a6",
    "safeTransferFrom(address,address,uint256)": "42842e0e",
    "safeTransferFrom(address,address,uint256,bytes)": "b88d4fde",
    "seatStatus(uint256,uint256,uint256,uint256)": "4c17ce0e",
    "setApprovalForAll(address,bool)": "a22cb465",
    "setInterfaces(address)": "da8292d9",
    "supportsInterface(bytes4)": "01ffc9a7",
    "symbol()": "95d89b41",
    "tokenURI(uint256)": "c87b56dd",
    "totalSupply()": "18160ddd",
    "transferFrom(address,address,uint256)": "23b872dd",
    "transferOwnership(address)": "f2fde38b"
  },
  "id": 22
}