{
  "abi": [
    {
      "inputs": [],
      "stateMutability": "nonpayable",
      "type": "constructor"
    },
    {
      "inputs": [],
      "name": "ApprovalCallerNotOwnerNorApproved",
      "type": "error"
    },
    {
      "inputs": [],
      "name": "ApprovalQueryForNonexistentToken",
      "type": "error"
    },
    {
      "inputs": [],
      "name": "BalanceQueryForZeroAddress",
      "type": "error"
    },
    {
      "inputs": [],
      "name": "MintERC2309QuantityExceedsLimit",
      "type": "error"
    },
    {
      "inputs": [],
      "name": "MintToZeroAddress",
      "type": "error"
    },
    {
      "inputs": [],
      "name": "MintZeroQuantity",
      "type": "error"
    },
    {
      "inputs": [],
      "name": "OwnerQueryForNonexistentToken",
      "type": "error"
    },
    {
      "inputs": [],
      "name": "OwnershipNotInitializedForExtraData",
      "type": "error"
    },
    {
      "inputs": [],
      "name": "TransferCallerNotOwnerNorApproved",
      "type": "error"
    },
    {
      "inputs": [],
      "name": "TransferFromIncorrectOwner",
      "type": "error"
    },
    {
      "inputs": [],
      "name": "TransferToNonERC721ReceiverImplementer",
      "type": "error"
    },
    {
      "inputs": [],
      "name": "TransferToZeroAddress",
      "type": "error"
    },
    {
      "inputs": [],
      "name": "URIQueryForNonexistentToken",
      "type": "error"
    },
    {
      "anonymous": false,
      "inputs": [
        {
          "indexed": true,
          "internalType": "address",
          "name": "owner",
          "type": "address"
        },
        {
          "indexed": true,
          "internalType": "address",
          "name": "approved",
          "type": "address"
        },
        {
          "indexed": true,
          "internalType": "uint256",
          "name": "tokenId",
          "type": "uint256"
        }
      ],
      "name": "Approval",
      "type": "event"
    },
    {
      "anonymous": false,
      "inputs": [
        {
          "indexed": true,
          "internalType": "address",
          "name": "owner",
          "type": "address"
        },
        {
          "indexed": true,
          "internalType": "address",
          "name": "operator",
          "type": "address"
        },
        {
          "indexed": false,
          "internalType": "bool",
          "name": "approved",
          "type": "bool"
        }
      ],
      "name": "ApprovalForAll",
      "type": "event"
    },
    {
      "anonymous": false,
      "inputs": [
        {
          "indexed": true,
          "internalType": "uint256",
          "name": "fromTokenId",
          "type": "uint256"
        },
        {
          "indexed": false,
          "internalType": "uint256",
          "name": "toTokenId",
          "type": "uint256"
        },
        {
          "indexed": true,
          "internalType": "address",
          "name": "from",
          "type": "address"
        },
        {
          "indexed": true,
          "internalType": "address",
          "name": "to",
          "type": "address"
        }
      ],
      "name": "ConsecutiveTransfer",
      "type": "event"
    },
    {
      "anonymous": false,
      "inputs": [
        {
          "indexed": true,
          "internalType": "address",
          "name": "previousOwner",
          "type": "address"
        },
        {
          "indexed": true,
          "internalType": "address",
          "name": "newOwner",
          "type": "address"
        }
      ],
      "name": "OwnershipTransferred",
      "type": "event"
    },
    {
      "anonymous": false,
      "inputs": [
        {
          "indexed": true,
          "internalType": "address",
          "name": "from",
          "type": "address"
        },
        {
          "indexed": true,
          "internalType": "address",
          "name": "to",
          "type": "address"
        },
        {
          "indexed": true,
          "internalType": "uint256",
          "name": "tokenId",
          "type": "uint256"
        }
      ],
      "name": "Transfer",
      "type": "event"
    },
    {
      "inputs": [],
      "name": "TICKET_PRICE_WEEKDAYS",
      "outputs": [
        {
          "internalType": "uint64",
          "name": "",
          "type": "uint64"
        }
      ],
      "stateMutability": "view",
      "type": "function"
    },
    {
      "inputs": [],
      "name": "TICKET_PRICE_WEEKEND",
      "outputs": [
        {
          "internalType": "uint64",
          "name": "",
          "type": "uint64"
        }
      ],
      "stateMutability": "view",
      "type": "function"
    },
    {
      "inputs": [
        {
          "internalType": "address",
          "name": "to",
          "type": "address"
        },
        {
          "internalType": "uint256",
          "name": "tokenId",
          "type": "uint256"
        }
      ],
      "name": "approve",
      "outputs": [],
      "stateMutability": "payable",
      "type": "function"
    },
    {
      "inputs": [
        {
          "internalType": "address",
          "name": "owner",
          "type": "address"
        }
      ],
      "name": "balanceOf",
      "outputs": [
        {
          "internalType": "uint256",
          "name": "",
          "type": "uint256"
        }
      ],
      "stateMutability": "view",
      "type": "function"
    },
    {
      "inputs": [
        {
          "internalType": "uint256",
          "name": "tokenId",
          "type": "uint256"
        }
      ],
      "name": "burn",
      "outputs": [],
      "stateMutability": "nonpayable",
      "type": "function"
    },
    {
      "inputs": [],
      "name": "burnTicket",
      "outputs": [],
      "stateMutability": "nonpayable",
      "type": "function"
    },
    {
      "inputs": [],
      "name": "cinemaInterface",
      "outputs": [
        {
          "internalType": "contract ICinema",
          "name": "",
          "type": "address"
        }
      ],
      "stateMutability": "view",
      "type": "function"
    },
    {
      "inputs": [
        {
          "internalType": "uint256",
          "name": "tokenId",
          "type": "uint256"
        }
      ],
      "name": "getApproved",
      "outputs": [
        {
          "internalType": "address",
          "name": "",
          "type": "address"
        }
      ],
      "stateMutability": "view",
      "type": "function"
    },
    {
      "inputs": [
        {
          "internalType": "uint256",
          "name": "_region",
          "type": "uint256"
        },
        {
          "internalType": "uint256",
          "name": "_cinema",
          "type": "uint256"
        },
        {
          "internalType": "uint256",
          "name": "_studio",
          "type": "uint256"
        },
        {
          "internalType": "uint256",
          "name": "_showTime",
          "type": "uint256"
        }
      ],
      "name": "getAvailableSeats",
      "outputs": [
        {
          "internalType": "uint256[]",
          "name": "seats",
          "type": "uint256[]"
        }
      ],
      "stateMutability": "view",
      "type": "function"
    },
    {
      "inputs": [
        {
          "internalType": "uint256",
          "name": "_day",
          "type": "uint256"
        }
      ],
      "name": "getPrice",
      "outputs": [
        {
          "internalType": "uint256",
          "name": "price",
          "type": "uint256"
        }
      ],
      "stateMutability": "pure",
      "type": "function"
    },
    {
      "inputs": [
        {
          "internalType": "address",
          "name": "_user",
          "type": "address"
        }
      ],
      "name": "getUserTicketIds",
      "outputs": [
        {
          "internalType": "bytes32[]",
          "name": "ticketIds",
          "type": "bytes32[]"
        }
      ],
      "stateMutability": "view",
      "type": "function"
    },
    {
      "inputs": [
        {
          "internalType": "address",
          "name": "_user",
          "type": "address"
        }
      ],
      "name": "getUserTickets",
      "outputs": [
        {
          "components": [
            {
              "internalType": "uint32",
              "name": "region",
              "type": "uint32"
            },
            {
              "internalType": "uint8",
              "name": "cinema",
              "type": "uint8"
            },
            {
              "internalType": "uint8",
              "name": "studio",
              "type": "uint8"
            },
            {
              "internalType": "uint32",
              "name": "movie",
              "type": "uint32"
            },
            {
              "internalType": "uint64",
              "name": "time",
              "type": "uint64"
            },
            {
              "internalType": "uint256",
              "name": "day",
              "type": "uint256"
            },
            {
              "internalType": "uint8",
              "name": "seatNumber",
              "type": "uint8"
            }
          ],
          "internalType": "struct Ticket.TicketDetails[]",
          "name": "tickets",
          "type": "tuple[]"
        }
      ],
      "stateMutability": "view",
      "type": "function"
    },
    {
      "inputs": [
        {
          "internalType": "address",
          "name": "owner",
          "type": "address"
        },
        {
          "internalType": "address",
          "name": "operator",
          "type": "address"
        }
      ],
      "name": "isApprovedForAll",
      "outputs": [
        {
          "internalType": "bool",
          "name": "",
          "type": "bool"
        }
      ],
      "stateMutability": "view",
      "type": "function"
    },
    {
      "inputs": [
        {
          "internalType": "uint256",
          "name": "_day",
          "type": "uint256"
        },
        {
          "internalType": "uint256",
          "name": "_region",
          "type": "uint256"
        },
        {
          "internalType": "uint256",
          "name": "_cinema",
          "type": "uint256"
        },
        {
          "internalType": "uint256",
          "name": "_studio",
          "type": "uint256"
        },
        {
          "internalType": "uint256",
          "name": "_showTime",
          "type": "uint256"
        },
        {
          "internalType": "uint256",
          "name": "_movie",
          "type": "uint256"
        },
        {
          "internalType": "uint256[]",
          "name": "_seatNumbers",
          "type": "uint256[]"
        }
      ],
      "name": "mintTickets",
      "outputs": [],
      "stateMutability": "payable",
      "type": "function"
    },
    {
      "inputs": [],
      "name": "name",
      "outputs": [
        {
          "internalType": "string",
          "name": "",
          "type": "string"
        }
      ],
      "stateMutability": "view",
      "type": "function"
    },
    {
      "inputs": [],
      "name": "owner",
      "outputs": [
        {
          "internalType": "address",
          "name": "",
          "type": "address"
        }
      ],
      "stateMutability": "view",
      "type": "function"
    },
    {
      "inputs": [
        {
          "internalType": "uint256",
          "name": "tokenId",
          "type": "uint256"
        }
      ],
      "name": "ownerOf",
      "outputs": [
        {
          "internalType": "address",
          "name": "",
          "type": "address"
        }
      ],
      "stateMutability": "view",
      "type": "function"
    },
    {
      "inputs": [],
      "name": "renounceOwnership",
      "outputs": [],
      "stateMutability": "nonpayable",
      "type": "function"
    },
    {
      "inputs": [
        {
          "internalType": "address",
          "name": "from",
          "type": "address"
        },
        {
          "internalType": "address",
          "name": "to",
          "type": "address"
        },
        {
          "internalType": "uint256",
          "name": "tokenId",
          "type": "uint256"
        }
      ],
      "name": "safeTransferFrom",
      "outputs": [],
      "stateMutability": "payable",
      "type": "function"
    },
    {
      "inputs": [
        {
          "internalType": "address",
          "name": "from",
          "type": "address"
        },
        {
          "internalType": "address",
          "name": "to",
          "type": "address"
        },
        {
          "internalType": "uint256",
          "name": "tokenId",
          "type": "uint256"
        },
        {
          "internalType": "bytes",
          "name": "_data",
          "type": "bytes"
        }
      ],
      "name": "safeTransferFrom",
      "outputs": [],
      "stateMutability": "payable",
      "type": "function"
    },
    {
      "inputs": [
        {
          "internalType": "uint256",
          "name": "",
          "type": "uint256"
        },
        {
          "internalType": "uint256",
          "name": "",
          "type": "uint256"
        },
        {
          "internalType": "uint256",
          "name": "",
          "type": "uint256"
        },
        {
          "internalType": "uint256",
          "name": "",
          "type": "uint256"
        },
        {
          "internalType": "uint256",
          "name": "",
          "type": "uint256"
        }
      ],
      "name": "seatStatus",
      "outputs": [
        {
          "internalType": "bool",
          "name": "",
          "type": "bool"
        }
      ],
      "stateMutability": "view",
      "type": "function"
    },
    {
      "inputs": [
        {
          "internalType": "address",
          "name": "operator",
          "type": "address"
        },
        {
          "internalType": "bool",
          "name": "approved",
          "type": "bool"
        }
      ],
      "name": "setApprovalForAll",
      "outputs": [],
      "stateMutability": "nonpayable",
      "type": "function"
    },
    {
      "inputs": [
        {
          "internalType": "address",
          "name": "_cinemaContract",
          "type": "address"
        },
        {
          "internalType": "address",
          "name": "_transactionsContract",
          "type": "address"
        }
      ],
      "name": "setInterfaces",
      "outputs": [],
      "stateMutability": "nonpayable",
      "type": "function"
    },
    {
      "inputs": [
        {
          "internalType": "bytes4",
          "name": "interfaceId",
          "type": "bytes4"
        }
      ],
      "name": "supportsInterface",
      "outputs": [
        {
          "internalType": "bool",
          "name": "",
          "type": "bool"
        }
      ],
      "stateMutability": "view",
      "type": "function"
    },
    {
      "inputs": [],
      "name": "symbol",
      "outputs": [
        {
          "internalType": "string",
          "name": "",
          "type": "string"
        }
      ],
      "stateMutability": "view",
      "type": "function"
    },
    {
      "inputs": [
        {
          "internalType": "bytes32",
          "name": "",
          "type": "bytes32"
        }
      ],
      "name": "ticketToDetails",
      "outputs": [
        {
          "internalType": "uint32",
          "name": "region",
          "type": "uint32"
        },
        {
          "internalType": "uint8",
          "name": "cinema",
          "type": "uint8"
        },
        {
          "internalType": "uint8",
          "name": "studio",
          "type": "uint8"
        },
        {
          "internalType": "uint32",
          "name": "movie",
          "type": "uint32"
        },
        {
          "internalType": "uint64",
          "name": "time",
          "type": "uint64"
        },
        {
          "internalType": "uint256",
          "name": "day",
          "type": "uint256"
        },
        {
          "internalType": "uint8",
          "name": "seatNumber",
          "type": "uint8"
        }
      ],
      "stateMutability": "view",
      "type": "function"
    },
    {
      "inputs": [
        {
          "internalType": "uint256",
          "name": "tokenId",
          "type": "uint256"
        }
      ],
      "name": "tokenURI",
      "outputs": [
        {
          "internalType": "string",
          "name": "",
          "type": "string"
        }
      ],
      "stateMutability": "view",
      "type": "function"
    },
    {
      "inputs": [],
      "name": "totalSupply",
      "outputs": [
        {
          "internalType": "uint256",
          "name": "",
          "type": "uint256"
        }
      ],
      "stateMutability": "view",
      "type": "function"
    },
    {
      "inputs": [],
      "name": "transactionsInterface",
      "outputs": [
        {
          "internalType": "contract ITransactions",
          "name": "",
          "type": "address"
        }
      ],
      "stateMutability": "view",
      "type": "function"
    },
    {
      "inputs": [
        {
          "internalType": "address",
          "name": "from",
          "type": "address"
        },
        {
          "internalType": "address",
          "name": "to",
          "type": "address"
        },
        {
          "internalType": "uint256",
          "name": "tokenId",
          "type": "uint256"
        }
      ],
      "name": "transferFrom",
      "outputs": [],
      "stateMutability": "payable",
      "type": "function"
    },
    {
      "inputs": [
        {
          "internalType": "address",
          "name": "newOwner",
          "type": "address"
        }
      ],
      "name": "transferOwnership",
      "outputs": [],
      "stateMutability": "nonpayable",
      "type": "function"
    },
    {
      "inputs": [
        {
          "internalType": "address",
          "name": "",
          "type": "address"
        }
      ],
      "name": "userToTicketAmount",
      "outputs": [
        {
          "internalType": "uint256",
          "name": "",
          "type": "uint256"
        }
      ],
      "stateMutability": "view",
      "type": "function"
    },
    {
      "inputs": [
        {
          "internalType": "address",
          "name": "",
          "type": "address"
        },
        {
          "internalType": "uint256",
          "name": "",
          "type": "uint256"
        }
      ],
      "name": "userToTickets",
      "outputs": [
        {
          "internalType": "bytes32",
          "name": "",
          "type": "bytes32"
        }
      ],
      "stateMutability": "view",
      "type": "function"
    },
    {
      "stateMutability": "payable",
      "type": "receive"
    }
  ],
  "bytecode": {
    "object": "0x60806040523462000175576200001462000191565b60207043696e656d61203231205469636b65747360781b8183015262000039620001c6565b6243323160e81b82820152825190916001600160401b03821162000165575b62000070826200006a600254620001fb565b62000238565b80601f8311600114620000d457508190620000a994600092620000c8575b50508160011b916000199060031b1c191617600255620002ea565b60008055620000b833620003ee565b604051611f3f90816200043d8239f35b0151905038806200008e565b60026000529193601f1985167f405787fa12a823e0f2b7631cc41b3ba8828b3321ca811111fa75cd3aa3bb5ace936000905b8282106200014c575050916001939186620000a997941062000132575b505050811b01600255620002ea565b015160001960f88460031b161c1916905538808062000123565b8060018697829497870151815501960194019062000106565b6200016f6200017a565b62000058565b600080fd5b50634e487b7160e01b600052604160045260246000fd5b60408051919082016001600160401b03811183821017620001b6575b60405260118252565b620001c06200017a565b620001ad565b60408051919082016001600160401b03811183821017620001eb575b60405260038252565b620001f56200017a565b620001e2565b90600182811c921680156200022d575b60208310146200021757565b634e487b7160e01b600052602260045260246000fd5b91607f16916200020b565b601f811162000245575050565b6000906002825260208220906020601f850160051c8301941062000286575b601f0160051c01915b8281106200027a57505050565b8181556001016200026d565b909250829062000264565b601f81116200029e575050565b6000906003825260208220906020601f850160051c83019410620002df575b601f0160051c01915b828110620002d357505050565b818155600101620002c6565b9092508290620002bd565b80519091906001600160401b038111620003de575b620003178162000311600354620001fb565b62000291565b602080601f83116001146200035657508192936000926200034a575b50508160011b916000199060031b1c191617600355565b01519050388062000333565b6003600052601f198316949091907fc2575a0e9e593c00f959f8c92f12db2869c3395a3b0502d05e2516446f71f85b926000905b878210620003c5575050836001959610620003ab575b505050811b01600355565b015160001960f88460031b161c19169055388080620003a0565b806001859682949686015181550195019301906200038a565b620003e86200017a565b620002ff565b600880546001600160a01b039283166001600160a01b031982168117909255604051919216907f8be0079c531659141344cd1fd0a4f28419497f9722a3daafe3b4186f6b6457e090600090a356fe6080604052600436101561001b575b361561001957600080fd5b005b60003560e01c806301ffc9a7146102af5780630484a22f146102a657806306fdde031461029d578063081812fc14610294578063095ea7b31461028b57806310fa69b31461028257806318160ddd1461027957806323b872dd1461027057806342842e0e1461026757806342966c681461025e5780634af565bf1461025557806357c706441461024c5780636352211e1461024357806366f58d871461023a57806370a0823114610231578063715018a61461022857806372998ce41461021f5780637b069bdd146102165780637b92f5871461020d5780638da5cb5b1461020457806395d89b41146101fb5780639dc8d34b146101f2578063a22cb465146101e9578063af66e399146101e0578063b3187c18146101d7578063b88d4fde146101ce578063c87b56dd146101c5578063e39dd287146101bc578063e5b7a554146101b3578063e7572230146101aa578063e985e9c5146101a1578063ed9c2f33146101985763f2fde38b0361000e576101936113fc565b61000e565b506101936113c1565b50610193611363565b5061019361133c565b50610193611312565b506101936112c9565b50610193611260565b506101936111dc565b5061019361108d565b50610193610ee5565b50610193610e1b565b50610193610db8565b50610193610cf4565b50610193610cca565b50610193610ca0565b50610193610c7d565b50610193610c69565b50610193610c07565b50610193610bac565b50610193610b1b565b50610193610aeb565b50610193610a81565b50610193610a5e565b506101936108c4565b50610193610882565b5061019361086f565b50610193610816565b506101936107be565b50610193610704565b506101936106b0565b506101936105ac565b5061019361040b565b506101936102cf565b6001600160e01b03198116036102ca57565b600080fd5b50346102ca5760203660031901126102ca5760206004356102ef816102b8565b63ffffffff60e01b166301ffc9a760e01b811490811561032d575b811561031c575b506040519015158152f35b635b5e139f60e01b14905038610311565b6380ac58cd60e01b8114915061030a565b600435906001600160a01b03821682036102ca57565b602435906001600160a01b03821682036102ca57565b60208082019080835283518092528060408094019401926000905b83821061039457505050505090565b90919293948360e06001926103fe895163ffffffff80825116845260ff8087840151168786015288830151168885015260609081830151169084015260806001600160401b0381830151169084015260a0808201519084015260c0809101519083019060ff169052565b0196019493920190610385565b50346102ca576020806003193601126102ca5761042661033e565b6001600160a01b0381166000908152600c8352604080822054929392909161044d82611525565b9361045a84519586611191565b828552601f1961046984611525565b01825b8181106104fe575050505b81811061048f5782518061048b868261036a565b0390f35b806104de6104d96104c86104f9946104b98a60018060a01b0316600052600d602052604060002090565b90600052602052604060002090565b54600052600b602052604060002090565b6115e9565b6104e882876115c7565b526104f381866115c7565b50611594565b610477565b8290865161050b81611120565b858152858382015285888201528560608201528560808201528560a08201528560c082015282828a0101520161046c565b60009103126102ca57565b91908251928382526000905b848210610580575092806020939411610573575b601f01601f1916010190565b6000838284010152610567565b90602090818082850101519082860101520190610553565b9060206105a9928181520190610547565b90565b50346102ca576000806003193601126106ad5760405190806002549060019180831c928082169283156106a3575b602092838610851461068f578588526020880194908115610673575060011461061a575b61048b8761060e81890382611191565b60405191829182610598565b600260005294509192917f405787fa12a823e0f2b7631cc41b3ba8828b3321ca811111fa75cd3aa3bb5ace5b838610610662575050509101905061060e8261048b38806105fe565b805485870152948201948101610646565b60ff1916855250505001915061060e90508261048b38806105fe565b634e487b7160e01b82526022600452602482fd5b93607f16936105da565b80fd5b50346102ca5760203660031901126102ca576004356106ce81611b10565b156106f3576000526006602052602060018060a01b0360406000205416604051908152f35b6333d1c03960e21b60005260046000fd5b5060403660031901126102ca5761071961033e565b6001600160a01b03906024358261072f82611a95565b1680330361078c575b600082815260066020526040812080546001600160a01b0319166001600160a01b038616179055936040519316907f8c5be1e5ebec7d5bd14f71427d1e84f3dd0314c0f7b2291e5b200ac8c7c3b9258585a4f35b600081815260076020908152604080832033845290915290205460ff16610738576367d9dca160e11b60005260046000fd5b50346102ca5760403660031901126102ca576107d861033e565b6107e0610354565b6107e86114cd565b600980546001600160a01b039384166001600160a01b031991821617909155600a8054929093169116179055005b50346102ca5760003660031901126102ca5760206000546001549003604051908152f35b60609060031901126102ca576001600160a01b039060043582811681036102ca579160243590811681036102ca579060443590565b5061001961087c3661083a565b91611b39565b5061001961088f3661083a565b9060405192602084018481106001600160401b038211176108b7575b60405260008452611cbb565b6108bf611109565b6108ab565b50346102ca5760203660031901126102ca5760006004356108e481611a95565b600082815260066020526040902080546001600160a01b03831693929190338082149086141715610914565b1590565b610a08575b6109ff575b506001600160a01b038316600090815260056020526040902080546fffffffffffffffffffffffffffffffff01905560008281526004602052604090204260a01b8417600360e01b179055600160e11b8116156109b6575b5082604051927fddf252ad1be2c89b69c2b068fc378daa952ba7f163c4a11628f55a4df523b3ef8285a46109b46109af60015460010190565b600155565bf35b600182016109ce816000526004602052604060002090565b54156109db575b50610976565b845481146109d5576109f7906000526004602052604060002090565b5538806109d5565b8490553861091e565b610a4c610910610a4533610a2e8960018060a01b03166000526007602052604060002090565b9060018060a01b0316600052602052604060002090565b5460ff1690565b1561091957610a59611ec2565b610919565b50346102ca5760003660031901126102ca57602060405166038d7ea4c680008152f35b50346102ca5760a03660031901126102ca5761048b60006004358152600e60205260ff604082818094206024358252602052818120604435825260205281812060643582526020528181206084358252602052205416905191829182919091602081019215159052565b50346102ca5760203660031901126102ca5760206001600160a01b03610b12600435611a95565b16604051908152f35b50346102ca5760203660031901126102ca576004356000908152600b602090815260409182902080546001820154600290920154845163ffffffff808416825283861c60ff90811696830196909652602884901c861696820196909652603083901c909516606086015260509190911c6001600160401b0316608085015260a08401919091521660c082015260e090f35b50346102ca5760203660031901126102ca576001600160a01b03610bce61033e565b168015610bf657600052600560205260206001600160401b0360406000205416604051908152f35b6323d3ad8160e21b60005260046000fd5b50346102ca576000806003193601126106ad57610c226114cd565b600880546001600160a01b031981169091556040519082906001600160a01b03167f8be0079c531659141344cd1fd0a4f28419497f9722a3daafe3b4186f6b6457e08284a3f35b50346102ca5760003660031901126102ca57005b50346102ca5760003660031901126102ca57602060405166044364c5bb00008152f35b50346102ca5760003660031901126102ca576009546040516001600160a01b039091168152602090f35b50346102ca5760003660031901126102ca576008546040516001600160a01b039091168152602090f35b50346102ca576000806003193601126106ad5760405190806003549060019180831c92808216928315610dae575b602092838610851461068f5785885260208801949081156106735750600114610d555761048b8761060e81890382611191565b600360005294509192917fc2575a0e9e593c00f959f8c92f12db2869c3395a3b0502d05e2516446f71f85b5b838610610d9d575050509101905061060e8261048b38806105fe565b805485870152948201948101610d81565b93607f1693610d22565b5060e03660031901126102ca5760c4356001600160401b038082116102ca57366023830112156102ca5781600401359081116102ca573660248260051b840101116102ca576024610019920160a435608435606435604435602435600435611704565b50346102ca5760403660031901126102ca57610e3561033e565b602435908115158092036102ca573360009081526007602090815260408083206001600160a01b0385168452909152902060ff1981541660ff841617905560405191825260018060a01b0316907f17307eab39ab6107e8899845ad3d59bd9653f200f220920489ca2b5937696c3160203392a3005b6020908160408183019282815285518094520193019160005b828110610ed1575050505090565b835185529381019392810192600101610ec3565b50346102ca5760803660031901126102ca57600435602435604435606435600091610f26610f1a60095460018060a01b031690565b6001600160a01b031690565b6040516338996df560e21b81526004810187905260248101869052604481018390529490602090869060649082905afa94851561103b575b849561100b575b50610f6f8561154b565b95845b868110610f87576040518061048b8a82610eaa565b6001610fce610fc9610a45610fb2896104b98a6104b98b6104b98c600052600e602052604060002090565b610fbb86611a85565b600052602052604060002090565b151590565b03610fe2575b610fdd90611594565b610f72565b94611003610fdd91610ff388611a85565b610ffd828c6115c7565b52611594565b959050610fd4565b61102d91955060203d8111611034575b6110258183611191565b81019061164d565b9338610f65565b503d61101b565b61104361165c565b610f5e565b90815180825260208080930193019160005b828110611068575050505090565b83518552938101939281019260010161105a565b9060206105a9928181520190611048565b50346102ca576020806003193601126102ca576001600160a01b036110b061033e565b16600091818352600c815260409283812054916110cc8361154b565b93825b8481106110e35786518061048b888261107c565b61110490828552600d8452878520818652845287852054610ffd82896115c7565b6110cf565b50634e487b7160e01b600052604160045260246000fd5b60e081019081106001600160401b0382111761113b57604052565b611143611109565b604052565b6001600160401b03811161113b57604052565b602081019081106001600160401b0382111761113b57604052565b60a081019081106001600160401b0382111761113b57604052565b90601f801991011681019081106001600160401b0382111761113b57604052565b6020906001600160401b0381116111cf575b601f01601f19160190565b6111d7611109565b6111c4565b5060803660031901126102ca576111f161033e565b6111f9610354565b606435916001600160401b0383116102ca57366023840112156102ca57826004013591611225836111b2565b926112336040519485611191565b80845236602482870101116102ca5760208160009260246100199801838801378501015260443591611cbb565b50346102ca5760203660031901126102ca5761127d600435611b10565b156112b85760006040516112908161115b565b5261048b6040516112a08161115b565b60008152604051918291602083526020830190610547565b630a14c4b560e41b60005260046000fd5b50346102ca5760403660031901126102ca576001600160a01b036112eb61033e565b16600052600d60205260406000206024356000526020526020604060002054604051908152f35b50346102ca5760003660031901126102ca57600a546040516001600160a01b039091168152602090f35b50346102ca5760203660031901126102ca57602061135b600435611a67565b604051908152f35b50346102ca5760403660031901126102ca57602060ff6113b561138461033e565b61138c610354565b6001600160a01b0391821660009081526007865260408082209290931681526020919091522090565b54166040519015158152f35b50346102ca5760203660031901126102ca576001600160a01b036113e361033e565b16600052600c6020526020604060002054604051908152f35b50346102ca5760203660031901126102ca5761141661033e565b61141e6114cd565b6001600160a01b039081169081156114795760009160085491816bffffffffffffffffffffffff60a01b84161760085560405192167f8be0079c531659141344cd1fd0a4f28419497f9722a3daafe3b4186f6b6457e08484a3f35b60405162461bcd60e51b815260206004820152602660248201527f4f776e61626c653a206e6577206f776e657220697320746865207a65726f206160448201526564647265737360d01b6064820152608490fd5b6008546001600160a01b031633036114e157565b606460405162461bcd60e51b815260206004820152602060248201527f4f776e61626c653a2063616c6c6572206973206e6f7420746865206f776e65726044820152fd5b6020906001600160401b03811161153e575b60051b0190565b611546611109565b611537565b9061155582611525565b6115626040519182611191565b8281528092611573601f1991611525565b0190602036910137565b50634e487b7160e01b600052601160045260246000fd5b60019060001981146115a4570190565b6115ac61157d565b0190565b50634e487b7160e01b600052603260045260246000fd5b60209181518110156115dc575b60051b010190565b6115e46115b0565b6115d4565b906040516115f681611120565b60c060ff600283956001600160401b03815463ffffffff8082168852858260201c166020890152858260281c1660408901528160301c16606088015260501c166080860152600181015460a0860152015416910152565b908160209103126102ca575190565b506040513d6000823e3d90fd5b91908110156116795760051b0190565b6115466115b0565b1561168857565b60405162461bcd60e51b815260206004820152601260248201527129b2b0ba1030b63932b0b23c903a30b5b2b760711b6044820152606490fd5b156116c957565b60405162461bcd60e51b815260206004820152601360248201527214d9585d08191bd95cc81b9bdd08195e1a5cdd606a1b6044820152606490fd5b60095490989796959493929190611723906001600160a01b0316610f1a565b6040516338996df560e21b815260048101839052602481018490526044810185905299906020908b9060649082905afa998a15611811575b60009a6117f1575b5060005b88811061177c575061177a989950611864565b565b806117d06117cb610910610a458c6117bc8f976117ec986117b68f8f8f908f6104b9926104b96104b992600052600e602052604060002090565b93611669565b35600052602052604060002090565b611681565b6117e78c6117df838d8d611669565b3511156116c2565b611594565b611767565b61180a919a5060203d8111611034576110258183611191565b9838611763565b61181961165c565b61175b565b8060001904821181151516611831570290565b61183961157d565b0290565b94939260609261185f9287526020870152608060408701526080860190611048565b930152565b919396949095929661187e8661187985611a67565b61181e565b976118888761154b565b968860005b88838210611913575050600a546118b597506001600160a01b03169550610f1a945050505050565b90813b156102ca57600080946118e16040519788968795869463bcc0942360e01b86526004860161183d565b03925af18015611906575b6118f35750565b8061190061177a92611148565b8061053c565b61190e61165c565b6118ec565b6119329288888888610ff39561192b8f8b8a91611669565b3595611939565b899061188d565b9091929396959496600054604051602081019182528360408201528460608201523360808201526080815261196d81611176565b5190209761198589600052600b602052604060002090565b805469ffffffffffffffffffff191664ff00000000602087901b161769ffffffff00000000000060309490941b939093169290921765ff0000000000602887901b161763ffffffff841617825560ff166001820155805467ffffffffffffffff60501b1916605086901b67ffffffffffffffff60501b16178155600201805460ff191660ff8716179055611a2390600052600e602052604060002090565b600091825260205260409020600091825260205260409020600091825260205260409020600091825260205260409020805460ff1916600117905561177a33611e0a565b60051015611a7a5766044364c5bb000090565b66038d7ea4c6800090565b60019060011981116115a4570190565b6000818152600460205260408120549091600160e01b821615611ac157636f96cda160e11b8352600483fd5b90918215611ace57505090565b8091925054821015611b0157505b60001901600081815260046020526040902054908115611afa575090565b9050611adc565b636f96cda160e11b8152600490fd5b60005481109081611b1f575090565b90506000526004602052600160e01b604060002054161590565b919091611b4582611a95565b6001600160a01b0391821693909190818316859003611cae575b60008481526006602052604090208054611b886001600160a01b03881633908114908314171590565b611c76575b611c6c575b506001600160a01b0385811660009081526005602090815260408083208054600019019055928416825282822080546001019055868252600490522091169384929091600160e11b904260a01b851782179055811615611c22575b507fddf252ad1be2c89b69c2b068fc378daa952ba7f163c4a11628f55a4df523b3ef600080a415611c1a57565b61177a611ee5565b60018401611c3a816000526004602052604060002090565b5415611c47575b50611bed565b6000548114611c4157611c64906000526004602052604060002090565b553880611c41565b6000905538611b92565b611c9c610910610a4533610a2e8b60018060a01b03166000526007602052604060002090565b15611b8d57611ca9611ec2565b611b8d565b611cb6611ed4565b611b5f565b929190611cc9828286611b39565b803b611cd6575b50505050565b611cdf93611d43565b15611ced5738808080611cd0565b6368d2bf6b60e11b60005260046000fd5b908160209103126102ca57516105a9816102b8565b3d15611d3e573d90611d24826111b2565b91611d326040519384611191565b82523d6000602084013e565b606090565b604051630a85bd0160e11b8082523360048301526001600160a01b03928316602483015260448201949094526080606482015292936020928492909183916000918390611d94906084830190610547565b0393165af160009181611dda575b50611dcc57611daf611d13565b805115611dbf575b805190602001fd5b611dc7611ef7565b611db7565b6001600160e01b0319161490565b611dfc91925060203d8111611e03575b611df48183611191565b810190611cfe565b9038611da2565b503d611dea565b600080548082526004602090815260408084206001600160a01b03959095164260a01b8117600160e11b1790955584845260059091528220805468010000000000000001019055918015611eb457600190818401939180805b611e6f575b5050505055565b15611ea3575b83818484877fddf252ad1be2c89b69c2b068fc378daa952ba7f163c4a11628f55a4df523b3ef8180a4611e63565b80920191848303611e755780611e68565b622e076360e81b8252600482fd5b50632ce44b5f60e11b60005260046000fd5b5062a1148160e81b60005260046000fd5b50633a954ecd60e21b60005260046000fd5b506368d2bf6b60e11b60005260046000fdfea264697066735822122086b5d50989a5dba8b56bd4ecb12b429756546466f252251d47e08f9424f1c69c64736f6c634300080d0033",
    "linkReferences": {}
  },
  "methodIdentifiers": {
    "TICKET_PRICE_WEEKDAYS()": "4af565bf",
    "TICKET_PRICE_WEEKEND()": "7b069bdd",
    "approve(address,uint256)": "095ea7b3",
    "balanceOf(address)": "70a08231",
    "burn(uint256)": "42966c68",
    "burnTicket()": "72998ce4",
    "cinemaInterface()": "7b92f587",
    "getApproved(uint256)": "081812fc",
    "getAvailableSeats(uint256,uint256,uint256,uint256)": "af66e399",
    "getPrice(uint256)": "e7572230",
    "getUserTicketIds(address)": "b3187c18",
    "getUserTickets(address)": "0484a22f",
    "isApprovedForAll(address,address)": "e985e9c5",
    "mintTickets(uint256,uint256,uint256,uint256,uint256,uint256,uint256[])": "9dc8d34b",
    "name()": "06fdde03",
    "owner()": "8da5cb5b",
    "ownerOf(uint256)": "6352211e",
    "renounceOwnership()": "715018a6",
    "safeTransferFrom(address,address,uint256)": "42842e0e",
    "safeTransferFrom(address,address,uint256,bytes)": "b88d4fde",
    "seatStatus(uint256,uint256,uint256,uint256,uint256)": "57c70644",
    "setApprovalForAll(address,bool)": "a22cb465",
    "setInterfaces(address,address)": "10fa69b3",
    "supportsInterface(bytes4)": "01ffc9a7",
    "symbol()": "95d89b41",
    "ticketToDetails(bytes32)": "66f58d87",
    "tokenURI(uint256)": "c87b56dd",
    "totalSupply()": "18160ddd",
    "transactionsInterface()": "e5b7a554",
    "transferFrom(address,address,uint256)": "23b872dd",
    "transferOwnership(address)": "f2fde38b",
    "userToTicketAmount(address)": "ed9c2f33",
    "userToTickets(address,uint256)": "e39dd287"
  },
  "id": 36
}