{
  "abi": [
    {
      "inputs": [],
      "stateMutability": "nonpayable",
      "type": "constructor"
    },
    {
      "inputs": [],
      "name": "ApprovalCallerNotOwnerNorApproved",
      "type": "error"
    },
    {
      "inputs": [],
      "name": "ApprovalQueryForNonexistentToken",
      "type": "error"
    },
    {
      "inputs": [],
      "name": "BalanceQueryForZeroAddress",
      "type": "error"
    },
    {
      "inputs": [],
      "name": "MintERC2309QuantityExceedsLimit",
      "type": "error"
    },
    {
      "inputs": [],
      "name": "MintToZeroAddress",
      "type": "error"
    },
    {
      "inputs": [],
      "name": "MintZeroQuantity",
      "type": "error"
    },
    {
      "inputs": [],
      "name": "OwnerQueryForNonexistentToken",
      "type": "error"
    },
    {
      "inputs": [],
      "name": "OwnershipNotInitializedForExtraData",
      "type": "error"
    },
    {
      "inputs": [],
      "name": "TransferCallerNotOwnerNorApproved",
      "type": "error"
    },
    {
      "inputs": [],
      "name": "TransferFromIncorrectOwner",
      "type": "error"
    },
    {
      "inputs": [],
      "name": "TransferToNonERC721ReceiverImplementer",
      "type": "error"
    },
    {
      "inputs": [],
      "name": "TransferToZeroAddress",
      "type": "error"
    },
    {
      "inputs": [],
      "name": "URIQueryForNonexistentToken",
      "type": "error"
    },
    {
      "anonymous": false,
      "inputs": [
        {
          "indexed": true,
          "internalType": "address",
          "name": "owner",
          "type": "address"
        },
        {
          "indexed": true,
          "internalType": "address",
          "name": "approved",
          "type": "address"
        },
        {
          "indexed": true,
          "internalType": "uint256",
          "name": "tokenId",
          "type": "uint256"
        }
      ],
      "name": "Approval",
      "type": "event"
    },
    {
      "anonymous": false,
      "inputs": [
        {
          "indexed": true,
          "internalType": "address",
          "name": "owner",
          "type": "address"
        },
        {
          "indexed": true,
          "internalType": "address",
          "name": "operator",
          "type": "address"
        },
        {
          "indexed": false,
          "internalType": "bool",
          "name": "approved",
          "type": "bool"
        }
      ],
      "name": "ApprovalForAll",
      "type": "event"
    },
    {
      "anonymous": false,
      "inputs": [
        {
          "indexed": true,
          "internalType": "uint256",
          "name": "fromTokenId",
          "type": "uint256"
        },
        {
          "indexed": false,
          "internalType": "uint256",
          "name": "toTokenId",
          "type": "uint256"
        },
        {
          "indexed": true,
          "internalType": "address",
          "name": "from",
          "type": "address"
        },
        {
          "indexed": true,
          "internalType": "address",
          "name": "to",
          "type": "address"
        }
      ],
      "name": "ConsecutiveTransfer",
      "type": "event"
    },
    {
      "anonymous": false,
      "inputs": [
        {
          "indexed": true,
          "internalType": "address",
          "name": "previousOwner",
          "type": "address"
        },
        {
          "indexed": true,
          "internalType": "address",
          "name": "newOwner",
          "type": "address"
        }
      ],
      "name": "OwnershipTransferred",
      "type": "event"
    },
    {
      "anonymous": false,
      "inputs": [
        {
          "indexed": false,
          "internalType": "bytes32[]",
          "name": "_ticketIds",
          "type": "bytes32[]"
        },
        {
          "indexed": false,
          "internalType": "address",
          "name": "_minter",
          "type": "address"
        }
      ],
      "name": "TicketMinted",
      "type": "event"
    },
    {
      "anonymous": false,
      "inputs": [
        {
          "indexed": true,
          "internalType": "address",
          "name": "from",
          "type": "address"
        },
        {
          "indexed": true,
          "internalType": "address",
          "name": "to",
          "type": "address"
        },
        {
          "indexed": true,
          "internalType": "uint256",
          "name": "tokenId",
          "type": "uint256"
        }
      ],
      "name": "Transfer",
      "type": "event"
    },
    {
      "inputs": [],
      "name": "TICKET_PRICE_WEEKDAYS",
      "outputs": [
        {
          "internalType": "uint64",
          "name": "",
          "type": "uint64"
        }
      ],
      "stateMutability": "view",
      "type": "function"
    },
    {
      "inputs": [],
      "name": "TICKET_PRICE_WEEKEND",
      "outputs": [
        {
          "internalType": "uint64",
          "name": "",
          "type": "uint64"
        }
      ],
      "stateMutability": "view",
      "type": "function"
    },
    {
      "inputs": [
        {
          "internalType": "address",
          "name": "to",
          "type": "address"
        },
        {
          "internalType": "uint256",
          "name": "tokenId",
          "type": "uint256"
        }
      ],
      "name": "approve",
      "outputs": [],
      "stateMutability": "payable",
      "type": "function"
    },
    {
      "inputs": [
        {
          "internalType": "address",
          "name": "owner",
          "type": "address"
        }
      ],
      "name": "balanceOf",
      "outputs": [
        {
          "internalType": "uint256",
          "name": "",
          "type": "uint256"
        }
      ],
      "stateMutability": "view",
      "type": "function"
    },
    {
      "inputs": [
        {
          "internalType": "uint256",
          "name": "tokenId",
          "type": "uint256"
        }
      ],
      "name": "burn",
      "outputs": [],
      "stateMutability": "nonpayable",
      "type": "function"
    },
    {
      "inputs": [],
      "name": "burnTicket",
      "outputs": [],
      "stateMutability": "nonpayable",
      "type": "function"
    },
    {
      "inputs": [
        {
          "internalType": "uint256",
          "name": "_day",
          "type": "uint256"
        },
        {
          "internalType": "uint256",
          "name": "_region",
          "type": "uint256"
        },
        {
          "internalType": "uint256",
          "name": "_cinema",
          "type": "uint256"
        },
        {
          "internalType": "uint256",
          "name": "_studio",
          "type": "uint256"
        },
        {
          "internalType": "uint256",
          "name": "_showtime",
          "type": "uint256"
        },
        {
          "internalType": "uint256",
          "name": "_movie",
          "type": "uint256"
        }
      ],
      "name": "generateTicketDetails",
      "outputs": [
        {
          "components": [
            {
              "internalType": "uint256",
              "name": "_day",
              "type": "uint256"
            },
            {
              "internalType": "uint256",
              "name": "_region",
              "type": "uint256"
            },
            {
              "internalType": "uint256",
              "name": "_cinema",
              "type": "uint256"
            },
            {
              "internalType": "uint256",
              "name": "_studio",
              "type": "uint256"
            },
            {
              "internalType": "uint256",
              "name": "_showtime",
              "type": "uint256"
            },
            {
              "internalType": "uint256",
              "name": "_movie",
              "type": "uint256"
            }
          ],
          "internalType": "struct Ticket.TicketDetails",
          "name": "ticketDetails",
          "type": "tuple"
        }
      ],
      "stateMutability": "pure",
      "type": "function"
    },
    {
      "inputs": [
        {
          "internalType": "uint256",
          "name": "tokenId",
          "type": "uint256"
        }
      ],
      "name": "getApproved",
      "outputs": [
        {
          "internalType": "address",
          "name": "",
          "type": "address"
        }
      ],
      "stateMutability": "view",
      "type": "function"
    },
    {
      "inputs": [
        {
          "internalType": "uint256",
          "name": "_day",
          "type": "uint256"
        }
      ],
      "name": "getPrice",
      "outputs": [
        {
          "internalType": "uint256",
          "name": "price",
          "type": "uint256"
        }
      ],
      "stateMutability": "pure",
      "type": "function"
    },
    {
      "inputs": [
        {
          "internalType": "address",
          "name": "_user",
          "type": "address"
        }
      ],
      "name": "getUserTickets",
      "outputs": [
        {
          "internalType": "uint256[]",
          "name": "_tickets",
          "type": "uint256[]"
        }
      ],
      "stateMutability": "view",
      "type": "function"
    },
    {
      "inputs": [
        {
          "internalType": "address",
          "name": "owner",
          "type": "address"
        },
        {
          "internalType": "address",
          "name": "operator",
          "type": "address"
        }
      ],
      "name": "isApprovedForAll",
      "outputs": [
        {
          "internalType": "bool",
          "name": "",
          "type": "bool"
        }
      ],
      "stateMutability": "view",
      "type": "function"
    },
    {
      "inputs": [
        {
          "components": [
            {
              "internalType": "uint256",
              "name": "_day",
              "type": "uint256"
            },
            {
              "internalType": "uint256",
              "name": "_region",
              "type": "uint256"
            },
            {
              "internalType": "uint256",
              "name": "_cinema",
              "type": "uint256"
            },
            {
              "internalType": "uint256",
              "name": "_studio",
              "type": "uint256"
            },
            {
              "internalType": "uint256",
              "name": "_showtime",
              "type": "uint256"
            },
            {
              "internalType": "uint256",
              "name": "_movie",
              "type": "uint256"
            }
          ],
          "internalType": "struct Ticket.TicketDetails",
          "name": "_ticketDetails",
          "type": "tuple"
        },
        {
          "internalType": "uint8[]",
          "name": "_seatNumbers",
          "type": "uint8[]"
        }
      ],
      "name": "mintTickets",
      "outputs": [],
      "stateMutability": "payable",
      "type": "function"
    },
    {
      "inputs": [],
      "name": "name",
      "outputs": [
        {
          "internalType": "string",
          "name": "",
          "type": "string"
        }
      ],
      "stateMutability": "view",
      "type": "function"
    },
    {
      "inputs": [],
      "name": "owner",
      "outputs": [
        {
          "internalType": "address",
          "name": "",
          "type": "address"
        }
      ],
      "stateMutability": "view",
      "type": "function"
    },
    {
      "inputs": [
        {
          "internalType": "uint256",
          "name": "tokenId",
          "type": "uint256"
        }
      ],
      "name": "ownerOf",
      "outputs": [
        {
          "internalType": "address",
          "name": "",
          "type": "address"
        }
      ],
      "stateMutability": "view",
      "type": "function"
    },
    {
      "inputs": [],
      "name": "renounceOwnership",
      "outputs": [],
      "stateMutability": "nonpayable",
      "type": "function"
    },
    {
      "inputs": [
        {
          "internalType": "address",
          "name": "from",
          "type": "address"
        },
        {
          "internalType": "address",
          "name": "to",
          "type": "address"
        },
        {
          "internalType": "uint256",
          "name": "tokenId",
          "type": "uint256"
        }
      ],
      "name": "safeTransferFrom",
      "outputs": [],
      "stateMutability": "payable",
      "type": "function"
    },
    {
      "inputs": [
        {
          "internalType": "address",
          "name": "from",
          "type": "address"
        },
        {
          "internalType": "address",
          "name": "to",
          "type": "address"
        },
        {
          "internalType": "uint256",
          "name": "tokenId",
          "type": "uint256"
        },
        {
          "internalType": "bytes",
          "name": "_data",
          "type": "bytes"
        }
      ],
      "name": "safeTransferFrom",
      "outputs": [],
      "stateMutability": "payable",
      "type": "function"
    },
    {
      "inputs": [
        {
          "internalType": "address",
          "name": "operator",
          "type": "address"
        },
        {
          "internalType": "bool",
          "name": "approved",
          "type": "bool"
        }
      ],
      "name": "setApprovalForAll",
      "outputs": [],
      "stateMutability": "nonpayable",
      "type": "function"
    },
    {
      "inputs": [
        {
          "internalType": "bytes4",
          "name": "interfaceId",
          "type": "bytes4"
        }
      ],
      "name": "supportsInterface",
      "outputs": [
        {
          "internalType": "bool",
          "name": "",
          "type": "bool"
        }
      ],
      "stateMutability": "view",
      "type": "function"
    },
    {
      "inputs": [],
      "name": "symbol",
      "outputs": [
        {
          "internalType": "string",
          "name": "",
          "type": "string"
        }
      ],
      "stateMutability": "view",
      "type": "function"
    },
    {
      "inputs": [
        {
          "internalType": "uint256",
          "name": "tokenId",
          "type": "uint256"
        }
      ],
      "name": "tokenURI",
      "outputs": [
        {
          "internalType": "string",
          "name": "",
          "type": "string"
        }
      ],
      "stateMutability": "view",
      "type": "function"
    },
    {
      "inputs": [],
      "name": "totalSupply",
      "outputs": [
        {
          "internalType": "uint256",
          "name": "",
          "type": "uint256"
        }
      ],
      "stateMutability": "view",
      "type": "function"
    },
    {
      "inputs": [
        {
          "internalType": "address",
          "name": "from",
          "type": "address"
        },
        {
          "internalType": "address",
          "name": "to",
          "type": "address"
        },
        {
          "internalType": "uint256",
          "name": "tokenId",
          "type": "uint256"
        }
      ],
      "name": "transferFrom",
      "outputs": [],
      "stateMutability": "payable",
      "type": "function"
    },
    {
      "inputs": [
        {
          "internalType": "address",
          "name": "newOwner",
          "type": "address"
        }
      ],
      "name": "transferOwnership",
      "outputs": [],
      "stateMutability": "nonpayable",
      "type": "function"
    },
    {
      "inputs": [
        {
          "internalType": "address",
          "name": "",
          "type": "address"
        },
        {
          "internalType": "uint256",
          "name": "",
          "type": "uint256"
        }
      ],
      "name": "userTickets",
      "outputs": [
        {
          "internalType": "uint256",
          "name": "",
          "type": "uint256"
        }
      ],
      "stateMutability": "view",
      "type": "function"
    },
    {
      "stateMutability": "payable",
      "type": "receive"
    }
  ],
  "bytecode": {
    "object": "0x60806040523480156200001157600080fd5b50604080518082018252601181527043696e656d61203231205469636b65747360781b60208083019182528351808501909452600384526243323160e81b9084015281519192916200006691600291620000e7565b5080516200007c906003906020840190620000e7565b50506001600055506200008f3362000095565b620001c9565b600880546001600160a01b038381166001600160a01b0319831681179093556040519116919082907f8be0079c531659141344cd1fd0a4f28419497f9722a3daafe3b4186f6b6457e090600090a35050565b828054620000f5906200018d565b90600052602060002090601f01602090048101928262000119576000855562000164565b82601f106200013457805160ff191683800117855562000164565b8280016001018555821562000164579182015b828111156200016457825182559160200191906001019062000147565b506200017292915062000176565b5090565b5b8082111562000172576000815560010162000177565b600181811c90821680620001a257607f821691505b602082108103620001c357634e487b7160e01b600052602260045260246000fd5b50919050565b61195480620001d96000396000f3fe6080604052600436106101855760003560e01c8063715018a6116100d1578063ada7af191161008a578063cf260baf11610064578063cf260baf14610484578063e7572230146104bc578063e985e9c5146104dc578063f2fde38b1461052557600080fd5b8063ada7af191461043e578063b88d4fde14610451578063c87b56dd1461046457600080fd5b8063715018a6146103af57806372998ce4146103c45780637b069bdd146103d05780638da5cb5b146103eb57806395d89b4114610409578063a22cb4651461041e57600080fd5b806318b217721161013e57806342966c681161011857806342966c681461031b5780634af565bf1461033b5780636352211e1461036f57806370a082311461038f57600080fd5b806318b217721461028957806323b872dd146102f557806342842e0e1461030857600080fd5b806301ffc9a7146101915780630484a22f146101c657806306fdde03146101f3578063081812fc14610215578063095ea7b31461024d57806318160ddd1461026257600080fd5b3661018c57005b600080fd5b34801561019d57600080fd5b506101b16101ac366004611323565b610545565b60405190151581526020015b60405180910390f35b3480156101d257600080fd5b506101e66101e1366004611357565b610597565b6040516101bd9190611372565b3480156101ff57600080fd5b50610208610653565b6040516101bd919061140e565b34801561022157600080fd5b50610235610230366004611421565b6106e5565b6040516001600160a01b0390911681526020016101bd565b61026061025b36600461143a565b610720565b005b34801561026e57600080fd5b5060015460005403600019015b6040519081526020016101bd565b34801561029557600080fd5b506102a96102a4366004611464565b610730565b6040516101bd9190600060c082019050825182526020830151602083015260408301516040830152606083015160608301526080830151608083015260a083015160a083015292915050565b6102606103033660046114a7565b610798565b6102606103163660046114a7565b610907565b34801561032757600080fd5b50610260610336366004611421565b610927565b34801561034757600080fd5b5061035666038d7ea4c6800081565b60405167ffffffffffffffff90911681526020016101bd565b34801561037b57600080fd5b5061023561038a366004611421565b610935565b34801561039b57600080fd5b5061027b6103aa366004611357565b610940565b3480156103bb57600080fd5b50610260610986565b34801561026057600080fd5b3480156103dc57600080fd5b5061035666044364c5bb000081565b3480156103f757600080fd5b506008546001600160a01b0316610235565b34801561041557600080fd5b5061020861099a565b34801561042a57600080fd5b506102606104393660046114e3565b6109a9565b61026061044c3660046115db565b610a15565b61026061045f366004611675565b610c5d565b34801561047057600080fd5b5061020861047f366004611421565b610c9e565b34801561049057600080fd5b5061027b61049f36600461143a565b600960209081526000928352604080842090915290825290205481565b3480156104c857600080fd5b5061027b6104d7366004611421565b610d26565b3480156104e857600080fd5b506101b16104f7366004611735565b6001600160a01b03918216600090815260076020908152604080832093909416825291909152205460ff1690565b34801561053157600080fd5b50610260610540366004611357565b610d4e565b60006301ffc9a760e01b6001600160e01b03198316148061057657506380ac58cd60e01b6001600160e01b03198316145b806105915750635b5e139f60e01b6001600160e01b03198316145b92915050565b606060006105a483610940565b90508067ffffffffffffffff8111156105bf576105bf61151f565b6040519080825280602002602001820160405280156105e8578160200160208202803683370190505b50915060005b8181101561064c576001600160a01b03841660009081526009602090815260408083208484529091529020548351819085908490811061063057610630611768565b60209081029190910101525061064581611794565b90506105ee565b5050919050565b606060028054610662906117ad565b80601f016020809104026020016040519081016040528092919081815260200182805461068e906117ad565b80156106db5780601f106106b0576101008083540402835291602001916106db565b820191906000526020600020905b8154815290600101906020018083116106be57829003601f168201915b5050505050905090565b60006106f082610dc4565b610704576107046333d1c03960e21b610df9565b506000908152600660205260409020546001600160a01b031690565b61072c82826001610e03565b5050565b6107696040518060c001604052806000815260200160008152602001600081526020016000815260200160008152602001600081525090565b506040805160c0810182529687526020870195909552938501929092526060840152608083015260a082015290565b60006107a382610ea6565b6001600160a01b0394851694909150811684146107c9576107c962a1148160e81b610df9565b600082815260066020526040902080546107f58187335b6001600160a01b039081169116811491141790565b6108175761080386336104f7565b61081757610817632ce44b5f60e11b610df9565b801561082257600082555b6001600160a01b038681166000908152600560205260408082208054600019019055918716808252919020805460010190554260a01b17600160e11b17600085815260046020526040812091909155600160e11b841690036108b4576001840160008181526004602052604081205490036108b25760005481146108b25760008181526004602052604090208490555b505b6001600160a01b0385168481887fddf252ad1be2c89b69c2b068fc378daa952ba7f163c4a11628f55a4df523b3ef600080a4806000036108fe576108fe633a954ecd60e21b610df9565b50505050505050565b61092283838360405180602001604052806000815250610c5d565b505050565b610932816001610f1f565b50565b600061059182610ea6565b60006001600160a01b038216610960576109606323d3ad8160e21b610df9565b506001600160a01b031660009081526005602052604090205467ffffffffffffffff1690565b61098e611060565b61099860006110ba565b565b606060038054610662906117ad565b3360008181526007602090815260408083206001600160a01b03871680855290835292819020805460ff191686151590811790915590519081529192917f17307eab39ab6107e8899845ad3d59bd9653f200f220920489ca2b5937696c31910160405180910390a35050565b6000610a2033610940565b90506000610a318560000151610d26565b90506000610a3f84836117e7565b905060008467ffffffffffffffff811115610a5c57610a5c61151f565b604051908082528060200260200182016040528015610a85578160200160208202803683370190505b50905081341015610ad45760405162461bcd60e51b815260206004820152601460248201527315dc9bdb99c8195d1a081d985b1d59481cd95b9d60621b60448201526064015b60405180910390fd5b6000610ade61110c565b905060005b86811015610c0f576000338a602001518b604001518c606001518c8c87818110610b0f57610b0f611768565b9050602002016020810190610b249190611806565b8e60a001518f60800151604051602001610b90979695949392919060609790971b6bffffffffffffffffffffffff1916875260148701959095526034860193909352605485019190915260f81b6001600160f81b03191660748401526075830152609582015260b50190565b6040516020818303038152906040528051906020012090508183610bb49190611829565b33600090815260096020526040812090610bce858b611829565b81526020019081526020016000208190555080848381518110610bf357610bf3611768565b602090810291909101015250610c0881611794565b9050610ae3565b50610c1a3387611128565b7f6848527c5d1ce793d2a3f286764cee06b88580f272b4c505e66f9d8e80817f5a8233604051610c4b929190611841565b60405180910390a15050505050505050565b610c68848484610798565b6001600160a01b0383163b15610c9857610c84848484846111e7565b610c9857610c986368d2bf6b60e11b610df9565b50505050565b6060610ca982610dc4565b610cbd57610cbd630a14c4b560e41b610df9565b6000610cd460408051602081019091526000815290565b90508051600003610cf45760405180602001604052806000815250610d1f565b80610cfe846112c9565b604051602001610d0f929190611895565b6040516020818303038152906040525b9392505050565b60006005821115610d3f575066044364c5bb0000919050565b5066038d7ea4c680005b919050565b610d56611060565b6001600160a01b038116610dbb5760405162461bcd60e51b815260206004820152602660248201527f4f776e61626c653a206e6577206f776e657220697320746865207a65726f206160448201526564647265737360d01b6064820152608401610acb565b610932816110ba565b600081600111158015610dd8575060005482105b8015610591575050600090815260046020526040902054600160e01b161590565b8060005260046000fd5b6000610e0e83610935565b9050818015610e265750336001600160a01b03821614155b15610e4957610e3581336104f7565b610e4957610e496367d9dca160e11b610df9565b60008381526006602052604080822080546001600160a01b0319166001600160a01b0388811691821790925591518693918516917f8c5be1e5ebec7d5bd14f71427d1e84f3dd0314c0f7b2291e5b200ac8c7c3b92591a450505050565b600081600111610f0f575060008181526004602052604081205490600160e01b82169003610f0f5780600003610d49576000548210610eef57610eef636f96cda160e11b610df9565b5b50600019016000818152600460205260409020548015610ef057919050565b610d49636f96cda160e11b610df9565b6000610f2a83610ea6565b905080600080610f4886600090815260066020526040902080549091565b915091508415610f7f57610f5d8184336107e0565b610f7f57610f6b83336104f7565b610f7f57610f7f632ce44b5f60e11b610df9565b8015610f8a57600082555b6001600160a01b038316600081815260056020526040902080546fffffffffffffffffffffffffffffffff0190554260a01b17600360e01b17600087815260046020526040812091909155600160e11b85169003611018576001860160008181526004602052604081205490036110165760005481146110165760008181526004602052604090208590555b505b60405186906000906001600160a01b038616907fddf252ad1be2c89b69c2b068fc378daa952ba7f163c4a11628f55a4df523b3ef908390a45050600180548101905550505050565b6008546001600160a01b031633146109985760405162461bcd60e51b815260206004820181905260248201527f4f776e61626c653a2063616c6c6572206973206e6f7420746865206f776e65726044820152606401610acb565b600880546001600160a01b038381166001600160a01b0319831681179093556040519116919082907f8be0079c531659141344cd1fd0a4f28419497f9722a3daafe3b4186f6b6457e090600090a35050565b60008054600019016000036111215750600190565b5060005490565b60008054908290036111445761114463b562e8dd60e01b610df9565b60008181526004602090815260408083206001600160a01b0387164260a01b6001881460e11b178117909155808452600590925282208054680100000000000000018602019055908190036111a2576111a2622e076360e81b610df9565b818301825b808360007fddf252ad1be2c89b69c2b068fc378daa952ba7f163c4a11628f55a4df523b3ef600080a48181600101915081036111a7575060005550505050565b604051630a85bd0160e11b81526000906001600160a01b0385169063150b7a029061121c9033908990889088906004016118c4565b6020604051808303816000875af1925050508015611257575060408051601f3d908101601f1916820190925261125491810190611901565b60015b6112ac573d808015611285576040519150601f19603f3d011682016040523d82523d6000602084013e61128a565b606091505b5080516000036112a4576112a46368d2bf6b60e11b610df9565b805181602001fd5b6001600160e01b031916630a85bd0160e11b149050949350505050565b606060a06040510180604052602081039150506000815280825b600183039250600a81066030018353600a9004806112e35750819003601f19909101908152919050565b6001600160e01b03198116811461093257600080fd5b60006020828403121561133557600080fd5b8135610d1f8161130d565b80356001600160a01b0381168114610d4957600080fd5b60006020828403121561136957600080fd5b610d1f82611340565b6020808252825182820181905260009190848201906040850190845b818110156113aa5783518352928401929184019160010161138e565b50909695505050505050565b60005b838110156113d15781810151838201526020016113b9565b83811115610c985750506000910152565b600081518084526113fa8160208601602086016113b6565b601f01601f19169290920160200192915050565b602081526000610d1f60208301846113e2565b60006020828403121561143357600080fd5b5035919050565b6000806040838503121561144d57600080fd5b61145683611340565b946020939093013593505050565b60008060008060008060c0878903121561147d57600080fd5b505084359660208601359650604086013595606081013595506080810135945060a0013592509050565b6000806000606084860312156114bc57600080fd5b6114c584611340565b92506114d360208501611340565b9150604084013590509250925092565b600080604083850312156114f657600080fd5b6114ff83611340565b91506020830135801515811461151457600080fd5b809150509250929050565b634e487b7160e01b600052604160045260246000fd5b60405160c0810167ffffffffffffffff811182821017156115585761155861151f565b60405290565b604051601f8201601f1916810167ffffffffffffffff811182821017156115875761158761151f565b604052919050565b60008083601f8401126115a157600080fd5b50813567ffffffffffffffff8111156115b957600080fd5b6020830191508360208260051b85010111156115d457600080fd5b9250929050565b600080600083850360e08112156115f157600080fd5b60c08112156115ff57600080fd5b50611608611535565b843581526020850135602082015260408501356040820152606085013560608201526080850135608082015260a085013560a08201528093505060c084013567ffffffffffffffff81111561165c57600080fd5b6116688682870161158f565b9497909650939450505050565b6000806000806080858703121561168b57600080fd5b61169485611340565b935060206116a3818701611340565b935060408601359250606086013567ffffffffffffffff808211156116c757600080fd5b818801915088601f8301126116db57600080fd5b8135818111156116ed576116ed61151f565b6116ff601f8201601f1916850161155e565b9150808252898482850101111561171557600080fd5b808484018584013760008482840101525080935050505092959194509250565b6000806040838503121561174857600080fd5b61175183611340565b915061175f60208401611340565b90509250929050565b634e487b7160e01b600052603260045260246000fd5b634e487b7160e01b600052601160045260246000fd5b6000600182016117a6576117a661177e565b5060010190565b600181811c908216806117c157607f821691505b6020821081036117e157634e487b7160e01b600052602260045260246000fd5b50919050565b60008160001904831182151516156118015761180161177e565b500290565b60006020828403121561181857600080fd5b813560ff81168114610d1f57600080fd5b6000821982111561183c5761183c61177e565b500190565b604080825283519082018190526000906020906060840190828701845b8281101561187a5781518452928401929084019060010161185e565b5050506001600160a01b039490941692019190915250919050565b600083516118a78184602088016113b6565b8351908301906118bb8183602088016113b6565b01949350505050565b6001600160a01b03858116825284166020820152604081018390526080606082018190526000906118f7908301846113e2565b9695505050505050565b60006020828403121561191357600080fd5b8151610d1f8161130d56fea2646970667358221220f64040fbd683669b983c4595d59b8d49187844473256b69a5a0b264a4c1bd1de64736f6c634300080d0033",
    "linkReferences": {}
  },
  "methodIdentifiers": {
    "TICKET_PRICE_WEEKDAYS()": "4af565bf",
    "TICKET_PRICE_WEEKEND()": "7b069bdd",
    "approve(address,uint256)": "095ea7b3",
    "balanceOf(address)": "70a08231",
    "burn(uint256)": "42966c68",
    "burnTicket()": "72998ce4",
    "generateTicketDetails(uint256,uint256,uint256,uint256,uint256,uint256)": "18b21772",
    "getApproved(uint256)": "081812fc",
    "getPrice(uint256)": "e7572230",
    "getUserTickets(address)": "0484a22f",
    "isApprovedForAll(address,address)": "e985e9c5",
    "mintTickets((uint256,uint256,uint256,uint256,uint256,uint256),uint8[])": "ada7af19",
    "name()": "06fdde03",
    "owner()": "8da5cb5b",
    "ownerOf(uint256)": "6352211e",
    "renounceOwnership()": "715018a6",
    "safeTransferFrom(address,address,uint256)": "42842e0e",
    "safeTransferFrom(address,address,uint256,bytes)": "b88d4fde",
    "setApprovalForAll(address,bool)": "a22cb465",
    "supportsInterface(bytes4)": "01ffc9a7",
    "symbol()": "95d89b41",
    "tokenURI(uint256)": "c87b56dd",
    "totalSupply()": "18160ddd",
    "transferFrom(address,address,uint256)": "23b872dd",
    "transferOwnership(address)": "f2fde38b",
    "userTickets(address,uint256)": "cf260baf"
  },
  "id": 24
}