{
  "abi": [
    {
      "inputs": [],
      "stateMutability": "nonpayable",
      "type": "constructor"
    },
    {
      "inputs": [],
      "name": "ApprovalCallerNotOwnerNorApproved",
      "type": "error"
    },
    {
      "inputs": [],
      "name": "ApprovalQueryForNonexistentToken",
      "type": "error"
    },
    {
      "inputs": [],
      "name": "BalanceQueryForZeroAddress",
      "type": "error"
    },
    {
      "inputs": [],
      "name": "MintERC2309QuantityExceedsLimit",
      "type": "error"
    },
    {
      "inputs": [],
      "name": "MintToZeroAddress",
      "type": "error"
    },
    {
      "inputs": [],
      "name": "MintZeroQuantity",
      "type": "error"
    },
    {
      "inputs": [],
      "name": "OwnerQueryForNonexistentToken",
      "type": "error"
    },
    {
      "inputs": [],
      "name": "OwnershipNotInitializedForExtraData",
      "type": "error"
    },
    {
      "inputs": [],
      "name": "TransferCallerNotOwnerNorApproved",
      "type": "error"
    },
    {
      "inputs": [],
      "name": "TransferFromIncorrectOwner",
      "type": "error"
    },
    {
      "inputs": [],
      "name": "TransferToNonERC721ReceiverImplementer",
      "type": "error"
    },
    {
      "inputs": [],
      "name": "TransferToZeroAddress",
      "type": "error"
    },
    {
      "inputs": [],
      "name": "URIQueryForNonexistentToken",
      "type": "error"
    },
    {
      "anonymous": false,
      "inputs": [
        {
          "indexed": true,
          "internalType": "address",
          "name": "owner",
          "type": "address"
        },
        {
          "indexed": true,
          "internalType": "address",
          "name": "approved",
          "type": "address"
        },
        {
          "indexed": true,
          "internalType": "uint256",
          "name": "tokenId",
          "type": "uint256"
        }
      ],
      "name": "Approval",
      "type": "event"
    },
    {
      "anonymous": false,
      "inputs": [
        {
          "indexed": true,
          "internalType": "address",
          "name": "owner",
          "type": "address"
        },
        {
          "indexed": true,
          "internalType": "address",
          "name": "operator",
          "type": "address"
        },
        {
          "indexed": false,
          "internalType": "bool",
          "name": "approved",
          "type": "bool"
        }
      ],
      "name": "ApprovalForAll",
      "type": "event"
    },
    {
      "anonymous": false,
      "inputs": [
        {
          "indexed": true,
          "internalType": "uint256",
          "name": "fromTokenId",
          "type": "uint256"
        },
        {
          "indexed": false,
          "internalType": "uint256",
          "name": "toTokenId",
          "type": "uint256"
        },
        {
          "indexed": true,
          "internalType": "address",
          "name": "from",
          "type": "address"
        },
        {
          "indexed": true,
          "internalType": "address",
          "name": "to",
          "type": "address"
        }
      ],
      "name": "ConsecutiveTransfer",
      "type": "event"
    },
    {
      "anonymous": false,
      "inputs": [
        {
          "indexed": true,
          "internalType": "address",
          "name": "previousOwner",
          "type": "address"
        },
        {
          "indexed": true,
          "internalType": "address",
          "name": "newOwner",
          "type": "address"
        }
      ],
      "name": "OwnershipTransferred",
      "type": "event"
    },
    {
      "anonymous": false,
      "inputs": [
        {
          "indexed": true,
          "internalType": "address",
          "name": "from",
          "type": "address"
        },
        {
          "indexed": true,
          "internalType": "address",
          "name": "to",
          "type": "address"
        },
        {
          "indexed": true,
          "internalType": "uint256",
          "name": "tokenId",
          "type": "uint256"
        }
      ],
      "name": "Transfer",
      "type": "event"
    },
    {
      "inputs": [],
      "name": "TICKET_PRICE_WEEKDAYS",
      "outputs": [
        {
          "internalType": "uint64",
          "name": "",
          "type": "uint64"
        }
      ],
      "stateMutability": "view",
      "type": "function"
    },
    {
      "inputs": [],
      "name": "TICKET_PRICE_WEEKEND",
      "outputs": [
        {
          "internalType": "uint64",
          "name": "",
          "type": "uint64"
        }
      ],
      "stateMutability": "view",
      "type": "function"
    },
    {
      "inputs": [
        {
          "internalType": "address",
          "name": "to",
          "type": "address"
        },
        {
          "internalType": "uint256",
          "name": "tokenId",
          "type": "uint256"
        }
      ],
      "name": "approve",
      "outputs": [],
      "stateMutability": "payable",
      "type": "function"
    },
    {
      "inputs": [
        {
          "internalType": "address",
          "name": "owner",
          "type": "address"
        }
      ],
      "name": "balanceOf",
      "outputs": [
        {
          "internalType": "uint256",
          "name": "",
          "type": "uint256"
        }
      ],
      "stateMutability": "view",
      "type": "function"
    },
    {
      "inputs": [
        {
          "internalType": "uint256",
          "name": "tokenId",
          "type": "uint256"
        }
      ],
      "name": "burn",
      "outputs": [],
      "stateMutability": "nonpayable",
      "type": "function"
    },
    {
      "inputs": [],
      "name": "burnTicket",
      "outputs": [],
      "stateMutability": "nonpayable",
      "type": "function"
    },
    {
      "inputs": [],
      "name": "cinemaInterface",
      "outputs": [
        {
          "internalType": "contract ICinema",
          "name": "",
          "type": "address"
        }
      ],
      "stateMutability": "view",
      "type": "function"
    },
    {
      "inputs": [
        {
          "internalType": "uint256",
          "name": "tokenId",
          "type": "uint256"
        }
      ],
      "name": "getApproved",
      "outputs": [
        {
          "internalType": "address",
          "name": "",
          "type": "address"
        }
      ],
      "stateMutability": "view",
      "type": "function"
    },
    {
      "inputs": [
        {
          "internalType": "uint256",
          "name": "_region",
          "type": "uint256"
        },
        {
          "internalType": "uint256",
          "name": "_cinema",
          "type": "uint256"
        },
        {
          "internalType": "uint256",
          "name": "_studio",
          "type": "uint256"
        },
        {
          "internalType": "uint256",
          "name": "_showTime",
          "type": "uint256"
        }
      ],
      "name": "getAvailableSeats",
      "outputs": [
        {
          "internalType": "uint256[]",
          "name": "seats",
          "type": "uint256[]"
        }
      ],
      "stateMutability": "view",
      "type": "function"
    },
    {
      "inputs": [
        {
          "internalType": "uint256",
          "name": "_day",
          "type": "uint256"
        }
      ],
      "name": "getPrice",
      "outputs": [
        {
          "internalType": "uint256",
          "name": "price",
          "type": "uint256"
        }
      ],
      "stateMutability": "pure",
      "type": "function"
    },
    {
      "inputs": [
        {
          "internalType": "address",
          "name": "owner",
          "type": "address"
        },
        {
          "internalType": "address",
          "name": "operator",
          "type": "address"
        }
      ],
      "name": "isApprovedForAll",
      "outputs": [
        {
          "internalType": "bool",
          "name": "",
          "type": "bool"
        }
      ],
      "stateMutability": "view",
      "type": "function"
    },
    {
      "inputs": [
        {
          "internalType": "uint256",
          "name": "_day",
          "type": "uint256"
        },
        {
          "internalType": "uint256",
          "name": "_region",
          "type": "uint256"
        },
        {
          "internalType": "uint256",
          "name": "_cinema",
          "type": "uint256"
        },
        {
          "internalType": "uint256",
          "name": "_studio",
          "type": "uint256"
        },
        {
          "internalType": "uint256",
          "name": "_showTime",
          "type": "uint256"
        },
        {
          "internalType": "uint256",
          "name": "_movie",
          "type": "uint256"
        },
        {
          "internalType": "uint256[]",
          "name": "_seatNumbers",
          "type": "uint256[]"
        }
      ],
      "name": "mintTickets",
      "outputs": [],
      "stateMutability": "payable",
      "type": "function"
    },
    {
      "inputs": [],
      "name": "name",
      "outputs": [
        {
          "internalType": "string",
          "name": "",
          "type": "string"
        }
      ],
      "stateMutability": "view",
      "type": "function"
    },
    {
      "inputs": [],
      "name": "owner",
      "outputs": [
        {
          "internalType": "address",
          "name": "",
          "type": "address"
        }
      ],
      "stateMutability": "view",
      "type": "function"
    },
    {
      "inputs": [
        {
          "internalType": "uint256",
          "name": "tokenId",
          "type": "uint256"
        }
      ],
      "name": "ownerOf",
      "outputs": [
        {
          "internalType": "address",
          "name": "",
          "type": "address"
        }
      ],
      "stateMutability": "view",
      "type": "function"
    },
    {
      "inputs": [],
      "name": "renounceOwnership",
      "outputs": [],
      "stateMutability": "nonpayable",
      "type": "function"
    },
    {
      "inputs": [
        {
          "internalType": "address",
          "name": "from",
          "type": "address"
        },
        {
          "internalType": "address",
          "name": "to",
          "type": "address"
        },
        {
          "internalType": "uint256",
          "name": "tokenId",
          "type": "uint256"
        }
      ],
      "name": "safeTransferFrom",
      "outputs": [],
      "stateMutability": "payable",
      "type": "function"
    },
    {
      "inputs": [
        {
          "internalType": "address",
          "name": "from",
          "type": "address"
        },
        {
          "internalType": "address",
          "name": "to",
          "type": "address"
        },
        {
          "internalType": "uint256",
          "name": "tokenId",
          "type": "uint256"
        },
        {
          "internalType": "bytes",
          "name": "_data",
          "type": "bytes"
        }
      ],
      "name": "safeTransferFrom",
      "outputs": [],
      "stateMutability": "payable",
      "type": "function"
    },
    {
      "inputs": [
        {
          "internalType": "uint256",
          "name": "",
          "type": "uint256"
        },
        {
          "internalType": "uint256",
          "name": "",
          "type": "uint256"
        },
        {
          "internalType": "uint256",
          "name": "",
          "type": "uint256"
        },
        {
          "internalType": "uint256",
          "name": "",
          "type": "uint256"
        },
        {
          "internalType": "uint256",
          "name": "",
          "type": "uint256"
        }
      ],
      "name": "seatStatus",
      "outputs": [
        {
          "internalType": "bool",
          "name": "",
          "type": "bool"
        }
      ],
      "stateMutability": "view",
      "type": "function"
    },
    {
      "inputs": [
        {
          "internalType": "address",
          "name": "operator",
          "type": "address"
        },
        {
          "internalType": "bool",
          "name": "approved",
          "type": "bool"
        }
      ],
      "name": "setApprovalForAll",
      "outputs": [],
      "stateMutability": "nonpayable",
      "type": "function"
    },
    {
      "inputs": [
        {
          "internalType": "address",
          "name": "_cinemaContract",
          "type": "address"
        },
        {
          "internalType": "address",
          "name": "_transactionsContract",
          "type": "address"
        }
      ],
      "name": "setInterfaces",
      "outputs": [],
      "stateMutability": "nonpayable",
      "type": "function"
    },
    {
      "inputs": [
        {
          "internalType": "bytes4",
          "name": "interfaceId",
          "type": "bytes4"
        }
      ],
      "name": "supportsInterface",
      "outputs": [
        {
          "internalType": "bool",
          "name": "",
          "type": "bool"
        }
      ],
      "stateMutability": "view",
      "type": "function"
    },
    {
      "inputs": [],
      "name": "symbol",
      "outputs": [
        {
          "internalType": "string",
          "name": "",
          "type": "string"
        }
      ],
      "stateMutability": "view",
      "type": "function"
    },
    {
      "inputs": [
        {
          "internalType": "bytes32",
          "name": "",
          "type": "bytes32"
        }
      ],
      "name": "ticketToDetails",
      "outputs": [
        {
          "internalType": "uint32",
          "name": "region",
          "type": "uint32"
        },
        {
          "internalType": "uint8",
          "name": "cinema",
          "type": "uint8"
        },
        {
          "internalType": "uint8",
          "name": "studio",
          "type": "uint8"
        },
        {
          "internalType": "uint32",
          "name": "movie",
          "type": "uint32"
        },
        {
          "internalType": "uint64",
          "name": "time",
          "type": "uint64"
        },
        {
          "internalType": "uint256",
          "name": "day",
          "type": "uint256"
        },
        {
          "internalType": "uint8",
          "name": "seatNumber",
          "type": "uint8"
        }
      ],
      "stateMutability": "view",
      "type": "function"
    },
    {
      "inputs": [
        {
          "internalType": "uint256",
          "name": "tokenId",
          "type": "uint256"
        }
      ],
      "name": "tokenURI",
      "outputs": [
        {
          "internalType": "string",
          "name": "",
          "type": "string"
        }
      ],
      "stateMutability": "view",
      "type": "function"
    },
    {
      "inputs": [],
      "name": "totalSupply",
      "outputs": [
        {
          "internalType": "uint256",
          "name": "",
          "type": "uint256"
        }
      ],
      "stateMutability": "view",
      "type": "function"
    },
    {
      "inputs": [],
      "name": "transactionsInterface",
      "outputs": [
        {
          "internalType": "contract ITransactions",
          "name": "",
          "type": "address"
        }
      ],
      "stateMutability": "view",
      "type": "function"
    },
    {
      "inputs": [
        {
          "internalType": "address",
          "name": "from",
          "type": "address"
        },
        {
          "internalType": "address",
          "name": "to",
          "type": "address"
        },
        {
          "internalType": "uint256",
          "name": "tokenId",
          "type": "uint256"
        }
      ],
      "name": "transferFrom",
      "outputs": [],
      "stateMutability": "payable",
      "type": "function"
    },
    {
      "inputs": [
        {
          "internalType": "address",
          "name": "newOwner",
          "type": "address"
        }
      ],
      "name": "transferOwnership",
      "outputs": [],
      "stateMutability": "nonpayable",
      "type": "function"
    },
    {
      "stateMutability": "payable",
      "type": "receive"
    }
  ],
  "bytecode": {
    "object": "0x60806040523462000175576200001462000191565b60207043696e656d61203231205469636b65747360781b8183015262000039620001c6565b6243323160e81b82820152825190916001600160401b03821162000165575b62000070826200006a600254620001fb565b62000238565b80601f8311600114620000d457508190620000a994600092620000c8575b50508160011b916000199060031b1c191617600255620002ea565b60008055620000b833620003ee565b604051611b8a90816200043d8239f35b0151905038806200008e565b60026000529193601f1985167f405787fa12a823e0f2b7631cc41b3ba8828b3321ca811111fa75cd3aa3bb5ace936000905b8282106200014c575050916001939186620000a997941062000132575b505050811b01600255620002ea565b015160001960f88460031b161c1916905538808062000123565b8060018697829497870151815501960194019062000106565b6200016f6200017a565b62000058565b600080fd5b50634e487b7160e01b600052604160045260246000fd5b60408051919082016001600160401b03811183821017620001b6575b60405260118252565b620001c06200017a565b620001ad565b60408051919082016001600160401b03811183821017620001eb575b60405260038252565b620001f56200017a565b620001e2565b90600182811c921680156200022d575b60208310146200021757565b634e487b7160e01b600052602260045260246000fd5b91607f16916200020b565b601f811162000245575050565b6000906002825260208220906020601f850160051c8301941062000286575b601f0160051c01915b8281106200027a57505050565b8181556001016200026d565b909250829062000264565b601f81116200029e575050565b6000906003825260208220906020601f850160051c83019410620002df575b601f0160051c01915b828110620002d357505050565b818155600101620002c6565b9092508290620002bd565b80519091906001600160401b038111620003de575b620003178162000311600354620001fb565b62000291565b602080601f83116001146200035657508192936000926200034a575b50508160011b916000199060031b1c191617600355565b01519050388062000333565b6003600052601f198316949091907fc2575a0e9e593c00f959f8c92f12db2869c3395a3b0502d05e2516446f71f85b926000905b878210620003c5575050836001959610620003ab575b505050811b01600355565b015160001960f88460031b161c19169055388080620003a0565b806001859682949686015181550195019301906200038a565b620003e86200017a565b620002ff565b600880546001600160a01b039283166001600160a01b031982168117909255604051919216907f8be0079c531659141344cd1fd0a4f28419497f9722a3daafe3b4186f6b6457e090600090a356fe6080604052600436101561001b575b361561001957600080fd5b005b60003560e01c806301ffc9a71461025f57806306fdde0314610256578063081812fc1461024d578063095ea7b31461024457806310fa69b31461023b57806318160ddd1461023257806323b872dd1461022957806342842e0e1461022057806342966c68146102175780634af565bf1461020e57806357c70644146102055780636352211e146101fc57806366f58d87146101f357806370a08231146101ea578063715018a6146101e157806372998ce4146101d85780637b069bdd146101cf5780637b92f587146101c65780638da5cb5b146101bd57806395d89b41146101b45780639dc8d34b146101ab578063a22cb465146101a2578063af66e39914610199578063b88d4fde14610190578063c87b56dd14610187578063e5b7a5541461017e578063e757223014610175578063e985e9c51461016c5763f2fde38b0361000e576101676110a1565b61000e565b50610167611043565b5061016761101c565b50610167610ff2565b50610167610f88565b50610167610f03565b50610167610cd4565b50610167610c0a565b50610167610ba6565b50610167610ae2565b50610167610ab8565b50610167610a8e565b50610167610a6b565b50610167610a57565b506101676109f5565b50610167610998565b50610167610906565b506101676108d6565b5061016761086c565b50610167610849565b506101676106a9565b50610167610666565b50610167610653565b506101676105fa565b506101676105a2565b506101676104e7565b50610167610466565b5061016761035e565b5061016761027f565b6001600160e01b031981160361027a57565b600080fd5b503461027a57602036600319011261027a57602060043561029f81610268565b63ffffffff60e01b166301ffc9a760e01b81149081156102dd575b81156102cc575b506040519015158152f35b635b5e139f60e01b149050386102c1565b6380ac58cd60e01b811491506102ba565b600091031261027a57565b91908251928382526000905b848210610332575092806020939411610325575b601f01601f1916010190565b6000838284010152610319565b90602090818082850101519082860101520190610305565b90602061035b9281815201906102f9565b90565b503461027a576000806003193601126104635760405190806002549060019180831c92808216928315610459575b602092838610851461044557858852602088019490811561042957506001146103d0575b6103cc876103c081890382610eb6565b6040519182918261034a565b0390f35b600260005294509192917f405787fa12a823e0f2b7631cc41b3ba8828b3321ca811111fa75cd3aa3bb5ace5b83861061041857505050910190506103c0826103cc38806103b0565b8054858701529482019481016103fc565b60ff191685525050500191506103c09050826103cc38806103b0565b634e487b7160e01b82526022600452602482fd5b93607f169361038c565b80fd5b503461027a57602036600319011261027a576004356104848161176e565b156104a9576000526006602052602060018060a01b0360406000205416604051908152f35b6040516333d1c03960e21b8152600490fd5b600435906001600160a01b038216820361027a57565b602435906001600160a01b038216820361027a57565b50604036600319011261027a576104fc6104bb565b6001600160a01b03906024358261051282611700565b1680330361056f575b600082815260066020526040812080546001600160a01b0319166001600160a01b038616179055936040519316907f8c5be1e5ebec7d5bd14f71427d1e84f3dd0314c0f7b2291e5b200ac8c7c3b9258585a4f35b600081815260076020908152604080832033845290915290205460ff1661051b576040516367d9dca160e11b8152600490fd5b503461027a57604036600319011261027a576105bc6104bb565b6105c46104d1565b6105cc611172565b600980546001600160a01b039384166001600160a01b031991821617909155600a8054929093169116179055005b503461027a57600036600319011261027a5760206000546001549003604051908152f35b606090600319011261027a576001600160a01b0390600435828116810361027a5791602435908116810361027a579060443590565b506100196106603661061e565b91611797565b506100196106733661061e565b90604051926020840184811067ffffffffffffffff82111761069c575b60405260008452611949565b6106a4610e46565b610690565b503461027a57602036600319011261027a576004356106c781611700565b60008281526006602052604090208054926001600160a01b0383169290913380861490851417156106f7565b1590565b6107ee575b6000946107e5575b506001600160a01b038316600090815260056020526040902080546fffffffffffffffffffffffffffffffff01905560008281526004602052604090204260a01b8417600360e01b179055600160e11b81161561079c575b5082604051927fddf252ad1be2c89b69c2b068fc378daa952ba7f163c4a11628f55a4df523b3ef8285a461079a61079560015460010190565b600155565bf35b600182016107b4816000526004602052604060002090565b54156107c1575b5061075c565b845481146107bb576107dd906000526004602052604060002090565b5538806107bb565b84905538610704565b6108326106f361082b336108148860018060a01b03166000526007602052604060002090565b9060018060a01b0316600052602052604060002090565b5460ff1690565b156106fc57604051632ce44b5f60e11b8152600490fd5b503461027a57600036600319011261027a57602060405166038d7ea4c680008152f35b503461027a5760a036600319011261027a576103cc60006004358152600c60205260ff604082818094206024358252602052818120604435825260205281812060643582526020528181206084358252602052205416905191829182919091602081019215159052565b503461027a57602036600319011261027a5760206001600160a01b036108fd600435611700565b16604051908152f35b503461027a57602036600319011261027a576004356000908152600b602090815260409182902080546001820154600290920154845163ffffffff808416825283861c60ff90811696830196909652602884901c861696820196909652603083901c909516606086015260509190911c67ffffffffffffffff16608085015260a08401919091521660c082015260e090f35b503461027a57602036600319011261027a576001600160a01b036109ba6104bb565b1680156109e3576000526005602052602067ffffffffffffffff60406000205416604051908152f35b6040516323d3ad8160e21b8152600490fd5b503461027a5760008060031936011261046357610a10611172565b600880546001600160a01b031981169091556040519082906001600160a01b03167f8be0079c531659141344cd1fd0a4f28419497f9722a3daafe3b4186f6b6457e08284a3f35b503461027a57600036600319011261027a57005b503461027a57600036600319011261027a57602060405166044364c5bb00008152f35b503461027a57600036600319011261027a576009546040516001600160a01b039091168152602090f35b503461027a57600036600319011261027a576008546040516001600160a01b039091168152602090f35b503461027a576000806003193601126104635760405190806003549060019180831c92808216928315610b9c575b60209283861085146104455785885260208801949081156104295750600114610b43576103cc876103c081890382610eb6565b600360005294509192917fc2575a0e9e593c00f959f8c92f12db2869c3395a3b0502d05e2516446f71f85b5b838610610b8b57505050910190506103c0826103cc38806103b0565b805485870152948201948101610b6f565b93607f1693610b10565b5060e036600319011261027a5760c43567ffffffffffffffff80821161027a573660238301121561027a57816004013590811161027a573660248260051b8401011161027a576024610019920160a4356084356064356044356024356004356112d1565b503461027a57604036600319011261027a57610c246104bb565b6024359081151580920361027a573360009081526007602090815260408083206001600160a01b0385168452909152902060ff1981541660ff841617905560405191825260018060a01b0316907f17307eab39ab6107e8899845ad3d59bd9653f200f220920489ca2b5937696c3160203392a3005b6020908160408183019282815285518094520193019160005b828110610cc0575050505090565b835185529381019392810192600101610cb2565b503461027a57608036600319011261027a57600435602435604435606435600091610d15610d0960095460018060a01b031690565b6001600160a01b031690565b6040516338996df560e21b81526004810187905260248101869052604481018390529490602090869060649082905afa948515610e39575b8495610e09575b50610d5e8561142b565b95845b868110610d7657604051806103cc8a82610c99565b6001610dcc610dc761082b610db089610da18a610da18b610da18c600052600c602052604060002090565b90600052602052604060002090565b610db9866116f0565b600052602052604060002090565b151590565b03610de0575b610ddb906111fd565b610d61565b94610e01610ddb91610df1886116f0565b610dfb828c61145d565b526111fd565b959050610dd2565b610e2b91955060203d8111610e32575b610e238183610eb6565b8101906111ca565b9338610d54565b503d610e19565b610e416111d9565b610d4d565b50634e487b7160e01b600052604160045260246000fd5b67ffffffffffffffff8111610e7157604052565b610e79610e46565b604052565b6020810190811067ffffffffffffffff821117610e7157604052565b60a0810190811067ffffffffffffffff821117610e7157604052565b90601f8019910116810190811067ffffffffffffffff821117610e7157604052565b60209067ffffffffffffffff8111610ef6575b601f01601f19160190565b610efe610e46565b610eeb565b50608036600319011261027a57610f186104bb565b610f206104d1565b6064359167ffffffffffffffff831161027a573660238401121561027a57826004013591610f4d83610ed8565b92610f5b6040519485610eb6565b808452366024828701011161027a5760208160009260246100199801838801378501015260443591611949565b503461027a57602036600319011261027a57610fa560043561176e565b15610fe0576000604051610fb881610e7e565b526103cc604051610fc881610e7e565b600081526040519182916020835260208301906102f9565b604051630a14c4b560e41b8152600490fd5b503461027a57600036600319011261027a57600a546040516001600160a01b039091168152602090f35b503461027a57602036600319011261027a57602061103b6004356116d2565b604051908152f35b503461027a57604036600319011261027a57602060ff6110956110646104bb565b61106c6104d1565b6001600160a01b0391821660009081526007865260408082209290931681526020919091522090565b54166040519015158152f35b503461027a57602036600319011261027a576110bb6104bb565b6110c3611172565b6001600160a01b0390811690811561111e5760009160085491816bffffffffffffffffffffffff60a01b84161760085560405192167f8be0079c531659141344cd1fd0a4f28419497f9722a3daafe3b4186f6b6457e08484a3f35b60405162461bcd60e51b815260206004820152602660248201527f4f776e61626c653a206e6577206f776e657220697320746865207a65726f206160448201526564647265737360d01b6064820152608490fd5b6008546001600160a01b0316330361118657565b606460405162461bcd60e51b815260206004820152602060248201527f4f776e61626c653a2063616c6c6572206973206e6f7420746865206f776e65726044820152fd5b9081602091031261027a575190565b506040513d6000823e3d90fd5b50634e487b7160e01b600052601160045260246000fd5b600190600019811461120d570190565b6112156111e6565b0190565b50634e487b7160e01b600052603260045260246000fd5b9190811015611241575b60051b0190565b611249611219565b61123a565b1561125557565b60405162461bcd60e51b815260206004820152601260248201527129b2b0ba1030b63932b0b23c903a30b5b2b760711b6044820152606490fd5b1561129657565b60405162461bcd60e51b815260206004820152601360248201527214d9585d08191bd95cc81b9bdd08195e1a5cdd606a1b6044820152606490fd5b600954909897969594939291906112f0906001600160a01b0316610d09565b6040516338996df560e21b815260048101839052602481018490526044810185905299906020908b9060649082905afa998a156113de575b60009a6113be575b5060005b88811061134957506113479899506114cf565b565b8061139d6113986106f361082b8c6113898f976113b9986113838f8f8f908f610da192610da1610da192600052600c602052604060002090565b93611230565b35600052602052604060002090565b61124e565b6113b48c6113ac838d8d611230565b35111561128f565b6111fd565b611334565b6113d7919a5060203d8111610e3257610e238183610eb6565b9838611330565b6113e66111d9565b611328565b80600019048211811515166113fe570290565b6114066111e6565b0290565b60209067ffffffffffffffff81116114235760051b0190565b611249610e46565b906114358261140a565b6114426040519182610eb6565b8281528092611453601f199161140a565b0190602036910137565b6020918151811015611472575b60051b010190565b61147a611219565b61146a565b9493929060808601908652602092838701526080604087015281518091528260a0870192019260005b8281106114bb5750505060609150930152565b8451845293810193928101926001016114a8565b91939694909592966114e9866114e4856116d2565b6113eb565b976114f38761142b565b968860005b8883821061157e575050600a5461152097506001600160a01b03169550610d09945050505050565b90813b1561027a576000809461154c6040519788968795869463bcc0942360e01b86526004860161147f565b03925af18015611571575b61155e5750565b8061156b61134792610e5d565b806102ee565b6115796111d9565b611557565b61159d9288888888610df1956115968f8b8a91611230565b35956115a4565b89906114f8565b909192939695949660005460405160208101918252836040820152846060820152336080820152608081526115d881610e9a565b519020976115f089600052600b602052604060002090565b805469ffffffffffffffffffff191664ff00000000602087901b161769ffffffff00000000000060309490941b939093169290921765ff0000000000602887901b161763ffffffff841617825560ff166001820155805467ffffffffffffffff60501b1916605086901b67ffffffffffffffff60501b16178155600201805460ff191660ff871617905561168e90600052600c602052604060002090565b600091825260205260409020600091825260205260409020600091825260205260409020600091825260205260409020805460ff1916600117905561134733611aac565b600510156116e55766044364c5bb000090565b66038d7ea4c6800090565b600190600119811161120d570190565b6000818154811061171e575b604051636f96cda160e11b8152600490fd5b81526004906020918083526040928383205494600160e01b8616156117455750505061170c565b93929190935b851561175957505050505090565b6000190180835281855283832054955061174b565b6000548110908161177d575090565b90506000526004602052600160e01b604060002054161590565b906117a183611700565b6001600160a01b0383811692828216849003611938576000868152600660205260409020805490926117e26001600160a01b03881633908114908414171590565b6118fb575b82169586156118e95761183a93611818926118df575b506001600160a01b0316600090815260056020526040902090565b80546000190190556001600160a01b0316600090815260056020526040902090565b80546001019055600160e11b804260a01b851717611862866000526004602052604060002090565b55811615611895575b507fddf252ad1be2c89b69c2b068fc378daa952ba7f163c4a11628f55a4df523b3ef6000604051a4565b600184016118ad816000526004602052604060002090565b54156118ba575b5061186b565b60005481146118b4576118d7906000526004602052604060002090565b5538806118b4565b60009055386117fd565b604051633a954ecd60e21b8152600490fd5b6119216106f361082b336108148b60018060a01b03166000526007602052604060002090565b156117e757604051632ce44b5f60e11b8152600490fd5b60405162a1148160e81b8152600490fd5b929190611957828286611797565b803b611964575b50505050565b61196d93611a03565b1561197b573880808061195e565b6040516368d2bf6b60e11b8152600490fd5b9081602091031261027a575161035b81610268565b6001600160a01b03918216815291166020820152604081019190915260806060820181905261035b929101906102f9565b3d156119fe573d906119e482610ed8565b916119f26040519384610eb6565b82523d6000602084013e565b606090565b92602091611a2c936000604051809681958294630a85bd0160e11b9a8b855233600486016119a2565b03926001600160a01b03165af160009181611a7c575b50611a6e57611a4f6119d3565b80519081611a69576040516368d2bf6b60e11b8152600490fd5b602001fd5b6001600160e01b0319161490565b611a9e91925060203d8111611aa5575b611a968183610eb6565b81019061198d565b9038611a42565b503d611a8c565b600080546001600160a01b039290921680825260056020908152604080842080546801000000000000000101905584845260049091528220600160e11b4260a01b83171790556001808401937fddf252ad1be2c89b69c2b068fc378daa952ba7f163c4a11628f55a4df523b3ef908385838180a4845b858103611b455750505015611b345755565b604051622e076360e81b8152600490fd5b8083918587858180a401611b2256fea264697066735822122018135a71c1f08f558407266a24323c661207179c886e15f3c24a1eacaff49b6a64736f6c634300080d0033",
    "linkReferences": {}
  },
  "methodIdentifiers": {
    "TICKET_PRICE_WEEKDAYS()": "4af565bf",
    "TICKET_PRICE_WEEKEND()": "7b069bdd",
    "approve(address,uint256)": "095ea7b3",
    "balanceOf(address)": "70a08231",
    "burn(uint256)": "42966c68",
    "burnTicket()": "72998ce4",
    "cinemaInterface()": "7b92f587",
    "getApproved(uint256)": "081812fc",
    "getAvailableSeats(uint256,uint256,uint256,uint256)": "af66e399",
    "getPrice(uint256)": "e7572230",
    "isApprovedForAll(address,address)": "e985e9c5",
    "mintTickets(uint256,uint256,uint256,uint256,uint256,uint256,uint256[])": "9dc8d34b",
    "name()": "06fdde03",
    "owner()": "8da5cb5b",
    "ownerOf(uint256)": "6352211e",
    "renounceOwnership()": "715018a6",
    "safeTransferFrom(address,address,uint256)": "42842e0e",
    "safeTransferFrom(address,address,uint256,bytes)": "b88d4fde",
    "seatStatus(uint256,uint256,uint256,uint256,uint256)": "57c70644",
    "setApprovalForAll(address,bool)": "a22cb465",
    "setInterfaces(address,address)": "10fa69b3",
    "supportsInterface(bytes4)": "01ffc9a7",
    "symbol()": "95d89b41",
    "ticketToDetails(bytes32)": "66f58d87",
    "tokenURI(uint256)": "c87b56dd",
    "totalSupply()": "18160ddd",
    "transactionsInterface()": "e5b7a554",
    "transferFrom(address,address,uint256)": "23b872dd",
    "transferOwnership(address)": "f2fde38b"
  },
  "id": 27
}