{
  "abi": [
    {
      "inputs": [],
      "stateMutability": "nonpayable",
      "type": "constructor"
    },
    {
      "inputs": [],
      "name": "ApprovalCallerNotOwnerNorApproved",
      "type": "error"
    },
    {
      "inputs": [],
      "name": "ApprovalQueryForNonexistentToken",
      "type": "error"
    },
    {
      "inputs": [],
      "name": "BalanceQueryForZeroAddress",
      "type": "error"
    },
    {
      "inputs": [],
      "name": "MintERC2309QuantityExceedsLimit",
      "type": "error"
    },
    {
      "inputs": [],
      "name": "MintToZeroAddress",
      "type": "error"
    },
    {
      "inputs": [],
      "name": "MintZeroQuantity",
      "type": "error"
    },
    {
      "inputs": [],
      "name": "OwnerQueryForNonexistentToken",
      "type": "error"
    },
    {
      "inputs": [],
      "name": "OwnershipNotInitializedForExtraData",
      "type": "error"
    },
    {
      "inputs": [],
      "name": "TransferCallerNotOwnerNorApproved",
      "type": "error"
    },
    {
      "inputs": [],
      "name": "TransferFromIncorrectOwner",
      "type": "error"
    },
    {
      "inputs": [],
      "name": "TransferToNonERC721ReceiverImplementer",
      "type": "error"
    },
    {
      "inputs": [],
      "name": "TransferToZeroAddress",
      "type": "error"
    },
    {
      "inputs": [],
      "name": "URIQueryForNonexistentToken",
      "type": "error"
    },
    {
      "anonymous": false,
      "inputs": [
        {
          "indexed": true,
          "internalType": "address",
          "name": "owner",
          "type": "address"
        },
        {
          "indexed": true,
          "internalType": "address",
          "name": "approved",
          "type": "address"
        },
        {
          "indexed": true,
          "internalType": "uint256",
          "name": "tokenId",
          "type": "uint256"
        }
      ],
      "name": "Approval",
      "type": "event"
    },
    {
      "anonymous": false,
      "inputs": [
        {
          "indexed": true,
          "internalType": "address",
          "name": "owner",
          "type": "address"
        },
        {
          "indexed": true,
          "internalType": "address",
          "name": "operator",
          "type": "address"
        },
        {
          "indexed": false,
          "internalType": "bool",
          "name": "approved",
          "type": "bool"
        }
      ],
      "name": "ApprovalForAll",
      "type": "event"
    },
    {
      "anonymous": false,
      "inputs": [
        {
          "indexed": true,
          "internalType": "uint256",
          "name": "fromTokenId",
          "type": "uint256"
        },
        {
          "indexed": false,
          "internalType": "uint256",
          "name": "toTokenId",
          "type": "uint256"
        },
        {
          "indexed": true,
          "internalType": "address",
          "name": "from",
          "type": "address"
        },
        {
          "indexed": true,
          "internalType": "address",
          "name": "to",
          "type": "address"
        }
      ],
      "name": "ConsecutiveTransfer",
      "type": "event"
    },
    {
      "anonymous": false,
      "inputs": [
        {
          "indexed": true,
          "internalType": "address",
          "name": "previousOwner",
          "type": "address"
        },
        {
          "indexed": true,
          "internalType": "address",
          "name": "newOwner",
          "type": "address"
        }
      ],
      "name": "OwnershipTransferred",
      "type": "event"
    },
    {
      "anonymous": false,
      "inputs": [
        {
          "indexed": true,
          "internalType": "address",
          "name": "from",
          "type": "address"
        },
        {
          "indexed": true,
          "internalType": "address",
          "name": "to",
          "type": "address"
        },
        {
          "indexed": true,
          "internalType": "uint256",
          "name": "tokenId",
          "type": "uint256"
        }
      ],
      "name": "Transfer",
      "type": "event"
    },
    {
      "inputs": [],
      "name": "TICKET_PRICE_WEEKDAYS",
      "outputs": [
        {
          "internalType": "uint64",
          "name": "",
          "type": "uint64"
        }
      ],
      "stateMutability": "view",
      "type": "function"
    },
    {
      "inputs": [],
      "name": "TICKET_PRICE_WEEKEND",
      "outputs": [
        {
          "internalType": "uint64",
          "name": "",
          "type": "uint64"
        }
      ],
      "stateMutability": "view",
      "type": "function"
    },
    {
      "inputs": [
        {
          "internalType": "address",
          "name": "to",
          "type": "address"
        },
        {
          "internalType": "uint256",
          "name": "tokenId",
          "type": "uint256"
        }
      ],
      "name": "approve",
      "outputs": [],
      "stateMutability": "payable",
      "type": "function"
    },
    {
      "inputs": [
        {
          "internalType": "address",
          "name": "owner",
          "type": "address"
        }
      ],
      "name": "balanceOf",
      "outputs": [
        {
          "internalType": "uint256",
          "name": "",
          "type": "uint256"
        }
      ],
      "stateMutability": "view",
      "type": "function"
    },
    {
      "inputs": [
        {
          "internalType": "uint256",
          "name": "tokenId",
          "type": "uint256"
        }
      ],
      "name": "burn",
      "outputs": [],
      "stateMutability": "nonpayable",
      "type": "function"
    },
    {
      "inputs": [],
      "name": "burnTicket",
      "outputs": [],
      "stateMutability": "nonpayable",
      "type": "function"
    },
    {
      "inputs": [
        {
          "internalType": "uint256",
          "name": "tokenId",
          "type": "uint256"
        }
      ],
      "name": "getApproved",
      "outputs": [
        {
          "internalType": "address",
          "name": "",
          "type": "address"
        }
      ],
      "stateMutability": "view",
      "type": "function"
    },
    {
      "inputs": [
        {
          "internalType": "uint256",
          "name": "_day",
          "type": "uint256"
        }
      ],
      "name": "getPrice",
      "outputs": [
        {
          "internalType": "uint256",
          "name": "price",
          "type": "uint256"
        }
      ],
      "stateMutability": "pure",
      "type": "function"
    },
    {
      "inputs": [
        {
          "internalType": "address",
          "name": "owner",
          "type": "address"
        },
        {
          "internalType": "address",
          "name": "operator",
          "type": "address"
        }
      ],
      "name": "isApprovedForAll",
      "outputs": [
        {
          "internalType": "bool",
          "name": "",
          "type": "bool"
        }
      ],
      "stateMutability": "view",
      "type": "function"
    },
    {
      "inputs": [
        {
          "internalType": "uint8",
          "name": "_day",
          "type": "uint8"
        },
        {
          "internalType": "uint8",
          "name": "_region",
          "type": "uint8"
        },
        {
          "internalType": "uint8",
          "name": "_cinema",
          "type": "uint8"
        },
        {
          "internalType": "uint8",
          "name": "_studio",
          "type": "uint8"
        },
        {
          "internalType": "uint64",
          "name": "_showTime",
          "type": "uint64"
        },
        {
          "internalType": "uint16",
          "name": "_movie",
          "type": "uint16"
        },
        {
          "internalType": "uint8[]",
          "name": "_seatNumbers",
          "type": "uint8[]"
        }
      ],
      "name": "mintTickets",
      "outputs": [
        {
          "internalType": "bytes32[]",
          "name": "_ticketIds",
          "type": "bytes32[]"
        }
      ],
      "stateMutability": "payable",
      "type": "function"
    },
    {
      "inputs": [],
      "name": "name",
      "outputs": [
        {
          "internalType": "string",
          "name": "",
          "type": "string"
        }
      ],
      "stateMutability": "view",
      "type": "function"
    },
    {
      "inputs": [],
      "name": "owner",
      "outputs": [
        {
          "internalType": "address",
          "name": "",
          "type": "address"
        }
      ],
      "stateMutability": "view",
      "type": "function"
    },
    {
      "inputs": [
        {
          "internalType": "uint256",
          "name": "tokenId",
          "type": "uint256"
        }
      ],
      "name": "ownerOf",
      "outputs": [
        {
          "internalType": "address",
          "name": "",
          "type": "address"
        }
      ],
      "stateMutability": "view",
      "type": "function"
    },
    {
      "inputs": [],
      "name": "renounceOwnership",
      "outputs": [],
      "stateMutability": "nonpayable",
      "type": "function"
    },
    {
      "inputs": [
        {
          "internalType": "address",
          "name": "from",
          "type": "address"
        },
        {
          "internalType": "address",
          "name": "to",
          "type": "address"
        },
        {
          "internalType": "uint256",
          "name": "tokenId",
          "type": "uint256"
        }
      ],
      "name": "safeTransferFrom",
      "outputs": [],
      "stateMutability": "payable",
      "type": "function"
    },
    {
      "inputs": [
        {
          "internalType": "address",
          "name": "from",
          "type": "address"
        },
        {
          "internalType": "address",
          "name": "to",
          "type": "address"
        },
        {
          "internalType": "uint256",
          "name": "tokenId",
          "type": "uint256"
        },
        {
          "internalType": "bytes",
          "name": "_data",
          "type": "bytes"
        }
      ],
      "name": "safeTransferFrom",
      "outputs": [],
      "stateMutability": "payable",
      "type": "function"
    },
    {
      "inputs": [
        {
          "internalType": "address",
          "name": "operator",
          "type": "address"
        },
        {
          "internalType": "bool",
          "name": "approved",
          "type": "bool"
        }
      ],
      "name": "setApprovalForAll",
      "outputs": [],
      "stateMutability": "nonpayable",
      "type": "function"
    },
    {
      "inputs": [
        {
          "internalType": "bytes4",
          "name": "interfaceId",
          "type": "bytes4"
        }
      ],
      "name": "supportsInterface",
      "outputs": [
        {
          "internalType": "bool",
          "name": "",
          "type": "bool"
        }
      ],
      "stateMutability": "view",
      "type": "function"
    },
    {
      "inputs": [],
      "name": "symbol",
      "outputs": [
        {
          "internalType": "string",
          "name": "",
          "type": "string"
        }
      ],
      "stateMutability": "view",
      "type": "function"
    },
    {
      "inputs": [
        {
          "internalType": "bytes32",
          "name": "",
          "type": "bytes32"
        }
      ],
      "name": "ticketToDetails",
      "outputs": [
        {
          "internalType": "uint8",
          "name": "region",
          "type": "uint8"
        },
        {
          "internalType": "uint8",
          "name": "cinema",
          "type": "uint8"
        },
        {
          "internalType": "uint8",
          "name": "studio",
          "type": "uint8"
        },
        {
          "internalType": "uint8",
          "name": "day",
          "type": "uint8"
        },
        {
          "internalType": "uint8",
          "name": "seatNumber",
          "type": "uint8"
        },
        {
          "internalType": "uint16",
          "name": "movie",
          "type": "uint16"
        },
        {
          "internalType": "uint64",
          "name": "time",
          "type": "uint64"
        }
      ],
      "stateMutability": "view",
      "type": "function"
    },
    {
      "inputs": [
        {
          "internalType": "uint256",
          "name": "tokenId",
          "type": "uint256"
        }
      ],
      "name": "tokenURI",
      "outputs": [
        {
          "internalType": "string",
          "name": "",
          "type": "string"
        }
      ],
      "stateMutability": "view",
      "type": "function"
    },
    {
      "inputs": [],
      "name": "totalSupply",
      "outputs": [
        {
          "internalType": "uint256",
          "name": "",
          "type": "uint256"
        }
      ],
      "stateMutability": "view",
      "type": "function"
    },
    {
      "inputs": [
        {
          "internalType": "address",
          "name": "from",
          "type": "address"
        },
        {
          "internalType": "address",
          "name": "to",
          "type": "address"
        },
        {
          "internalType": "uint256",
          "name": "tokenId",
          "type": "uint256"
        }
      ],
      "name": "transferFrom",
      "outputs": [],
      "stateMutability": "payable",
      "type": "function"
    },
    {
      "inputs": [
        {
          "internalType": "address",
          "name": "newOwner",
          "type": "address"
        }
      ],
      "name": "transferOwnership",
      "outputs": [],
      "stateMutability": "nonpayable",
      "type": "function"
    },
    {
      "stateMutability": "payable",
      "type": "receive"
    }
  ],
  "bytecode": {
    "object": "0x60806040523480156200001157600080fd5b50604080518082018252601181527043696e656d61203231205469636b65747360781b60208083019182528351808501909452600384526243323160e81b9084015281519192916200006691600291620000e6565b5080516200007c906003906020840190620000e6565b505060008055506200008e3362000094565b620001c8565b600880546001600160a01b038381166001600160a01b0319831681179093556040519116919082907f8be0079c531659141344cd1fd0a4f28419497f9722a3daafe3b4186f6b6457e090600090a35050565b828054620000f4906200018c565b90600052602060002090601f01602090048101928262000118576000855562000163565b82601f106200013357805160ff191683800117855562000163565b8280016001018555821562000163579182015b828111156200016357825182559160200191906001019062000146565b506200017192915062000175565b5090565b5b8082111562000171576000815560010162000176565b600181811c90821680620001a157607f821691505b602082108103620001c257634e487b7160e01b600052602260045260246000fd5b50919050565b6117bd80620001d86000396000f3fe60806040526004361061014f5760003560e01c8063715018a6116100b6578063b88d4fde1161006f578063b88d4fde14610433578063c87b56dd14610446578063e757223014610466578063e985e9c514610486578063f2fde38b146104cf578063f430ee09146104ef57600080fd5b8063715018a6146103a457806372998ce4146103b95780637b069bdd146103c55780638da5cb5b146103e057806395d89b41146103fe578063a22cb4651461041357600080fd5b806342842e0e1161010857806342842e0e1461023557806342966c68146102485780634af565bf146102685780636352211e1461029c57806366f58d87146102bc57806370a082311461038457600080fd5b806301ffc9a71461015b57806306fdde0314610190578063081812fc146101b2578063095ea7b3146101ea57806318160ddd146101ff57806323b872dd1461022257600080fd5b3661015657005b600080fd5b34801561016757600080fd5b5061017b610176366004611269565b61050f565b60405190151581526020015b60405180910390f35b34801561019c57600080fd5b506101a5610561565b60405161018791906112de565b3480156101be57600080fd5b506101d26101cd3660046112f1565b6105f3565b6040516001600160a01b039091168152602001610187565b6101fd6101f8366004611321565b61062e565b005b34801561020b57600080fd5b50600154600054035b604051908152602001610187565b6101fd61023036600461134b565b61063e565b6101fd61024336600461134b565b6107ad565b34801561025457600080fd5b506101fd6102633660046112f1565b6107cd565b34801561027457600080fd5b5061028366038d7ea4c6800081565b60405167ffffffffffffffff9091168152602001610187565b3480156102a857600080fd5b506101d26102b73660046112f1565b6107db565b3480156102c857600080fd5b506103336102d73660046112f1565b60096020526000908152604090205460ff808216916101008104821691620100008204811691630100000081048216916401000000008204169065010000000000810461ffff1690600160381b900467ffffffffffffffff1687565b6040805160ff98891681529688166020880152948716948601949094529185166060850152909316608083015261ffff90921660a082015267ffffffffffffffff90911660c082015260e001610187565b34801561039057600080fd5b5061021461039f366004611387565b6107e6565b3480156103b057600080fd5b506101fd61082c565b3480156101fd57600080fd5b3480156103d157600080fd5b5061028366044364c5bb000081565b3480156103ec57600080fd5b506008546001600160a01b03166101d2565b34801561040a57600080fd5b506101a5610840565b34801561041f57600080fd5b506101fd61042e3660046113a2565b61084f565b6101fd6104413660046113f4565b6108bb565b34801561045257600080fd5b506101a56104613660046112f1565b6108fc565b34801561047257600080fd5b506102146104813660046112f1565b610984565b34801561049257600080fd5b5061017b6104a13660046114d0565b6001600160a01b03918216600090815260076020908152604080832093909416825291909152205460ff1690565b3480156104db57600080fd5b506101fd6104ea366004611387565b6109ac565b6105026104fd366004611514565b610a27565b6040516101879190611601565b60006301ffc9a760e01b6001600160e01b03198316148061054057506380ac58cd60e01b6001600160e01b03198316145b8061055b5750635b5e139f60e01b6001600160e01b03198316145b92915050565b60606002805461057090611645565b80601f016020809104026020016040519081016040528092919081815260200182805461059c90611645565b80156105e95780601f106105be576101008083540402835291602001916105e9565b820191906000526020600020905b8154815290600101906020018083116105cc57829003601f168201915b5050505050905090565b60006105fe82610ba7565b610612576106126333d1c03960e21b610bce565b506000908152600660205260409020546001600160a01b031690565b61063a82826001610bd8565b5050565b600061064982610c7b565b6001600160a01b03948516949091508116841461066f5761066f62a1148160e81b610bce565b6000828152600660205260409020805461069b8187335b6001600160a01b039081169116811491141790565b6106bd576106a986336104a1565b6106bd576106bd632ce44b5f60e11b610bce565b80156106c857600082555b6001600160a01b038681166000908152600560205260408082208054600019019055918716808252919020805460010190554260a01b17600160e11b17600085815260046020526040812091909155600160e11b8416900361075a576001840160008181526004602052604081205490036107585760005481146107585760008181526004602052604090208490555b505b6001600160a01b0385168481887fddf252ad1be2c89b69c2b068fc378daa952ba7f163c4a11628f55a4df523b3ef600080a4806000036107a4576107a4633a954ecd60e21b610bce565b50505050505050565b6107c8838383604051806020016040528060008152506108bb565b505050565b6107d8816001610ce9565b50565b600061055b82610c7b565b60006001600160a01b038216610806576108066323d3ad8160e21b610bce565b506001600160a01b031660009081526005602052604090205467ffffffffffffffff1690565b610834610e2a565b61083e6000610e84565b565b60606003805461057090611645565b3360008181526007602090815260408083206001600160a01b03871680855290835292819020805460ff191686151590811790915590519081529192917f17307eab39ab6107e8899845ad3d59bd9653f200f220920489ca2b5937696c31910160405180910390a35050565b6108c684848461063e565b6001600160a01b0383163b156108f6576108e284848484610ed6565b6108f6576108f66368d2bf6b60e11b610bce565b50505050565b606061090782610ba7565b61091b5761091b630a14c4b560e41b610bce565b600061093260408051602081019091526000815290565b90508051600003610952576040518060200160405280600081525061097d565b8061095c84610fb8565b60405160200161096d92919061167f565b6040516020818303038152906040525b9392505050565b6000600582111561099d575066044364c5bb0000919050565b5066038d7ea4c680005b919050565b6109b4610e2a565b6001600160a01b038116610a1e5760405162461bcd60e51b815260206004820152602660248201527f4f776e61626c653a206e6577206f776e657220697320746865207a65726f206160448201526564647265737360d01b60648201526084015b60405180910390fd5b6107d881610e84565b60606000610a378a60ff16610984565b90506000610a4584836116c4565b90508367ffffffffffffffff811115610a6057610a606113de565b604051908082528060200260200182016040528015610a89578160200160208202803683370190505b50925080341015610ad35760405162461bcd60e51b815260206004820152601460248201527315dc9bdb99c8195d1a081d985b1d59481cd95b9d60621b6044820152606401610a15565b60005b84811015610b985760006040518060e001604052808d60ff1681526020018c60ff1681526020018b60ff1681526020018e60ff168152602001888885818110610b2157610b216116e3565b9050602002016020810190610b3691906116f9565b60ff1681526020018961ffff1681526020018a67ffffffffffffffff1681525090506000610b648233610ffc565b905080868481518110610b7957610b796116e3565b602002602001018181525050505080610b9190611714565b9050610ad6565b50505098975050505050505050565b600080548210801561055b575050600090815260046020526040902054600160e01b161590565b8060005260046000fd5b6000610be3836107db565b9050818015610bfb5750336001600160a01b03821614155b15610c1e57610c0a81336104a1565b610c1e57610c1e6367d9dca160e11b610bce565b60008381526006602052604080822080546001600160a01b0319166001600160a01b0388811691821790925591518693918516917f8c5be1e5ebec7d5bd14f71427d1e84f3dd0314c0f7b2291e5b200ac8c7c3b92591a450505050565b60008181526004602052604081205490600160e01b82169003610cd957806000036109a7576000548210610cb957610cb9636f96cda160e11b610bce565b5b50600019016000818152600460205260409020548015610cba57919050565b6109a7636f96cda160e11b610bce565b6000610cf483610c7b565b905080600080610d1286600090815260066020526040902080549091565b915091508415610d4957610d27818433610686565b610d4957610d3583336104a1565b610d4957610d49632ce44b5f60e11b610bce565b8015610d5457600082555b6001600160a01b038316600081815260056020526040902080546fffffffffffffffffffffffffffffffff0190554260a01b17600360e01b17600087815260046020526040812091909155600160e11b85169003610de257600186016000818152600460205260408120549003610de0576000548114610de05760008181526004602052604090208590555b505b60405186906000906001600160a01b038616907fddf252ad1be2c89b69c2b068fc378daa952ba7f163c4a11628f55a4df523b3ef908390a45050600180548101905550505050565b6008546001600160a01b0316331461083e5760405162461bcd60e51b815260206004820181905260248201527f4f776e61626c653a2063616c6c6572206973206e6f7420746865206f776e65726044820152606401610a15565b600880546001600160a01b038381166001600160a01b0319831681179093556040519116919082907f8be0079c531659141344cd1fd0a4f28419497f9722a3daafe3b4186f6b6457e090600090a35050565b604051630a85bd0160e11b81526000906001600160a01b0385169063150b7a0290610f0b90339089908890889060040161172d565b6020604051808303816000875af1925050508015610f46575060408051601f3d908101601f19168201909252610f439181019061176a565b60015b610f9b573d808015610f74576040519150601f19603f3d011682016040523d82523d6000602084013e610f79565b606091505b508051600003610f9357610f936368d2bf6b60e11b610bce565b805181602001fd5b6001600160e01b031916630a85bd0160e11b149050949350505050565b606060a06040510180604052602081039150506000815280825b600183039250600a81066030018353600a900480610fd25750819003601f19909101908152919050565b60008061100860005490565b845160208087015160a0880151606089015160808a01516040516110939796958b910196875260f895861b6001600160f81b0319908116602089015294861b8516602188015260f09390931b6001600160f01b031916602287015290841b8316602486015290921b16602583015260601b6bffffffffffffffffffffffff19166026820152603a0190565b60408051601f19818403018152918152815160209283012060008181526009845282902087518154948901519389015160608a015160808b015160a08c015160c08d015167ffffffffffffffff16600160381b026effffffffffffffff000000000000001961ffff909216650100000000000266ffff00000000001960ff948516640100000000021666ffffff000000001995851663010000000263ff0000001997861662010000029790971663ffff0000199b86166101000261ffff19909d1695909816949094179a909a179890981694909417929092171617949094179390931691909117909155915081905061118d836001611194565b5092915050565b60008054908290036111b0576111b063b562e8dd60e01b610bce565b60008181526004602090815260408083206001600160a01b0387164260a01b6001881460e11b1781179091558084526005909252822080546801000000000000000186020190559081900361120e5761120e622e076360e81b610bce565b818301825b808360007fddf252ad1be2c89b69c2b068fc378daa952ba7f163c4a11628f55a4df523b3ef600080a4818160010191508103611213575060005550505050565b6001600160e01b0319811681146107d857600080fd5b60006020828403121561127b57600080fd5b813561097d81611253565b60005b838110156112a1578181015183820152602001611289565b838111156108f65750506000910152565b600081518084526112ca816020860160208601611286565b601f01601f19169290920160200192915050565b60208152600061097d60208301846112b2565b60006020828403121561130357600080fd5b5035919050565b80356001600160a01b03811681146109a757600080fd5b6000806040838503121561133457600080fd5b61133d8361130a565b946020939093013593505050565b60008060006060848603121561136057600080fd5b6113698461130a565b92506113776020850161130a565b9150604084013590509250925092565b60006020828403121561139957600080fd5b61097d8261130a565b600080604083850312156113b557600080fd5b6113be8361130a565b9150602083013580151581146113d357600080fd5b809150509250929050565b634e487b7160e01b600052604160045260246000fd5b6000806000806080858703121561140a57600080fd5b6114138561130a565b93506114216020860161130a565b925060408501359150606085013567ffffffffffffffff8082111561144557600080fd5b818701915087601f83011261145957600080fd5b81358181111561146b5761146b6113de565b604051601f8201601f19908116603f01168101908382118183101715611493576114936113de565b816040528281528a60208487010111156114ac57600080fd5b82602086016020830137600060208483010152809550505050505092959194509250565b600080604083850312156114e357600080fd5b6114ec8361130a565b91506114fa6020840161130a565b90509250929050565b803560ff811681146109a757600080fd5b60008060008060008060008060e0898b03121561153057600080fd5b61153989611503565b975061154760208a01611503565b965061155560408a01611503565b955061156360608a01611503565b9450608089013567ffffffffffffffff808216821461158157600080fd5b90945060a08a01359061ffff8216821461159a57600080fd5b90935060c08a013590808211156115b057600080fd5b818b0191508b601f8301126115c457600080fd5b8135818111156115d357600080fd5b8c60208260051b85010111156115e857600080fd5b6020830194508093505050509295985092959890939650565b6020808252825182820181905260009190848201906040850190845b818110156116395783518352928401929184019160010161161d565b50909695505050505050565b600181811c9082168061165957607f821691505b60208210810361167957634e487b7160e01b600052602260045260246000fd5b50919050565b60008351611691818460208801611286565b8351908301906116a5818360208801611286565b01949350505050565b634e487b7160e01b600052601160045260246000fd5b60008160001904831182151516156116de576116de6116ae565b500290565b634e487b7160e01b600052603260045260246000fd5b60006020828403121561170b57600080fd5b61097d82611503565b600060018201611726576117266116ae565b5060010190565b6001600160a01b0385811682528416602082015260408101839052608060608201819052600090611760908301846112b2565b9695505050505050565b60006020828403121561177c57600080fd5b815161097d8161125356fea2646970667358221220f49e09b913fa776a05fc9099ef103e60f50ca7a39ba7397355b09575893e68bb64736f6c634300080d0033",
    "linkReferences": {}
  },
  "methodIdentifiers": {
    "TICKET_PRICE_WEEKDAYS()": "4af565bf",
    "TICKET_PRICE_WEEKEND()": "7b069bdd",
    "approve(address,uint256)": "095ea7b3",
    "balanceOf(address)": "70a08231",
    "burn(uint256)": "42966c68",
    "burnTicket()": "72998ce4",
    "getApproved(uint256)": "081812fc",
    "getPrice(uint256)": "e7572230",
    "isApprovedForAll(address,address)": "e985e9c5",
    "mintTickets(uint8,uint8,uint8,uint8,uint64,uint16,uint8[])": "f430ee09",
    "name()": "06fdde03",
    "owner()": "8da5cb5b",
    "ownerOf(uint256)": "6352211e",
    "renounceOwnership()": "715018a6",
    "safeTransferFrom(address,address,uint256)": "42842e0e",
    "safeTransferFrom(address,address,uint256,bytes)": "b88d4fde",
    "setApprovalForAll(address,bool)": "a22cb465",
    "supportsInterface(bytes4)": "01ffc9a7",
    "symbol()": "95d89b41",
    "ticketToDetails(bytes32)": "66f58d87",
    "tokenURI(uint256)": "c87b56dd",
    "totalSupply()": "18160ddd",
    "transferFrom(address,address,uint256)": "23b872dd",
    "transferOwnership(address)": "f2fde38b"
  },
  "id": 24
}