{
  "abi": [
    {
      "inputs": [],
      "stateMutability": "nonpayable",
      "type": "constructor"
    },
    {
      "inputs": [],
      "name": "ApprovalCallerNotOwnerNorApproved",
      "type": "error"
    },
    {
      "inputs": [],
      "name": "ApprovalQueryForNonexistentToken",
      "type": "error"
    },
    {
      "inputs": [],
      "name": "BalanceQueryForZeroAddress",
      "type": "error"
    },
    {
      "inputs": [],
      "name": "MintERC2309QuantityExceedsLimit",
      "type": "error"
    },
    {
      "inputs": [],
      "name": "MintToZeroAddress",
      "type": "error"
    },
    {
      "inputs": [],
      "name": "MintZeroQuantity",
      "type": "error"
    },
    {
      "inputs": [],
      "name": "OwnerQueryForNonexistentToken",
      "type": "error"
    },
    {
      "inputs": [],
      "name": "OwnershipNotInitializedForExtraData",
      "type": "error"
    },
    {
      "inputs": [],
      "name": "TransferCallerNotOwnerNorApproved",
      "type": "error"
    },
    {
      "inputs": [],
      "name": "TransferFromIncorrectOwner",
      "type": "error"
    },
    {
      "inputs": [],
      "name": "TransferToNonERC721ReceiverImplementer",
      "type": "error"
    },
    {
      "inputs": [],
      "name": "TransferToZeroAddress",
      "type": "error"
    },
    {
      "inputs": [],
      "name": "URIQueryForNonexistentToken",
      "type": "error"
    },
    {
      "anonymous": false,
      "inputs": [
        {
          "indexed": true,
          "internalType": "address",
          "name": "owner",
          "type": "address"
        },
        {
          "indexed": true,
          "internalType": "address",
          "name": "approved",
          "type": "address"
        },
        {
          "indexed": true,
          "internalType": "uint256",
          "name": "tokenId",
          "type": "uint256"
        }
      ],
      "name": "Approval",
      "type": "event"
    },
    {
      "anonymous": false,
      "inputs": [
        {
          "indexed": true,
          "internalType": "address",
          "name": "owner",
          "type": "address"
        },
        {
          "indexed": true,
          "internalType": "address",
          "name": "operator",
          "type": "address"
        },
        {
          "indexed": false,
          "internalType": "bool",
          "name": "approved",
          "type": "bool"
        }
      ],
      "name": "ApprovalForAll",
      "type": "event"
    },
    {
      "anonymous": false,
      "inputs": [
        {
          "indexed": true,
          "internalType": "uint256",
          "name": "fromTokenId",
          "type": "uint256"
        },
        {
          "indexed": false,
          "internalType": "uint256",
          "name": "toTokenId",
          "type": "uint256"
        },
        {
          "indexed": true,
          "internalType": "address",
          "name": "from",
          "type": "address"
        },
        {
          "indexed": true,
          "internalType": "address",
          "name": "to",
          "type": "address"
        }
      ],
      "name": "ConsecutiveTransfer",
      "type": "event"
    },
    {
      "anonymous": false,
      "inputs": [
        {
          "indexed": true,
          "internalType": "address",
          "name": "previousOwner",
          "type": "address"
        },
        {
          "indexed": true,
          "internalType": "address",
          "name": "newOwner",
          "type": "address"
        }
      ],
      "name": "OwnershipTransferred",
      "type": "event"
    },
    {
      "anonymous": false,
      "inputs": [
        {
          "indexed": true,
          "internalType": "address",
          "name": "from",
          "type": "address"
        },
        {
          "indexed": true,
          "internalType": "address",
          "name": "to",
          "type": "address"
        },
        {
          "indexed": true,
          "internalType": "uint256",
          "name": "tokenId",
          "type": "uint256"
        }
      ],
      "name": "Transfer",
      "type": "event"
    },
    {
      "inputs": [],
      "name": "TICKET_PRICE_WEEKDAYS",
      "outputs": [
        {
          "internalType": "uint64",
          "name": "",
          "type": "uint64"
        }
      ],
      "stateMutability": "view",
      "type": "function"
    },
    {
      "inputs": [],
      "name": "TICKET_PRICE_WEEKEND",
      "outputs": [
        {
          "internalType": "uint64",
          "name": "",
          "type": "uint64"
        }
      ],
      "stateMutability": "view",
      "type": "function"
    },
    {
      "inputs": [
        {
          "internalType": "address",
          "name": "to",
          "type": "address"
        },
        {
          "internalType": "uint256",
          "name": "tokenId",
          "type": "uint256"
        }
      ],
      "name": "approve",
      "outputs": [],
      "stateMutability": "payable",
      "type": "function"
    },
    {
      "inputs": [
        {
          "internalType": "address",
          "name": "owner",
          "type": "address"
        }
      ],
      "name": "balanceOf",
      "outputs": [
        {
          "internalType": "uint256",
          "name": "",
          "type": "uint256"
        }
      ],
      "stateMutability": "view",
      "type": "function"
    },
    {
      "inputs": [
        {
          "internalType": "uint256",
          "name": "tokenId",
          "type": "uint256"
        }
      ],
      "name": "burn",
      "outputs": [],
      "stateMutability": "nonpayable",
      "type": "function"
    },
    {
      "inputs": [],
      "name": "burnTicket",
      "outputs": [],
      "stateMutability": "nonpayable",
      "type": "function"
    },
    {
      "inputs": [],
      "name": "cinemaInterface",
      "outputs": [
        {
          "internalType": "contract ICinema",
          "name": "",
          "type": "address"
        }
      ],
      "stateMutability": "view",
      "type": "function"
    },
    {
      "inputs": [
        {
          "internalType": "uint256",
          "name": "tokenId",
          "type": "uint256"
        }
      ],
      "name": "getApproved",
      "outputs": [
        {
          "internalType": "address",
          "name": "",
          "type": "address"
        }
      ],
      "stateMutability": "view",
      "type": "function"
    },
    {
      "inputs": [
        {
          "internalType": "uint256",
          "name": "_region",
          "type": "uint256"
        },
        {
          "internalType": "uint256",
          "name": "_cinema",
          "type": "uint256"
        },
        {
          "internalType": "uint256",
          "name": "_studio",
          "type": "uint256"
        },
        {
          "internalType": "uint256",
          "name": "_showTime",
          "type": "uint256"
        }
      ],
      "name": "getAvailableSeats",
      "outputs": [
        {
          "internalType": "uint256[]",
          "name": "seats",
          "type": "uint256[]"
        }
      ],
      "stateMutability": "view",
      "type": "function"
    },
    {
      "inputs": [
        {
          "internalType": "uint256",
          "name": "_day",
          "type": "uint256"
        }
      ],
      "name": "getPrice",
      "outputs": [
        {
          "internalType": "uint256",
          "name": "price",
          "type": "uint256"
        }
      ],
      "stateMutability": "pure",
      "type": "function"
    },
    {
      "inputs": [
        {
          "internalType": "address",
          "name": "owner",
          "type": "address"
        },
        {
          "internalType": "address",
          "name": "operator",
          "type": "address"
        }
      ],
      "name": "isApprovedForAll",
      "outputs": [
        {
          "internalType": "bool",
          "name": "",
          "type": "bool"
        }
      ],
      "stateMutability": "view",
      "type": "function"
    },
    {
      "inputs": [
        {
          "internalType": "uint256",
          "name": "_day",
          "type": "uint256"
        },
        {
          "internalType": "uint256",
          "name": "_region",
          "type": "uint256"
        },
        {
          "internalType": "uint256",
          "name": "_cinema",
          "type": "uint256"
        },
        {
          "internalType": "uint256",
          "name": "_studio",
          "type": "uint256"
        },
        {
          "internalType": "uint256",
          "name": "_showTime",
          "type": "uint256"
        },
        {
          "internalType": "uint256",
          "name": "_movie",
          "type": "uint256"
        },
        {
          "internalType": "uint256[]",
          "name": "_seatNumbers",
          "type": "uint256[]"
        }
      ],
      "name": "mintTickets",
      "outputs": [],
      "stateMutability": "payable",
      "type": "function"
    },
    {
      "inputs": [],
      "name": "name",
      "outputs": [
        {
          "internalType": "string",
          "name": "",
          "type": "string"
        }
      ],
      "stateMutability": "view",
      "type": "function"
    },
    {
      "inputs": [],
      "name": "owner",
      "outputs": [
        {
          "internalType": "address",
          "name": "",
          "type": "address"
        }
      ],
      "stateMutability": "view",
      "type": "function"
    },
    {
      "inputs": [
        {
          "internalType": "uint256",
          "name": "tokenId",
          "type": "uint256"
        }
      ],
      "name": "ownerOf",
      "outputs": [
        {
          "internalType": "address",
          "name": "",
          "type": "address"
        }
      ],
      "stateMutability": "view",
      "type": "function"
    },
    {
      "inputs": [],
      "name": "renounceOwnership",
      "outputs": [],
      "stateMutability": "nonpayable",
      "type": "function"
    },
    {
      "inputs": [
        {
          "internalType": "address",
          "name": "from",
          "type": "address"
        },
        {
          "internalType": "address",
          "name": "to",
          "type": "address"
        },
        {
          "internalType": "uint256",
          "name": "tokenId",
          "type": "uint256"
        }
      ],
      "name": "safeTransferFrom",
      "outputs": [],
      "stateMutability": "payable",
      "type": "function"
    },
    {
      "inputs": [
        {
          "internalType": "address",
          "name": "from",
          "type": "address"
        },
        {
          "internalType": "address",
          "name": "to",
          "type": "address"
        },
        {
          "internalType": "uint256",
          "name": "tokenId",
          "type": "uint256"
        },
        {
          "internalType": "bytes",
          "name": "_data",
          "type": "bytes"
        }
      ],
      "name": "safeTransferFrom",
      "outputs": [],
      "stateMutability": "payable",
      "type": "function"
    },
    {
      "inputs": [
        {
          "internalType": "uint256",
          "name": "",
          "type": "uint256"
        },
        {
          "internalType": "uint256",
          "name": "",
          "type": "uint256"
        },
        {
          "internalType": "uint256",
          "name": "",
          "type": "uint256"
        },
        {
          "internalType": "uint256",
          "name": "",
          "type": "uint256"
        },
        {
          "internalType": "uint256",
          "name": "",
          "type": "uint256"
        }
      ],
      "name": "seatStatus",
      "outputs": [
        {
          "internalType": "bool",
          "name": "",
          "type": "bool"
        }
      ],
      "stateMutability": "view",
      "type": "function"
    },
    {
      "inputs": [
        {
          "internalType": "address",
          "name": "operator",
          "type": "address"
        },
        {
          "internalType": "bool",
          "name": "approved",
          "type": "bool"
        }
      ],
      "name": "setApprovalForAll",
      "outputs": [],
      "stateMutability": "nonpayable",
      "type": "function"
    },
    {
      "inputs": [
        {
          "internalType": "address",
          "name": "_cinemaContract",
          "type": "address"
        },
        {
          "internalType": "address",
          "name": "_transactionsContract",
          "type": "address"
        }
      ],
      "name": "setInterfaces",
      "outputs": [],
      "stateMutability": "nonpayable",
      "type": "function"
    },
    {
      "inputs": [
        {
          "internalType": "bytes4",
          "name": "interfaceId",
          "type": "bytes4"
        }
      ],
      "name": "supportsInterface",
      "outputs": [
        {
          "internalType": "bool",
          "name": "",
          "type": "bool"
        }
      ],
      "stateMutability": "view",
      "type": "function"
    },
    {
      "inputs": [],
      "name": "symbol",
      "outputs": [
        {
          "internalType": "string",
          "name": "",
          "type": "string"
        }
      ],
      "stateMutability": "view",
      "type": "function"
    },
    {
      "inputs": [
        {
          "internalType": "bytes32",
          "name": "",
          "type": "bytes32"
        }
      ],
      "name": "ticketToDetails",
      "outputs": [
        {
          "internalType": "uint32",
          "name": "region",
          "type": "uint32"
        },
        {
          "internalType": "uint8",
          "name": "cinema",
          "type": "uint8"
        },
        {
          "internalType": "uint8",
          "name": "studio",
          "type": "uint8"
        },
        {
          "internalType": "uint32",
          "name": "movie",
          "type": "uint32"
        },
        {
          "internalType": "uint64",
          "name": "time",
          "type": "uint64"
        },
        {
          "internalType": "uint256",
          "name": "day",
          "type": "uint256"
        },
        {
          "internalType": "uint8",
          "name": "seatNumber",
          "type": "uint8"
        }
      ],
      "stateMutability": "view",
      "type": "function"
    },
    {
      "inputs": [
        {
          "internalType": "uint256",
          "name": "tokenId",
          "type": "uint256"
        }
      ],
      "name": "tokenURI",
      "outputs": [
        {
          "internalType": "string",
          "name": "",
          "type": "string"
        }
      ],
      "stateMutability": "view",
      "type": "function"
    },
    {
      "inputs": [],
      "name": "totalSupply",
      "outputs": [
        {
          "internalType": "uint256",
          "name": "",
          "type": "uint256"
        }
      ],
      "stateMutability": "view",
      "type": "function"
    },
    {
      "inputs": [],
      "name": "transactionsInterface",
      "outputs": [
        {
          "internalType": "contract ITransactions",
          "name": "",
          "type": "address"
        }
      ],
      "stateMutability": "view",
      "type": "function"
    },
    {
      "inputs": [
        {
          "internalType": "address",
          "name": "from",
          "type": "address"
        },
        {
          "internalType": "address",
          "name": "to",
          "type": "address"
        },
        {
          "internalType": "uint256",
          "name": "tokenId",
          "type": "uint256"
        }
      ],
      "name": "transferFrom",
      "outputs": [],
      "stateMutability": "payable",
      "type": "function"
    },
    {
      "inputs": [
        {
          "internalType": "address",
          "name": "newOwner",
          "type": "address"
        }
      ],
      "name": "transferOwnership",
      "outputs": [],
      "stateMutability": "nonpayable",
      "type": "function"
    },
    {
      "stateMutability": "payable",
      "type": "receive"
    }
  ],
  "bytecode": {
    "object": "0x60806040523462000175576200001462000191565b60207043696e656d61203231205469636b65747360781b8183015262000039620001c6565b6243323160e81b82820152825190916001600160401b03821162000165575b62000070826200006a600254620001fb565b62000238565b80601f8311600114620000d457508190620000a994600092620000c8575b50508160011b916000199060031b1c191617600255620002ea565b60008055620000b833620003ee565b604051611a8790816200043d8239f35b0151905038806200008e565b60026000529193601f1985167f405787fa12a823e0f2b7631cc41b3ba8828b3321ca811111fa75cd3aa3bb5ace936000905b8282106200014c575050916001939186620000a997941062000132575b505050811b01600255620002ea565b015160001960f88460031b161c1916905538808062000123565b8060018697829497870151815501960194019062000106565b6200016f6200017a565b62000058565b600080fd5b50634e487b7160e01b600052604160045260246000fd5b60408051919082016001600160401b03811183821017620001b6575b60405260118252565b620001c06200017a565b620001ad565b60408051919082016001600160401b03811183821017620001eb575b60405260038252565b620001f56200017a565b620001e2565b90600182811c921680156200022d575b60208310146200021757565b634e487b7160e01b600052602260045260246000fd5b91607f16916200020b565b601f811162000245575050565b6000906002825260208220906020601f850160051c8301941062000286575b601f0160051c01915b8281106200027a57505050565b8181556001016200026d565b909250829062000264565b601f81116200029e575050565b6000906003825260208220906020601f850160051c83019410620002df575b601f0160051c01915b828110620002d357505050565b818155600101620002c6565b9092508290620002bd565b80519091906001600160401b038111620003de575b620003178162000311600354620001fb565b62000291565b602080601f83116001146200035657508192936000926200034a575b50508160011b916000199060031b1c191617600355565b01519050388062000333565b6003600052601f198316949091907fc2575a0e9e593c00f959f8c92f12db2869c3395a3b0502d05e2516446f71f85b926000905b878210620003c5575050836001959610620003ab575b505050811b01600355565b015160001960f88460031b161c19169055388080620003a0565b806001859682949686015181550195019301906200038a565b620003e86200017a565b620002ff565b600880546001600160a01b039283166001600160a01b031982168117909255604051919216907f8be0079c531659141344cd1fd0a4f28419497f9722a3daafe3b4186f6b6457e090600090a356fe6080604052600436101561001b575b361561001957600080fd5b005b60003560e01c806301ffc9a71461025f57806306fdde0314610256578063081812fc1461024d578063095ea7b31461024457806310fa69b31461023b57806318160ddd1461023257806323b872dd1461022957806342842e0e1461022057806342966c68146102175780634af565bf1461020e57806357c70644146102055780636352211e146101fc57806366f58d87146101f357806370a08231146101ea578063715018a6146101e157806372998ce4146101d85780637b069bdd146101cf5780637b92f587146101c65780638da5cb5b146101bd57806395d89b41146101b45780639dc8d34b146101ab578063a22cb465146101a2578063af66e39914610199578063b88d4fde14610190578063c87b56dd14610187578063e5b7a5541461017e578063e757223014610175578063e985e9c51461016c5763f2fde38b0361000e57610167611085565b61000e565b50610167611027565b50610167611000565b50610167610fd6565b50610167610f6c565b50610167610ee7565b50610167610cd4565b50610167610c0a565b50610167610ba6565b50610167610ae2565b50610167610ab8565b50610167610a8e565b50610167610a6b565b50610167610a57565b506101676109f5565b50610167610998565b50610167610906565b506101676108d6565b5061016761086c565b50610167610849565b506101676106a9565b50610167610666565b50610167610653565b506101676105fa565b506101676105a2565b506101676104e7565b50610167610466565b5061016761035e565b5061016761027f565b6001600160e01b031981160361027a57565b600080fd5b503461027a57602036600319011261027a57602060043561029f81610268565b63ffffffff60e01b166301ffc9a760e01b81149081156102dd575b81156102cc575b506040519015158152f35b635b5e139f60e01b149050386102c1565b6380ac58cd60e01b811491506102ba565b600091031261027a57565b91908251928382526000905b848210610332575092806020939411610325575b601f01601f1916010190565b6000838284010152610319565b90602090818082850101519082860101520190610305565b90602061035b9281815201906102f9565b90565b503461027a576000806003193601126104635760405190806002549060019180831c92808216928315610459575b602092838610851461044557858852602088019490811561042957506001146103d0575b6103cc876103c081890382610e9a565b6040519182918261034a565b0390f35b600260005294509192917f405787fa12a823e0f2b7631cc41b3ba8828b3321ca811111fa75cd3aa3bb5ace5b83861061041857505050910190506103c0826103cc38806103b0565b8054858701529482019481016103fc565b60ff191685525050500191506103c09050826103cc38806103b0565b634e487b7160e01b82526022600452602482fd5b93607f169361038c565b80fd5b503461027a57602036600319011261027a576004356104848161166b565b156104a9576000526006602052602060018060a01b0360406000205416604051908152f35b6040516333d1c03960e21b8152600490fd5b600435906001600160a01b038216820361027a57565b602435906001600160a01b038216820361027a57565b50604036600319011261027a576104fc6104bb565b6001600160a01b039060243582610512826115fd565b1680330361056f575b600082815260066020526040812080546001600160a01b0319166001600160a01b038616179055936040519316907f8c5be1e5ebec7d5bd14f71427d1e84f3dd0314c0f7b2291e5b200ac8c7c3b9258585a4f35b600081815260076020908152604080832033845290915290205460ff1661051b576040516367d9dca160e11b8152600490fd5b503461027a57604036600319011261027a576105bc6104bb565b6105c46104d1565b6105cc611156565b600980546001600160a01b039384166001600160a01b031991821617909155600a8054929093169116179055005b503461027a57600036600319011261027a5760206000546001549003604051908152f35b606090600319011261027a576001600160a01b0390600435828116810361027a5791602435908116810361027a579060443590565b506100196106603661061e565b91611694565b506100196106733661061e565b90604051926020840184811067ffffffffffffffff82111761069c575b60405260008452611846565b6106a4610e46565b610690565b503461027a57602036600319011261027a576004356106c7816115fd565b60008281526006602052604090208054926001600160a01b0383169290913380861490851417156106f7565b1590565b6107ee575b6000946107e5575b506001600160a01b038316600090815260056020526040902080546fffffffffffffffffffffffffffffffff01905560008281526004602052604090204260a01b8417600360e01b179055600160e11b81161561079c575b5082604051927fddf252ad1be2c89b69c2b068fc378daa952ba7f163c4a11628f55a4df523b3ef8285a461079a61079560015460010190565b600155565bf35b600182016107b4816000526004602052604060002090565b54156107c1575b5061075c565b845481146107bb576107dd906000526004602052604060002090565b5538806107bb565b84905538610704565b6108326106f361082b336108148860018060a01b03166000526007602052604060002090565b9060018060a01b0316600052602052604060002090565b5460ff1690565b156106fc57604051632ce44b5f60e11b8152600490fd5b503461027a57600036600319011261027a57602060405166038d7ea4c680008152f35b503461027a5760a036600319011261027a576103cc60006004358152600c60205260ff604082818094206024358252602052818120604435825260205281812060643582526020528181206084358252602052205416905191829182919091602081019215159052565b503461027a57602036600319011261027a5760206001600160a01b036108fd6004356115fd565b16604051908152f35b503461027a57602036600319011261027a576004356000908152600b602090815260409182902080546001820154600290920154845163ffffffff808416825283861c60ff90811696830196909652602884901c861696820196909652603083901c909516606086015260509190911c67ffffffffffffffff16608085015260a08401919091521660c082015260e090f35b503461027a57602036600319011261027a576001600160a01b036109ba6104bb565b1680156109e3576000526005602052602067ffffffffffffffff60406000205416604051908152f35b6040516323d3ad8160e21b8152600490fd5b503461027a5760008060031936011261046357610a10611156565b600880546001600160a01b031981169091556040519082906001600160a01b03167f8be0079c531659141344cd1fd0a4f28419497f9722a3daafe3b4186f6b6457e08284a3f35b503461027a57600036600319011261027a57005b503461027a57600036600319011261027a57602060405166044364c5bb00008152f35b503461027a57600036600319011261027a576009546040516001600160a01b039091168152602090f35b503461027a57600036600319011261027a576008546040516001600160a01b039091168152602090f35b503461027a576000806003193601126104635760405190806003549060019180831c92808216928315610b9c575b60209283861085146104455785885260208801949081156104295750600114610b43576103cc876103c081890382610e9a565b600360005294509192917fc2575a0e9e593c00f959f8c92f12db2869c3395a3b0502d05e2516446f71f85b5b838610610b8b57505050910190506103c0826103cc38806103b0565b805485870152948201948101610b6f565b93607f1693610b10565b5060e036600319011261027a5760c43567ffffffffffffffff80821161027a573660238301121561027a57816004013590811161027a573660248260051b8401011161027a576024610019920160a435608435606435604435602435600435611216565b503461027a57604036600319011261027a57610c246104bb565b6024359081151580920361027a573360009081526007602090815260408083206001600160a01b0385168452909152902060ff1981541660ff841617905560405191825260018060a01b0316907f17307eab39ab6107e8899845ad3d59bd9653f200f220920489ca2b5937696c3160203392a3005b6020908160408183019282815285518094520193019160005b828110610cc0575050505090565b835185529381019392810192600101610cb2565b503461027a57608036600319011261027a57600435602435604435606435600091610d15610d0960095460018060a01b031690565b6001600160a01b031690565b6040516338996df560e21b81526004810187905260248101869052604481018390529490602090869060649082905afa948515610e39575b8495610e09575b50610d5e856112fb565b95845b868110610d7657604051806103cc8a82610c99565b6001610dcc610dc761082b610db089610da18a610da18b610da18c600052600c602052604060002090565b90600052602052604060002090565b610db9866115ed565b600052602052604060002090565b151590565b03610de0575b610ddb906111c5565b610d61565b94610e01610ddb91610df1886115ed565b610dfb828c61132d565b526111c5565b959050610dd2565b610e2b91955060203d8111610e32575b610e238183610e9a565b8101906115de565b9338610d54565b503d610e19565b610e4161139f565b610d4d565b50634e487b7160e01b600052604160045260246000fd5b67ffffffffffffffff8111610e7157604052565b610e79610e46565b604052565b6020810190811067ffffffffffffffff821117610e7157604052565b90601f8019910116810190811067ffffffffffffffff821117610e7157604052565b60209067ffffffffffffffff8111610eda575b601f01601f19160190565b610ee2610e46565b610ecf565b50608036600319011261027a57610efc6104bb565b610f046104d1565b6064359167ffffffffffffffff831161027a573660238401121561027a57826004013591610f3183610ebc565b92610f3f6040519485610e9a565b808452366024828701011161027a5760208160009260246100199801838801378501015260443591611846565b503461027a57602036600319011261027a57610f8960043561166b565b15610fc4576000604051610f9c81610e7e565b526103cc604051610fac81610e7e565b600081526040519182916020835260208301906102f9565b604051630a14c4b560e41b8152600490fd5b503461027a57600036600319011261027a57600a546040516001600160a01b039091168152602090f35b503461027a57602036600319011261027a57602061101f6004356115c0565b604051908152f35b503461027a57604036600319011261027a57602060ff6110796110486104bb565b6110506104d1565b6001600160a01b0391821660009081526007865260408082209290931681526020919091522090565b54166040519015158152f35b503461027a57602036600319011261027a5761109f6104bb565b6110a7611156565b6001600160a01b039081169081156111025760009160085491816bffffffffffffffffffffffff60a01b84161760085560405192167f8be0079c531659141344cd1fd0a4f28419497f9722a3daafe3b4186f6b6457e08484a3f35b60405162461bcd60e51b815260206004820152602660248201527f4f776e61626c653a206e6577206f776e657220697320746865207a65726f206160448201526564647265737360d01b6064820152608490fd5b6008546001600160a01b0316330361116a57565b606460405162461bcd60e51b815260206004820152602060248201527f4f776e61626c653a2063616c6c6572206973206e6f7420746865206f776e65726044820152fd5b50634e487b7160e01b600052601160045260246000fd5b60019060001981146111d5570190565b6111dd6111ae565b0190565b50634e487b7160e01b600052603260045260246000fd5b9190811015611209575b60051b0190565b6112116111e1565b611202565b979695949392919060005b878110611235575061123397986113ac565b565b816000526020600c815260408060002085600052825280600020866000528252806000208760005282528060002061126e848c8c6111f8565b35600052825260ff81600020541661129057505061128b906111c5565b611221565b60649250519062461bcd60e51b8252600482015260056024820152643a30b5b2b760d91b6044820152fd5b80600019048211811515166112ce570290565b6112d66111ae565b0290565b60209067ffffffffffffffff81116112f35760051b0190565b611211610e46565b90611305826112da565b6113126040519182610e9a565b8281528092611323601f19916112da565b0190602036910137565b6020918151811015611342575b60051b010190565b61134a6111e1565b61133a565b9493929060808601908652602092838701526080604087015281518091528260a0870192019260005b82811061138b5750505060609150930152565b845184529381019392810192600101611378565b506040513d6000823e3d90fd5b876113c16113c69299979496939895996115c0565b6112bb565b966113d0866112fb565b958760005b8783821061145a575050600a546113fc96506001600160a01b03169450610d099350505050565b90813b1561027a57600080946114286040519788968795869463bcc0942360e01b86526004860161134f565b03925af1801561144d575b61143a5750565b8061144761123392610e5d565b806102ee565b61145561139f565b611433565b6114819287878761147794611470878a8f6111f8565b3594611488565b610dfb828b61132d565b88906113d5565b939295949190956000549160405190602082019384528660408301528860608301523360808301526080825260a0820167ffffffffffffffff998382108b8311176115aa9961158d61159d9a610da199610da198610da197610da1966115b3575b6040525190209e8f600052600b60205261156560406000209261152660ff8916859064ff0000000082549160201b169064ff000000001916179055565b835469ffffffffff00ffffffff191669ffffffff00000000000060309290921b919091161765ff000000000060288b901b161763ffffffff8616178355565b815467ffffffffffffffff60501b1916908a1660501b67ffffffffffffffff60501b16179055565b600052600c602052604060002090565b805460ff19166001179055565b611233336119a9565b6115bb610e46565b6114e9565b600510156115d35766044364c5bb000090565b66038d7ea4c6800090565b9081602091031261027a575190565b60019060011981116111d5570190565b6000818154811061161b575b604051636f96cda160e11b8152600490fd5b81526004906020918083526040928383205494600160e01b86161561164257505050611609565b93929190935b851561165657505050505090565b60001901808352818552838320549550611648565b6000548110908161167a575090565b90506000526004602052600160e01b604060002054161590565b9061169e836115fd565b6001600160a01b0383811692828216849003611835576000868152600660205260409020805490926116df6001600160a01b03881633908114908414171590565b6117f8575b82169586156117e65761173793611715926117dc575b506001600160a01b0316600090815260056020526040902090565b80546000190190556001600160a01b0316600090815260056020526040902090565b80546001019055600160e11b804260a01b85171761175f866000526004602052604060002090565b55811615611792575b507fddf252ad1be2c89b69c2b068fc378daa952ba7f163c4a11628f55a4df523b3ef6000604051a4565b600184016117aa816000526004602052604060002090565b54156117b7575b50611768565b60005481146117b1576117d4906000526004602052604060002090565b5538806117b1565b60009055386116fa565b604051633a954ecd60e21b8152600490fd5b61181e6106f361082b336108148b60018060a01b03166000526007602052604060002090565b156116e457604051632ce44b5f60e11b8152600490fd5b60405162a1148160e81b8152600490fd5b929190611854828286611694565b803b611861575b50505050565b61186a93611900565b15611878573880808061185b565b6040516368d2bf6b60e11b8152600490fd5b9081602091031261027a575161035b81610268565b6001600160a01b03918216815291166020820152604081019190915260806060820181905261035b929101906102f9565b3d156118fb573d906118e182610ebc565b916118ef6040519384610e9a565b82523d6000602084013e565b606090565b92602091611929936000604051809681958294630a85bd0160e11b9a8b8552336004860161189f565b03926001600160a01b03165af160009181611979575b5061196b5761194c6118d0565b80519081611966576040516368d2bf6b60e11b8152600490fd5b602001fd5b6001600160e01b0319161490565b61199b91925060203d81116119a2575b6119938183610e9a565b81019061188a565b903861193f565b503d611989565b600080546001600160a01b039290921680825260056020908152604080842080546801000000000000000101905584845260049091528220600160e11b4260a01b83171790556001808401937fddf252ad1be2c89b69c2b068fc378daa952ba7f163c4a11628f55a4df523b3ef908385838180a4845b858103611a425750505015611a315755565b604051622e076360e81b8152600490fd5b8083918587858180a401611a1f56fea26469706673582212200228a26af34fd554dc5882e4f4495ce7b74e1d014ec4f4bbbfc4b106d335c51f64736f6c634300080d0033",
    "linkReferences": {}
  },
  "methodIdentifiers": {
    "TICKET_PRICE_WEEKDAYS()": "4af565bf",
    "TICKET_PRICE_WEEKEND()": "7b069bdd",
    "approve(address,uint256)": "095ea7b3",
    "balanceOf(address)": "70a08231",
    "burn(uint256)": "42966c68",
    "burnTicket()": "72998ce4",
    "cinemaInterface()": "7b92f587",
    "getApproved(uint256)": "081812fc",
    "getAvailableSeats(uint256,uint256,uint256,uint256)": "af66e399",
    "getPrice(uint256)": "e7572230",
    "isApprovedForAll(address,address)": "e985e9c5",
    "mintTickets(uint256,uint256,uint256,uint256,uint256,uint256,uint256[])": "9dc8d34b",
    "name()": "06fdde03",
    "owner()": "8da5cb5b",
    "ownerOf(uint256)": "6352211e",
    "renounceOwnership()": "715018a6",
    "safeTransferFrom(address,address,uint256)": "42842e0e",
    "safeTransferFrom(address,address,uint256,bytes)": "b88d4fde",
    "seatStatus(uint256,uint256,uint256,uint256,uint256)": "57c70644",
    "setApprovalForAll(address,bool)": "a22cb465",
    "setInterfaces(address,address)": "10fa69b3",
    "supportsInterface(bytes4)": "01ffc9a7",
    "symbol()": "95d89b41",
    "ticketToDetails(bytes32)": "66f58d87",
    "tokenURI(uint256)": "c87b56dd",
    "totalSupply()": "18160ddd",
    "transactionsInterface()": "e5b7a554",
    "transferFrom(address,address,uint256)": "23b872dd",
    "transferOwnership(address)": "f2fde38b"
  },
  "id": 24
}