{
  "abi": [
    {
      "inputs": [
        {
          "internalType": "uint256",
          "name": "_region",
          "type": "uint256"
        },
        {
          "internalType": "uint256",
          "name": "_cinema",
          "type": "uint256"
        },
        {
          "internalType": "bytes32[]",
          "name": "_ticketIds",
          "type": "bytes32[]"
        },
        {
          "internalType": "uint256",
          "name": "_priceTotal",
          "type": "uint256"
        }
      ],
      "name": "addNewTransaction",
      "outputs": [],
      "stateMutability": "nonpayable",
      "type": "function"
    },
    {
      "inputs": [
        {
          "internalType": "uint256",
          "name": "",
          "type": "uint256"
        },
        {
          "internalType": "uint256",
          "name": "",
          "type": "uint256"
        }
      ],
      "name": "cinemaToTransactionAmount",
      "outputs": [
        {
          "internalType": "uint256",
          "name": "",
          "type": "uint256"
        }
      ],
      "stateMutability": "view",
      "type": "function"
    },
    {
      "inputs": [
        {
          "internalType": "uint256",
          "name": "",
          "type": "uint256"
        },
        {
          "internalType": "uint256",
          "name": "",
          "type": "uint256"
        },
        {
          "internalType": "uint256",
          "name": "",
          "type": "uint256"
        }
      ],
      "name": "cinemaToTransactionId",
      "outputs": [
        {
          "internalType": "bytes32",
          "name": "",
          "type": "bytes32"
        }
      ],
      "stateMutability": "view",
      "type": "function"
    },
    {
      "inputs": [
        {
          "internalType": "uint256",
          "name": "_cinema",
          "type": "uint256"
        },
        {
          "internalType": "uint256",
          "name": "_region",
          "type": "uint256"
        }
      ],
      "name": "getCinemaTransactions",
      "outputs": [
        {
          "internalType": "bytes32[]",
          "name": "transactions",
          "type": "bytes32[]"
        }
      ],
      "stateMutability": "view",
      "type": "function"
    },
    {
      "inputs": [
        {
          "internalType": "uint256",
          "name": "_region",
          "type": "uint256"
        },
        {
          "internalType": "uint256",
          "name": "_cinema",
          "type": "uint256"
        }
      ],
      "name": "getCinemaTransactionsDetails",
      "outputs": [
        {
          "components": [
            {
              "internalType": "uint32",
              "name": "region",
              "type": "uint32"
            },
            {
              "internalType": "uint8",
              "name": "cinema",
              "type": "uint8"
            },
            {
              "internalType": "bytes32[]",
              "name": "ticketIds",
              "type": "bytes32[]"
            },
            {
              "internalType": "uint64",
              "name": "timeStamp",
              "type": "uint64"
            },
            {
              "internalType": "uint64",
              "name": "priceTotal",
              "type": "uint64"
            }
          ],
          "internalType": "struct Transactions.TransactionDetails[]",
          "name": "transactionsDetails",
          "type": "tuple[]"
        }
      ],
      "stateMutability": "view",
      "type": "function"
    },
    {
      "inputs": [],
      "name": "getUserTransactionsDetails",
      "outputs": [
        {
          "components": [
            {
              "internalType": "uint32",
              "name": "region",
              "type": "uint32"
            },
            {
              "internalType": "uint8",
              "name": "cinema",
              "type": "uint8"
            },
            {
              "internalType": "bytes32[]",
              "name": "ticketIds",
              "type": "bytes32[]"
            },
            {
              "internalType": "uint64",
              "name": "timeStamp",
              "type": "uint64"
            },
            {
              "internalType": "uint64",
              "name": "priceTotal",
              "type": "uint64"
            }
          ],
          "internalType": "struct Transactions.TransactionDetails[]",
          "name": "transactionsDetails",
          "type": "tuple[]"
        }
      ],
      "stateMutability": "view",
      "type": "function"
    },
    {
      "inputs": [],
      "name": "getuserTransactions",
      "outputs": [
        {
          "internalType": "bytes32[]",
          "name": "transactions",
          "type": "bytes32[]"
        }
      ],
      "stateMutability": "view",
      "type": "function"
    },
    {
      "inputs": [
        {
          "internalType": "bytes32",
          "name": "",
          "type": "bytes32"
        }
      ],
      "name": "transactionIdToDetails",
      "outputs": [
        {
          "internalType": "uint32",
          "name": "region",
          "type": "uint32"
        },
        {
          "internalType": "uint8",
          "name": "cinema",
          "type": "uint8"
        },
        {
          "internalType": "uint64",
          "name": "timeStamp",
          "type": "uint64"
        },
        {
          "internalType": "uint64",
          "name": "priceTotal",
          "type": "uint64"
        }
      ],
      "stateMutability": "view",
      "type": "function"
    },
    {
      "inputs": [
        {
          "internalType": "address",
          "name": "",
          "type": "address"
        }
      ],
      "name": "userToTransactionAmount",
      "outputs": [
        {
          "internalType": "uint256",
          "name": "",
          "type": "uint256"
        }
      ],
      "stateMutability": "view",
      "type": "function"
    },
    {
      "inputs": [
        {
          "internalType": "address",
          "name": "",
          "type": "address"
        },
        {
          "internalType": "uint256",
          "name": "",
          "type": "uint256"
        }
      ],
      "name": "userToTransactionId",
      "outputs": [
        {
          "internalType": "bytes32",
          "name": "",
          "type": "bytes32"
        }
      ],
      "stateMutability": "view",
      "type": "function"
    }
  ],
  "bytecode": {
    "object": "0x6080806040523461001657610a94908161001c8239f35b600080fdfe608080604052600436101561001357600080fd5b6000803560e01c918262a04969146100e5575050806306932ca3146100dc57806321cc9129146100d357806329e72e0f146100ca5780633b1cdce0146100c157806345bb6d98146100b857806397011a5c146100af578063a95a02df146100a6578063b5b59a9b1461009d5763bcc0942314610090575b38600080fd5b6100986105ce565b61008a565b5061009861054f565b506100986104ef565b506100986104b0565b50610098610414565b5061009861035c565b50610098610233565b506100986101ea565b50610098610173565b34610119576020366003190112610119576020916040906001600160a01b0361010c61011d565b1681526002845220548152f35b5080fd5b600435906001600160a01b038216820361013357565b600080fd5b6020908160408183019282815285518094520193019160005b82811061015f575050505090565b835185529381019392810192600101610151565b5034610133576000806003193601126101e75733815260206002815260409182812054906101a082610a2c565b92815b8381106101bb578551806101b78782610138565b0390f35b6101e290338452600383528684208185528352868420546101dc8288610956565b5261093a565b6101a3565b80fd5b5034610133576040366003190112610133576001600160a01b0361020c61011d565b16600052600360205260406000206024356000526020526020604060002054604051908152f35b503461013357604036600319011261013357600435600052600060205260406000206024356000526020526020604060002054604051908152f35b602080820190808352835180925260409283810182858560051b840101960194600080935b8685106102a557505050505050505090565b9091929394959697603f1982820301855286895160a09081840163ffffffff825116855260ff84830151168486015287820151928886015282518091528360c0860193019087905b8082106103425750505090610330600194849361031b6060808301519084019067ffffffffffffffff169052565b60809081015167ffffffffffffffff16910152565b9a019501950193969594929190610293565b825185528c959485019490920191600191909101906102ed565b503461013357604080600319360112610133576004356024359160009282845260209084825282852081865282528285205491610398836108c7565b94865b8481106103af578551806101b7898261026e565b61040f9082895260018452868920858a5284526103f46103ef6103de838a8d2090600052602052604060002090565b546000526004602052604060002090565b610980565b6103fe828a610956565b526104098189610956565b5061093a565b61039b565b5034610133576000806003193601126101e75733815260206002815260408083205461043f816108c7565b92845b828110610456578351806101b7878261026e565b61049e90338752600383526104896103ef6103de878a2060011985116104a3575b60018501600052602052604060002090565b6104938288610956565b526104098187610956565b610442565b6104ab610693565b610477565b50346101335760603660031901126101335760206040600060043581526001835281812060243582528352818120604435825283522054604051908152f35b5034610133576020366003190112610133576004356000526004602052608060406000206002815491015460ff6040519263ffffffff8116845260201c16602083015267ffffffffffffffff90818116604084015260401c166060820152f35b5034610133576040806003193601126101335760043560243590600082815260208181528482208383528152848220549261058984610a2c565b94835b8581106105a0578751806101b78982610138565b6105c9908286526001855288862084875285528886208187528552888620546101dc828a610956565b61058c565b50346101335760803660031901126101335767ffffffffffffffff6044358181116101335736602382011215610133578060040135918211610133573660248360051b830101116101335761062f9160246064359201602435600435610737565b005b50634e487b7160e01b600052604160045260246000fd5b60a0810190811067ffffffffffffffff82111761066457604052565b61066c610631565b604052565b90601f8019910116810190811067ffffffffffffffff82111761066457604052565b50634e487b7160e01b600052601160045260246000fd5b9068010000000000000000831161072a575b8154838355808410610701575b506106da9091600052602060002090565b6000915b8383106106eb5750505050565b60016020828293358555019201920191906106de565b6000838152846020822092830192015b82811061071f5750506106c9565b818155600101610711565b610732610631565b6106bc565b9061089e949360029361085160ff61085a9486600052600060205260406000208160005260205261083663ffffffff604060002054986107893360018060a01b03166000526002602052604060002090565b546040805160208101848152918101879052606081018d9052608081018390523360a080830191909152815261081e91906107c560c082610671565b51902091826108096107e1826000526004602052604060002090565b9e6107fa8a6107fa896000526001602052604060002090565b90600052602052604060002090565b553360009081526003602052604090206107fa565b5516889063ffffffff1663ffffffff19825416179055565b865464ff000000001916911660201b64ff0000000016178555565b600184016106aa565b01805467ffffffffffffffff421660409390931b6fffffffffffffffff0000000000000000166fffffffffffffffffffffffffffffffff1990911617919091179055565b565b60209067ffffffffffffffff81116108ba575b60051b0190565b6108c2610631565b6108b3565b906108d1826108a0565b6040906108e082519182610671565b83815280936108f1601f19916108a0565b019160005b8381106109035750505050565b602090825161091181610648565b6000815282600081830152600060608087850152830152600060808301528286010152016108f6565b600190600019811461094a570190565b610952610693565b0190565b805182101561096a5760209160051b010190565b634e487b7160e01b600052603260045260246000fd5b9060405161098d81610648565b8092805463ffffffff8116835260ff602091821c168184015260019081830190604051928382845491828152019360005282600020926000905b828210610a1757505050505061089e9392826109e96080946002940382610671565b6040850152015467ffffffffffffffff80821660608501529060401c1691019067ffffffffffffffff169052565b845486529485019493830193908301906109c7565b90610a36826108a0565b610a436040519182610671565b8281528092610a54601f19916108a0565b019060203691013756fea2646970667358221220e2d850bb1b1a05642408e956b0ee0c60e01b804b3500ef9740c157a915c3686564736f6c634300080d0033",
    "linkReferences": {}
  },
  "methodIdentifiers": {
    "addNewTransaction(uint256,uint256,bytes32[],uint256)": "bcc09423",
    "cinemaToTransactionAmount(uint256,uint256)": "29e72e0f",
    "cinemaToTransactionId(uint256,uint256,uint256)": "97011a5c",
    "getCinemaTransactions(uint256,uint256)": "b5b59a9b",
    "getCinemaTransactionsDetails(uint256,uint256)": "3b1cdce0",
    "getUserTransactionsDetails()": "45bb6d98",
    "getuserTransactions()": "06932ca3",
    "transactionIdToDetails(bytes32)": "a95a02df",
    "userToTransactionAmount(address)": "00a04969",
    "userToTransactionId(address,uint256)": "21cc9129"
  },
  "id": 28
}