{
  "abi": [
    {
      "inputs": [
        {
          "internalType": "uint256",
          "name": "_region",
          "type": "uint256"
        },
        {
          "internalType": "uint256",
          "name": "_cinema",
          "type": "uint256"
        },
        {
          "internalType": "bytes32[]",
          "name": "_ticketIds",
          "type": "bytes32[]"
        },
        {
          "internalType": "uint256",
          "name": "_priceTotal",
          "type": "uint256"
        }
      ],
      "name": "addNewTransaction",
      "outputs": [],
      "stateMutability": "nonpayable",
      "type": "function"
    },
    {
      "inputs": [
        {
          "internalType": "uint256",
          "name": "",
          "type": "uint256"
        },
        {
          "internalType": "uint256",
          "name": "",
          "type": "uint256"
        }
      ],
      "name": "cinemaToTransactionAmount",
      "outputs": [
        {
          "internalType": "uint256",
          "name": "",
          "type": "uint256"
        }
      ],
      "stateMutability": "view",
      "type": "function"
    },
    {
      "inputs": [
        {
          "internalType": "uint256",
          "name": "",
          "type": "uint256"
        },
        {
          "internalType": "uint256",
          "name": "",
          "type": "uint256"
        },
        {
          "internalType": "uint256",
          "name": "",
          "type": "uint256"
        }
      ],
      "name": "cinemaToTransactionId",
      "outputs": [
        {
          "internalType": "bytes32",
          "name": "",
          "type": "bytes32"
        }
      ],
      "stateMutability": "view",
      "type": "function"
    },
    {
      "inputs": [
        {
          "internalType": "uint256",
          "name": "_cinema",
          "type": "uint256"
        },
        {
          "internalType": "uint256",
          "name": "_region",
          "type": "uint256"
        }
      ],
      "name": "getCinemaTransactions",
      "outputs": [
        {
          "internalType": "bytes32[]",
          "name": "transactions",
          "type": "bytes32[]"
        }
      ],
      "stateMutability": "view",
      "type": "function"
    },
    {
      "inputs": [
        {
          "internalType": "uint256",
          "name": "_region",
          "type": "uint256"
        },
        {
          "internalType": "uint256",
          "name": "_cinema",
          "type": "uint256"
        }
      ],
      "name": "getCinemaTransactionsDetails",
      "outputs": [
        {
          "components": [
            {
              "internalType": "uint32",
              "name": "region",
              "type": "uint32"
            },
            {
              "internalType": "uint8",
              "name": "cinema",
              "type": "uint8"
            },
            {
              "internalType": "bytes32[]",
              "name": "ticketIds",
              "type": "bytes32[]"
            },
            {
              "internalType": "uint64",
              "name": "timeStamp",
              "type": "uint64"
            },
            {
              "internalType": "uint64",
              "name": "priceTotal",
              "type": "uint64"
            }
          ],
          "internalType": "struct Transactions.TransactionDetails[]",
          "name": "transactionsDetails",
          "type": "tuple[]"
        }
      ],
      "stateMutability": "view",
      "type": "function"
    },
    {
      "inputs": [],
      "name": "getUserTransactionsDetails",
      "outputs": [
        {
          "components": [
            {
              "internalType": "uint32",
              "name": "region",
              "type": "uint32"
            },
            {
              "internalType": "uint8",
              "name": "cinema",
              "type": "uint8"
            },
            {
              "internalType": "bytes32[]",
              "name": "ticketIds",
              "type": "bytes32[]"
            },
            {
              "internalType": "uint64",
              "name": "timeStamp",
              "type": "uint64"
            },
            {
              "internalType": "uint64",
              "name": "priceTotal",
              "type": "uint64"
            }
          ],
          "internalType": "struct Transactions.TransactionDetails[]",
          "name": "transactionsDetails",
          "type": "tuple[]"
        }
      ],
      "stateMutability": "view",
      "type": "function"
    },
    {
      "inputs": [],
      "name": "getuserTransactions",
      "outputs": [
        {
          "internalType": "bytes32[]",
          "name": "transactions",
          "type": "bytes32[]"
        }
      ],
      "stateMutability": "view",
      "type": "function"
    },
    {
      "inputs": [
        {
          "internalType": "bytes32",
          "name": "",
          "type": "bytes32"
        }
      ],
      "name": "transactionIdToDetails",
      "outputs": [
        {
          "internalType": "uint32",
          "name": "region",
          "type": "uint32"
        },
        {
          "internalType": "uint8",
          "name": "cinema",
          "type": "uint8"
        },
        {
          "internalType": "uint64",
          "name": "timeStamp",
          "type": "uint64"
        },
        {
          "internalType": "uint64",
          "name": "priceTotal",
          "type": "uint64"
        }
      ],
      "stateMutability": "view",
      "type": "function"
    },
    {
      "inputs": [
        {
          "internalType": "address",
          "name": "",
          "type": "address"
        }
      ],
      "name": "userToTransactionAmount",
      "outputs": [
        {
          "internalType": "uint256",
          "name": "",
          "type": "uint256"
        }
      ],
      "stateMutability": "view",
      "type": "function"
    },
    {
      "inputs": [
        {
          "internalType": "address",
          "name": "",
          "type": "address"
        },
        {
          "internalType": "uint256",
          "name": "",
          "type": "uint256"
        }
      ],
      "name": "userToTransactionId",
      "outputs": [
        {
          "internalType": "bytes32",
          "name": "",
          "type": "bytes32"
        }
      ],
      "stateMutability": "view",
      "type": "function"
    }
  ],
  "bytecode": {
    "object": "0x6080806040523461001657610af8908161001c8239f35b600080fdfe608080604052600436101561001357600080fd5b6000803560e01c918262a04969146100e5575050806306932ca3146100dc57806321cc9129146100d357806329e72e0f146100ca5780633b1cdce0146100c157806345bb6d98146100b857806397011a5c146100af578063a95a02df146100a6578063b5b59a9b1461009d5763bcc0942314610090575b38600080fd5b610098610614565b61008a565b50610098610570565b50610098610510565b506100986104d1565b50610098610435565b50610098610376565b5061009861024d565b50610098610204565b50610098610173565b34610119576020366003190112610119576020916040906001600160a01b0361010c61011d565b1681526002845220548152f35b5080fd5b600435906001600160a01b038216820361013357565b600080fd5b6020908160408183019282815285518094520193019160005b82811061015f575050505090565b835185529381019392810192600101610151565b5034610133576000806003193601126102015733815260206002815260409182812054906101a082610a90565b92815b8381106101bb578551806101b78782610138565b0390f35b6101ef903384526003835286842060011982116101f4575b6001820185528352868420546101e982886109ba565b526109aa565b6101a3565b6101fc610677565b6101d3565b80fd5b5034610133576040366003190112610133576001600160a01b0361022661011d565b16600052600360205260406000206024356000526020526020604060002054604051908152f35b503461013357604036600319011261013357600435600052600060205260406000206024356000526020526020604060002054604051908152f35b602080820190808352835180925260409283810182858560051b840101960194600080935b8685106102bf57505050505050505090565b9091929394959697603f1982820301855286895160a09081840163ffffffff825116855260ff84830151168486015287820151928886015282518091528360c0860193019087905b80821061035c575050509061034a60019484936103356060808301519084019067ffffffffffffffff169052565b60809081015167ffffffffffffffff16910152565b9a0195019501939695949291906102ad565b825185528c95948501949092019160019190910190610307565b5034610133576040806003193601126101335760043560243591600092828452602090848252828520818652825282852054916103b283610937565b94865b8481106103c9578551806101b78982610288565b6104309082895260018452868920858a5284526104156104106103ff898c206103f18561068e565b600052602052604060002090565b546000526004602052604060002090565b6109e4565b61041f828a6109ba565b5261042a81896109ba565b506109aa565b6103b5565b5034610133576000806003193601126102015733815260206002815260408083205461046081610937565b92845b828110610477578351806101b78782610288565b6104bf90338752600383526104aa6104106103ff878a2060011985116104c4575b60018501600052602052604060002090565b6104b482886109ba565b5261042a81876109ba565b610463565b6104cc610677565b610498565b50346101335760603660031901126101335760206040600060043581526001835281812060243582528352818120604435825283522054604051908152f35b5034610133576020366003190112610133576004356000526004602052608060406000206002815491015460ff6040519263ffffffff8116845260201c16602083015267ffffffffffffffff90818116604084015260401c166060820152f35b50346101335760408060031936011261013357600435602435906000828152602090808252848120838252825284812054926105ab84610a90565b94825b8581106105c2578751806101b78982610138565b610602908285526105f760018088528a872086885288528a8720906001198411610607575b8301600052602052604060002090565b546101e9828a6109ba565b6105ae565b61060f610677565b6105e7565b50346101335760803660031901126101335767ffffffffffffffff6044358181116101335736602382011215610133578060040135918211610133573660248360051b83010111610133576106759160246064359201602435600435610799565b005b50634e487b7160e01b600052601160045260246000fd5b600190600119811161069e570190565b6106a6610677565b0190565b50634e487b7160e01b600052604160045260246000fd5b60a0810190811067ffffffffffffffff8211176106dd57604052565b6106e56106aa565b604052565b90601f8019910116810190811067ffffffffffffffff8211176106dd57604052565b9068010000000000000000831161078c575b8154838355808410610763575b5061073c9091600052602060002090565b6000915b83831061074d5750505050565b6001602082829335855501920192019190610740565b6000838152846020822092830192015b82811061078157505061072b565b818155600101610773565b6107946106aa565b61071e565b9061090e94936002936108c160ff6108ca948660005260006020526108a663ffffffff6107d483604060002090600052602052604060002090565b543360009081526002602052604090205499906107fa906107f49061068e565b9a61068e565b6040805160208101848152918101879052606081018d9052608081018390523360a080830191909152815261088e919061083560c0826106ea565b5190209182610879610851826000526004602052604060002090565b9e61086a8a61086a896000526001602052604060002090565b90600052602052604060002090565b5533600090815260036020526040902061086a565b5516889063ffffffff1663ffffffff19825416179055565b865464ff000000001916911660201b64ff0000000016178555565b6001840161070c565b01805467ffffffffffffffff421660409390931b6fffffffffffffffff0000000000000000166fffffffffffffffffffffffffffffffff1990911617919091179055565b565b60209067ffffffffffffffff811161092a575b60051b0190565b6109326106aa565b610923565b9061094182610910565b604090610950825191826106ea565b8381528093610961601f1991610910565b019160005b8381106109735750505050565b6020908251610981816106c1565b600081528260008183015260006060808785015283015260006080830152828601015201610966565b600190600019811461069e570190565b80518210156109ce5760209160051b010190565b634e487b7160e01b600052603260045260246000fd5b906040516109f1816106c1565b8092805463ffffffff8116835260ff602091821c168184015260019081830190604051928382845491828152019360005282600020926000905b828210610a7b57505050505061090e939282610a4d60809460029403826106ea565b6040850152015467ffffffffffffffff80821660608501529060401c1691019067ffffffffffffffff169052565b84548652948501949383019390830190610a2b565b90610a9a82610910565b610aa760405191826106ea565b8281528092610ab8601f1991610910565b019060203691013756fea26469706673582212202676011d4352a8c2a216ca0a16fc076a04895137167f9b63cbe8c2e15b74224464736f6c634300080d0033",
    "linkReferences": {}
  },
  "methodIdentifiers": {
    "addNewTransaction(uint256,uint256,bytes32[],uint256)": "bcc09423",
    "cinemaToTransactionAmount(uint256,uint256)": "29e72e0f",
    "cinemaToTransactionId(uint256,uint256,uint256)": "97011a5c",
    "getCinemaTransactions(uint256,uint256)": "b5b59a9b",
    "getCinemaTransactionsDetails(uint256,uint256)": "3b1cdce0",
    "getUserTransactionsDetails()": "45bb6d98",
    "getuserTransactions()": "06932ca3",
    "transactionIdToDetails(bytes32)": "a95a02df",
    "userToTransactionAmount(address)": "00a04969",
    "userToTransactionId(address,uint256)": "21cc9129"
  },
  "id": 24
}